{
  "contractName": "BurnableToken",
  "abi": [
    {
      "constant": true,
      "inputs": [],
      "name": "totalSupply",
      "outputs": [
        {
          "name": "",
          "type": "uint256"
        }
      ],
      "payable": false,
      "stateMutability": "view",
      "type": "function"
    },
    {
      "constant": true,
      "inputs": [
        {
          "name": "_owner",
          "type": "address"
        }
      ],
      "name": "balanceOf",
      "outputs": [
        {
          "name": "balance",
          "type": "uint256"
        }
      ],
      "payable": false,
      "stateMutability": "view",
      "type": "function"
    },
    {
      "constant": false,
      "inputs": [
        {
          "name": "_to",
          "type": "address"
        },
        {
          "name": "_value",
          "type": "uint256"
        }
      ],
      "name": "transfer",
      "outputs": [
        {
          "name": "",
          "type": "bool"
        }
      ],
      "payable": false,
      "stateMutability": "nonpayable",
      "type": "function"
    },
    {
      "anonymous": false,
      "inputs": [
        {
          "indexed": true,
          "name": "burner",
          "type": "address"
        },
        {
          "indexed": false,
          "name": "value",
          "type": "uint256"
        }
      ],
      "name": "Burn",
      "type": "event"
    },
    {
      "anonymous": false,
      "inputs": [
        {
          "indexed": true,
          "name": "from",
          "type": "address"
        },
        {
          "indexed": true,
          "name": "to",
          "type": "address"
        },
        {
          "indexed": false,
          "name": "value",
          "type": "uint256"
        }
      ],
      "name": "Transfer",
      "type": "event"
    },
    {
      "constant": false,
      "inputs": [
        {
          "name": "_value",
          "type": "uint256"
        }
      ],
      "name": "burn",
      "outputs": [],
      "payable": false,
      "stateMutability": "nonpayable",
      "type": "function"
    }
  ],
  "bytecode": "0x608060405234801561001057600080fd5b50610305806100206000396000f3006080604052600436106100615763ffffffff7c010000000000000000000000000000000000000000000000000000000060003504166318160ddd811461006657806342966c681461008d57806370a08231146100a7578063a9059cbb146100c8575b600080fd5b34801561007257600080fd5b5061007b610100565b60408051918252519081900360200190f35b34801561009957600080fd5b506100a5600435610106565b005b3480156100b357600080fd5b5061007b600160a060020a03600435166101b5565b3480156100d457600080fd5b506100ec600160a060020a03600435166024356101d0565b604080519115158252519081900360200190f35b60015490565b3360009081526020819052604081205482111561012257600080fd5b5033600081815260208190526040902054610143908363ffffffff6102b116565b600160a060020a03821660009081526020819052604090205560015461016f908363ffffffff6102b116565b600155604080518381529051600160a060020a038316917fcc16f5dbb4873280815c1ee09dbd06736cffcc184412cf7a71a0fdb75d397ca5919081900360200190a25050565b600160a060020a031660009081526020819052604090205490565b6000600160a060020a03831615156101e757600080fd5b3360009081526020819052604090205482111561020357600080fd5b33600090815260208190526040902054610223908363ffffffff6102b116565b3360009081526020819052604080822092909255600160a060020a03851681522054610255908363ffffffff6102c316565b600160a060020a038416600081815260208181526040918290209390935580518581529051919233927fddf252ad1be2c89b69c2b068fc378daa952ba7f163c4a11628f55a4df523b3ef9281900390910190a350600192915050565b6000828211156102bd57fe5b50900390565b6000828201838110156102d257fe5b93925050505600a165627a7a723058206e86996b88380364c887a27c0152770c82a6adab2043876dce4a15db5eaf4ce10029",
  "source": "pragma solidity ^0.4.18;\n\nimport \"./BasicToken.sol\";\n\n\n/**\n * @title Burnable Token\n * @dev Token that can be irreversibly burned (destroyed).\n */\ncontract BurnableToken is BasicToken {\n\n  event Burn(address indexed burner, uint256 value);\n\n  /**\n   * @dev Burns a specific amount of tokens.\n   * @param _value The amount of token to be burned.\n   */\n  function burn(uint256 _value) public {\n    require(_value <= balances[msg.sender]);\n    // no need to require value <= totalSupply, since that would imply the\n    // sender's balance is greater than the totalSupply, which *should* be an assertion failure\n\n    address burner = msg.sender;\n    balances[burner] = balances[burner].sub(_value);\n    totalSupply_ = totalSupply_.sub(_value);\n    Burn(burner, _value);\n  }\n}\n",
  "sourcePath": "zeppelin-solidity/contracts/token/ERC20/BurnableToken.sol",
  "compiler": {
    "name": "solc",
    "version": "0.4.24+commit.e67f0147.Emscripten.clang"
  },
  "schemaVersion": "2.0.0",
  "updatedAt": "2018-06-06T06:49:50.551Z"
}