{
  "contractName": "ClaimableChildOwnership",
  "abi": [
    {
      "constant": true,
      "inputs": [],
      "name": "owner",
      "outputs": [
        {
          "name": "",
          "type": "address"
        }
      ],
      "payable": false,
      "stateMutability": "view",
      "type": "function"
    },
    {
      "constant": false,
      "inputs": [
        {
          "name": "newOwner",
          "type": "address"
        }
      ],
      "name": "transferOwnership",
      "outputs": [],
      "payable": false,
      "stateMutability": "nonpayable",
      "type": "function"
    },
    {
      "anonymous": false,
      "inputs": [
        {
          "indexed": true,
          "name": "previousOwner",
          "type": "address"
        },
        {
          "indexed": true,
          "name": "newOwner",
          "type": "address"
        }
      ],
      "name": "OwnershipTransferred",
      "type": "event"
    },
    {
      "constant": false,
      "inputs": [
        {
          "name": "_childContract",
          "type": "address"
        }
      ],
      "name": "claimOwnership",
      "outputs": [],
      "payable": false,
      "stateMutability": "nonpayable",
      "type": "function"
    }
  ],
  "bytecode": "0x608060405260008054600160a060020a03191633179055610281806100256000396000f30060806040526004361061003d5763ffffffff60e060020a6000350416638da5cb5b8114610042578063da92d3ae14610073578063f2fde38b14610096575b600080fd5b34801561004e57600080fd5b506100576100b7565b60408051600160a060020a039092168252519081900360200190f35b34801561007f57600080fd5b50610094600160a060020a03600435166100c6565b005b3480156100a257600080fd5b50610094600160a060020a03600435166101ce565b600054600160a060020a031681565b60008054600160a060020a031633146100de57600080fd5b81905030600160a060020a031681600160a060020a0316638da5cb5b6040518163ffffffff1660e060020a028152600401602060405180830381600087803b15801561012957600080fd5b505af115801561013d573d6000803e3d6000fd5b505050506040513d602081101561015357600080fd5b5051600160a060020a03161461016857600080fd5b6040805160e060020a63f2fde38b0281523360048201529051600160a060020a0384169163f2fde38b91602480830192600092919082900301818387803b1580156101b257600080fd5b505af11580156101c6573d6000803e3d6000fd5b505050505050565b600054600160a060020a031633146101e557600080fd5b600160a060020a03811615156101fa57600080fd5b60008054604051600160a060020a03808516939216917f8be0079c531659141344cd1fd0a4f28419497f9722a3daafe3b4186f6b6457e091a360008054600160a060020a031916600160a060020a03929092169190911790555600a165627a7a72305820b32e9024acdfa3a979e0f4b934226e5467a20e276194cb004388a10cf7514dc60029",
  "source": "pragma solidity ^0.4.18;\n\nimport 'zeppelin-solidity/contracts/ownership/Ownable.sol';\n\ncontract ClaimableChildOwnership is Ownable {\n\n  function claimOwnership(address _childContract) \n  public\n  onlyOwner {\n    Ownable child = Ownable(_childContract);\n    require(child.owner() == address(this));\n    Ownable(_childContract).transferOwnership(msg.sender);\n  }\n}",
  "sourcePath": "/Users/novosma/Documents/swprojects/github.com/eth_option/contracts/main/ClaimableChildOwnership.sol",
  "compiler": {
    "name": "solc",
    "version": "0.4.24+commit.e67f0147.Emscripten.clang"
  },
  "schemaVersion": "2.0.0",
  "updatedAt": "2018-09-19T08:28:08.637Z"
}