{
  "contractName": "EBOE",
  "abi": [
    {
      "constant": true,
      "inputs": [],
      "name": "name",
      "outputs": [
        {
          "name": "",
          "type": "string"
        }
      ],
      "payable": false,
      "stateMutability": "view",
      "type": "function"
    },
    {
      "constant": false,
      "inputs": [
        {
          "name": "_spender",
          "type": "address"
        },
        {
          "name": "_value",
          "type": "uint256"
        }
      ],
      "name": "approve",
      "outputs": [
        {
          "name": "",
          "type": "bool"
        }
      ],
      "payable": false,
      "stateMutability": "nonpayable",
      "type": "function"
    },
    {
      "constant": true,
      "inputs": [],
      "name": "totalSupply",
      "outputs": [
        {
          "name": "",
          "type": "uint256"
        }
      ],
      "payable": false,
      "stateMutability": "view",
      "type": "function"
    },
    {
      "constant": false,
      "inputs": [
        {
          "name": "_from",
          "type": "address"
        },
        {
          "name": "_to",
          "type": "address"
        },
        {
          "name": "_value",
          "type": "uint256"
        }
      ],
      "name": "transferFrom",
      "outputs": [
        {
          "name": "",
          "type": "bool"
        }
      ],
      "payable": false,
      "stateMutability": "nonpayable",
      "type": "function"
    },
    {
      "constant": true,
      "inputs": [],
      "name": "INITIAL_SUPPLY",
      "outputs": [
        {
          "name": "",
          "type": "uint256"
        }
      ],
      "payable": false,
      "stateMutability": "view",
      "type": "function"
    },
    {
      "constant": true,
      "inputs": [],
      "name": "decimals",
      "outputs": [
        {
          "name": "",
          "type": "uint8"
        }
      ],
      "payable": false,
      "stateMutability": "view",
      "type": "function"
    },
    {
      "constant": false,
      "inputs": [
        {
          "name": "_spender",
          "type": "address"
        },
        {
          "name": "_subtractedValue",
          "type": "uint256"
        }
      ],
      "name": "decreaseApproval",
      "outputs": [
        {
          "name": "",
          "type": "bool"
        }
      ],
      "payable": false,
      "stateMutability": "nonpayable",
      "type": "function"
    },
    {
      "constant": true,
      "inputs": [
        {
          "name": "_owner",
          "type": "address"
        }
      ],
      "name": "balanceOf",
      "outputs": [
        {
          "name": "balance",
          "type": "uint256"
        }
      ],
      "payable": false,
      "stateMutability": "view",
      "type": "function"
    },
    {
      "constant": true,
      "inputs": [],
      "name": "symbol",
      "outputs": [
        {
          "name": "",
          "type": "string"
        }
      ],
      "payable": false,
      "stateMutability": "view",
      "type": "function"
    },
    {
      "constant": false,
      "inputs": [
        {
          "name": "_to",
          "type": "address"
        },
        {
          "name": "_value",
          "type": "uint256"
        }
      ],
      "name": "transfer",
      "outputs": [
        {
          "name": "",
          "type": "bool"
        }
      ],
      "payable": false,
      "stateMutability": "nonpayable",
      "type": "function"
    },
    {
      "constant": false,
      "inputs": [
        {
          "name": "_spender",
          "type": "address"
        },
        {
          "name": "_addedValue",
          "type": "uint256"
        }
      ],
      "name": "increaseApproval",
      "outputs": [
        {
          "name": "",
          "type": "bool"
        }
      ],
      "payable": false,
      "stateMutability": "nonpayable",
      "type": "function"
    },
    {
      "constant": true,
      "inputs": [
        {
          "name": "_owner",
          "type": "address"
        },
        {
          "name": "_spender",
          "type": "address"
        }
      ],
      "name": "allowance",
      "outputs": [
        {
          "name": "",
          "type": "uint256"
        }
      ],
      "payable": false,
      "stateMutability": "view",
      "type": "function"
    },
    {
      "inputs": [],
      "payable": false,
      "stateMutability": "nonpayable",
      "type": "constructor"
    },
    {
      "anonymous": false,
      "inputs": [
        {
          "indexed": true,
          "name": "owner",
          "type": "address"
        },
        {
          "indexed": true,
          "name": "spender",
          "type": "address"
        },
        {
          "indexed": false,
          "name": "value",
          "type": "uint256"
        }
      ],
      "name": "Approval",
      "type": "event"
    },
    {
      "anonymous": false,
      "inputs": [
        {
          "indexed": true,
          "name": "from",
          "type": "address"
        },
        {
          "indexed": true,
          "name": "to",
          "type": "address"
        },
        {
          "indexed": false,
          "name": "value",
          "type": "uint256"
        }
      ],
      "name": "Transfer",
      "type": "event"
    }
  ],
  "bytecode": "0x608060405234801561001057600080fd5b5069d3c21bcecceda10000006001819055336000908152602081905260409020556107ad806100406000396000f3006080604052600436106100a05763ffffffff60e060020a60003504166306fdde0381146100a5578063095ea7b31461012f57806318160ddd1461016757806323b872dd1461018e5780632ff2e9dc146101b8578063313ce567146101cd57806366188463146101f857806370a082311461021c57806395d89b41146100a5578063a9059cbb1461023d578063d73dd62314610261578063dd62ed3e14610285575b600080fd5b3480156100b157600080fd5b506100ba6102ac565b6040805160208082528351818301528351919283929083019185019080838360005b838110156100f45781810151838201526020016100dc565b50505050905090810190601f1680156101215780820380516001836020036101000a031916815260200191505b509250505060405180910390f35b34801561013b57600080fd5b50610153600160a060020a03600435166024356102cd565b604080519115158252519081900360200190f35b34801561017357600080fd5b5061017c610321565b60408051918252519081900360200190f35b34801561019a57600080fd5b50610153600160a060020a0360043581169060243516604435610327565b3480156101c457600080fd5b5061017c61048c565b3480156101d957600080fd5b506101e261049a565b6040805160ff9092168252519081900360200190f35b34801561020457600080fd5b50610153600160a060020a036004351660243561049f565b34801561022857600080fd5b5061017c600160a060020a036004351661057d565b34801561024957600080fd5b50610153600160a060020a0360043516602435610598565b34801561026d57600080fd5b50610153600160a060020a0360043516602435610667565b34801561029157600080fd5b5061017c600160a060020a03600435811690602435166106ee565b604080518082019091526004815260e060020a6345424f4502602082015281565b336000818152600260209081526040808320600160a060020a03871680855290835281842086905581518681529151939490939092600080516020610762833981519152928290030190a350600192915050565b60015490565b6000600160a060020a038316151561033e57600080fd5b600160a060020a03841660009081526020819052604090205482111561036357600080fd5b600160a060020a038416600090815260026020908152604080832033845290915290205482111561039357600080fd5b600160a060020a0384166000908152602081905260409020546103bc908363ffffffff61071916565b600160a060020a0380861660009081526020819052604080822093909355908516815220546103f1908363ffffffff61072b16565b600160a060020a03808516600090815260208181526040808320949094559187168152600282528281203382529091522054610433908363ffffffff61071916565b600160a060020a0380861660008181526002602090815260408083203384528252918290209490945580518681529051928716939192600080516020610742833981519152929181900390910190a35060019392505050565b69d3c21bcecceda100000081565b601281565b336000908152600260209081526040808320600160a060020a0386168452909152812054808311156104f457336000908152600260209081526040808320600160a060020a0388168452909152812055610529565b610504818463ffffffff61071916565b336000908152600260209081526040808320600160a060020a03891684529091529020555b336000818152600260209081526040808320600160a060020a038916808552908352928190205481519081529051929392600080516020610762833981519152929181900390910190a35060019392505050565b600160a060020a031660009081526020819052604090205490565b6000600160a060020a03831615156105af57600080fd5b336000908152602081905260409020548211156105cb57600080fd5b336000908152602081905260409020546105eb908363ffffffff61071916565b3360009081526020819052604080822092909255600160a060020a0385168152205461061d908363ffffffff61072b16565b600160a060020a038416600081815260208181526040918290209390935580518581529051919233926000805160206107428339815191529281900390910190a350600192915050565b336000908152600260209081526040808320600160a060020a038616845290915281205461069b908363ffffffff61072b16565b336000818152600260209081526040808320600160a060020a038916808552908352928190208590558051948552519193600080516020610762833981519152929081900390910190a350600192915050565b600160a060020a03918216600090815260026020908152604080832093909416825291909152205490565b60008282111561072557fe5b50900390565b60008282018381101561073a57fe5b93925050505600ddf252ad1be2c89b69c2b068fc378daa952ba7f163c4a11628f55a4df523b3ef8c5be1e5ebec7d5bd14f71427d1e84f3dd0314c0f7b2291e5b200ac8c7c3b925a165627a7a723058200254a7524e5507d3b4265885da87011b512be658eac677046d948e10c961ca720029",
  "source": "pragma solidity ^0.4.18;\n\nimport 'zeppelin-solidity/contracts/token/ERC20/StandardToken.sol';\n\ncontract EBOE is StandardToken {\n  string public constant name = \"EBOE\";\n  string public constant symbol = \"EBOE\";\n  uint8 public constant decimals = 18;\n\n  uint256 public constant INITIAL_SUPPLY = 1000000 * (10 ** uint256(decimals));\n\n  function EBOE() public {\n    totalSupply_ = INITIAL_SUPPLY;\n    balances[msg.sender] = INITIAL_SUPPLY;\n  }\n\n}\n",
  "sourcePath": "/Users/novosma/Documents/swprojects/github.com/eth_option/contracts/test/EBOE.sol",
  "compiler": {
    "name": "solc",
    "version": "0.4.24+commit.e67f0147.Emscripten.clang"
  },
  "schemaVersion": "2.0.0",
  "updatedAt": "2018-09-19T09:59:31.564Z"
}