{
  "contractName": "ERC721ReceiverToOwner",
  "abi": [
    {
      "constant": true,
      "inputs": [],
      "name": "owner",
      "outputs": [
        {
          "name": "",
          "type": "address"
        }
      ],
      "payable": false,
      "stateMutability": "view",
      "type": "function"
    },
    {
      "constant": false,
      "inputs": [
        {
          "name": "newOwner",
          "type": "address"
        }
      ],
      "name": "transferOwnership",
      "outputs": [],
      "payable": false,
      "stateMutability": "nonpayable",
      "type": "function"
    },
    {
      "anonymous": false,
      "inputs": [
        {
          "indexed": true,
          "name": "previousOwner",
          "type": "address"
        },
        {
          "indexed": true,
          "name": "newOwner",
          "type": "address"
        }
      ],
      "name": "OwnershipTransferred",
      "type": "event"
    },
    {
      "constant": false,
      "inputs": [
        {
          "name": "tokenAddress",
          "type": "address"
        },
        {
          "name": "eitherQtyOrTokenId",
          "type": "uint256"
        },
        {
          "name": "origin",
          "type": "address"
        }
      ],
      "name": "onReceive",
      "outputs": [],
      "payable": false,
      "stateMutability": "nonpayable",
      "type": "function"
    }
  ],
  "bytecode": "0x608060405260008054600160a060020a031916331790556101f3806100256000396000f30060806040526004361061003d5763ffffffff60e060020a6000350416633092c08c81146100425780638da5cb5b1461006f578063f2fde38b146100a0575b600080fd5b34801561004e57600080fd5b5061006d600160a060020a0360043581169060243590604435166100c1565b005b34801561007b57600080fd5b50610084610131565b60408051600160a060020a039092168252519081900360200190f35b3480156100ac57600080fd5b5061006d600160a060020a0360043516610140565b600080546040805160e060020a63a9059cbb028152600160a060020a0392831660048201526024810186905290519186169263a9059cbb9260448084019382900301818387803b15801561011457600080fd5b505af1158015610128573d6000803e3d6000fd5b50505050505050565b600054600160a060020a031681565b600054600160a060020a0316331461015757600080fd5b600160a060020a038116151561016c57600080fd5b60008054604051600160a060020a03808516939216917f8be0079c531659141344cd1fd0a4f28419497f9722a3daafe3b4186f6b6457e091a360008054600160a060020a031916600160a060020a03929092169190911790555600a165627a7a7230582025e3538fb9f41db96c6cff3ca630c1a427fbe2d9b8b6b2bd1cd7c603644ac9870029",
  "source": "pragma solidity ^0.4.18;\n\nimport './ITokenReceiver.sol';\n\nimport 'zeppelin-solidity/contracts/token/ERC721/ERC721.sol';\n\nimport 'zeppelin-solidity/contracts/ownership/Ownable.sol';\n\ncontract ERC721ReceiverToOwner is ITokenReceiver, Ownable {\n  function onReceive(address tokenAddress, uint eitherQtyOrTokenId, address origin) \n  public {\n    ERC721(tokenAddress).transfer(owner, eitherQtyOrTokenId);\n  }\n}",
  "sourcePath": "/Users/novosma/Documents/swprojects/github.com/eth_option/contracts/main/ERC721ReceiverToOwner.sol",
  "compiler": {
    "name": "solc",
    "version": "0.4.24+commit.e67f0147.Emscripten.clang"
  },
  "schemaVersion": "2.0.0",
  "updatedAt": "2018-09-19T08:28:08.638Z"
}