{
  "contractName": "ERC721Token",
  "abi": [
    {
      "anonymous": false,
      "inputs": [
        {
          "indexed": true,
          "name": "_from",
          "type": "address"
        },
        {
          "indexed": true,
          "name": "_to",
          "type": "address"
        },
        {
          "indexed": false,
          "name": "_tokenId",
          "type": "uint256"
        }
      ],
      "name": "Transfer",
      "type": "event"
    },
    {
      "anonymous": false,
      "inputs": [
        {
          "indexed": true,
          "name": "_owner",
          "type": "address"
        },
        {
          "indexed": true,
          "name": "_approved",
          "type": "address"
        },
        {
          "indexed": false,
          "name": "_tokenId",
          "type": "uint256"
        }
      ],
      "name": "Approval",
      "type": "event"
    },
    {
      "constant": true,
      "inputs": [],
      "name": "totalSupply",
      "outputs": [
        {
          "name": "",
          "type": "uint256"
        }
      ],
      "payable": false,
      "stateMutability": "view",
      "type": "function"
    },
    {
      "constant": true,
      "inputs": [
        {
          "name": "_owner",
          "type": "address"
        }
      ],
      "name": "balanceOf",
      "outputs": [
        {
          "name": "",
          "type": "uint256"
        }
      ],
      "payable": false,
      "stateMutability": "view",
      "type": "function"
    },
    {
      "constant": true,
      "inputs": [
        {
          "name": "_owner",
          "type": "address"
        }
      ],
      "name": "tokensOf",
      "outputs": [
        {
          "name": "",
          "type": "uint256[]"
        }
      ],
      "payable": false,
      "stateMutability": "view",
      "type": "function"
    },
    {
      "constant": true,
      "inputs": [
        {
          "name": "_tokenId",
          "type": "uint256"
        }
      ],
      "name": "ownerOf",
      "outputs": [
        {
          "name": "",
          "type": "address"
        }
      ],
      "payable": false,
      "stateMutability": "view",
      "type": "function"
    },
    {
      "constant": true,
      "inputs": [
        {
          "name": "_tokenId",
          "type": "uint256"
        }
      ],
      "name": "approvedFor",
      "outputs": [
        {
          "name": "",
          "type": "address"
        }
      ],
      "payable": false,
      "stateMutability": "view",
      "type": "function"
    },
    {
      "constant": false,
      "inputs": [
        {
          "name": "_to",
          "type": "address"
        },
        {
          "name": "_tokenId",
          "type": "uint256"
        }
      ],
      "name": "transfer",
      "outputs": [],
      "payable": false,
      "stateMutability": "nonpayable",
      "type": "function"
    },
    {
      "constant": false,
      "inputs": [
        {
          "name": "_to",
          "type": "address"
        },
        {
          "name": "_tokenId",
          "type": "uint256"
        }
      ],
      "name": "approve",
      "outputs": [],
      "payable": false,
      "stateMutability": "nonpayable",
      "type": "function"
    },
    {
      "constant": false,
      "inputs": [
        {
          "name": "_tokenId",
          "type": "uint256"
        }
      ],
      "name": "takeOwnership",
      "outputs": [],
      "payable": false,
      "stateMutability": "nonpayable",
      "type": "function"
    }
  ],
  "bytecode": "0x608060405234801561001057600080fd5b506107fb806100206000396000f3006080604052600436106100745763ffffffff60e060020a600035041663095ea7b3811461007957806318160ddd1461009f5780632a6dd48f146100c65780635a3f2672146100fa5780636352211e1461016b57806370a0823114610183578063a9059cbb146101a4578063b2e6ceeb146101c8575b600080fd5b34801561008557600080fd5b5061009d600160a060020a03600435166024356101e0565b005b3480156100ab57600080fd5b506100b46102a9565b60408051918252519081900360200190f35b3480156100d257600080fd5b506100de6004356102b0565b60408051600160a060020a039092168252519081900360200190f35b34801561010657600080fd5b5061011b600160a060020a03600435166102cb565b60408051602080825283518183015283519192839290830191858101910280838360005b8381101561015757818101518382015260200161013f565b505050509050019250505060405180910390f35b34801561017757600080fd5b506100de600435610337565b34801561018f57600080fd5b506100b4600160a060020a0360043516610361565b3480156101b057600080fd5b5061009d600160a060020a036004351660243561037c565b3480156101d457600080fd5b5061009d6004356103aa565b600081336101ed82610337565b600160a060020a03161461020057600080fd5b61020983610337565b9150600160a060020a03848116908316141561022457600080fd5b61022d836102b0565b600160a060020a031615158061024b5750600160a060020a03841615155b156102a3576000838152600260209081526040918290208054600160a060020a031916600160a060020a03888116918217909255835187815293519093918616926000805160206107b0833981519152928290030190a35b50505050565b6000545b90565b600090815260026020526040902054600160a060020a031690565b600160a060020a03811660009081526003602090815260409182902080548351818402810184019094528084526060939283018282801561032b57602002820191906000526020600020905b815481526020019060010190808311610317575b50505050509050919050565b600081815260016020526040812054600160a060020a031680151561035b57600080fd5b92915050565b600160a060020a031660009081526003602052604090205490565b803361038782610337565b600160a060020a03161461039a57600080fd5b6103a53384846103d5565b505050565b6103b4338261049f565b15156103bf57600080fd5b6103d26103cb82610337565b33836103d5565b50565b600160a060020a03821615156103ea57600080fd5b6103f381610337565b600160a060020a038381169116141561040b57600080fd5b82600160a060020a031661041e82610337565b600160a060020a03161461043157600080fd5b61043b83826104c5565b6104458382610536565b61044f82826106a0565b81600160a060020a031683600160a060020a03167fddf252ad1be2c89b69c2b068fc378daa952ba7f163c4a11628f55a4df523b3ef836040518082815260200191505060405180910390a3505050565b600082600160a060020a03166104b4836102b0565b600160a060020a0316149392505050565b81600160a060020a03166104d882610337565b600160a060020a0316146104eb57600080fd5b60008181526002602090815260408083208054600160a060020a031916905580518481529051600160a060020a038616926000805160206107b0833981519152928290030190a35050565b600080600084600160a060020a031661054e85610337565b600160a060020a03161461056157600080fd5b600084815260046020526040902054925061058c600161058087610361565b9063ffffffff61074a16565b600160a060020a0386166000908152600360205260409020805491935090839081106105b457fe5b60009182526020808320909101548683526001825260408084208054600160a060020a0319169055600160a060020a038916845260039092529120805491925082918590811061060057fe5b6000918252602080832090910192909255600160a060020a038716815260039091526040812080548490811061063257fe5b6000918252602080832090910192909255600160a060020a0387168152600390915260409020805490610669906000198301610772565b5060008481526004602052604080822082905582825281208490555461069690600163ffffffff61074a16565b6000555050505050565b600081815260016020526040812054600160a060020a0316156106c257600080fd5b60008281526001602052604090208054600160a060020a031916600160a060020a0385161790556106f283610361565b600160a060020a038416600090815260036020908152604080832080546001818101835591855283852001879055868452600490925282208390559054919250610742919063ffffffff61075c16565b600055505050565b60008282111561075657fe5b50900390565b60008282018381101561076b57fe5b9392505050565b8154818355818111156103a5576000838152602090206103a59181019083016102ad91905b808211156107ab5760008155600101610797565b509056008c5be1e5ebec7d5bd14f71427d1e84f3dd0314c0f7b2291e5b200ac8c7c3b925a165627a7a7230582032f8de067ed3dac2b11c369e320d879d1f2fc6a8d999b009df8e75154899025e0029",
  "source": "pragma solidity ^0.4.18;\n\nimport \"./ERC721.sol\";\nimport \"../../math/SafeMath.sol\";\n\n/**\n * @title ERC721Token\n * Generic implementation for the required functionality of the ERC721 standard\n */\ncontract ERC721Token is ERC721 {\n  using SafeMath for uint256;\n\n  // Total amount of tokens\n  uint256 private totalTokens;\n\n  // Mapping from token ID to owner\n  mapping (uint256 => address) private tokenOwner;\n\n  // Mapping from token ID to approved address\n  mapping (uint256 => address) private tokenApprovals;\n\n  // Mapping from owner to list of owned token IDs\n  mapping (address => uint256[]) private ownedTokens;\n\n  // Mapping from token ID to index of the owner tokens list\n  mapping(uint256 => uint256) private ownedTokensIndex;\n\n  /**\n  * @dev Guarantees msg.sender is owner of the given token\n  * @param _tokenId uint256 ID of the token to validate its ownership belongs to msg.sender\n  */\n  modifier onlyOwnerOf(uint256 _tokenId) {\n    require(ownerOf(_tokenId) == msg.sender);\n    _;\n  }\n\n  /**\n  * @dev Gets the total amount of tokens stored by the contract\n  * @return uint256 representing the total amount of tokens\n  */\n  function totalSupply() public view returns (uint256) {\n    return totalTokens;\n  }\n\n  /**\n  * @dev Gets the balance of the specified address\n  * @param _owner address to query the balance of\n  * @return uint256 representing the amount owned by the passed address\n  */\n  function balanceOf(address _owner) public view returns (uint256) {\n    return ownedTokens[_owner].length;\n  }\n\n  /**\n  * @dev Gets the list of tokens owned by a given address\n  * @param _owner address to query the tokens of\n  * @return uint256[] representing the list of tokens owned by the passed address\n  */\n  function tokensOf(address _owner) public view returns (uint256[]) {\n    return ownedTokens[_owner];\n  }\n\n  /**\n  * @dev Gets the owner of the specified token ID\n  * @param _tokenId uint256 ID of the token to query the owner of\n  * @return owner address currently marked as the owner of the given token ID\n  */\n  function ownerOf(uint256 _tokenId) public view returns (address) {\n    address owner = tokenOwner[_tokenId];\n    require(owner != address(0));\n    return owner;\n  }\n\n  /**\n   * @dev Gets the approved address to take ownership of a given token ID\n   * @param _tokenId uint256 ID of the token to query the approval of\n   * @return address currently approved to take ownership of the given token ID\n   */\n  function approvedFor(uint256 _tokenId) public view returns (address) {\n    return tokenApprovals[_tokenId];\n  }\n\n  /**\n  * @dev Transfers the ownership of a given token ID to another address\n  * @param _to address to receive the ownership of the given token ID\n  * @param _tokenId uint256 ID of the token to be transferred\n  */\n  function transfer(address _to, uint256 _tokenId) public onlyOwnerOf(_tokenId) {\n    clearApprovalAndTransfer(msg.sender, _to, _tokenId);\n  }\n\n  /**\n  * @dev Approves another address to claim for the ownership of the given token ID\n  * @param _to address to be approved for the given token ID\n  * @param _tokenId uint256 ID of the token to be approved\n  */\n  function approve(address _to, uint256 _tokenId) public onlyOwnerOf(_tokenId) {\n    address owner = ownerOf(_tokenId);\n    require(_to != owner);\n    if (approvedFor(_tokenId) != 0 || _to != 0) {\n      tokenApprovals[_tokenId] = _to;\n      Approval(owner, _to, _tokenId);\n    }\n  }\n\n  /**\n  * @dev Claims the ownership of a given token ID\n  * @param _tokenId uint256 ID of the token being claimed by the msg.sender\n  */\n  function takeOwnership(uint256 _tokenId) public {\n    require(isApprovedFor(msg.sender, _tokenId));\n    clearApprovalAndTransfer(ownerOf(_tokenId), msg.sender, _tokenId);\n  }\n\n  /**\n  * @dev Mint token function\n  * @param _to The address that will own the minted token\n  * @param _tokenId uint256 ID of the token to be minted by the msg.sender\n  */\n  function _mint(address _to, uint256 _tokenId) internal {\n    require(_to != address(0));\n    addToken(_to, _tokenId);\n    Transfer(0x0, _to, _tokenId);\n  }\n\n  /**\n  * @dev Burns a specific token\n  * @param _tokenId uint256 ID of the token being burned by the msg.sender\n  */\n  function _burn(uint256 _tokenId) onlyOwnerOf(_tokenId) internal {\n    if (approvedFor(_tokenId) != 0) {\n      clearApproval(msg.sender, _tokenId);\n    }\n    removeToken(msg.sender, _tokenId);\n    Transfer(msg.sender, 0x0, _tokenId);\n  }\n\n  /**\n   * @dev Tells whether the msg.sender is approved for the given token ID or not\n   * This function is not private so it can be extended in further implementations like the operatable ERC721\n   * @param _owner address of the owner to query the approval of\n   * @param _tokenId uint256 ID of the token to query the approval of\n   * @return bool whether the msg.sender is approved for the given token ID or not\n   */\n  function isApprovedFor(address _owner, uint256 _tokenId) internal view returns (bool) {\n    return approvedFor(_tokenId) == _owner;\n  }\n\n  /**\n  * @dev Internal function to clear current approval and transfer the ownership of a given token ID\n  * @param _from address which you want to send tokens from\n  * @param _to address which you want to transfer the token to\n  * @param _tokenId uint256 ID of the token to be transferred\n  */\n  function clearApprovalAndTransfer(address _from, address _to, uint256 _tokenId) internal {\n    require(_to != address(0));\n    require(_to != ownerOf(_tokenId));\n    require(ownerOf(_tokenId) == _from);\n\n    clearApproval(_from, _tokenId);\n    removeToken(_from, _tokenId);\n    addToken(_to, _tokenId);\n    Transfer(_from, _to, _tokenId);\n  }\n\n  /**\n  * @dev Internal function to clear current approval of a given token ID\n  * @param _tokenId uint256 ID of the token to be transferred\n  */\n  function clearApproval(address _owner, uint256 _tokenId) private {\n    require(ownerOf(_tokenId) == _owner);\n    tokenApprovals[_tokenId] = 0;\n    Approval(_owner, 0, _tokenId);\n  }\n\n  /**\n  * @dev Internal function to add a token ID to the list of a given address\n  * @param _to address representing the new owner of the given token ID\n  * @param _tokenId uint256 ID of the token to be added to the tokens list of the given address\n  */\n  function addToken(address _to, uint256 _tokenId) private {\n    require(tokenOwner[_tokenId] == address(0));\n    tokenOwner[_tokenId] = _to;\n    uint256 length = balanceOf(_to);\n    ownedTokens[_to].push(_tokenId);\n    ownedTokensIndex[_tokenId] = length;\n    totalTokens = totalTokens.add(1);\n  }\n\n  /**\n  * @dev Internal function to remove a token ID from the list of a given address\n  * @param _from address representing the previous owner of the given token ID\n  * @param _tokenId uint256 ID of the token to be removed from the tokens list of the given address\n  */\n  function removeToken(address _from, uint256 _tokenId) private {\n    require(ownerOf(_tokenId) == _from);\n\n    uint256 tokenIndex = ownedTokensIndex[_tokenId];\n    uint256 lastTokenIndex = balanceOf(_from).sub(1);\n    uint256 lastToken = ownedTokens[_from][lastTokenIndex];\n\n    tokenOwner[_tokenId] = 0;\n    ownedTokens[_from][tokenIndex] = lastToken;\n    ownedTokens[_from][lastTokenIndex] = 0;\n    // Note that this will handle single-element arrays. In that case, both tokenIndex and lastTokenIndex are going to\n    // be zero. Then we can make sure that we will remove _tokenId from the ownedTokens list since we are first swapping\n    // the lastToken to the first position, and then dropping the element placed in the last position of the list\n\n    ownedTokens[_from].length--;\n    ownedTokensIndex[_tokenId] = 0;\n    ownedTokensIndex[lastToken] = tokenIndex;\n    totalTokens = totalTokens.sub(1);\n  }\n}\n",
  "sourcePath": "zeppelin-solidity/contracts/token/ERC721/ERC721Token.sol",
  "compiler": {
    "name": "solc",
    "version": "0.4.24+commit.e67f0147.Emscripten.clang"
  },
  "schemaVersion": "2.0.0",
  "updatedAt": "2018-09-19T09:59:31.572Z"
}