{
  "contractName": "ExchangeAdapterOasisImpl",
  "abi": [
    {
      "inputs": [
        {
          "name": "_oasisExchange",
          "type": "address"
        }
      ],
      "payable": false,
      "stateMutability": "nonpayable",
      "type": "constructor"
    },
    {
      "constant": false,
      "inputs": [
        {
          "name": "_tokenToSell",
          "type": "address"
        },
        {
          "name": "_sellAmount",
          "type": "uint256"
        },
        {
          "name": "_tokenToGet",
          "type": "address"
        },
        {
          "name": "_minLimitAmountTokenToBuy",
          "type": "uint256"
        },
        {
          "name": "_feeSponsor",
          "type": "address"
        }
      ],
      "name": "sell",
      "outputs": [],
      "payable": false,
      "stateMutability": "nonpayable",
      "type": "function"
    },
    {
      "constant": true,
      "inputs": [
        {
          "name": "tokenToSell",
          "type": "address"
        },
        {
          "name": "sellAmount",
          "type": "uint256"
        },
        {
          "name": "tokenToGet",
          "type": "address"
        }
      ],
      "name": "getAmountToGet",
      "outputs": [
        {
          "name": "",
          "type": "uint256"
        }
      ],
      "payable": false,
      "stateMutability": "view",
      "type": "function"
    }
  ],
  "bytecode": "0x60806040526000805460ff1916905534801561001a57600080fd5b50604051602080610494833981016040525160008054600160a060020a039092166101000261010060a860020a0319909216919091179055610433806100616000396000f3006080604052600436106100325763ffffffff60e060020a6000350416636014d24c8114610037578063f9cf7c2114610074575b600080fd5b34801561004357600080fd5b50610062600160a060020a0360043581169060243590604435166100ab565b60408051918252519081900360200190f35b34801561008057600080fd5b506100a9600160a060020a03600435811690602435906044358116906064359060843516610146565b005b600080546040805160e160020a630a2513a9028152600160a060020a03858116600483015287811660248301526044820187905291516101009093049091169163144a27529160648082019260209290919082900301818787803b15801561011257600080fd5b505af1158015610126573d6000803e3d6000fd5b505050506040513d602081101561013c57600080fd5b5051949350505050565b6000805460ff161561015757600080fd5b6000805460ff1916600117905561017f600160a060020a03871633308863ffffffff6102d316565b600080546040805160e060020a63095ea7b3028152600160a060020a03610100909304831660048201526024810189905290519189169263095ea7b3926044808401936020939083900390910190829087803b1580156101de57600080fd5b505af11580156101f2573d6000803e3d6000fd5b505050506040513d602081101561020857600080fd5b5050600080546040805160e160020a630310da7b028152600160a060020a038a81166004830152602482018a9052888116604483015260648201889052915161010090930490911692630621b4f6926084808401936020939083900390910190829087803b15801561027957600080fd5b505af115801561028d573d6000803e3d6000fd5b505050506040513d60208110156102a357600080fd5b505190506102c1600160a060020a038516338363ffffffff61036b16565b50506000805460ff1916905550505050565b6040805160e060020a6323b872dd028152600160a060020a0385811660048301528481166024830152604482018490529151918616916323b872dd916064808201926020929091908290030181600087803b15801561033157600080fd5b505af1158015610345573d6000803e3d6000fd5b505050506040513d602081101561035b57600080fd5b5051151561036557fe5b50505050565b82600160a060020a031663a9059cbb83836040518363ffffffff1660e060020a0281526004018083600160a060020a0316600160a060020a0316815260200182815260200192505050602060405180830381600087803b1580156103ce57600080fd5b505af11580156103e2573d6000803e3d6000fd5b505050506040513d60208110156103f857600080fd5b5051151561040257fe5b5050505600a165627a7a7230582001976bfe2739ec1ae6905def08d779448d917822015b58b4c520a2df810bfdd30029",
  "source": "pragma solidity ^0.4.18;\n\nimport './IExchangeAdapter.sol';\nimport './IOasisExchangeProxy.sol';\n\nimport 'zeppelin-solidity/contracts/token/ERC20/ERC20.sol';\nimport 'zeppelin-solidity/contracts/token/ERC20/SafeERC20.sol';\n\n\ncontract ExchangeAdapterOasisImpl is IExchangeAdapter {\n\n  using SafeERC20 for ERC20;\n\n  IOasisExchangeProxy private oasisExchange;\n\n  function ExchangeAdapterOasisImpl(address _oasisExchange) {\n      oasisExchange = IOasisExchangeProxy(_oasisExchange);\n  }\n\n  function sell(address _tokenToSell, uint _sellAmount, address _tokenToGet,\n      uint _minLimitAmountTokenToBuy, address _feeSponsor)\n      external\n      nonReentrant {\n        ERC20(_tokenToSell).safeTransferFrom(msg.sender, this, _sellAmount);\n        ERC20(_tokenToSell).approve(address(oasisExchange), _sellAmount);\n        uint amountToGive = oasisExchange.sellAllAmount(_tokenToSell, _sellAmount, _tokenToGet,\n             _minLimitAmountTokenToBuy);\n        ERC20(_tokenToGet).safeTransfer(msg.sender, amountToGive);\n  }\n\n  function getAmountToGet(address tokenToSell, uint sellAmount,\n    address tokenToGet)\n    public\n    view\n    returns(uint) {\n      return oasisExchange.getBuyAmount(tokenToGet, tokenToSell, sellAmount);\n  }\n\n\n}\n",
  "sourcePath": "/Users/novosma/Documents/swprojects/github.com/eth_option/contracts/main/ExchangeAdapterOasisImpl.sol",
  "compiler": {
    "name": "solc",
    "version": "0.4.24+commit.e67f0147.Emscripten.clang"
  },
  "schemaVersion": "2.0.0",
  "updatedAt": "2018-09-19T08:29:01.726Z"
}