{
  "contractName": "ExchangeAdapterOasisImpl",
  "abi": [
    {
      "inputs": [
        {
          "name": "_oasisExchange",
          "type": "address"
        }
      ],
      "payable": false,
      "stateMutability": "nonpayable",
      "type": "constructor"
    },
    {
      "constant": false,
      "inputs": [
        {
          "name": "_tokenToSell",
          "type": "address"
        },
        {
          "name": "_sellAmount",
          "type": "uint256"
        },
        {
          "name": "_tokenToGet",
          "type": "address"
        },
        {
          "name": "_minLimitAmountTokenToBuy",
          "type": "uint256"
        },
        {
          "name": "_feeSponsor",
          "type": "address"
        }
      ],
      "name": "sell",
      "outputs": [],
      "payable": false,
      "stateMutability": "nonpayable",
      "type": "function"
    },
    {
      "constant": true,
      "inputs": [
        {
          "name": "tokenToSell",
          "type": "address"
        },
        {
          "name": "sellAmount",
          "type": "uint256"
        },
        {
          "name": "tokenToGet",
          "type": "address"
        }
      ],
      "name": "getAmountToGet",
      "outputs": [
        {
          "name": "",
          "type": "uint256"
        }
      ],
      "payable": false,
      "stateMutability": "view",
      "type": "function"
    }
  ],
  "bytecode": "0x60806040526000805460ff1916905534801561001a57600080fd5b50604051602080610648833981016040525160008054600160a060020a039092166101000261010060a860020a03199092169190911790556105e7806100616000396000f3006080604052600436106100325763ffffffff60e060020a6000350416636014d24c8114610037578063f9cf7c2114610074575b600080fd5b34801561004357600080fd5b50610062600160a060020a0360043581169060243590604435166100ab565b60408051918252519081900360200190f35b34801561008057600080fd5b506100a9600160a060020a03600435811690602435906044358116906064359060843516610146565b005b600080546040805160e160020a630a2513a9028152600160a060020a03858116600483015287811660248301526044820187905291516101009093049091169163144a27529160648082019260209290919082900301818787803b15801561011257600080fd5b505af1158015610126573d6000803e3d6000fd5b505050506040513d602081101561013c57600080fd5b5051949350505050565b600080548190819060ff161561015b57600080fd5b6000805460ff19166001179055610183600160a060020a03891633308a63ffffffff61047516565b600080546040805160e060020a63095ea7b3028152600160a060020a0361010090930483166004820152602481018b90529051918b169263095ea7b3926044808401936020939083900390910190829087803b1580156101e257600080fd5b505af11580156101f6573d6000803e3d6000fd5b505050506040513d602081101561020c57600080fd5b50506040805160e060020a6370a082310281523060048201529051600160a060020a038816916370a082319160248083019260209291908290030181600087803b15801561025957600080fd5b505af115801561026d573d6000803e3d6000fd5b505050506040513d602081101561028357600080fd5b5051600080546040805160e160020a630310da7b028152600160a060020a038d81166004830152602482018d90528b81166044830152606482018d905291519497506101009092041692630621b4f692608480840193602093929083900390910190829087803b1580156102f657600080fd5b505af115801561030a573d6000803e3d6000fd5b505050506040513d602081101561032057600080fd5b50516040805160e060020a6370a082310281523060048201529051919350600160a060020a038816916370a08231916024808201926020929091908290030181600087803b15801561037157600080fd5b505af1158015610385573d6000803e3d6000fd5b505050506040513d602081101561039b57600080fd5b50519050846103b0828563ffffffff61050d16565b10156103bb57600080fd5b600080546040805160e060020a63095ea7b3028152600160a060020a0361010090930483166004820152602481018490529051918b169263095ea7b3926044808401936020939083900390910190829087803b15801561041a57600080fd5b505af115801561042e573d6000803e3d6000fd5b505050506040513d602081101561044457600080fd5b506104619050600160a060020a038716338463ffffffff61051f16565b50506000805460ff19169055505050505050565b6040805160e060020a6323b872dd028152600160a060020a0385811660048301528481166024830152604482018490529151918616916323b872dd916064808201926020929091908290030181600087803b1580156104d357600080fd5b505af11580156104e7573d6000803e3d6000fd5b505050506040513d60208110156104fd57600080fd5b5051151561050757fe5b50505050565b60008282111561051957fe5b50900390565b82600160a060020a031663a9059cbb83836040518363ffffffff1660e060020a0281526004018083600160a060020a0316600160a060020a0316815260200182815260200192505050602060405180830381600087803b15801561058257600080fd5b505af1158015610596573d6000803e3d6000fd5b505050506040513d60208110156105ac57600080fd5b505115156105b657fe5b5050505600a165627a7a72305820b540dfcfb324784a7e21137765aa942de7fd31255e640b5ee8b91a9a5793475a0029",
  "source": "pragma solidity ^0.4.18;\n\nimport './IExchangeAdapter.sol';\nimport './IOasisExchangeProxy.sol';\n\nimport 'zeppelin-solidity/contracts/token/ERC20/ERC20.sol';\nimport 'zeppelin-solidity/contracts/token/ERC20/SafeERC20.sol';\nimport 'zeppelin-solidity/contracts/math/SafeMath.sol';\n\n\ncontract ExchangeAdapterOasisImpl is IExchangeAdapter {\n\n  using SafeERC20 for ERC20;\n  using SafeMath for uint;\n\n  IOasisExchangeProxy private oasisExchange;\n\n  function ExchangeAdapterOasisImpl(address _oasisExchange) {\n      oasisExchange = IOasisExchangeProxy(_oasisExchange);\n  }\n\n  function sell(address _tokenToSell, uint _sellAmount, address _tokenToGet,\n      uint _minLimitAmountTokenToBuy, address _feeSponsor)\n      external\n      nonReentrant {\n        ERC20(_tokenToSell).safeTransferFrom(msg.sender, this, _sellAmount);\n        ERC20(_tokenToSell).approve(address(oasisExchange), _sellAmount);\n        uint startBalance = ERC20(_tokenToGet).balanceOf(this);\n        uint amountToGive = oasisExchange.sellAllAmount(_tokenToSell, _sellAmount, _tokenToGet,\n             _sellAmount);\n        uint endBalance = ERC20(_tokenToGet).balanceOf(this);\n        require(endBalance.sub(startBalance) >= _minLimitAmountTokenToBuy);\n        ERC20(_tokenToSell).approve(address(oasisExchange), 0);\n        ERC20(_tokenToGet).safeTransfer(msg.sender, amountToGive);\n  }\n\n  function getAmountToGet(address tokenToSell, uint sellAmount,\n    address tokenToGet)\n    public\n    view\n    returns(uint) {\n      return oasisExchange.getBuyAmount(tokenToGet, tokenToSell, sellAmount);\n  }\n\n\n}\n",
  "sourcePath": "/Users/novosma/Documents/swprojects/github.com/eth_option/contracts/main/ExchangeAdapterOasisImpl.sol",
  "compiler": {
    "name": "solc",
    "version": "0.4.24+commit.e67f0147.Emscripten.clang"
  },
  "schemaVersion": "2.0.0",
  "updatedAt": "2018-09-19T10:00:12.543Z"
}