{
  "contractName": "MockOasisDirect",
  "abi": [
    {
      "constant": false,
      "inputs": [
        {
          "name": "_pay_gem",
          "type": "address"
        },
        {
          "name": "_pay_amt",
          "type": "uint256"
        },
        {
          "name": "_buy_gem",
          "type": "address"
        },
        {
          "name": "_min_fill_amount",
          "type": "uint256"
        }
      ],
      "name": "sellAllAmount",
      "outputs": [
        {
          "name": "",
          "type": "uint256"
        }
      ],
      "payable": false,
      "stateMutability": "nonpayable",
      "type": "function"
    },
    {
      "constant": true,
      "inputs": [
        {
          "name": "_buy_gem",
          "type": "address"
        },
        {
          "name": "_pay_gem",
          "type": "address"
        },
        {
          "name": "_pay_amt",
          "type": "uint256"
        }
      ],
      "name": "getBuyAmount",
      "outputs": [
        {
          "name": "fill_amt",
          "type": "uint256"
        }
      ],
      "payable": false,
      "stateMutability": "view",
      "type": "function"
    }
  ],
  "bytecode": "0x6080604052606e60005534801561001557600080fd5b506102e4806100256000396000f3006080604052600436106100325763ffffffff60e060020a6000350416630621b4f68114610037578063144a275214610077575b600080fd5b34801561004357600080fd5b50610065600160a060020a0360043581169060243590604435166064356100a1565b60408051918252519081900360200190f35b34801561008357600080fd5b50610065600160a060020a036004358116906024351660443561017a565b6000806100af84878761017a565b6040805160e160020a636eb1769f02815233600482015230602482015290519192508691600160a060020a0389169163dd62ed3e9160448083019260209291908290030181600087803b15801561010557600080fd5b505af1158015610119573d6000803e3d6000fd5b505050506040513d602081101561012f57600080fd5b5051101561013c57600080fd5b610157600160a060020a03871633308863ffffffff61018416565b610171600160a060020a038516338363ffffffff61021c16565b95945050505050565b6000540292915050565b6040805160e060020a6323b872dd028152600160a060020a0385811660048301528481166024830152604482018490529151918616916323b872dd916064808201926020929091908290030181600087803b1580156101e257600080fd5b505af11580156101f6573d6000803e3d6000fd5b505050506040513d602081101561020c57600080fd5b5051151561021657fe5b50505050565b82600160a060020a031663a9059cbb83836040518363ffffffff1660e060020a0281526004018083600160a060020a0316600160a060020a0316815260200182815260200192505050602060405180830381600087803b15801561027f57600080fd5b505af1158015610293573d6000803e3d6000fd5b505050506040513d60208110156102a957600080fd5b505115156102b357fe5b5050505600a165627a7a72305820f793abc1d4c83649ca618976bb019c5e255ed691852d0dd94b722156ce8c837f0029",
  "source": "pragma solidity ^0.4.18;\n\nimport 'zeppelin-solidity/contracts/math/SafeMath.sol';\nimport 'zeppelin-solidity/contracts/token/ERC20/ERC20.sol';\nimport 'zeppelin-solidity/contracts/token/ERC20/SafeERC20.sol';\n\ncontract MockOasisDirect {\n\n  using SafeERC20 for ERC20;\n\n  uint exRate = 110;\n\n  function sellAllAmount(address _pay_gem, uint _pay_amt, address _buy_gem,\n    uint _min_fill_amount)\n    public\n    returns (uint) {\n      uint amountToGive = getBuyAmount(_buy_gem, _pay_gem,\n        _pay_amt);\n\n      require( ERC20(_pay_gem).allowance(msg.sender, this) >= _pay_amt);\n      ERC20(_pay_gem).safeTransferFrom(msg.sender, this, _pay_amt);\n      ERC20(_buy_gem).safeTransfer(msg.sender, amountToGive);\n      return amountToGive;\n    }\n  function getBuyAmount(address _buy_gem, address _pay_gem, uint _pay_amt)\n    public\n    constant\n    returns (uint fill_amt) {\n      return _pay_amt * exRate;\n    }\n}\n",
  "sourcePath": "/Users/novosma/Documents/swprojects/github.com/eth_option/contracts/test/MockOasisDirect.sol",
  "compiler": {
    "name": "solc",
    "version": "0.4.24+commit.e67f0147.Emscripten.clang"
  },
  "schemaVersion": "2.0.0",
  "updatedAt": "2018-09-19T09:11:12.686Z"
}