{
  "contractName": "MockOptionPair",
  "abi": [
    {
      "constant": true,
      "inputs": [],
      "name": "tokenOption",
      "outputs": [
        {
          "name": "",
          "type": "address"
        }
      ],
      "payable": false,
      "stateMutability": "view",
      "type": "function"
    },
    {
      "constant": true,
      "inputs": [],
      "name": "tokenAntiOption",
      "outputs": [
        {
          "name": "",
          "type": "address"
        }
      ],
      "payable": false,
      "stateMutability": "view",
      "type": "function"
    },
    {
      "constant": false,
      "inputs": [
        {
          "name": "_qty",
          "type": "uint256"
        }
      ],
      "name": "withdraw",
      "outputs": [
        {
          "name": "",
          "type": "bool"
        }
      ],
      "payable": false,
      "stateMutability": "nonpayable",
      "type": "function"
    },
    {
      "constant": true,
      "inputs": [],
      "name": "expireTime",
      "outputs": [
        {
          "name": "",
          "type": "uint256"
        }
      ],
      "payable": false,
      "stateMutability": "view",
      "type": "function"
    },
    {
      "constant": true,
      "inputs": [],
      "name": "decimals",
      "outputs": [
        {
          "name": "",
          "type": "uint8"
        }
      ],
      "payable": false,
      "stateMutability": "view",
      "type": "function"
    },
    {
      "constant": true,
      "inputs": [],
      "name": "getTotalOpenInterest",
      "outputs": [
        {
          "name": "res",
          "type": "uint256"
        }
      ],
      "payable": false,
      "stateMutability": "view",
      "type": "function"
    },
    {
      "constant": true,
      "inputs": [],
      "name": "underlyingQty",
      "outputs": [
        {
          "name": "",
          "type": "uint256"
        }
      ],
      "payable": false,
      "stateMutability": "view",
      "type": "function"
    },
    {
      "constant": false,
      "inputs": [
        {
          "name": "_qty",
          "type": "uint256"
        }
      ],
      "name": "annihilate",
      "outputs": [
        {
          "name": "",
          "type": "bool"
        }
      ],
      "payable": false,
      "stateMutability": "nonpayable",
      "type": "function"
    },
    {
      "constant": true,
      "inputs": [],
      "name": "underlying",
      "outputs": [
        {
          "name": "",
          "type": "address"
        }
      ],
      "payable": false,
      "stateMutability": "view",
      "type": "function"
    },
    {
      "constant": true,
      "inputs": [
        {
          "name": "holder",
          "type": "address"
        }
      ],
      "name": "getAvailableUnderlying",
      "outputs": [
        {
          "name": "",
          "type": "uint256"
        }
      ],
      "payable": false,
      "stateMutability": "view",
      "type": "function"
    },
    {
      "constant": false,
      "inputs": [],
      "name": "withdrawAll",
      "outputs": [
        {
          "name": "",
          "type": "bool"
        }
      ],
      "payable": false,
      "stateMutability": "nonpayable",
      "type": "function"
    },
    {
      "constant": true,
      "inputs": [],
      "name": "owner",
      "outputs": [
        {
          "name": "",
          "type": "address"
        }
      ],
      "payable": false,
      "stateMutability": "view",
      "type": "function"
    },
    {
      "constant": false,
      "inputs": [],
      "name": "annihilateAllAvailable",
      "outputs": [
        {
          "name": "",
          "type": "bool"
        }
      ],
      "payable": false,
      "stateMutability": "nonpayable",
      "type": "function"
    },
    {
      "constant": true,
      "inputs": [],
      "name": "strike",
      "outputs": [
        {
          "name": "",
          "type": "uint256"
        }
      ],
      "payable": false,
      "stateMutability": "view",
      "type": "function"
    },
    {
      "constant": true,
      "inputs": [],
      "name": "feeCalculator",
      "outputs": [
        {
          "name": "",
          "type": "address"
        }
      ],
      "payable": false,
      "stateMutability": "view",
      "type": "function"
    },
    {
      "constant": true,
      "inputs": [],
      "name": "basisToken",
      "outputs": [
        {
          "name": "",
          "type": "address"
        }
      ],
      "payable": false,
      "stateMutability": "view",
      "type": "function"
    },
    {
      "constant": false,
      "inputs": [
        {
          "name": "_qty",
          "type": "uint256"
        }
      ],
      "name": "writeOptions",
      "outputs": [
        {
          "name": "",
          "type": "bool"
        }
      ],
      "payable": false,
      "stateMutability": "nonpayable",
      "type": "function"
    },
    {
      "constant": false,
      "inputs": [
        {
          "name": "_qty",
          "type": "uint256"
        },
        {
          "name": "_writer",
          "type": "address"
        },
        {
          "name": "_feeFromWriter",
          "type": "bool"
        }
      ],
      "name": "writeOptionsFor",
      "outputs": [
        {
          "name": "",
          "type": "bool"
        }
      ],
      "payable": false,
      "stateMutability": "nonpayable",
      "type": "function"
    },
    {
      "constant": false,
      "inputs": [
        {
          "name": "_buyer",
          "type": "address"
        },
        {
          "name": "_qty",
          "type": "uint256"
        }
      ],
      "name": "executeFor",
      "outputs": [
        {
          "name": "",
          "type": "bool"
        }
      ],
      "payable": false,
      "stateMutability": "nonpayable",
      "type": "function"
    },
    {
      "constant": false,
      "inputs": [
        {
          "name": "newOwner",
          "type": "address"
        }
      ],
      "name": "transferOwnership",
      "outputs": [],
      "payable": false,
      "stateMutability": "nonpayable",
      "type": "function"
    },
    {
      "constant": false,
      "inputs": [
        {
          "name": "_qty",
          "type": "uint256"
        }
      ],
      "name": "execute",
      "outputs": [
        {
          "name": "",
          "type": "bool"
        }
      ],
      "payable": false,
      "stateMutability": "nonpayable",
      "type": "function"
    },
    {
      "constant": true,
      "inputs": [],
      "name": "getTotalExecuted",
      "outputs": [
        {
          "name": "res",
          "type": "uint256"
        }
      ],
      "payable": false,
      "stateMutability": "view",
      "type": "function"
    },
    {
      "inputs": [
        {
          "name": "_underlying",
          "type": "address"
        },
        {
          "name": "_basisToken",
          "type": "address"
        },
        {
          "name": "_strike",
          "type": "uint256"
        },
        {
          "name": "_underlyingQty",
          "type": "uint256"
        },
        {
          "name": "_expireTime",
          "type": "uint256"
        },
        {
          "name": "_feeCalculator",
          "type": "address"
        }
      ],
      "payable": false,
      "stateMutability": "nonpayable",
      "type": "constructor"
    },
    {
      "payable": true,
      "stateMutability": "payable",
      "type": "fallback"
    },
    {
      "anonymous": false,
      "inputs": [
        {
          "indexed": true,
          "name": "previousOwner",
          "type": "address"
        },
        {
          "indexed": true,
          "name": "newOwner",
          "type": "address"
        }
      ],
      "name": "OwnershipTransferred",
      "type": "event"
    },
    {
      "constant": true,
      "inputs": [],
      "name": "getCurrentTime",
      "outputs": [
        {
          "name": "",
          "type": "uint256"
        }
      ],
      "payable": false,
      "stateMutability": "view",
      "type": "function"
    },
    {
      "constant": false,
      "inputs": [
        {
          "name": "_mockTime",
          "type": "uint256"
        }
      ],
      "name": "updateMockTime",
      "outputs": [
        {
          "name": "",
          "type": "bool"
        }
      ],
      "payable": false,
      "stateMutability": "nonpayable",
      "type": "function"
    }
  ],
  "bytecode": "0x60806040526000805460a060020a61ffff0219168155600a553480156200002557600080fd5b5060405160c0806200317d83398101604090815281516020830151918301516060840151608085015160a0909501516000805433600160a060020a031991821617909155600180548216600160a060020a03808816919091179091556002805483168289161790556003859055600484905560058890556006805490921690831617905592949192909190858585858585620000c062000159565b604051809103906000f080158015620000dd573d6000803e3d6000fd5b5060078054600160a060020a031916600160a060020a0392909216919091179055620001086200016a565b604051809103906000f08015801562000125573d6000803e3d6000fd5b5060088054600160a060020a031916600160a060020a0392909216919091179055506200017b9a5050505050505050505050565b604051610b9b8062001a4783390190565b604051610b9b80620025e283390190565b6118bc806200018b6000396000f3006080604052600436106101245763ffffffff60e060020a600035041663138d99ec811461012957806313b91a041461015a57806329cb924d1461016f5780632e1a7d4d14610196578063310a1ee3146101c2578063313ce567146101d7578063328c616d146102025780633ed2517c14610217578063539348281461022c5780636dd7a166146102445780636f307dc31461025c57806373fde90b14610271578063853828b6146102925780638da5cb5b146102a75780639c2c2915146102bc578063ad8f5008146102d1578063b00eb9fe146102e6578063ba405a0c146102fb578063bd17350514610310578063d80ebbfc14610328578063eface2c214610351578063f2fde38b14610375578063fe0d94c114610398578063ff2c2caf146103b0575b600080fd5b34801561013557600080fd5b5061013e6103c5565b60408051600160a060020a039092168252519081900360200190f35b34801561016657600080fd5b5061013e6103d4565b34801561017b57600080fd5b506101846103e3565b60408051918252519081900360200190f35b3480156101a257600080fd5b506101ae6004356103fe565b604080519115158252519081900360200190f35b3480156101ce57600080fd5b50610184610462565b3480156101e357600080fd5b506101ec610468565b6040805160ff9092168252519081900360200190f35b34801561020e57600080fd5b5061018461048a565b34801561022357600080fd5b5061018461051a565b34801561023857600080fd5b506101ae600435610520565b34801561025057600080fd5b506101ae600435610528565b34801561026857600080fd5b5061013e610560565b34801561027d57600080fd5b50610184600160a060020a036004351661056f565b34801561029e57600080fd5b506101ae610718565b3480156102b357600080fd5b5061013e6107f5565b3480156102c857600080fd5b506101ae610804565b3480156102dd57600080fd5b5061018461096e565b3480156102f257600080fd5b5061013e610974565b34801561030757600080fd5b5061013e610983565b34801561031c57600080fd5b506101ae600435610992565b34801561033457600080fd5b506101ae600435600160a060020a036024351660443515156109cb565b34801561035d57600080fd5b506101ae600160a060020a0360043516602435610a1d565b34801561038157600080fd5b50610396600160a060020a0360043516610a6d565b005b3480156103a457600080fd5b506101ae600435610b01565b3480156103bc57600080fd5b50610184610b3a565b600754600160a060020a031681565b600854600160a060020a031681565b600080600a5411156103f85750600a546103fb565b50425b90565b6000805460a060020a900460ff161561041657600080fd5b6000805460a060020a60ff02191660a060020a1790556005546104376103e3565b101561044257600080fd5b61044c3383610bce565b6000805460a060020a60ff021916905592915050565b60055481565b6000547501000000000000000000000000000000000000000000900460ff1681565b600754604080517f18160ddd0000000000000000000000000000000000000000000000000000000081529051600092600160a060020a0316916318160ddd91600480830192602092919082900301818787803b1580156104e957600080fd5b505af11580156104fd573d6000803e3d6000fd5b505050506040513d602081101561051357600080fd5b5051905090565b60045481565b600a55600190565b6000805460a060020a900460ff161561054057600080fd5b6000805460a060020a60ff02191660a060020a17905561044c3383610f86565b600154600160a060020a031681565b600854604080517f18160ddd0000000000000000000000000000000000000000000000000000000081529051600092600160a060020a0316916107119183916318160ddd91600480830192602092919082900301818987803b1580156105d457600080fd5b505af11580156105e8573d6000803e3d6000fd5b505050506040513d60208110156105fe57600080fd5b50516040805160e060020a6370a08231028152600160a060020a0387811660048301529151610705928616916370a082319160248083019260209291908290030181600087803b15801561065157600080fd5b505af1158015610665573d6000803e3d6000fd5b505050506040513d602081101561067b57600080fd5b50516001546040805160e060020a6370a082310281523060048201529051600160a060020a03909216916370a08231916024808201926020929091908290030181600087803b1580156106cd57600080fd5b505af11580156106e1573d6000803e3d6000fd5b505050506040513d60208110156106f757600080fd5b50519063ffffffff61114016565b9063ffffffff61117616565b9392505050565b6000805460a060020a900460ff161561073057600080fd5b6000805460a060020a60ff02191660a060020a1790556005546107516103e3565b101561075c57600080fd5b6008546040805160e060020a6370a08231028152336004820181905291516107e093600160a060020a0316916370a082319160248083019260209291908290030181600087803b1580156107af57600080fd5b505af11580156107c3573d6000803e3d6000fd5b505050506040513d60208110156107d957600080fd5b5051610bce565b90506000805460a060020a60ff021916905590565b600054600160a060020a031681565b600080548190819060a060020a900460ff161561082057600080fd5b6000805460a060020a60ff02191660a060020a1781556007546040805160e060020a6370a082310281523360048201529051600160a060020a03909216926370a08231926024808401936020939083900390910190829087803b15801561088657600080fd5b505af115801561089a573d6000803e3d6000fd5b505050506040513d60208110156108b057600080fd5b50516008546040805160e060020a6370a082310281523360048201529051929450600160a060020a03909116916370a08231916024808201926020929091908290030181600087803b15801561090557600080fd5b505af1158015610919573d6000803e3d6000fd5b505050506040513d602081101561092f57600080fd5b505190508082101561094c576109453383610f86565b9250610959565b6109563382610f86565b92505b50506000805460a060020a60ff021916905590565b60035481565b600654600160a060020a031681565b600254600160a060020a031681565b6000805460a060020a900460ff16156109aa57600080fd5b6000805460a060020a60ff02191660a060020a17905561044c82338061118d565b6000805460a060020a900460ff16156109e357600080fd5b6000805460a060020a60ff02191660a060020a179055610a05848433856111a4565b6000805460a060020a60ff0219169055949350505050565b6000805460a060020a900460ff1615610a3557600080fd5b6000805460a060020a60ff02191660a060020a179055610a568333846114b0565b6000805460a060020a60ff02191690559392505050565b600054600160a060020a03163314610a8457600080fd5b600160a060020a0381161515610a9957600080fd5b60008054604051600160a060020a03808516939216917f8be0079c531659141344cd1fd0a4f28419497f9722a3daafe3b4186f6b6457e091a36000805473ffffffffffffffffffffffffffffffffffffffff1916600160a060020a0392909216919091179055565b6000805460a060020a900460ff1615610b1957600080fd5b6000805460a060020a60ff02191660a060020a17905561044c3380846114b0565b600754604080517f18160ddd0000000000000000000000000000000000000000000000000000000081529051600092600160a060020a0316916318160ddd91600480830192602092919082900301818787803b158015610b9957600080fd5b505af1158015610bad573d6000803e3d6000fd5b505050506040513d6020811015610bc357600080fd5b505160095403905090565b6008546040805160e060020a6370a08231028152600160a060020a0385811660048301529151600093929092169183918291869185916370a082319160248082019260209290919082900301818887803b158015610c2b57600080fd5b505af1158015610c3f573d6000803e3d6000fd5b505050506040513d6020811015610c5557600080fd5b50511015610c6257600080fd5b6001546040805160e060020a6370a082310281523060048201529051600092610cba928992600160a060020a03909216916370a082319160248082019260209290919082900301818987803b1580156106cd57600080fd5b1015610cc557600080fd5b6002546040805160e060020a6370a082310281523060048201529051600092610d1d928992600160a060020a03909216916370a082319160248082019260209290919082900301818987803b1580156106cd57600080fd5b1015610d2857600080fd5b610d43600160a060020a03841687308863ffffffff61164816565b610e0683600160a060020a03166318160ddd6040518163ffffffff1660e060020a028152600401602060405180830381600087803b158015610d8457600080fd5b505af1158015610d98573d6000803e3d6000fd5b505050506040513d6020811015610dae57600080fd5b50516001546040805160e060020a6370a082310281523060048201529051610705928a92600160a060020a03909116916370a08231916024808201926020929091908290030181600087803b1580156106cd57600080fd5b91506000821115610e2e57600154610e2e90600160a060020a0316878463ffffffff6116f616565b610ef183600160a060020a03166318160ddd6040518163ffffffff1660e060020a028152600401602060405180830381600087803b158015610e6f57600080fd5b505af1158015610e83573d6000803e3d6000fd5b505050506040513d6020811015610e9957600080fd5b50516002546040805160e060020a6370a082310281523060048201529051610705928a92600160a060020a03909116916370a08231916024808201926020929091908290030181600087803b1580156106cd57600080fd5b90506000811115610f1957600254610f1990600160a060020a0316878363ffffffff6116f616565b82600160a060020a03166342966c68866040518263ffffffff1660e060020a02815260040180828152602001915050600060405180830381600087803b158015610f6257600080fd5b505af1158015610f76573d6000803e3d6000fd5b5060019998505050505050505050565b6007546008546040805160e060020a6370a08231028152600160a060020a038681166004830152915160009483169390921691859184916370a082319160248082019260209290919082900301818a87803b158015610fe457600080fd5b505af1158015610ff8573d6000803e3d6000fd5b505050506040513d602081101561100e57600080fd5b5051101561101b57600080fd5b8381600160a060020a03166370a08231876040518263ffffffff1660e060020a0281526004018082600160a060020a0316600160a060020a03168152602001915050602060405180830381600087803b15801561107757600080fd5b505af115801561108b573d6000803e3d6000fd5b505050506040513d60208110156110a157600080fd5b505110156110ae57600080fd5b6110b88585610bce565b506110d4600160a060020a03831686308763ffffffff61164816565b81600160a060020a03166342966c68856040518263ffffffff1660e060020a02815260040180828152602001915050600060405180830381600087803b15801561111d57600080fd5b505af1158015611131573d6000803e3d6000fd5b50600198975050505050505050565b600080831515611153576000915061116f565b5082820282848281151561116357fe5b041461116b57fe5b8091505b5092915050565b600080828481151561118457fe5b04949350505050565b600061119c84848460016111a4565b949350505050565b60008060006005546111b46103e3565b106111be57600080fd5b600087116111cb57600080fd5b6004546111df90889063ffffffff61114016565b600154604080517fdd62ed3e000000000000000000000000000000000000000000000000000000008152600160a060020a0389811660048301523060248301529151939550911692508391839163dd62ed3e9160448083019260209291908290030181600087803b15801561125357600080fd5b505af1158015611267573d6000803e3d6000fd5b505050506040513d602081101561127d57600080fd5b5051101561128a57600080fd5b8181600160a060020a03166370a08231876040518263ffffffff1660e060020a0281526004018082600160a060020a0316600160a060020a03168152602001915050602060405180830381600087803b1580156112e657600080fd5b505af11580156112fa573d6000803e3d6000fd5b505050506040513d602081101561131057600080fd5b5051101561131d57600080fd5b600954611330908863ffffffff61179216565b60095561134e600160a060020a03821686308563ffffffff61164816565b600754604080517f40c10f19000000000000000000000000000000000000000000000000000000008152600160a060020a038981166004830152602482018b9052915191909216916340c10f199160448083019260209291908290030181600087803b1580156113bd57600080fd5b505af11580156113d1573d6000803e3d6000fd5b505050506040513d60208110156113e757600080fd5b5050600854604080517f40c10f19000000000000000000000000000000000000000000000000000000008152600160a060020a038981166004830152602482018b9052915191909216916340c10f199160448083019260209291908290030181600087803b15801561145857600080fd5b505af115801561146c573d6000803e3d6000fd5b505050506040513d602081101561148257600080fd5b505083156114995761149487876117a1565b6114a3565b6114a387866117a1565b5060019695505050505050565b60008060006005546114c06103e3565b106114ca57600080fd5b6007546040805160e060020a6370a08231028152600160a060020a0389811660048301529151919092169350859184916370a08231916024808201926020929091908290030181600087803b15801561152257600080fd5b505af1158015611536573d6000803e3d6000fd5b505050506040513d602081101561154c57600080fd5b5051101561155957600080fd5b60035461156d90859063ffffffff61114016565b60025490915061158e90600160a060020a031686308463ffffffff61164816565b6115a9600160a060020a03831687308763ffffffff61164816565b81600160a060020a03166342966c68856040518263ffffffff1660e060020a02815260040180828152602001915050600060405180830381600087803b1580156115f257600080fd5b505af1158015611606573d6000803e3d6000fd5b5050505061163c866116236004548761114090919063ffffffff16565b600154600160a060020a0316919063ffffffff6116f616565b50600195945050505050565b604080517f23b872dd000000000000000000000000000000000000000000000000000000008152600160a060020a0385811660048301528481166024830152604482018490529151918616916323b872dd916064808201926020929091908290030181600087803b1580156116bc57600080fd5b505af11580156116d0573d6000803e3d6000fd5b505050506040513d60208110156116e657600080fd5b505115156116f057fe5b50505050565b82600160a060020a031663a9059cbb83836040518363ffffffff1660e060020a0281526004018083600160a060020a0316600160a060020a0316815260200182815260200192505050602060405180830381600087803b15801561175957600080fd5b505af115801561176d573d6000803e3d6000fd5b505050506040513d602081101561178357600080fd5b5051151561178d57fe5b505050565b60008282018381101561116b57fe5b60008054819081908190600160a060020a0386811691161461188857600654604080517f1d16c3ee000000000000000000000000000000000000000000000000000000008152306004820152602481018990528151600160a060020a0390931696508692631d16c3ee926044808401939192918290030181600087803b15801561182a57600080fd5b505af115801561183e573d6000803e3d6000fd5b505050506040513d604081101561185457600080fd5b50805160209091015160005490945090925082915061188890600160a060020a03808416918891168663ffffffff61164816565b5050505050505600a165627a7a7230582082f03814f23333d4620a6b6222ef67694de625c5a787512e6137b6185d28509b0029608060405260038054600160a860020a03191633179055610b76806100256000396000f3006080604052600436106100f05763ffffffff7c010000000000000000000000000000000000000000000000000000000060003504166305d2035b81146100f5578063095ea7b31461011e57806318160ddd1461014257806323b872dd14610169578063313ce5671461019357806340c10f19146101be57806342966c68146101e2578063610ece1f146101fc578063661884631461022d57806370a08231146102515780637d64bcb4146102725780638da5cb5b14610287578063a9059cbb1461029c578063d73dd623146102c0578063dd62ed3e146102e4578063e3b9ada21461030b578063f2fde38b14610320575b600080fd5b34801561010157600080fd5b5061010a610341565b604080519115158252519081900360200190f35b34801561012a57600080fd5b5061010a600160a060020a0360043516602435610362565b34801561014e57600080fd5b506101576103c8565b60408051918252519081900360200190f35b34801561017557600080fd5b5061010a600160a060020a03600435811690602435166044356103ce565b34801561019f57600080fd5b506101a8610545565b6040805160ff9092168252519081900360200190f35b3480156101ca57600080fd5b5061010a600160a060020a036004351660243561054a565b3480156101ee57600080fd5b506101fa600435610665565b005b34801561020857600080fd5b50610211610714565b60408051600160a060020a039092168252519081900360200190f35b34801561023957600080fd5b5061010a600160a060020a0360043516602435610723565b34801561025d57600080fd5b50610157600160a060020a0360043516610813565b34801561027e57600080fd5b5061010a61082e565b34801561029357600080fd5b506102116108d4565b3480156102a857600080fd5b5061010a600160a060020a03600435166024356108e3565b3480156102cc57600080fd5b5061010a600160a060020a03600435166024356109c4565b3480156102f057600080fd5b50610157600160a060020a0360043581169060243516610a5d565b34801561031757600080fd5b5061010a610a88565b34801561032c57600080fd5b506101fa600160a060020a0360043516610a8d565b60035474010000000000000000000000000000000000000000900460ff1681565b336000818152600260209081526040808320600160a060020a038716808552908352818420869055815186815291519394909390927f8c5be1e5ebec7d5bd14f71427d1e84f3dd0314c0f7b2291e5b200ac8c7c3b925928290030190a350600192915050565b60015490565b6000600160a060020a03831615156103e557600080fd5b600160a060020a03841660009081526020819052604090205482111561040a57600080fd5b600160a060020a038416600090815260026020908152604080832033845290915290205482111561043a57600080fd5b600160a060020a038416600090815260208190526040902054610463908363ffffffff610b2216565b600160a060020a038086166000908152602081905260408082209390935590851681522054610498908363ffffffff610b3416565b600160a060020a038085166000908152602081815260408083209490945591871681526002825282812033825290915220546104da908363ffffffff610b2216565b600160a060020a03808616600081815260026020908152604080832033845282529182902094909455805186815290519287169391927fddf252ad1be2c89b69c2b068fc378daa952ba7f163c4a11628f55a4df523b3ef929181900390910190a35060019392505050565b601281565b600354600090600160a060020a0316331461056457600080fd5b60035474010000000000000000000000000000000000000000900460ff161561058c57600080fd5b60015461059f908363ffffffff610b3416565b600155600160a060020a0383166000908152602081905260409020546105cb908363ffffffff610b3416565b600160a060020a03841660008181526020818152604091829020939093558051858152905191927f0f6798a560793a54c3bcfe86a93cde1e73087d944c0ea20544137d412139688592918290030190a2604080518381529051600160a060020a038516916000917fddf252ad1be2c89b69c2b068fc378daa952ba7f163c4a11628f55a4df523b3ef9181900360200190a350600192915050565b3360009081526020819052604081205482111561068157600080fd5b50336000818152602081905260409020546106a2908363ffffffff610b2216565b600160a060020a0382166000908152602081905260409020556001546106ce908363ffffffff610b2216565b600155604080518381529051600160a060020a038316917fcc16f5dbb4873280815c1ee09dbd06736cffcc184412cf7a71a0fdb75d397ca5919081900360200190a25050565b600354600160a060020a031690565b336000908152600260209081526040808320600160a060020a03861684529091528120548083111561077857336000908152600260209081526040808320600160a060020a03881684529091528120556107ad565b610788818463ffffffff610b2216565b336000908152600260209081526040808320600160a060020a03891684529091529020555b336000818152600260209081526040808320600160a060020a0389168085529083529281902054815190815290519293927f8c5be1e5ebec7d5bd14f71427d1e84f3dd0314c0f7b2291e5b200ac8c7c3b925929181900390910190a35060019392505050565b600160a060020a031660009081526020819052604090205490565b600354600090600160a060020a0316331461084857600080fd5b60035474010000000000000000000000000000000000000000900460ff161561087057600080fd5b6003805474ff00000000000000000000000000000000000000001916740100000000000000000000000000000000000000001790556040517fae5184fba832cb2b1f702aca6117b8d265eaf03ad33eb133f19dde0f5920fa0890600090a150600190565b600354600160a060020a031681565b6000600160a060020a03831615156108fa57600080fd5b3360009081526020819052604090205482111561091657600080fd5b33600090815260208190526040902054610936908363ffffffff610b2216565b3360009081526020819052604080822092909255600160a060020a03851681522054610968908363ffffffff610b3416565b600160a060020a038416600081815260208181526040918290209390935580518581529051919233927fddf252ad1be2c89b69c2b068fc378daa952ba7f163c4a11628f55a4df523b3ef9281900390910190a350600192915050565b336000908152600260209081526040808320600160a060020a03861684529091528120546109f8908363ffffffff610b3416565b336000818152600260209081526040808320600160a060020a0389168085529083529281902085905580519485525191937f8c5be1e5ebec7d5bd14f71427d1e84f3dd0314c0f7b2291e5b200ac8c7c3b925929081900390910190a350600192915050565b600160a060020a03918216600090815260026020908152604080832093909416825291909152205490565b600090565b600354600160a060020a03163314610aa457600080fd5b600160a060020a0381161515610ab957600080fd5b600354604051600160a060020a038084169216907f8be0079c531659141344cd1fd0a4f28419497f9722a3daafe3b4186f6b6457e090600090a36003805473ffffffffffffffffffffffffffffffffffffffff1916600160a060020a0392909216919091179055565b600082821115610b2e57fe5b50900390565b600082820183811015610b4357fe5b93925050505600a165627a7a72305820299b7cef5fc7ea13bdaeb45f0cbf8560749fb8429acc78ad55cc3acdda5d99530029608060405260038054600160a860020a03191633179055610b76806100256000396000f3006080604052600436106100f05763ffffffff7c010000000000000000000000000000000000000000000000000000000060003504166305d2035b81146100f5578063095ea7b31461011e57806318160ddd1461014257806323b872dd14610169578063313ce5671461019357806340c10f19146101be57806342966c68146101e2578063610ece1f146101fc578063661884631461022d57806370a08231146102515780637d64bcb4146102725780638da5cb5b14610287578063a9059cbb1461029c578063d73dd623146102c0578063dd62ed3e146102e4578063e3b9ada21461030b578063f2fde38b14610320575b600080fd5b34801561010157600080fd5b5061010a610341565b604080519115158252519081900360200190f35b34801561012a57600080fd5b5061010a600160a060020a0360043516602435610362565b34801561014e57600080fd5b506101576103c8565b60408051918252519081900360200190f35b34801561017557600080fd5b5061010a600160a060020a03600435811690602435166044356103ce565b34801561019f57600080fd5b506101a8610545565b6040805160ff9092168252519081900360200190f35b3480156101ca57600080fd5b5061010a600160a060020a036004351660243561054a565b3480156101ee57600080fd5b506101fa600435610665565b005b34801561020857600080fd5b50610211610714565b60408051600160a060020a039092168252519081900360200190f35b34801561023957600080fd5b5061010a600160a060020a0360043516602435610723565b34801561025d57600080fd5b50610157600160a060020a0360043516610813565b34801561027e57600080fd5b5061010a61082e565b34801561029357600080fd5b506102116108d4565b3480156102a857600080fd5b5061010a600160a060020a03600435166024356108e3565b3480156102cc57600080fd5b5061010a600160a060020a03600435166024356109c4565b3480156102f057600080fd5b50610157600160a060020a0360043581169060243516610a5d565b34801561031757600080fd5b5061010a610a88565b34801561032c57600080fd5b506101fa600160a060020a0360043516610a8d565b60035474010000000000000000000000000000000000000000900460ff1681565b336000818152600260209081526040808320600160a060020a038716808552908352818420869055815186815291519394909390927f8c5be1e5ebec7d5bd14f71427d1e84f3dd0314c0f7b2291e5b200ac8c7c3b925928290030190a350600192915050565b60015490565b6000600160a060020a03831615156103e557600080fd5b600160a060020a03841660009081526020819052604090205482111561040a57600080fd5b600160a060020a038416600090815260026020908152604080832033845290915290205482111561043a57600080fd5b600160a060020a038416600090815260208190526040902054610463908363ffffffff610b2216565b600160a060020a038086166000908152602081905260408082209390935590851681522054610498908363ffffffff610b3416565b600160a060020a038085166000908152602081815260408083209490945591871681526002825282812033825290915220546104da908363ffffffff610b2216565b600160a060020a03808616600081815260026020908152604080832033845282529182902094909455805186815290519287169391927fddf252ad1be2c89b69c2b068fc378daa952ba7f163c4a11628f55a4df523b3ef929181900390910190a35060019392505050565b601281565b600354600090600160a060020a0316331461056457600080fd5b60035474010000000000000000000000000000000000000000900460ff161561058c57600080fd5b60015461059f908363ffffffff610b3416565b600155600160a060020a0383166000908152602081905260409020546105cb908363ffffffff610b3416565b600160a060020a03841660008181526020818152604091829020939093558051858152905191927f0f6798a560793a54c3bcfe86a93cde1e73087d944c0ea20544137d412139688592918290030190a2604080518381529051600160a060020a038516916000917fddf252ad1be2c89b69c2b068fc378daa952ba7f163c4a11628f55a4df523b3ef9181900360200190a350600192915050565b3360009081526020819052604081205482111561068157600080fd5b50336000818152602081905260409020546106a2908363ffffffff610b2216565b600160a060020a0382166000908152602081905260409020556001546106ce908363ffffffff610b2216565b600155604080518381529051600160a060020a038316917fcc16f5dbb4873280815c1ee09dbd06736cffcc184412cf7a71a0fdb75d397ca5919081900360200190a25050565b600354600160a060020a031690565b336000908152600260209081526040808320600160a060020a03861684529091528120548083111561077857336000908152600260209081526040808320600160a060020a03881684529091528120556107ad565b610788818463ffffffff610b2216565b336000908152600260209081526040808320600160a060020a03891684529091529020555b336000818152600260209081526040808320600160a060020a0389168085529083529281902054815190815290519293927f8c5be1e5ebec7d5bd14f71427d1e84f3dd0314c0f7b2291e5b200ac8c7c3b925929181900390910190a35060019392505050565b600160a060020a031660009081526020819052604090205490565b600354600090600160a060020a0316331461084857600080fd5b60035474010000000000000000000000000000000000000000900460ff161561087057600080fd5b6003805474ff00000000000000000000000000000000000000001916740100000000000000000000000000000000000000001790556040517fae5184fba832cb2b1f702aca6117b8d265eaf03ad33eb133f19dde0f5920fa0890600090a150600190565b600354600160a060020a031681565b6000600160a060020a03831615156108fa57600080fd5b3360009081526020819052604090205482111561091657600080fd5b33600090815260208190526040902054610936908363ffffffff610b2216565b3360009081526020819052604080822092909255600160a060020a03851681522054610968908363ffffffff610b3416565b600160a060020a038416600081815260208181526040918290209390935580518581529051919233927fddf252ad1be2c89b69c2b068fc378daa952ba7f163c4a11628f55a4df523b3ef9281900390910190a350600192915050565b336000908152600260209081526040808320600160a060020a03861684529091528120546109f8908363ffffffff610b3416565b336000818152600260209081526040808320600160a060020a0389168085529083529281902085905580519485525191937f8c5be1e5ebec7d5bd14f71427d1e84f3dd0314c0f7b2291e5b200ac8c7c3b925929081900390910190a350600192915050565b600160a060020a03918216600090815260026020908152604080832093909416825291909152205490565b600190565b600354600160a060020a03163314610aa457600080fd5b600160a060020a0381161515610ab957600080fd5b600354604051600160a060020a038084169216907f8be0079c531659141344cd1fd0a4f28419497f9722a3daafe3b4186f6b6457e090600090a36003805473ffffffffffffffffffffffffffffffffffffffff1916600160a060020a0392909216919091179055565b600082821115610b2e57fe5b50900390565b600082820183811015610b4357fe5b93925050505600a165627a7a7230582031abd09d6e322ba7a3d48750f3257c38e30cac04a81554c4015d8c1b65b267930029",
  "source": "pragma solidity ^0.4.18;\n\nimport \"../main/OptionPair.sol\";\n\ncontract MockOptionPair is OptionPair  {\n  uint mockTime  = 0;\n\n  function MockOptionPair (address _underlying, address _basisToken,\n    uint _strike, uint _underlyingQty, uint _expireTime,  address _feeCalculator)\n    public\n    OptionPair(_underlying,  _basisToken,\n       _strike,  _underlyingQty,  _expireTime,  _feeCalculator)  {}\n\n  function getCurrentTime() public view returns(uint) {\n    if (mockTime > 0) {\n      return mockTime;\n    }\n    return now;\n  }\n\n  function updateMockTime(uint _mockTime) public returns(bool) {\n    mockTime = _mockTime;\n    return true;\n  }\n\n}\n",
  "sourcePath": "/Users/novosma/Documents/swprojects/github.com/eth_option/contracts/test/MockOptionPair.sol",
  "compiler": {
    "name": "solc",
    "version": "0.4.24+commit.e67f0147.Emscripten.clang"
  },
  "schemaVersion": "2.0.0",
  "updatedAt": "2018-06-06T06:49:50.547Z"
}