{
  "contractName": "MockWethOptionFactory",
  "abi": [
    {
      "constant": false,
      "inputs": [
        {
          "name": "_optionPair",
          "type": "address"
        },
        {
          "name": "_qty",
          "type": "uint256"
        }
      ],
      "name": "writeOptions",
      "outputs": [],
      "payable": false,
      "stateMutability": "nonpayable",
      "type": "function"
    },
    {
      "constant": true,
      "inputs": [
        {
          "name": "tokenId",
          "type": "uint256"
        }
      ],
      "name": "isSolved",
      "outputs": [
        {
          "name": "",
          "type": "bool"
        }
      ],
      "payable": false,
      "stateMutability": "view",
      "type": "function"
    },
    {
      "constant": false,
      "inputs": [
        {
          "name": "_addresses",
          "type": "address[3]"
        },
        {
          "name": "_values",
          "type": "uint256[3]"
        }
      ],
      "name": "createOptionPairContractFeeCalc",
      "outputs": [
        {
          "name": "",
          "type": "address"
        }
      ],
      "payable": false,
      "stateMutability": "nonpayable",
      "type": "function"
    },
    {
      "constant": false,
      "inputs": [
        {
          "name": "_optionPair",
          "type": "address"
        }
      ],
      "name": "withdrawFee",
      "outputs": [],
      "payable": false,
      "stateMutability": "nonpayable",
      "type": "function"
    },
    {
      "constant": false,
      "inputs": [
        {
          "name": "_optionPair",
          "type": "address"
        },
        {
          "name": "_qty",
          "type": "uint256"
        }
      ],
      "name": "writeOptionsWithEth",
      "outputs": [],
      "payable": true,
      "stateMutability": "payable",
      "type": "function"
    },
    {
      "constant": true,
      "inputs": [],
      "name": "weth",
      "outputs": [
        {
          "name": "",
          "type": "address"
        }
      ],
      "payable": false,
      "stateMutability": "view",
      "type": "function"
    },
    {
      "constant": false,
      "inputs": [
        {
          "name": "_underlying",
          "type": "address"
        },
        {
          "name": "_basisToken",
          "type": "address"
        },
        {
          "name": "_strike",
          "type": "uint256"
        },
        {
          "name": "_underlyingQty",
          "type": "uint256"
        },
        {
          "name": "_expireTime",
          "type": "uint256"
        }
      ],
      "name": "createOptionPairContract",
      "outputs": [],
      "payable": false,
      "stateMutability": "nonpayable",
      "type": "function"
    },
    {
      "constant": false,
      "inputs": [
        {
          "name": "_feeCalculator",
          "type": "address"
        }
      ],
      "name": "setFeeCalculator",
      "outputs": [],
      "payable": false,
      "stateMutability": "nonpayable",
      "type": "function"
    },
    {
      "constant": true,
      "inputs": [],
      "name": "owner",
      "outputs": [
        {
          "name": "",
          "type": "address"
        }
      ],
      "payable": false,
      "stateMutability": "view",
      "type": "function"
    },
    {
      "constant": true,
      "inputs": [],
      "name": "feeCalculator",
      "outputs": [
        {
          "name": "",
          "type": "address"
        }
      ],
      "payable": false,
      "stateMutability": "view",
      "type": "function"
    },
    {
      "constant": false,
      "inputs": [
        {
          "name": "_optionPair",
          "type": "address"
        }
      ],
      "name": "exerciseAllAvailableOptions",
      "outputs": [],
      "payable": false,
      "stateMutability": "nonpayable",
      "type": "function"
    },
    {
      "constant": true,
      "inputs": [],
      "name": "optionSerieOwnerToken",
      "outputs": [
        {
          "name": "",
          "type": "address"
        }
      ],
      "payable": false,
      "stateMutability": "view",
      "type": "function"
    },
    {
      "constant": false,
      "inputs": [
        {
          "name": "newOwner",
          "type": "address"
        }
      ],
      "name": "transferOwnership",
      "outputs": [],
      "payable": false,
      "stateMutability": "nonpayable",
      "type": "function"
    },
    {
      "constant": false,
      "inputs": [
        {
          "name": "_optionPair",
          "type": "address"
        },
        {
          "name": "_qty",
          "type": "uint256"
        }
      ],
      "name": "exerciseOptions",
      "outputs": [],
      "payable": false,
      "stateMutability": "nonpayable",
      "type": "function"
    },
    {
      "inputs": [
        {
          "name": "_feeCalculator",
          "type": "address"
        },
        {
          "name": "_erc721",
          "type": "address"
        },
        {
          "name": "_weth",
          "type": "address"
        }
      ],
      "payable": false,
      "stateMutability": "nonpayable",
      "type": "constructor"
    },
    {
      "payable": true,
      "stateMutability": "payable",
      "type": "fallback"
    },
    {
      "anonymous": false,
      "inputs": [
        {
          "indexed": false,
          "name": "optionPair",
          "type": "address"
        },
        {
          "indexed": true,
          "name": "underlying",
          "type": "address"
        },
        {
          "indexed": true,
          "name": "basisToken",
          "type": "address"
        },
        {
          "indexed": false,
          "name": "strike",
          "type": "uint256"
        },
        {
          "indexed": false,
          "name": "underlyingQty",
          "type": "uint256"
        },
        {
          "indexed": false,
          "name": "expireTime",
          "type": "uint256"
        }
      ],
      "name": "OptionTokenCreated",
      "type": "event"
    },
    {
      "anonymous": false,
      "inputs": [
        {
          "indexed": true,
          "name": "previousOwner",
          "type": "address"
        },
        {
          "indexed": true,
          "name": "newOwner",
          "type": "address"
        }
      ],
      "name": "OwnershipTransferred",
      "type": "event"
    }
  ],
  "bytecode": "0x60806040526000805460a060020a60ff021916905534801561002057600080fd5b506040516060806151e483398101604090815281516020830151919092015160008054600160a060020a03191633179055828282828282610069836401000000006100b4810204565b60028054600160a060020a0319908116600160a060020a03948516179091556003805490911691831691909117905560005416331490506100a957600080fd5b5050505050506100ed565b600054600160a060020a031633146100cb57600080fd5b60018054600160a060020a031916600160a060020a0392909216919091179055565b6150e8806100fc6000396000f300608060405260043610620000c55763ffffffff60e060020a6000350416630170327e8114620000ca5780630661d1dc14620000f357806315fdb4ac14620001225780631ac3ddeb14620001aa57806330a7a5e614620001ce5780633fc8cef314620001e7578063808b61db14620001ff5780638c66d04f14620002325780638da5cb5b1462000256578063b00eb9fe146200026e578063cd6d4c211462000286578063e0dbafed14620002aa578063f2fde38b14620002c2578063ff514c2214620002e6575b600080fd5b348015620000d757600080fd5b50620000f1600160a060020a03600435166024356200030d565b005b3480156200010057600080fd5b506200010e60043562000320565b604080519115158252519081900360200190f35b3480156200012f57600080fd5b506040805160608181019092526200018e91369160049160649190839060039083908390808284375050604080516060818101909252949796958181019594509250600391508390839080828437509396506200033595505050505050565b60408051600160a060020a039092168252519081900360200190f35b348015620001b757600080fd5b50620000f1600160a060020a0360043516620004c8565b620000f1600160a060020a03600435166024356200079f565b348015620001f457600080fd5b506200018e620009d1565b3480156200020c57600080fd5b50620000f1600160a060020a0360043581169060243516604435606435608435620009e0565b3480156200023f57600080fd5b50620000f1600160a060020a036004351662000a50565b3480156200026357600080fd5b506200018e62000a8a565b3480156200027b57600080fd5b506200018e62000a99565b3480156200029357600080fd5b50620000f1600160a060020a036004351662000aa8565b348015620002b757600080fd5b506200018e62000beb565b348015620002cf57600080fd5b50620000f1600160a060020a036004351662000bfa565b348015620002f357600080fd5b50620000f1600160a060020a036004351660243562000c83565b6200031b8282600062000cbd565b505050565b60009081526004602052604090205460ff1690565b8151602080840151835184830151604080870151600254825160e160020a634e327ced028152600160a060020a03808a166004830152808816602483015260448201879052606482018690526084820184905293516000998a9990989796958a948594911692639c64f9da9260a48084019391929182900301818787803b158015620003c057600080fd5b505af1158015620003d5573d6000803e3d6000fd5b505050506040513d6020811015620003ec57600080fd5b50519150620003fb8262000320565b156200040657600080fd5b6002546040805160e160020a6331a9108f028152600481018590529051600160a060020a0390921691636352211e916024808201926020929091908290030181600087803b1580156200045857600080fd5b505af11580156200046d573d6000803e3d6000fd5b505050506040513d60208110156200048457600080fd5b50519050600160a060020a03811633146200049e57600080fd5b620004aa8b8b620011e5565b9750620004b9888c8c6200131a565b50959998505050505050505050565b6002546040805160e060020a63fd790111028152600160a060020a0384811660048301529151600093849384938493919092169163fd79011191602480830192602092919082900301818787803b1580156200052357600080fd5b505af115801562000538573d6000803e3d6000fd5b505050506040513d60208110156200054f57600080fd5b50516002546040805160e160020a6331a9108f028152600481018490529051929650600160a060020a0390911691636352211e916024808201926020929091908290030181600087803b158015620005a657600080fd5b505af1158015620005bb573d6000803e3d6000fd5b505050506040513d6020811015620005d257600080fd5b5051600160a060020a03163314620005e957600080fd5b84600160a060020a031663749f10446040518163ffffffff1660e060020a028152600401602060405180830381600087803b1580156200062857600080fd5b505af11580156200063d573d6000803e3d6000fd5b505050506040513d60208110156200065457600080fd5b50516040805160e160020a637e062a350281529051919450600160a060020a0385169163fc0c546a916004808201926020929091908290030181600087803b158015620006a057600080fd5b505af1158015620006b5573d6000803e3d6000fd5b505050506040513d6020811015620006cc57600080fd5b50516040805160e060020a6370a08231028152600160a060020a0386811660048301529151929450908416916370a08231916024808201926020929091908290030181600087803b1580156200072157600080fd5b505af115801562000736573d6000803e3d6000fd5b505050506040513d60208110156200074d57600080fd5b50519050600081116200075f57600080fd5b6200077c600160a060020a03831684308463ffffffff6200138c16565b62000798600160a060020a038316338363ffffffff6200142816565b5050505050565b600080600084600160a060020a031663b00eb9fe6040518163ffffffff1660e060020a028152600401602060405180830381600087803b158015620007e357600080fd5b505af1158015620007f8573d6000803e3d6000fd5b505050506040513d60208110156200080f57600080fd5b50516040805160e160020a630e8b61f7028152600160a060020a038881166004830152602482018890528251939450841692631d16c3ee926044808401939192918290030181600087803b1580156200086757600080fd5b505af11580156200087c573d6000803e3d6000fd5b505050506040513d60408110156200089357600080fd5b5080516020909101516003549194509250600160a060020a03808516911614620008bc57600080fd5b348214620008c957600080fd5b600360009054906101000a9004600160a060020a0316600160a060020a031663d0e30db0346040518263ffffffff1660e060020a0281526004016000604051808303818588803b1580156200091d57600080fd5b505af115801562000932573d6000803e3d6000fd5b50506040805160e060020a6370a082310281523060048201529051600160a060020a03881694506370a082319350602480830193506020928290030181600087803b1580156200098157600080fd5b505af115801562000996573d6000803e3d6000fd5b505050506040513d6020811015620009ad57600080fd5b50518214620009bb57600080fd5b620009c98585600162000cbd565b505050505050565b600354600160a060020a031681565b620009ea620017f2565b620009f4620017f2565b50506040805160608181018352600160a060020a038089168352878116602080850191909152600154909116838501528351918201845286825281018590529182018390529062000a46828262000335565b5050505050505050565b600054600160a060020a0316331462000a6857600080fd5b60018054600160a060020a031916600160a060020a0392909216919091179055565b600054600160a060020a031681565b600154600160a060020a031681565b6000805460a060020a900460ff161562000ac157600080fd5b6000805460a060020a60ff02191660a060020a1781556040805160e260020a6304e3667b0281529051600160a060020a0385169263138d99ec92600480820193602093909283900390910190829087803b15801562000b1f57600080fd5b505af115801562000b34573d6000803e3d6000fd5b505050506040513d602081101562000b4b57600080fd5b50516040805160e060020a6370a082310281523360048201529051600160a060020a03909216916370a08231916024808201926020929091908290030181600087803b15801562000b9b57600080fd5b505af115801562000bb0573d6000803e3d6000fd5b505050506040513d602081101562000bc757600080fd5b5051905062000bd78282620014c3565b50506000805460a060020a60ff0219169055565b600254600160a060020a031681565b600054600160a060020a0316331462000c1257600080fd5b600160a060020a038116151562000c2857600080fd5b60008054604051600160a060020a03808516939216917f8be0079c531659141344cd1fd0a4f28419497f9722a3daafe3b4186f6b6457e091a360008054600160a060020a031916600160a060020a0392909216919091179055565b60005460a060020a900460ff161562000c9b57600080fd5b6000805460a060020a60ff02191660a060020a17905562000bd78282620014c3565b60008060008060008060008060008060149054906101000a900460ff1615151562000ce757600080fd5b6000805460a060020a60ff02191660a060020a1781556040805160e260020a630fb4945f02815290518e9a50600160a060020a038b1692633ed2517c92600480820193602093909283900390910190829087803b15801562000d4857600080fd5b505af115801562000d5d573d6000803e3d6000fd5b505050506040513d602081101562000d7457600080fd5b50516040805160e060020a636f307dc30281529051919850600160a060020a038a1691636f307dc3916004808201926020929091908290030181600087803b15801562000dc057600080fd5b505af115801562000dd5573d6000803e3d6000fd5b505050506040513d602081101562000dec57600080fd5b5051955062000e02878c63ffffffff6200165b16565b945087600160a060020a031663b00eb9fe6040518163ffffffff1660e060020a028152600401602060405180830381600087803b15801562000e4357600080fd5b505af115801562000e58573d6000803e3d6000fd5b505050506040513d602081101562000e6f57600080fd5b50516040805160e160020a630e8b61f7028152600160a060020a038f81166004830152602482018f90528251939550851692631d16c3ee926044808401939192918290030181600087803b15801562000ec757600080fd5b505af115801562000edc573d6000803e3d6000fd5b505050506040513d604081101562000ef357600080fd5b5080516020909101519094509250600160a060020a03808516908716141562000f6657891562000f425762000f3c868d8762000f36818863ffffffff6200169516565b620016a5565b62000f60565b62000f60868d62000f5a868963ffffffff6200169516565b620017e4565b62001028565b62000f73868d87620017e4565b60008311801562000f82575089155b1562000f955762000f60848d85620017e4565b83600160a060020a031663095ea7b38d856040518363ffffffff1660e060020a0281526004018083600160a060020a0316600160a060020a0316815260200182815260200192505050602060405180830381600087803b15801562000ff957600080fd5b505af11580156200100e573d6000803e3d6000fd5b505050506040513d60208110156200102557600080fd5b50505b6040805160e260020a633603aeff028152600481018d90523360248201526000604482018190529151600160a060020a038b169263d80ebbfc92606480820193602093909283900390910190829087803b1580156200108657600080fd5b505af11580156200109b573d6000803e3d6000fd5b505050506040513d6020811015620010b257600080fd5b50516040805160e060020a63095ea7b3028152600160a060020a038f81166004830152600060248301819052925193945087169263095ea7b392604480840193602093929083900390910190829087803b1580156200111057600080fd5b505af115801562001125573d6000803e3d6000fd5b505050506040513d60208110156200113c57600080fd5b50506040805160e060020a63095ea7b3028152600160a060020a038e8116600483015260006024830181905292519089169263095ea7b392604480820193602093909283900390910190829087803b1580156200119857600080fd5b505af1158015620011ad573d6000803e3d6000fd5b505050506040513d6020811015620011c457600080fd5b50506000805460a060020a60ff02191690559b9a5050505050505050505050565b815160208084015183518483015160408087015181890151825160e060020a63647846a502815292516000989792939192600160a060020a0384169263647846a5926004808301939282900301818d87803b1580156200124457600080fd5b505af115801562001259573d6000803e3d6000fd5b505050506040513d60208110156200127057600080fd5b50516200127c62001811565b600160a060020a03909116815260405190819003602001906000f080158015620012aa573d6000803e3d6000fd5b50620012b562001822565b600160a060020a039788168152958716602087015260408087019590955260608601939093526080850191909152841660a084015290921660c082015290519081900360e001906000f08015801562001312573d6000803e3d6000fd5b509392505050565b60208083015183518351848401516040808701518151600160a060020a038b8116825297810194909452838201929092526060830191909152519284169391909116917f3ec66ca66f5513d42ece39babf6ab6a9177e30527051b76a3b5dc98e369524719181900360800190a3505050565b6040805160e060020a6323b872dd028152600160a060020a0385811660048301528481166024830152604482018490529151918616916323b872dd916064808201926020929091908290030181600087803b158015620013eb57600080fd5b505af115801562001400573d6000803e3d6000fd5b505050506040513d60208110156200141757600080fd5b505115156200142257fe5b50505050565b82600160a060020a031663a9059cbb83836040518363ffffffff1660e060020a0281526004018083600160a060020a0316600160a060020a0316815260200182815260200192505050602060405180830381600087803b1580156200148c57600080fd5b505af1158015620014a1573d6000803e3d6000fd5b505050506040513d6020811015620014b857600080fd5b505115156200031b57fe5b600080600084925082600160a060020a031663ba405a0c6040518163ffffffff1660e060020a028152600401602060405180830381600087803b1580156200150a57600080fd5b505af11580156200151f573d6000803e3d6000fd5b505050506040513d60208110156200153657600080fd5b50516040805160e360020a6315b1ea010281529051919350620015c4918691600160a060020a0387169163ad8f5008916004808201926020929091908290030181600087803b1580156200158957600080fd5b505af11580156200159e573d6000803e3d6000fd5b505050506040513d6020811015620015b557600080fd5b50519063ffffffff6200165b16565b9050620015d3828683620017e4565b6040805160e160020a6377d67161028152336004820152602481018690529051600160a060020a0385169163eface2c29160448083019260209291908290030181600087803b1580156200162657600080fd5b505af11580156200163b573d6000803e3d6000fd5b505050506040513d60208110156200165257600080fd5b50505050505050565b6000808315156200167057600091506200168e565b508282028284828115156200168157fe5b04146200168a57fe5b8091505b5092915050565b6000828201838110156200168a57fe5b83620016c3600160a060020a03821633308663ffffffff6200138c16565b80600160a060020a031663095ea7b385846040518363ffffffff1660e060020a0281526004018083600160a060020a0316600160a060020a0316815260200182815260200192505050602060405180830381600087803b1580156200172757600080fd5b505af11580156200173c573d6000803e3d6000fd5b505050506040513d60208110156200175357600080fd5b50506040805160e160020a636eb1769f028152306004820152600160a060020a0386811660248301529151849284169163dd62ed3e9160448083019260209291908290030181600087803b158015620017ab57600080fd5b505af1158015620017c0573d6000803e3d6000fd5b505050506040513d6020811015620017d757600080fd5b5051146200079857600080fd5b6200031b83838384620016a5565b6060604051908101604052806003906020820280388339509192915050565b604051610409806200183483390190565b6040516134808062001c3d833901905600608060405234801561001057600080fd5b50604051602080610409833981016040818152915160008054600160a060020a031990811633908117835560018054600160a060020a038087169190941617908190557f095ea7b30000000000000000000000000000000000000000000000000000000086526004860191909152600019602486015294519294169263095ea7b39260448083019360209383900390910190829087803b1580156100b357600080fd5b505af11580156100c7573d6000803e3d6000fd5b505050506040513d60208110156100dd57600080fd5b50505061031a806100ef6000396000f3006080604052600436106100485763ffffffff60e060020a6000350416632e1a7d4d811461004d5780638da5cb5b14610067578063f2fde38b14610098578063fc0c546a146100b9575b600080fd5b34801561005957600080fd5b506100656004356100ce565b005b34801561007357600080fd5b5061007c6101ad565b60408051600160a060020a039092168252519081900360200190f35b3480156100a457600080fd5b50610065600160a060020a03600435166101bc565b3480156100c557600080fd5b5061007c610243565b60008054600160a060020a031633146100e657600080fd5b600054600160a060020a031633146100fd57600080fd5b506001546040805160e060020a6370a082310281523060048201529051600160a060020a0390921691839183916370a08231916024808201926020929091908290030181600087803b15801561015257600080fd5b505af1158015610166573d6000803e3d6000fd5b505050506040513d602081101561017c57600080fd5b5051101561018957600080fd5b6000546101a990600160a060020a0383811691168463ffffffff61025216565b5050565b600054600160a060020a031681565b600054600160a060020a031633146101d357600080fd5b600160a060020a03811615156101e857600080fd5b60008054604051600160a060020a03808516939216917f8be0079c531659141344cd1fd0a4f28419497f9722a3daafe3b4186f6b6457e091a360008054600160a060020a031916600160a060020a0392909216919091179055565b600154600160a060020a031681565b82600160a060020a031663a9059cbb83836040518363ffffffff1660e060020a0281526004018083600160a060020a0316600160a060020a0316815260200182815260200192505050602060405180830381600087803b1580156102b557600080fd5b505af11580156102c9573d6000803e3d6000fd5b505050506040513d60208110156102df57600080fd5b505115156102e957fe5b5050505600a165627a7a72305820eb5cec4b4f9b72d4763d201eca8cf177f98d7e305f9487818fbd8585d9077edd002960806040526000805460ff191681556009553480156200001e57600080fd5b5060405160e0806200348083398101604090815281516020830151918301516060840151608085015160a086015160c09096015160008054600160a060020a038088166101000261010060a860020a03199092169190911790915560018054828916600160a060020a03199182161790915560028690556003859055600484905560058054928a1692909116919091179055939592939192909186868686868686620000c962000172565b604051809103906000f080158015620000e6573d6000803e3d6000fd5b5060068054600160a060020a031916600160a060020a03929092169190911790556200011162000183565b604051809103906000f0801580156200012e573d6000803e3d6000fd5b5060078054600160a060020a03928316600160a060020a0319918216179091556008805493909216921691909117905550620001949b505050505050505050505050565b604051610bf58062001c9083390190565b604051610bfb806200288583390190565b611aec80620001a46000396000f30060806040526004361061010e5763ffffffff60e060020a6000350416630aae7ae58114610113578063138d99ec1461013c57806313b91a041461016d57806329cb924d146101825780632e1a7d4d146101a9578063310a1ee3146101d5578063328c616d146101ea5780633ed2517c146101ff57806353934828146102145780636dd7a1661461022c5780636f307dc31461024457806373fde90b14610259578063749f10441461027a578063853828b61461028f5780639c2c2915146102a4578063ad8f5008146102b9578063b00eb9fe146102ce578063ba405a0c146102e3578063bd173505146102f8578063d80ebbfc14610310578063eface2c214610339578063fe0d94c11461035d575b600080fd5b34801561011f57600080fd5b5061013a600435602435600160a060020a0360443516610375565b005b34801561014857600080fd5b50610151610829565b60408051600160a060020a039092168252519081900360200190f35b34801561017957600080fd5b50610151610838565b34801561018e57600080fd5b50610197610847565b60408051918252519081900360200190f35b3480156101b557600080fd5b506101c1600435610862565b604080519115158252519081900360200190f35b3480156101e157600080fd5b506101976108b0565b3480156101f657600080fd5b506101976108b6565b34801561020b57600080fd5b50610197610930565b34801561022057600080fd5b506101c1600435610936565b34801561023857600080fd5b506101c160043561093e565b34801561025057600080fd5b50610151610966565b34801561026557600080fd5b50610197600160a060020a036004351661097a565b34801561028657600080fd5b50610151610b12565b34801561029b57600080fd5b506101c1610b21565b3480156102b057600080fd5b506101c1610be8565b3480156102c557600080fd5b50610197610d3c565b3480156102da57600080fd5b50610151610d42565b3480156102ef57600080fd5b50610151610d51565b34801561030457600080fd5b506101c1600435610d60565b34801561031c57600080fd5b506101c1600435600160a060020a03602435166044351515610d89565b34801561034557600080fd5b506101c1600160a060020a0360043516602435610dc5565b34801561036957600080fd5b506101c1600435610dff565b600080548190819081908190819081908190819060ff161561039657600080fd5b6000805460ff191660011790556002546103b6908d63ffffffff610e2816565b9850888b10156103c557600080fd5b6103cf338d610e5e565b506003548a98506103e7908d9063ffffffff610e2816565b600080546040805160e060020a63095ea7b3028152600160a060020a038f81166004830152602482018690529151949b50610100909204169263095ea7b392604480840193602093929083900390910190829087803b15801561044957600080fd5b505af115801561045d573d6000803e3d6000fd5b505050506040513d602081101561047357600080fd5b50506001546040805160e060020a6370a082310281523060048201529051600160a060020a03909216916370a08231916024808201926020929091908290030181600087803b1580156104c557600080fd5b505af11580156104d9573d6000803e3d6000fd5b505050506040513d60208110156104ef57600080fd5b5051600080546040805160e060020a6370a082310281523060048201529051939950610100909104600160a060020a0316926370a0823192602480840193602093929083900390910190829087803b15801561054a57600080fd5b505af115801561055e573d6000803e3d6000fd5b505050506040513d602081101561057457600080fd5b505194508685101561058557600080fd5b600080546001546040805160e060020a63f9cf7c21028152600160a060020a0361010090940484166004820152602481018c90529183166044830152606482018f905233608483015251918b169263f9cf7c219260a48084019382900301818387803b1580156105f457600080fd5b505af1158015610608573d6000803e3d6000fd5b5050600080546040805160e060020a6370a082310281523060048201529051610100909204600160a060020a031694506370a0823193506024808201936020939283900390910190829087803b15801561066157600080fd5b505af1158015610675573d6000803e3d6000fd5b505050506040513d602081101561068b57600080fd5b50519350866106a0868663ffffffff610f9a16565b11156106ab57600080fd5b6001546040805160e060020a6370a082310281523060048201529051600160a060020a03909216916370a08231916024808201926020929091908290030181600087803b1580156106fb57600080fd5b505af115801561070f573d6000803e3d6000fd5b505050506040513d602081101561072557600080fd5b50519250610739838763ffffffff610f9a16565b600080546040805160e060020a63095ea7b3028152600160a060020a038f81166004830152602482018590529151949650610100909204169263095ea7b392604480840193602093929083900390910190829087803b15801561079b57600080fd5b505af11580156107af573d6000803e3d6000fd5b505050506040513d60208110156107c557600080fd5b50508a8210156107d457600080fd5b888210156107e157600080fd5b6107f1828a63ffffffff610f9a16565b60015490915061081190600160a060020a0316338363ffffffff610fac16565b50506000805460ff1916905550505050505050505050565b600654600160a060020a031681565b600754600160a060020a031681565b600080600954111561085c575060095461085f565b50425b90565b6000805460ff161561087357600080fd5b6000805460ff1916600117905560045461088b610847565b101561089657600080fd5b6108a03383611048565b6000805460ff1916905592915050565b60045481565b6006546040805160e060020a6318160ddd0281529051600092600160a060020a0316916318160ddd91600480830192602092919082900301818787803b1580156108ff57600080fd5b505af1158015610913573d6000803e3d6000fd5b505050506040513d602081101561092957600080fd5b5051905090565b60035481565b600955600190565b6000805460ff161561094f57600080fd5b6000805460ff191660011790556108a03383611404565b6000546101009004600160a060020a031681565b6007546040805160e060020a6318160ddd0281529051600092600160a060020a031691610b0b9183916318160ddd91600480830192602092919082900301818987803b1580156109c957600080fd5b505af11580156109dd573d6000803e3d6000fd5b505050506040513d60208110156109f357600080fd5b50516040805160e060020a6370a08231028152600160a060020a0387811660048301529151610aff928616916370a082319160248083019260209291908290030181600087803b158015610a4657600080fd5b505af1158015610a5a573d6000803e3d6000fd5b505050506040513d6020811015610a7057600080fd5b5051600080546040805160e060020a6370a082310281523060048201529051610100909204600160a060020a0316926370a08231926024808401936020939083900390910190829087803b158015610ac757600080fd5b505af1158015610adb573d6000803e3d6000fd5b505050506040513d6020811015610af157600080fd5b50519063ffffffff610e2816565b9063ffffffff6115be16565b9392505050565b600854600160a060020a031681565b6000805460ff1615610b3257600080fd5b6000805460ff19166001179055600454610b4a610847565b1015610b5557600080fd5b6007546040805160e060020a6370a0823102815233600482018190529151610bd993600160a060020a0316916370a082319160248083019260209291908290030181600087803b158015610ba857600080fd5b505af1158015610bbc573d6000803e3d6000fd5b505050506040513d6020811015610bd257600080fd5b5051611048565b90506000805460ff1916905590565b600080548190819060ff1615610bfd57600080fd5b6000805460ff191660011781556006546040805160e060020a6370a082310281523360048201529051600160a060020a03909216926370a08231926024808401936020939083900390910190829087803b158015610c5a57600080fd5b505af1158015610c6e573d6000803e3d6000fd5b505050506040513d6020811015610c8457600080fd5b50516007546040805160e060020a6370a082310281523360048201529051929450600160a060020a03909116916370a08231916024808201926020929091908290030181600087803b158015610cd957600080fd5b505af1158015610ced573d6000803e3d6000fd5b505050506040513d6020811015610d0357600080fd5b5051905080821015610d2057610d193383611404565b9250610d2d565b610d2a3382611404565b92505b50506000805460ff1916905590565b60025481565b600554600160a060020a031681565b600154600160a060020a031681565b6000805460ff1615610d7157600080fd5b6000805460ff191660011790556108a08233806115d5565b6000805460ff1615610d9a57600080fd5b6000805460ff19166001179055610db3848433856115ec565b6000805460ff19169055949350505050565b6000805460ff1615610dd657600080fd5b6000805460ff19166001179055610dee8333846118a8565b6000805460ff191690559392505050565b6000805460ff1615610e1057600080fd5b6000805460ff191660011790556108a03380846118a8565b600080831515610e3b5760009150610e57565b50828202828482811515610e4b57fe5b0414610e5357fe5b8091505b5092915050565b600080600454610e6c610847565b10610e7657600080fd5b506006546040805160e060020a6370a08231028152600160a060020a03868116600483015291519190921691849183916370a082319160248083019260209291908290030181600087803b158015610ecd57600080fd5b505af1158015610ee1573d6000803e3d6000fd5b505050506040513d6020811015610ef757600080fd5b50511015610f0457600080fd5b600160a060020a0384163014610f2f57610f2f600160a060020a03821685308663ffffffff61194616565b80600160a060020a03166342966c68846040518263ffffffff1660e060020a02815260040180828152602001915050600060405180830381600087803b158015610f7857600080fd5b505af1158015610f8c573d6000803e3d6000fd5b506001979650505050505050565b600082821115610fa657fe5b50900390565b82600160a060020a031663a9059cbb83836040518363ffffffff1660e060020a0281526004018083600160a060020a0316600160a060020a0316815260200182815260200192505050602060405180830381600087803b15801561100f57600080fd5b505af1158015611023573d6000803e3d6000fd5b505050506040513d602081101561103957600080fd5b5051151561104357fe5b505050565b6007546040805160e060020a6370a08231028152600160a060020a0385811660048301529151600093929092169183918291869185916370a082319160248082019260209290919082900301818887803b1580156110a557600080fd5b505af11580156110b9573d6000803e3d6000fd5b505050506040513d60208110156110cf57600080fd5b505110156110dc57600080fd5b600080546040805160e060020a6370a082310281523060048201529051611136928992610100909104600160a060020a0316916370a082319160248082019260209290919082900301818987803b158015610ac757600080fd5b101561114157600080fd5b6001546040805160e060020a6370a082310281523060048201529051600092611199928992600160a060020a03909216916370a082319160248082019260209290919082900301818987803b158015610ac757600080fd5b10156111a457600080fd5b6111bf600160a060020a03841687308863ffffffff61194616565b61128583600160a060020a03166318160ddd6040518163ffffffff1660e060020a028152600401602060405180830381600087803b15801561120057600080fd5b505af1158015611214573d6000803e3d6000fd5b505050506040513d602081101561122a57600080fd5b5051600080546040805160e060020a6370a082310281523060048201529051610aff938b936101009004600160a060020a0316926370a082319260248083019360209383900390910190829087803b158015610ac757600080fd5b915060008211156112ac576000546112ac906101009004600160a060020a03168784610fac565b61136f83600160a060020a03166318160ddd6040518163ffffffff1660e060020a028152600401602060405180830381600087803b1580156112ed57600080fd5b505af1158015611301573d6000803e3d6000fd5b505050506040513d602081101561131757600080fd5b50516001546040805160e060020a6370a082310281523060048201529051610aff928a92600160a060020a03909116916370a08231916024808201926020929091908290030181600087803b158015610ac757600080fd5b905060008111156113975760015461139790600160a060020a0316878363ffffffff610fac16565b82600160a060020a03166342966c68866040518263ffffffff1660e060020a02815260040180828152602001915050600060405180830381600087803b1580156113e057600080fd5b505af11580156113f4573d6000803e3d6000fd5b5060019998505050505050505050565b6006546007546040805160e060020a6370a08231028152600160a060020a038681166004830152915160009483169390921691859184916370a082319160248082019260209290919082900301818a87803b15801561146257600080fd5b505af1158015611476573d6000803e3d6000fd5b505050506040513d602081101561148c57600080fd5b5051101561149957600080fd5b8381600160a060020a03166370a08231876040518263ffffffff1660e060020a0281526004018082600160a060020a0316600160a060020a03168152602001915050602060405180830381600087803b1580156114f557600080fd5b505af1158015611509573d6000803e3d6000fd5b505050506040513d602081101561151f57600080fd5b5051101561152c57600080fd5b6115368585611048565b50611552600160a060020a03831686308763ffffffff61194616565b81600160a060020a03166342966c68856040518263ffffffff1660e060020a02815260040180828152602001915050600060405180830381600087803b15801561159b57600080fd5b505af11580156115af573d6000803e3d6000fd5b50600198975050505050505050565b60008082848115156115cc57fe5b04949350505050565b60006115e484848460016115ec565b949350505050565b60008060006004546115fc610847565b1061160657600080fd5b6000871161161357600080fd5b60035461162790889063ffffffff610e2816565b600080546040805160e160020a636eb1769f028152600160a060020a038a8116600483015230602483015291519496506101009092041693508492849263dd62ed3e92604480820193602093909283900390910190829087803b15801561168d57600080fd5b505af11580156116a1573d6000803e3d6000fd5b505050506040513d60208110156116b757600080fd5b505110156116c457600080fd5b8181600160a060020a03166370a08231876040518263ffffffff1660e060020a0281526004018082600160a060020a0316600160a060020a03168152602001915050602060405180830381600087803b15801561172057600080fd5b505af1158015611734573d6000803e3d6000fd5b505050506040513d602081101561174a57600080fd5b5051101561175757600080fd5b611772600160a060020a03821686308563ffffffff61194616565b6006546040805160e060020a6340c10f19028152600160a060020a038981166004830152602482018b9052915191909216916340c10f199160448083019260209291908290030181600087803b1580156117cb57600080fd5b505af11580156117df573d6000803e3d6000fd5b505050506040513d60208110156117f557600080fd5b50506007546040805160e060020a6340c10f19028152600160a060020a038981166004830152602482018b9052915191909216916340c10f199160448083019260209291908290030181600087803b15801561185057600080fd5b505af1158015611864573d6000803e3d6000fd5b505050506040513d602081101561187a57600080fd5b505083156118915761188c87876119de565b61189b565b61189b87866119de565b5060019695505050505050565b6000806004546118b6610847565b106118c057600080fd5b6118ca8584610e5e565b15156118d557600080fd5b611906856118ee60035486610e2890919063ffffffff16565b6000546101009004600160a060020a03169190610fac565b60025461191a90849063ffffffff610e2816565b60015490915061193b90600160a060020a031685308463ffffffff61194616565b506001949350505050565b6040805160e060020a6323b872dd028152600160a060020a0385811660048301528481166024830152604482018490529151918616916323b872dd916064808201926020929091908290030181600087803b1580156119a457600080fd5b505af11580156119b8573d6000803e3d6000fd5b505050506040513d60208110156119ce57600080fd5b505115156119d857fe5b50505050565b600854600090819081908190600160a060020a03868116911614611ab8576005546040805160e160020a630e8b61f7028152306004820152602481018990528151600160a060020a0390931696508692631d16c3ee926044808401939192918290030181600087803b158015611a5357600080fd5b505af1158015611a67573d6000803e3d6000fd5b505050506040513d6040811015611a7d57600080fd5b508051602090910151935091508190506000831115611ab857600854611ab890600160a060020a03838116918891168663ffffffff61194616565b5050505050505600a165627a7a72305820a2f2968991ff1c9d884f98a1c28b53c2cb84b062a7df90c1b9510f6620f0d58e0029608060405260038054600160a860020a03191633179055610bd0806100256000396000f3006080604052600436106100ed5763ffffffff60e060020a60003504166305d2035b81146100f257806306fdde031461011b578063095ea7b3146101a557806318160ddd146101c957806323b872dd146101f0578063313ce5671461021a57806340c10f191461024557806342966c6814610269578063610ece1f1461028357806366188463146102b457806370a08231146102d85780637d64bcb4146102f95780638da5cb5b1461030e57806395d89b4114610323578063a9059cbb14610338578063d73dd6231461035c578063dd62ed3e14610380578063e3b9ada2146103a7578063f2fde38b146103bc575b600080fd5b3480156100fe57600080fd5b506101076103dd565b604080519115158252519081900360200190f35b34801561012757600080fd5b506101306103ed565b6040805160208082528351818301528351919283929083019185019080838360005b8381101561016a578181015183820152602001610152565b50505050905090810190601f1680156101975780820380516001836020036101000a031916815260200191505b509250505060405180910390f35b3480156101b157600080fd5b50610107600160a060020a0360043516602435610416565b3480156101d557600080fd5b506101de61046a565b60408051918252519081900360200190f35b3480156101fc57600080fd5b50610107600160a060020a0360043581169060243516604435610470565b34801561022657600080fd5b5061022f6105d5565b6040805160ff9092168252519081900360200190f35b34801561025157600080fd5b50610107600160a060020a03600435166024356105da565b34801561027557600080fd5b506102816004356106d2565b005b34801561028f57600080fd5b50610298610781565b60408051600160a060020a039092168252519081900360200190f35b3480156102c057600080fd5b50610107600160a060020a0360043516602435610790565b3480156102e457600080fd5b506101de600160a060020a036004351661086e565b34801561030557600080fd5b50610107610889565b34801561031a57600080fd5b506102986108ff565b34801561032f57600080fd5b5061013061090e565b34801561034457600080fd5b50610107600160a060020a036004351660243561092e565b34801561036857600080fd5b50610107600160a060020a03600435166024356109fd565b34801561038c57600080fd5b506101de600160a060020a0360043581169060243516610a84565b3480156103b357600080fd5b50610107610aaf565b3480156103c857600080fd5b50610281600160a060020a0360043516610ab4565b60035460a060020a900460ff1681565b60408051808201909152600c815260a160020a6b22a92199181027b83a34b7b702602082015281565b336000818152600260209081526040808320600160a060020a03871680855290835281842086905581518681529151939490939092600080516020610b85833981519152928290030190a350600192915050565b60015490565b6000600160a060020a038316151561048757600080fd5b600160a060020a0384166000908152602081905260409020548211156104ac57600080fd5b600160a060020a03841660009081526002602090815260408083203384529091529020548211156104dc57600080fd5b600160a060020a038416600090815260208190526040902054610505908363ffffffff610b3c16565b600160a060020a03808616600090815260208190526040808220939093559085168152205461053a908363ffffffff610b4e16565b600160a060020a0380851660009081526020818152604080832094909455918716815260028252828120338252909152205461057c908363ffffffff610b3c16565b600160a060020a0380861660008181526002602090815260408083203384528252918290209490945580518681529051928716939192600080516020610b65833981519152929181900390910190a35060019392505050565b601281565b600354600090600160a060020a031633146105f457600080fd5b60035460a060020a900460ff161561060b57600080fd5b60015461061e908363ffffffff610b4e16565b600155600160a060020a03831660009081526020819052604090205461064a908363ffffffff610b4e16565b600160a060020a03841660008181526020818152604091829020939093558051858152905191927f0f6798a560793a54c3bcfe86a93cde1e73087d944c0ea20544137d412139688592918290030190a2604080518381529051600160a060020a03851691600091600080516020610b658339815191529181900360200190a350600192915050565b336000908152602081905260408120548211156106ee57600080fd5b503360008181526020819052604090205461070f908363ffffffff610b3c16565b600160a060020a03821660009081526020819052604090205560015461073b908363ffffffff610b3c16565b600155604080518381529051600160a060020a038316917fcc16f5dbb4873280815c1ee09dbd06736cffcc184412cf7a71a0fdb75d397ca5919081900360200190a25050565b600354600160a060020a031690565b336000908152600260209081526040808320600160a060020a0386168452909152812054808311156107e557336000908152600260209081526040808320600160a060020a038816845290915281205561081a565b6107f5818463ffffffff610b3c16565b336000908152600260209081526040808320600160a060020a03891684529091529020555b336000818152600260209081526040808320600160a060020a038916808552908352928190205481519081529051929392600080516020610b85833981519152929181900390910190a35060019392505050565b600160a060020a031660009081526020819052604090205490565b600354600090600160a060020a031633146108a357600080fd5b60035460a060020a900460ff16156108ba57600080fd5b6003805460a060020a60ff02191660a060020a1790556040517fae5184fba832cb2b1f702aca6117b8d265eaf03ad33eb133f19dde0f5920fa0890600090a150600190565b600354600160a060020a031681565b604080518082019091526003815260ea60020a6213d41502602082015281565b6000600160a060020a038316151561094557600080fd5b3360009081526020819052604090205482111561096157600080fd5b33600090815260208190526040902054610981908363ffffffff610b3c16565b3360009081526020819052604080822092909255600160a060020a038516815220546109b3908363ffffffff610b4e16565b600160a060020a03841660008181526020818152604091829020939093558051858152905191923392600080516020610b658339815191529281900390910190a350600192915050565b336000908152600260209081526040808320600160a060020a0386168452909152812054610a31908363ffffffff610b4e16565b336000818152600260209081526040808320600160a060020a038916808552908352928190208590558051948552519193600080516020610b85833981519152929081900390910190a350600192915050565b600160a060020a03918216600090815260026020908152604080832093909416825291909152205490565b600090565b600354600160a060020a03163314610acb57600080fd5b600160a060020a0381161515610ae057600080fd5b600354604051600160a060020a038084169216907f8be0079c531659141344cd1fd0a4f28419497f9722a3daafe3b4186f6b6457e090600090a360038054600160a060020a031916600160a060020a0392909216919091179055565b600082821115610b4857fe5b50900390565b600082820183811015610b5d57fe5b93925050505600ddf252ad1be2c89b69c2b068fc378daa952ba7f163c4a11628f55a4df523b3ef8c5be1e5ebec7d5bd14f71427d1e84f3dd0314c0f7b2291e5b200ac8c7c3b925a165627a7a7230582079a6fdb7124597680ebb486c34f1c75898e72b511fdd75a75211cf26875a4ee70029608060405260038054600160a860020a03191633179055610bd6806100256000396000f3006080604052600436106100ed5763ffffffff60e060020a60003504166305d2035b81146100f257806306fdde031461011b578063095ea7b3146101a557806318160ddd146101c957806323b872dd146101f0578063313ce5671461021a57806340c10f191461024557806342966c6814610269578063610ece1f1461028357806366188463146102b457806370a08231146102d85780637d64bcb4146102f95780638da5cb5b1461030e57806395d89b4114610323578063a9059cbb14610338578063d73dd6231461035c578063dd62ed3e14610380578063e3b9ada2146103a7578063f2fde38b146103bc575b600080fd5b3480156100fe57600080fd5b506101076103dd565b604080519115158252519081900360200190f35b34801561012757600080fd5b506101306103ed565b6040805160208082528351818301528351919283929083019185019080838360005b8381101561016a578181015183820152602001610152565b50505050905090810190601f1680156101975780820380516001836020036101000a031916815260200191505b509250505060405180910390f35b3480156101b157600080fd5b50610107600160a060020a036004351660243561041b565b3480156101d557600080fd5b506101de61046f565b60408051918252519081900360200190f35b3480156101fc57600080fd5b50610107600160a060020a0360043581169060243516604435610475565b34801561022657600080fd5b5061022f6105da565b6040805160ff9092168252519081900360200190f35b34801561025157600080fd5b50610107600160a060020a03600435166024356105df565b34801561027557600080fd5b506102816004356106d7565b005b34801561028f57600080fd5b50610298610786565b60408051600160a060020a039092168252519081900360200190f35b3480156102c057600080fd5b50610107600160a060020a0360043516602435610795565b3480156102e457600080fd5b506101de600160a060020a0360043516610873565b34801561030557600080fd5b5061010761088e565b34801561031a57600080fd5b50610298610904565b34801561032f57600080fd5b50610130610913565b34801561034457600080fd5b50610107600160a060020a0360043516602435610934565b34801561036857600080fd5b50610107600160a060020a0360043516602435610a03565b34801561038c57600080fd5b506101de600160a060020a0360043581169060243516610a8a565b3480156103b357600080fd5b50610107610ab5565b3480156103c857600080fd5b50610281600160a060020a0360043516610aba565b60035460a060020a900460ff1681565b6040805180820190915260118152607960020a7022a92199181020b73a3496a7b83a34b7b702602082015281565b336000818152600260209081526040808320600160a060020a03871680855290835281842086905581518681529151939490939092600080516020610b8b833981519152928290030190a350600192915050565b60015490565b6000600160a060020a038316151561048c57600080fd5b600160a060020a0384166000908152602081905260409020548211156104b157600080fd5b600160a060020a03841660009081526002602090815260408083203384529091529020548211156104e157600080fd5b600160a060020a03841660009081526020819052604090205461050a908363ffffffff610b4216565b600160a060020a03808616600090815260208190526040808220939093559085168152205461053f908363ffffffff610b5416565b600160a060020a03808516600090815260208181526040808320949094559187168152600282528281203382529091522054610581908363ffffffff610b4216565b600160a060020a0380861660008181526002602090815260408083203384528252918290209490945580518681529051928716939192600080516020610b6b833981519152929181900390910190a35060019392505050565b601281565b600354600090600160a060020a031633146105f957600080fd5b60035460a060020a900460ff161561061057600080fd5b600154610623908363ffffffff610b5416565b600155600160a060020a03831660009081526020819052604090205461064f908363ffffffff610b5416565b600160a060020a03841660008181526020818152604091829020939093558051858152905191927f0f6798a560793a54c3bcfe86a93cde1e73087d944c0ea20544137d412139688592918290030190a2604080518381529051600160a060020a03851691600091600080516020610b6b8339815191529181900360200190a350600192915050565b336000908152602081905260408120548211156106f357600080fd5b5033600081815260208190526040902054610714908363ffffffff610b4216565b600160a060020a038216600090815260208190526040902055600154610740908363ffffffff610b4216565b600155604080518381529051600160a060020a038316917fcc16f5dbb4873280815c1ee09dbd06736cffcc184412cf7a71a0fdb75d397ca5919081900360200190a25050565b600354600160a060020a031690565b336000908152600260209081526040808320600160a060020a0386168452909152812054808311156107ea57336000908152600260209081526040808320600160a060020a038816845290915281205561081f565b6107fa818463ffffffff610b4216565b336000908152600260209081526040808320600160a060020a03891684529091529020555b336000818152600260209081526040808320600160a060020a038916808552908352928190205481519081529051929392600080516020610b8b833981519152929181900390910190a35060019392505050565b600160a060020a031660009081526020819052604090205490565b600354600090600160a060020a031633146108a857600080fd5b60035460a060020a900460ff16156108bf57600080fd5b6003805460a060020a60ff02191660a060020a1790556040517fae5184fba832cb2b1f702aca6117b8d265eaf03ad33eb133f19dde0f5920fa0890600090a150600190565b600354600160a060020a031681565b604080518082019091526004815260e260020a631053d41502602082015281565b6000600160a060020a038316151561094b57600080fd5b3360009081526020819052604090205482111561096757600080fd5b33600090815260208190526040902054610987908363ffffffff610b4216565b3360009081526020819052604080822092909255600160a060020a038516815220546109b9908363ffffffff610b5416565b600160a060020a03841660008181526020818152604091829020939093558051858152905191923392600080516020610b6b8339815191529281900390910190a350600192915050565b336000908152600260209081526040808320600160a060020a0386168452909152812054610a37908363ffffffff610b5416565b336000818152600260209081526040808320600160a060020a038916808552908352928190208590558051948552519193600080516020610b8b833981519152929081900390910190a350600192915050565b600160a060020a03918216600090815260026020908152604080832093909416825291909152205490565b600190565b600354600160a060020a03163314610ad157600080fd5b600160a060020a0381161515610ae657600080fd5b600354604051600160a060020a038084169216907f8be0079c531659141344cd1fd0a4f28419497f9722a3daafe3b4186f6b6457e090600090a360038054600160a060020a031916600160a060020a0392909216919091179055565b600082821115610b4e57fe5b50900390565b600082820183811015610b6357fe5b93925050505600ddf252ad1be2c89b69c2b068fc378daa952ba7f163c4a11628f55a4df523b3ef8c5be1e5ebec7d5bd14f71427d1e84f3dd0314c0f7b2291e5b200ac8c7c3b925a165627a7a72305820f7ceedacf0653e889d1a5ee418b5040b2da933a7db9c3dbab00523d17860c76d0029a165627a7a7230582076ad0e2c097ccf5602457f42815f3f5a489874cfa65849e0b67ea177eff59a3f0029",
  "source": "pragma solidity ^0.4.18;\n\nimport './MockOptionFactory.sol';\n\ncontract MockWethOptionFactory is MockOptionFactory {\n  function MockWethOptionFactory(address _feeCalculator, address _erc721, address _weth)\n    MockOptionFactory(_feeCalculator, _erc721, _weth) {\n    }\n}\n",
  "sourcePath": "/Users/novosma/Documents/swprojects/github.com/eth_option/contracts/test/MockWethOptionFactory.sol",
  "compiler": {
    "name": "solc",
    "version": "0.4.24+commit.e67f0147.Emscripten.clang"
  },
  "schemaVersion": "2.0.0",
  "updatedAt": "2018-09-14T07:51:36.133Z"
}