{
  "contractName": "OptionPair",
  "abi": [
    {
      "constant": true,
      "inputs": [],
      "name": "tokenOption",
      "outputs": [
        {
          "name": "",
          "type": "address"
        }
      ],
      "payable": false,
      "stateMutability": "view",
      "type": "function"
    },
    {
      "constant": true,
      "inputs": [],
      "name": "tokenAntiOption",
      "outputs": [
        {
          "name": "",
          "type": "address"
        }
      ],
      "payable": false,
      "stateMutability": "view",
      "type": "function"
    },
    {
      "constant": true,
      "inputs": [],
      "name": "expireTime",
      "outputs": [
        {
          "name": "",
          "type": "uint256"
        }
      ],
      "payable": false,
      "stateMutability": "view",
      "type": "function"
    },
    {
      "constant": true,
      "inputs": [],
      "name": "underlyingQty",
      "outputs": [
        {
          "name": "",
          "type": "uint256"
        }
      ],
      "payable": false,
      "stateMutability": "view",
      "type": "function"
    },
    {
      "constant": true,
      "inputs": [],
      "name": "underlying",
      "outputs": [
        {
          "name": "",
          "type": "address"
        }
      ],
      "payable": false,
      "stateMutability": "view",
      "type": "function"
    },
    {
      "constant": true,
      "inputs": [],
      "name": "feeTaker",
      "outputs": [
        {
          "name": "",
          "type": "address"
        }
      ],
      "payable": false,
      "stateMutability": "view",
      "type": "function"
    },
    {
      "constant": true,
      "inputs": [],
      "name": "strike",
      "outputs": [
        {
          "name": "",
          "type": "uint256"
        }
      ],
      "payable": false,
      "stateMutability": "view",
      "type": "function"
    },
    {
      "constant": true,
      "inputs": [],
      "name": "feeCalculator",
      "outputs": [
        {
          "name": "",
          "type": "address"
        }
      ],
      "payable": false,
      "stateMutability": "view",
      "type": "function"
    },
    {
      "constant": true,
      "inputs": [],
      "name": "basisToken",
      "outputs": [
        {
          "name": "",
          "type": "address"
        }
      ],
      "payable": false,
      "stateMutability": "view",
      "type": "function"
    },
    {
      "inputs": [
        {
          "name": "_underlying",
          "type": "address"
        },
        {
          "name": "_basisToken",
          "type": "address"
        },
        {
          "name": "_strike",
          "type": "uint256"
        },
        {
          "name": "_underlyingQty",
          "type": "uint256"
        },
        {
          "name": "_expireTime",
          "type": "uint256"
        },
        {
          "name": "_feeCalculator",
          "type": "address"
        },
        {
          "name": "_feeTaker",
          "type": "address"
        }
      ],
      "payable": false,
      "stateMutability": "nonpayable",
      "type": "constructor"
    },
    {
      "payable": true,
      "stateMutability": "payable",
      "type": "fallback"
    },
    {
      "constant": false,
      "inputs": [
        {
          "name": "_qty",
          "type": "uint256"
        }
      ],
      "name": "writeOptions",
      "outputs": [
        {
          "name": "",
          "type": "bool"
        }
      ],
      "payable": false,
      "stateMutability": "nonpayable",
      "type": "function"
    },
    {
      "constant": false,
      "inputs": [
        {
          "name": "_qty",
          "type": "uint256"
        },
        {
          "name": "_writer",
          "type": "address"
        },
        {
          "name": "_feeFromWriter",
          "type": "bool"
        }
      ],
      "name": "writeOptionsFor",
      "outputs": [
        {
          "name": "",
          "type": "bool"
        }
      ],
      "payable": false,
      "stateMutability": "nonpayable",
      "type": "function"
    },
    {
      "constant": false,
      "inputs": [
        {
          "name": "_qty",
          "type": "uint256"
        }
      ],
      "name": "annihilate",
      "outputs": [
        {
          "name": "",
          "type": "bool"
        }
      ],
      "payable": false,
      "stateMutability": "nonpayable",
      "type": "function"
    },
    {
      "constant": false,
      "inputs": [],
      "name": "annihilateAllAvailable",
      "outputs": [
        {
          "name": "",
          "type": "bool"
        }
      ],
      "payable": false,
      "stateMutability": "nonpayable",
      "type": "function"
    },
    {
      "constant": true,
      "inputs": [],
      "name": "getTotalOpenInterest",
      "outputs": [
        {
          "name": "res",
          "type": "uint256"
        }
      ],
      "payable": false,
      "stateMutability": "view",
      "type": "function"
    },
    {
      "constant": false,
      "inputs": [
        {
          "name": "_qty",
          "type": "uint256"
        }
      ],
      "name": "execute",
      "outputs": [
        {
          "name": "",
          "type": "bool"
        }
      ],
      "payable": false,
      "stateMutability": "nonpayable",
      "type": "function"
    },
    {
      "constant": false,
      "inputs": [
        {
          "name": "_buyer",
          "type": "address"
        },
        {
          "name": "_qty",
          "type": "uint256"
        }
      ],
      "name": "executeFor",
      "outputs": [
        {
          "name": "",
          "type": "bool"
        }
      ],
      "payable": false,
      "stateMutability": "nonpayable",
      "type": "function"
    },
    {
      "constant": false,
      "inputs": [],
      "name": "withdrawAll",
      "outputs": [
        {
          "name": "",
          "type": "bool"
        }
      ],
      "payable": false,
      "stateMutability": "nonpayable",
      "type": "function"
    },
    {
      "constant": false,
      "inputs": [
        {
          "name": "_qty",
          "type": "uint256"
        }
      ],
      "name": "withdraw",
      "outputs": [
        {
          "name": "",
          "type": "bool"
        }
      ],
      "payable": false,
      "stateMutability": "nonpayable",
      "type": "function"
    },
    {
      "constant": true,
      "inputs": [
        {
          "name": "holder",
          "type": "address"
        }
      ],
      "name": "getAvailableUnderlying",
      "outputs": [
        {
          "name": "",
          "type": "uint256"
        }
      ],
      "payable": false,
      "stateMutability": "view",
      "type": "function"
    },
    {
      "constant": true,
      "inputs": [],
      "name": "getCurrentTime",
      "outputs": [
        {
          "name": "",
          "type": "uint256"
        }
      ],
      "payable": false,
      "stateMutability": "view",
      "type": "function"
    },
    {
      "constant": false,
      "inputs": [
        {
          "name": "_qty",
          "type": "uint256"
        },
        {
          "name": "_limitAmount",
          "type": "uint256"
        },
        {
          "name": "_exchangeAdapter",
          "type": "address"
        }
      ],
      "name": "exerciseWithTrade",
      "outputs": [],
      "payable": false,
      "stateMutability": "nonpayable",
      "type": "function"
    }
  ],
  "bytecode": "0x60806040526000805460ff191690553480156200001b57600080fd5b5060405160e0806200342d83398101604090815281516020830151918301516060840151608085015160a086015160c09096015160008054600160a060020a038088166101000261010060a860020a03199092169190911790915560018054828916600160a060020a03199182161790915560028690556003859055600484905560058054928a16929091169190911790559395929391929091620000bf62000161565b604051809103906000f080158015620000dc573d6000803e3d6000fd5b5060068054600160a060020a031916600160a060020a03929092169190911790556200010762000172565b604051809103906000f08015801562000124573d6000803e3d6000fd5b5060078054600160a060020a03928316600160a060020a031991821617909155600880549390921692169190911790555062000183945050505050565b604051610bf58062001c3d83390190565b604051610bfb806200283283390190565b611aaa80620001936000396000f3006080604052600436106101035763ffffffff60e060020a6000350416630aae7ae58114610108578063138d99ec1461013157806313b91a041461016257806329cb924d146101775780632e1a7d4d1461019e578063310a1ee3146101ca578063328c616d146101df5780633ed2517c146101f45780636dd7a166146102095780636f307dc31461022157806373fde90b14610236578063749f104414610257578063853828b61461026c5780639c2c291514610281578063ad8f500814610296578063b00eb9fe146102ab578063ba405a0c146102c0578063bd173505146102d5578063d80ebbfc146102ed578063eface2c214610316578063fe0d94c11461033a575b600080fd5b34801561011457600080fd5b5061012f600435602435600160a060020a0360443516610352565b005b34801561013d57600080fd5b50610146610806565b60408051600160a060020a039092168252519081900360200190f35b34801561016e57600080fd5b50610146610815565b34801561018357600080fd5b5061018c610824565b60408051918252519081900360200190f35b3480156101aa57600080fd5b506101b6600435610828565b604080519115158252519081900360200190f35b3480156101d657600080fd5b5061018c610876565b3480156101eb57600080fd5b5061018c61087c565b34801561020057600080fd5b5061018c6108f6565b34801561021557600080fd5b506101b66004356108fc565b34801561022d57600080fd5b50610146610924565b34801561024257600080fd5b5061018c600160a060020a0360043516610938565b34801561026357600080fd5b50610146610ad0565b34801561027857600080fd5b506101b6610adf565b34801561028d57600080fd5b506101b6610ba6565b3480156102a257600080fd5b5061018c610cfa565b3480156102b757600080fd5b50610146610d00565b3480156102cc57600080fd5b50610146610d0f565b3480156102e157600080fd5b506101b6600435610d1e565b3480156102f957600080fd5b506101b6600435600160a060020a03602435166044351515610d47565b34801561032257600080fd5b506101b6600160a060020a0360043516602435610d83565b34801561034657600080fd5b506101b6600435610dbd565b600080548190819081908190819081908190819060ff161561037357600080fd5b6000805460ff19166001179055600254610393908d63ffffffff610de616565b9850888b10156103a257600080fd5b6103ac338d610e1c565b506003548a98506103c4908d9063ffffffff610de616565b600080546040805160e060020a63095ea7b3028152600160a060020a038f81166004830152602482018690529151949b50610100909204169263095ea7b392604480840193602093929083900390910190829087803b15801561042657600080fd5b505af115801561043a573d6000803e3d6000fd5b505050506040513d602081101561045057600080fd5b50506001546040805160e060020a6370a082310281523060048201529051600160a060020a03909216916370a08231916024808201926020929091908290030181600087803b1580156104a257600080fd5b505af11580156104b6573d6000803e3d6000fd5b505050506040513d60208110156104cc57600080fd5b5051600080546040805160e060020a6370a082310281523060048201529051939950610100909104600160a060020a0316926370a0823192602480840193602093929083900390910190829087803b15801561052757600080fd5b505af115801561053b573d6000803e3d6000fd5b505050506040513d602081101561055157600080fd5b505194508685101561056257600080fd5b600080546001546040805160e060020a63f9cf7c21028152600160a060020a0361010090940484166004820152602481018c90529183166044830152606482018f905233608483015251918b169263f9cf7c219260a48084019382900301818387803b1580156105d157600080fd5b505af11580156105e5573d6000803e3d6000fd5b5050600080546040805160e060020a6370a082310281523060048201529051610100909204600160a060020a031694506370a0823193506024808201936020939283900390910190829087803b15801561063e57600080fd5b505af1158015610652573d6000803e3d6000fd5b505050506040513d602081101561066857600080fd5b505193508661067d868663ffffffff610f5816565b111561068857600080fd5b6001546040805160e060020a6370a082310281523060048201529051600160a060020a03909216916370a08231916024808201926020929091908290030181600087803b1580156106d857600080fd5b505af11580156106ec573d6000803e3d6000fd5b505050506040513d602081101561070257600080fd5b50519250610716838763ffffffff610f5816565b600080546040805160e060020a63095ea7b3028152600160a060020a038f81166004830152602482018590529151949650610100909204169263095ea7b392604480840193602093929083900390910190829087803b15801561077857600080fd5b505af115801561078c573d6000803e3d6000fd5b505050506040513d60208110156107a257600080fd5b50508a8210156107b157600080fd5b888210156107be57600080fd5b6107ce828a63ffffffff610f5816565b6001549091506107ee90600160a060020a0316338363ffffffff610f6a16565b50506000805460ff1916905550505050505050505050565b600654600160a060020a031681565b600754600160a060020a031681565b4290565b6000805460ff161561083957600080fd5b6000805460ff19166001179055600454610851610824565b101561085c57600080fd5b6108663383611006565b6000805460ff1916905592915050565b60045481565b6006546040805160e060020a6318160ddd0281529051600092600160a060020a0316916318160ddd91600480830192602092919082900301818787803b1580156108c557600080fd5b505af11580156108d9573d6000803e3d6000fd5b505050506040513d60208110156108ef57600080fd5b5051905090565b60035481565b6000805460ff161561090d57600080fd5b6000805460ff1916600117905561086633836113c2565b6000546101009004600160a060020a031681565b6007546040805160e060020a6318160ddd0281529051600092600160a060020a031691610ac99183916318160ddd91600480830192602092919082900301818987803b15801561098757600080fd5b505af115801561099b573d6000803e3d6000fd5b505050506040513d60208110156109b157600080fd5b50516040805160e060020a6370a08231028152600160a060020a0387811660048301529151610abd928616916370a082319160248083019260209291908290030181600087803b158015610a0457600080fd5b505af1158015610a18573d6000803e3d6000fd5b505050506040513d6020811015610a2e57600080fd5b5051600080546040805160e060020a6370a082310281523060048201529051610100909204600160a060020a0316926370a08231926024808401936020939083900390910190829087803b158015610a8557600080fd5b505af1158015610a99573d6000803e3d6000fd5b505050506040513d6020811015610aaf57600080fd5b50519063ffffffff610de616565b9063ffffffff61157c16565b9392505050565b600854600160a060020a031681565b6000805460ff1615610af057600080fd5b6000805460ff19166001179055600454610b08610824565b1015610b1357600080fd5b6007546040805160e060020a6370a0823102815233600482018190529151610b9793600160a060020a0316916370a082319160248083019260209291908290030181600087803b158015610b6657600080fd5b505af1158015610b7a573d6000803e3d6000fd5b505050506040513d6020811015610b9057600080fd5b5051611006565b90506000805460ff1916905590565b600080548190819060ff1615610bbb57600080fd5b6000805460ff191660011781556006546040805160e060020a6370a082310281523360048201529051600160a060020a03909216926370a08231926024808401936020939083900390910190829087803b158015610c1857600080fd5b505af1158015610c2c573d6000803e3d6000fd5b505050506040513d6020811015610c4257600080fd5b50516007546040805160e060020a6370a082310281523360048201529051929450600160a060020a03909116916370a08231916024808201926020929091908290030181600087803b158015610c9757600080fd5b505af1158015610cab573d6000803e3d6000fd5b505050506040513d6020811015610cc157600080fd5b5051905080821015610cde57610cd733836113c2565b9250610ceb565b610ce833826113c2565b92505b50506000805460ff1916905590565b60025481565b600554600160a060020a031681565b600154600160a060020a031681565b6000805460ff1615610d2f57600080fd5b6000805460ff19166001179055610866823380611593565b6000805460ff1615610d5857600080fd5b6000805460ff19166001179055610d71848433856115aa565b6000805460ff19169055949350505050565b6000805460ff1615610d9457600080fd5b6000805460ff19166001179055610dac833384611866565b6000805460ff191690559392505050565b6000805460ff1615610dce57600080fd5b6000805460ff19166001179055610866338084611866565b600080831515610df95760009150610e15565b50828202828482811515610e0957fe5b0414610e1157fe5b8091505b5092915050565b600080600454610e2a610824565b10610e3457600080fd5b506006546040805160e060020a6370a08231028152600160a060020a03868116600483015291519190921691849183916370a082319160248083019260209291908290030181600087803b158015610e8b57600080fd5b505af1158015610e9f573d6000803e3d6000fd5b505050506040513d6020811015610eb557600080fd5b50511015610ec257600080fd5b600160a060020a0384163014610eed57610eed600160a060020a03821685308663ffffffff61190416565b80600160a060020a03166342966c68846040518263ffffffff1660e060020a02815260040180828152602001915050600060405180830381600087803b158015610f3657600080fd5b505af1158015610f4a573d6000803e3d6000fd5b506001979650505050505050565b600082821115610f6457fe5b50900390565b82600160a060020a031663a9059cbb83836040518363ffffffff1660e060020a0281526004018083600160a060020a0316600160a060020a0316815260200182815260200192505050602060405180830381600087803b158015610fcd57600080fd5b505af1158015610fe1573d6000803e3d6000fd5b505050506040513d6020811015610ff757600080fd5b5051151561100157fe5b505050565b6007546040805160e060020a6370a08231028152600160a060020a0385811660048301529151600093929092169183918291869185916370a082319160248082019260209290919082900301818887803b15801561106357600080fd5b505af1158015611077573d6000803e3d6000fd5b505050506040513d602081101561108d57600080fd5b5051101561109a57600080fd5b600080546040805160e060020a6370a0823102815230600482015290516110f4928992610100909104600160a060020a0316916370a082319160248082019260209290919082900301818987803b158015610a8557600080fd5b10156110ff57600080fd5b6001546040805160e060020a6370a082310281523060048201529051600092611157928992600160a060020a03909216916370a082319160248082019260209290919082900301818987803b158015610a8557600080fd5b101561116257600080fd5b61117d600160a060020a03841687308863ffffffff61190416565b61124383600160a060020a03166318160ddd6040518163ffffffff1660e060020a028152600401602060405180830381600087803b1580156111be57600080fd5b505af11580156111d2573d6000803e3d6000fd5b505050506040513d60208110156111e857600080fd5b5051600080546040805160e060020a6370a082310281523060048201529051610abd938b936101009004600160a060020a0316926370a082319260248083019360209383900390910190829087803b158015610a8557600080fd5b9150600082111561126a5760005461126a906101009004600160a060020a03168784610f6a565b61132d83600160a060020a03166318160ddd6040518163ffffffff1660e060020a028152600401602060405180830381600087803b1580156112ab57600080fd5b505af11580156112bf573d6000803e3d6000fd5b505050506040513d60208110156112d557600080fd5b50516001546040805160e060020a6370a082310281523060048201529051610abd928a92600160a060020a03909116916370a08231916024808201926020929091908290030181600087803b158015610a8557600080fd5b905060008111156113555760015461135590600160a060020a0316878363ffffffff610f6a16565b82600160a060020a03166342966c68866040518263ffffffff1660e060020a02815260040180828152602001915050600060405180830381600087803b15801561139e57600080fd5b505af11580156113b2573d6000803e3d6000fd5b5060019998505050505050505050565b6006546007546040805160e060020a6370a08231028152600160a060020a038681166004830152915160009483169390921691859184916370a082319160248082019260209290919082900301818a87803b15801561142057600080fd5b505af1158015611434573d6000803e3d6000fd5b505050506040513d602081101561144a57600080fd5b5051101561145757600080fd5b8381600160a060020a03166370a08231876040518263ffffffff1660e060020a0281526004018082600160a060020a0316600160a060020a03168152602001915050602060405180830381600087803b1580156114b357600080fd5b505af11580156114c7573d6000803e3d6000fd5b505050506040513d60208110156114dd57600080fd5b505110156114ea57600080fd5b6114f48585611006565b50611510600160a060020a03831686308763ffffffff61190416565b81600160a060020a03166342966c68856040518263ffffffff1660e060020a02815260040180828152602001915050600060405180830381600087803b15801561155957600080fd5b505af115801561156d573d6000803e3d6000fd5b50600198975050505050505050565b600080828481151561158a57fe5b04949350505050565b60006115a284848460016115aa565b949350505050565b60008060006004546115ba610824565b106115c457600080fd5b600087116115d157600080fd5b6003546115e590889063ffffffff610de616565b600080546040805160e160020a636eb1769f028152600160a060020a038a8116600483015230602483015291519496506101009092041693508492849263dd62ed3e92604480820193602093909283900390910190829087803b15801561164b57600080fd5b505af115801561165f573d6000803e3d6000fd5b505050506040513d602081101561167557600080fd5b5051101561168257600080fd5b8181600160a060020a03166370a08231876040518263ffffffff1660e060020a0281526004018082600160a060020a0316600160a060020a03168152602001915050602060405180830381600087803b1580156116de57600080fd5b505af11580156116f2573d6000803e3d6000fd5b505050506040513d602081101561170857600080fd5b5051101561171557600080fd5b611730600160a060020a03821686308563ffffffff61190416565b6006546040805160e060020a6340c10f19028152600160a060020a038981166004830152602482018b9052915191909216916340c10f199160448083019260209291908290030181600087803b15801561178957600080fd5b505af115801561179d573d6000803e3d6000fd5b505050506040513d60208110156117b357600080fd5b50506007546040805160e060020a6340c10f19028152600160a060020a038981166004830152602482018b9052915191909216916340c10f199160448083019260209291908290030181600087803b15801561180e57600080fd5b505af1158015611822573d6000803e3d6000fd5b505050506040513d602081101561183857600080fd5b5050831561184f5761184a878761199c565b611859565b611859878661199c565b5060019695505050505050565b600080600454611874610824565b1061187e57600080fd5b6118888584610e1c565b151561189357600080fd5b6118c4856118ac60035486610de690919063ffffffff16565b6000546101009004600160a060020a03169190610f6a565b6002546118d890849063ffffffff610de616565b6001549091506118f990600160a060020a031685308463ffffffff61190416565b506001949350505050565b6040805160e060020a6323b872dd028152600160a060020a0385811660048301528481166024830152604482018490529151918616916323b872dd916064808201926020929091908290030181600087803b15801561196257600080fd5b505af1158015611976573d6000803e3d6000fd5b505050506040513d602081101561198c57600080fd5b5051151561199657fe5b50505050565b600854600090819081908190600160a060020a03868116911614611a76576005546040805160e160020a630e8b61f7028152306004820152602481018990528151600160a060020a0390931696508692631d16c3ee926044808401939192918290030181600087803b158015611a1157600080fd5b505af1158015611a25573d6000803e3d6000fd5b505050506040513d6040811015611a3b57600080fd5b508051602090910151935091508190506000831115611a7657600854611a7690600160a060020a03838116918891168663ffffffff61190416565b5050505050505600a165627a7a72305820bf981285591432fa78e8f354c885fc1c26383010ebd42750d3b01e002dcc04490029608060405260038054600160a860020a03191633179055610bd0806100256000396000f3006080604052600436106100ed5763ffffffff60e060020a60003504166305d2035b81146100f257806306fdde031461011b578063095ea7b3146101a557806318160ddd146101c957806323b872dd146101f0578063313ce5671461021a57806340c10f191461024557806342966c6814610269578063610ece1f1461028357806366188463146102b457806370a08231146102d85780637d64bcb4146102f95780638da5cb5b1461030e57806395d89b4114610323578063a9059cbb14610338578063d73dd6231461035c578063dd62ed3e14610380578063e3b9ada2146103a7578063f2fde38b146103bc575b600080fd5b3480156100fe57600080fd5b506101076103dd565b604080519115158252519081900360200190f35b34801561012757600080fd5b506101306103ed565b6040805160208082528351818301528351919283929083019185019080838360005b8381101561016a578181015183820152602001610152565b50505050905090810190601f1680156101975780820380516001836020036101000a031916815260200191505b509250505060405180910390f35b3480156101b157600080fd5b50610107600160a060020a0360043516602435610416565b3480156101d557600080fd5b506101de61046a565b60408051918252519081900360200190f35b3480156101fc57600080fd5b50610107600160a060020a0360043581169060243516604435610470565b34801561022657600080fd5b5061022f6105d5565b6040805160ff9092168252519081900360200190f35b34801561025157600080fd5b50610107600160a060020a03600435166024356105da565b34801561027557600080fd5b506102816004356106d2565b005b34801561028f57600080fd5b50610298610781565b60408051600160a060020a039092168252519081900360200190f35b3480156102c057600080fd5b50610107600160a060020a0360043516602435610790565b3480156102e457600080fd5b506101de600160a060020a036004351661086e565b34801561030557600080fd5b50610107610889565b34801561031a57600080fd5b506102986108ff565b34801561032f57600080fd5b5061013061090e565b34801561034457600080fd5b50610107600160a060020a036004351660243561092e565b34801561036857600080fd5b50610107600160a060020a03600435166024356109fd565b34801561038c57600080fd5b506101de600160a060020a0360043581169060243516610a84565b3480156103b357600080fd5b50610107610aaf565b3480156103c857600080fd5b50610281600160a060020a0360043516610ab4565b60035460a060020a900460ff1681565b60408051808201909152600c815260a160020a6b22a92199181027b83a34b7b702602082015281565b336000818152600260209081526040808320600160a060020a03871680855290835281842086905581518681529151939490939092600080516020610b85833981519152928290030190a350600192915050565b60015490565b6000600160a060020a038316151561048757600080fd5b600160a060020a0384166000908152602081905260409020548211156104ac57600080fd5b600160a060020a03841660009081526002602090815260408083203384529091529020548211156104dc57600080fd5b600160a060020a038416600090815260208190526040902054610505908363ffffffff610b3c16565b600160a060020a03808616600090815260208190526040808220939093559085168152205461053a908363ffffffff610b4e16565b600160a060020a0380851660009081526020818152604080832094909455918716815260028252828120338252909152205461057c908363ffffffff610b3c16565b600160a060020a0380861660008181526002602090815260408083203384528252918290209490945580518681529051928716939192600080516020610b65833981519152929181900390910190a35060019392505050565b601281565b600354600090600160a060020a031633146105f457600080fd5b60035460a060020a900460ff161561060b57600080fd5b60015461061e908363ffffffff610b4e16565b600155600160a060020a03831660009081526020819052604090205461064a908363ffffffff610b4e16565b600160a060020a03841660008181526020818152604091829020939093558051858152905191927f0f6798a560793a54c3bcfe86a93cde1e73087d944c0ea20544137d412139688592918290030190a2604080518381529051600160a060020a03851691600091600080516020610b658339815191529181900360200190a350600192915050565b336000908152602081905260408120548211156106ee57600080fd5b503360008181526020819052604090205461070f908363ffffffff610b3c16565b600160a060020a03821660009081526020819052604090205560015461073b908363ffffffff610b3c16565b600155604080518381529051600160a060020a038316917fcc16f5dbb4873280815c1ee09dbd06736cffcc184412cf7a71a0fdb75d397ca5919081900360200190a25050565b600354600160a060020a031690565b336000908152600260209081526040808320600160a060020a0386168452909152812054808311156107e557336000908152600260209081526040808320600160a060020a038816845290915281205561081a565b6107f5818463ffffffff610b3c16565b336000908152600260209081526040808320600160a060020a03891684529091529020555b336000818152600260209081526040808320600160a060020a038916808552908352928190205481519081529051929392600080516020610b85833981519152929181900390910190a35060019392505050565b600160a060020a031660009081526020819052604090205490565b600354600090600160a060020a031633146108a357600080fd5b60035460a060020a900460ff16156108ba57600080fd5b6003805460a060020a60ff02191660a060020a1790556040517fae5184fba832cb2b1f702aca6117b8d265eaf03ad33eb133f19dde0f5920fa0890600090a150600190565b600354600160a060020a031681565b604080518082019091526003815260ea60020a6213d41502602082015281565b6000600160a060020a038316151561094557600080fd5b3360009081526020819052604090205482111561096157600080fd5b33600090815260208190526040902054610981908363ffffffff610b3c16565b3360009081526020819052604080822092909255600160a060020a038516815220546109b3908363ffffffff610b4e16565b600160a060020a03841660008181526020818152604091829020939093558051858152905191923392600080516020610b658339815191529281900390910190a350600192915050565b336000908152600260209081526040808320600160a060020a0386168452909152812054610a31908363ffffffff610b4e16565b336000818152600260209081526040808320600160a060020a038916808552908352928190208590558051948552519193600080516020610b85833981519152929081900390910190a350600192915050565b600160a060020a03918216600090815260026020908152604080832093909416825291909152205490565b600090565b600354600160a060020a03163314610acb57600080fd5b600160a060020a0381161515610ae057600080fd5b600354604051600160a060020a038084169216907f8be0079c531659141344cd1fd0a4f28419497f9722a3daafe3b4186f6b6457e090600090a360038054600160a060020a031916600160a060020a0392909216919091179055565b600082821115610b4857fe5b50900390565b600082820183811015610b5d57fe5b93925050505600ddf252ad1be2c89b69c2b068fc378daa952ba7f163c4a11628f55a4df523b3ef8c5be1e5ebec7d5bd14f71427d1e84f3dd0314c0f7b2291e5b200ac8c7c3b925a165627a7a7230582079a6fdb7124597680ebb486c34f1c75898e72b511fdd75a75211cf26875a4ee70029608060405260038054600160a860020a03191633179055610bd6806100256000396000f3006080604052600436106100ed5763ffffffff60e060020a60003504166305d2035b81146100f257806306fdde031461011b578063095ea7b3146101a557806318160ddd146101c957806323b872dd146101f0578063313ce5671461021a57806340c10f191461024557806342966c6814610269578063610ece1f1461028357806366188463146102b457806370a08231146102d85780637d64bcb4146102f95780638da5cb5b1461030e57806395d89b4114610323578063a9059cbb14610338578063d73dd6231461035c578063dd62ed3e14610380578063e3b9ada2146103a7578063f2fde38b146103bc575b600080fd5b3480156100fe57600080fd5b506101076103dd565b604080519115158252519081900360200190f35b34801561012757600080fd5b506101306103ed565b6040805160208082528351818301528351919283929083019185019080838360005b8381101561016a578181015183820152602001610152565b50505050905090810190601f1680156101975780820380516001836020036101000a031916815260200191505b509250505060405180910390f35b3480156101b157600080fd5b50610107600160a060020a036004351660243561041b565b3480156101d557600080fd5b506101de61046f565b60408051918252519081900360200190f35b3480156101fc57600080fd5b50610107600160a060020a0360043581169060243516604435610475565b34801561022657600080fd5b5061022f6105da565b6040805160ff9092168252519081900360200190f35b34801561025157600080fd5b50610107600160a060020a03600435166024356105df565b34801561027557600080fd5b506102816004356106d7565b005b34801561028f57600080fd5b50610298610786565b60408051600160a060020a039092168252519081900360200190f35b3480156102c057600080fd5b50610107600160a060020a0360043516602435610795565b3480156102e457600080fd5b506101de600160a060020a0360043516610873565b34801561030557600080fd5b5061010761088e565b34801561031a57600080fd5b50610298610904565b34801561032f57600080fd5b50610130610913565b34801561034457600080fd5b50610107600160a060020a0360043516602435610934565b34801561036857600080fd5b50610107600160a060020a0360043516602435610a03565b34801561038c57600080fd5b506101de600160a060020a0360043581169060243516610a8a565b3480156103b357600080fd5b50610107610ab5565b3480156103c857600080fd5b50610281600160a060020a0360043516610aba565b60035460a060020a900460ff1681565b6040805180820190915260118152607960020a7022a92199181020b73a3496a7b83a34b7b702602082015281565b336000818152600260209081526040808320600160a060020a03871680855290835281842086905581518681529151939490939092600080516020610b8b833981519152928290030190a350600192915050565b60015490565b6000600160a060020a038316151561048c57600080fd5b600160a060020a0384166000908152602081905260409020548211156104b157600080fd5b600160a060020a03841660009081526002602090815260408083203384529091529020548211156104e157600080fd5b600160a060020a03841660009081526020819052604090205461050a908363ffffffff610b4216565b600160a060020a03808616600090815260208190526040808220939093559085168152205461053f908363ffffffff610b5416565b600160a060020a03808516600090815260208181526040808320949094559187168152600282528281203382529091522054610581908363ffffffff610b4216565b600160a060020a0380861660008181526002602090815260408083203384528252918290209490945580518681529051928716939192600080516020610b6b833981519152929181900390910190a35060019392505050565b601281565b600354600090600160a060020a031633146105f957600080fd5b60035460a060020a900460ff161561061057600080fd5b600154610623908363ffffffff610b5416565b600155600160a060020a03831660009081526020819052604090205461064f908363ffffffff610b5416565b600160a060020a03841660008181526020818152604091829020939093558051858152905191927f0f6798a560793a54c3bcfe86a93cde1e73087d944c0ea20544137d412139688592918290030190a2604080518381529051600160a060020a03851691600091600080516020610b6b8339815191529181900360200190a350600192915050565b336000908152602081905260408120548211156106f357600080fd5b5033600081815260208190526040902054610714908363ffffffff610b4216565b600160a060020a038216600090815260208190526040902055600154610740908363ffffffff610b4216565b600155604080518381529051600160a060020a038316917fcc16f5dbb4873280815c1ee09dbd06736cffcc184412cf7a71a0fdb75d397ca5919081900360200190a25050565b600354600160a060020a031690565b336000908152600260209081526040808320600160a060020a0386168452909152812054808311156107ea57336000908152600260209081526040808320600160a060020a038816845290915281205561081f565b6107fa818463ffffffff610b4216565b336000908152600260209081526040808320600160a060020a03891684529091529020555b336000818152600260209081526040808320600160a060020a038916808552908352928190205481519081529051929392600080516020610b8b833981519152929181900390910190a35060019392505050565b600160a060020a031660009081526020819052604090205490565b600354600090600160a060020a031633146108a857600080fd5b60035460a060020a900460ff16156108bf57600080fd5b6003805460a060020a60ff02191660a060020a1790556040517fae5184fba832cb2b1f702aca6117b8d265eaf03ad33eb133f19dde0f5920fa0890600090a150600190565b600354600160a060020a031681565b604080518082019091526004815260e260020a631053d41502602082015281565b6000600160a060020a038316151561094b57600080fd5b3360009081526020819052604090205482111561096757600080fd5b33600090815260208190526040902054610987908363ffffffff610b4216565b3360009081526020819052604080822092909255600160a060020a038516815220546109b9908363ffffffff610b5416565b600160a060020a03841660008181526020818152604091829020939093558051858152905191923392600080516020610b6b8339815191529281900390910190a350600192915050565b336000908152600260209081526040808320600160a060020a0386168452909152812054610a37908363ffffffff610b5416565b336000818152600260209081526040808320600160a060020a038916808552908352928190208590558051948552519193600080516020610b8b833981519152929081900390910190a350600192915050565b600160a060020a03918216600090815260026020908152604080832093909416825291909152205490565b600190565b600354600160a060020a03163314610ad157600080fd5b600160a060020a0381161515610ae657600080fd5b600354604051600160a060020a038084169216907f8be0079c531659141344cd1fd0a4f28419497f9722a3daafe3b4186f6b6457e090600090a360038054600160a060020a031916600160a060020a0392909216919091179055565b600082821115610b4e57fe5b50900390565b600082820183811015610b6357fe5b93925050505600ddf252ad1be2c89b69c2b068fc378daa952ba7f163c4a11628f55a4df523b3ef8c5be1e5ebec7d5bd14f71427d1e84f3dd0314c0f7b2291e5b200ac8c7c3b925a165627a7a72305820f7ceedacf0653e889d1a5ee418b5040b2da933a7db9c3dbab00523d17860c76d0029",
  "source": "pragma solidity ^0.4.18;\n\nimport 'zeppelin-solidity/contracts/math/SafeMath.sol';\nimport 'zeppelin-solidity/contracts/ownership/Ownable.sol';\nimport 'zeppelin-solidity/contracts/token/ERC20/ERC20.sol';\nimport 'zeppelin-solidity/contracts/token/ERC20/SafeERC20.sol';\nimport 'zeppelin-solidity/contracts/ReentrancyGuard.sol';\n\nimport './IFeeCalculator.sol';\nimport './IExchangeAdapter.sol';\nimport './TokenOption.sol';\nimport './TokenAntiOption.sol';\n\ncontract OptionPair is ReentrancyGuard {\n  using SafeMath for uint256;\n  using SafeERC20 for TokenOption;\n  using SafeERC20 for ERC20;\n  using SafeERC20 for TokenAntiOption;\n\n  address public underlying;\n  address public basisToken;\n  uint public strike;\n  uint public underlyingQty;\n  uint public expireTime;\n\n  address public feeCalculator;\n\n  address public tokenOption;\n  address public tokenAntiOption;\n\n  address public feeTaker;\n\n  modifier onlyBeforeExpiration() {\n    require(getCurrentTime() < expireTime);\n    _;\n  }\n\n  modifier onlyAfterExpiration() {\n    require(getCurrentTime() >= expireTime);\n    _;\n  }\n\n  function OptionPair (address _underlying, address _basisToken,\n    uint _strike, uint _underlyingQty, uint _expireTime,\n    address _feeCalculator, address _feeTaker)\n    ReentrancyGuard()\n    public\n    {\n      underlying = _underlying;\n      basisToken = _basisToken;\n      strike = _strike;\n      underlyingQty = _underlyingQty;\n      expireTime = _expireTime;\n      feeCalculator = _feeCalculator;\n      tokenOption = address(new TokenOption());\n      tokenAntiOption = address(new TokenAntiOption());\n      feeTaker = _feeTaker;\n  }\n\n  function () public payable {\n    revert();\n  }\n\n  function writeOptions(uint256 _qty) external nonReentrant returns (bool) {\n    return _writeOptionFor(_qty, msg.sender, msg.sender);\n  }\n\n  function writeOptionsFor(uint256 _qty, address _writer, bool _feeFromWriter) external nonReentrant returns (bool) {\n    return _writeOptionFor(_qty, _writer, msg.sender, _feeFromWriter);\n  }\n\n  function _writeOptionFor(uint256 _qty, address _writer, address _sponsor) private returns (bool) {\n    return _writeOptionFor(_qty, _writer, _sponsor, true);\n  }\n\n  function _writeOptionFor(uint256 _qty, address _writer, address _sponsor, bool _feeFromWriter) onlyBeforeExpiration private returns (bool) {\n    require(_qty > 0);\n    uint calcUnderlyngQty = _qty.mul(underlyingQty);\n    ERC20 underlyingErc20 =  ERC20(underlying);\n    require(underlyingErc20.allowance(_sponsor, this) >= calcUnderlyngQty); //TODO approve and execute\n    require(underlyingErc20.balanceOf(_sponsor) >= calcUnderlyngQty);\n\n    underlyingErc20.safeTransferFrom(_sponsor, this, calcUnderlyngQty);\n\n    TokenOption(tokenOption).mint(_writer, _qty);\n    TokenAntiOption(tokenAntiOption).mint(_writer, _qty);\n    if (_feeFromWriter) {\n      _takeFee(_qty, _writer);\n    } else {\n      _takeFee(_qty, _sponsor);\n    }\n\n    return true;\n  }\n\n  function annihilate(uint _qty) external nonReentrant returns (bool) {\n    return _annihilateFor(msg.sender, _qty);\n  }\n\n  function annihilateAllAvailable() external nonReentrant returns (bool) {\n    uint balanceOptions = ERC20(tokenOption).balanceOf(msg.sender);\n    uint balanceAntiOptions = ERC20(tokenAntiOption).balanceOf(msg.sender);\n    if (balanceOptions < balanceAntiOptions) {\n      return _annihilateFor(msg.sender, balanceOptions);\n    }\n    return _annihilateFor(msg.sender, balanceAntiOptions);\n  }\n\n  function _annihilateFor(address _holder, uint _qty) private returns (bool) {\n    TokenOption tokenOptionErc20 = TokenOption(tokenOption);\n    TokenAntiOption tokenAntiOptionErc20 = TokenAntiOption(tokenAntiOption);\n    require(tokenOptionErc20.balanceOf(_holder) >= _qty);\n    require(tokenAntiOptionErc20.balanceOf(_holder) >= _qty);\n\n    _withdrawFor(_holder, _qty); //anti-options are burned there\n    tokenOptionErc20.safeTransferFrom(_holder, this, _qty); //first we transfer into OptionPair accounnt as only from this account the tokens can be burned\n    tokenOptionErc20.burn(_qty);\n    return true;\n  }\n\n  function getTotalOpenInterest() public view returns(uint res) {\n    return ERC20(tokenOption).totalSupply();\n  }\n\n  function execute(uint _qty) external nonReentrant\n    returns (bool) {\n    return _executeFor(msg.sender, msg.sender, _qty);\n  }\n\n  function executeFor(address _buyer, uint _qty) external nonReentrant\n    returns (bool) {\n    return _executeFor(_buyer, msg.sender, _qty);\n  }\n\n  //from client perspective it is easier to approve option tokens for pair,\n  // butr unerlyiung and basis for some \"stable\" address, e.g. OptionFactory\n  function _executeFor (address _buyer, address _sponsorBasisTokens,  uint _qty)\n    private\n    onlyBeforeExpiration()\n    returns (bool) {\n    require (_prepareExerciseSellerFor(_buyer, _qty));\n    ERC20(underlying).safeTransfer(_buyer, _qty.mul(underlyingQty));\n    uint baseAmount = _qty.mul(strike);\n    ERC20(basisToken).safeTransferFrom(_sponsorBasisTokens, this, baseAmount);\n    return true;\n  }\n\n  function _prepareExerciseSellerFor (address _buyer,  uint _qty)\n    private\n    onlyBeforeExpiration()\n    returns (bool) {\n    TokenOption tokenOptionObj =  TokenOption(tokenOption);\n    require (tokenOptionObj.balanceOf(_buyer) >= _qty);\n    if (_buyer != address(this)) {\n      tokenOptionObj.safeTransferFrom(_buyer, this, _qty);\n    }\n    tokenOptionObj.burn(_qty);\n    return true;\n  }\n\n  function withdrawAll () external nonReentrant onlyAfterExpiration returns (bool) {\n    return _withdrawFor(msg.sender, TokenAntiOption(tokenAntiOption).balanceOf(msg.sender));\n  }\n\n  function withdraw (uint _qty) external nonReentrant onlyAfterExpiration returns (bool) {\n    return _withdrawFor(msg.sender, _qty);\n  }\n\n  function _withdrawFor(address _writer, uint _qty) private  returns (bool) {\n    TokenAntiOption tokenAntiOptionObj = TokenAntiOption(tokenAntiOption);\n    require (tokenAntiOptionObj.balanceOf(_writer) >= _qty);\n    require(ERC20(underlying).balanceOf(this).mul(_qty) >= 0); //to prevent oveflows\n    require(ERC20(basisToken).balanceOf(this).mul(_qty) >= 0); //to prevent oveflows\n\n    tokenAntiOptionObj.safeTransferFrom(_writer, this, _qty);\n\n    uint underlyingAvailableForAntiOption  =  ERC20(underlying).balanceOf(this).mul(_qty).div(tokenAntiOptionObj.totalSupply()); // can not use safe div\n    if (underlyingAvailableForAntiOption > 0) {\n        ERC20(underlying).safeTransfer(_writer, underlyingAvailableForAntiOption);\n    }\n\n    uint basisTokensAvailableForAntiOption  =  ERC20(basisToken).balanceOf(this).mul(_qty).div(tokenAntiOptionObj.totalSupply()); // can not use safe div\n    if (basisTokensAvailableForAntiOption > 0) {\n      ERC20(basisToken).safeTransfer(_writer, basisTokensAvailableForAntiOption);\n    }\n\n    tokenAntiOptionObj.burn(_qty);\n    return true;\n  }\n\n  function getAvailableUnderlying(address holder) public view returns(uint) {\n    TokenAntiOption tokenAntiOptionObj = TokenAntiOption(tokenAntiOption);\n    return ERC20(underlying).balanceOf(this).mul(tokenAntiOptionObj.balanceOf(holder)).div(tokenAntiOptionObj.totalSupply());\n  }\n\n  function getCurrentTime() public view returns (uint) { // made as function to be overridable for testing purposes\n    return now;\n  }\n\n  function _takeFee (uint _optionQty, address _feePayer) private {\n    if (_feePayer != feeTaker) {\n      IFeeCalculator feeCalculatorObj =  IFeeCalculator(feeCalculator);\n      uint fee;\n      address feeToken;\n      (feeToken, fee) = feeCalculatorObj.calcFee(address(this), _optionQty);\n      ERC20 feeTokenObj = ERC20(feeToken);\n      if (fee > 0) {\n        feeTokenObj.safeTransferFrom(_feePayer, feeTaker, fee);\n      }     \n    }\n  }\n\n  /**\n  The function allows for token Owner to exercise and sell underlying\n  without needs to have basisToken\n  @param _qty amount of Option token to be exerciced\n  @param _limitAmount minimum amount that seller want to get in \n  basis ERC20 tokens\n  @param _exchangeAdapter contract implementing interface IExchangeAdapter\n  */\n  function exerciseWithTrade (uint _qty, uint _limitAmount,\n    address _exchangeAdapter)\n    external\n    nonReentrant\n    {\n    uint basisAmount = strike.mul(_qty);\n    require(_limitAmount >= basisAmount);\n    _prepareExerciseSellerFor(msg.sender, _qty);\n\n    IExchangeAdapter exchangeAdapter = IExchangeAdapter(_exchangeAdapter);\n    uint underlyingQtyToSell = _qty.mul(underlyingQty);\n    ERC20(underlying).approve(_exchangeAdapter, underlyingQtyToSell);\n    uint basisBalanceBefore = ERC20(basisToken).balanceOf(this);\n    uint underlyingBalanceBefore = ERC20(underlying).balanceOf(this);\n    require(underlyingBalanceBefore >= underlyingQtyToSell);\n    exchangeAdapter\n      .sell(underlying, underlyingQtyToSell, basisToken, _limitAmount,\n      msg.sender);\n    uint underlyingBalanceAfter = ERC20(underlying).balanceOf(this);\n    require(underlyingBalanceBefore.sub(underlyingBalanceAfter) <=\n      underlyingQtyToSell);\n    uint basisBalanceAfter = ERC20(basisToken).balanceOf(this);\n    uint receivedBasisTokenAmount = basisBalanceAfter.sub(basisBalanceBefore);\n    ERC20(underlying).approve(_exchangeAdapter, 0);\n    require(receivedBasisTokenAmount >= _limitAmount);\n    require(receivedBasisTokenAmount >= basisAmount);\n    uint basisAmountToTransfer = receivedBasisTokenAmount.sub(basisAmount);\n    ERC20(basisToken).safeTransfer(msg.sender, basisAmountToTransfer);\n  }\n\n}\n",
  "sourcePath": "/Users/novosma/Documents/swprojects/github.com/eth_option/contracts/main/OptionPair.sol",
  "compiler": {
    "name": "solc",
    "version": "0.4.24+commit.e67f0147.Emscripten.clang"
  },
  "schemaVersion": "2.0.0",
  "updatedAt": "2018-09-14T07:51:36.117Z"
}