{
  "contractName": "OptionSerieValidator",
  "abi": [
    {
      "constant": true,
      "inputs": [],
      "name": "owner",
      "outputs": [
        {
          "name": "",
          "type": "address"
        }
      ],
      "payable": false,
      "stateMutability": "view",
      "type": "function"
    },
    {
      "constant": false,
      "inputs": [
        {
          "name": "newOwner",
          "type": "address"
        }
      ],
      "name": "transferOwnership",
      "outputs": [],
      "payable": false,
      "stateMutability": "nonpayable",
      "type": "function"
    },
    {
      "inputs": [
        {
          "name": "_feeCalculator",
          "type": "address"
        }
      ],
      "payable": false,
      "stateMutability": "nonpayable",
      "type": "constructor"
    },
    {
      "anonymous": false,
      "inputs": [
        {
          "indexed": true,
          "name": "previousOwner",
          "type": "address"
        },
        {
          "indexed": true,
          "name": "newOwner",
          "type": "address"
        }
      ],
      "name": "OwnershipTransferred",
      "type": "event"
    },
    {
      "constant": false,
      "inputs": [
        {
          "name": "_feeCalculator",
          "type": "address"
        }
      ],
      "name": "setFeeCalculator",
      "outputs": [],
      "payable": false,
      "stateMutability": "nonpayable",
      "type": "function"
    },
    {
      "constant": false,
      "inputs": [
        {
          "name": "_maxTimeSpan",
          "type": "uint256"
        }
      ],
      "name": "setMaxTimeSpan",
      "outputs": [],
      "payable": false,
      "stateMutability": "nonpayable",
      "type": "function"
    },
    {
      "constant": true,
      "inputs": [
        {
          "name": "_underlying",
          "type": "address"
        },
        {
          "name": "_basisToken",
          "type": "address"
        },
        {
          "name": "_strike",
          "type": "uint256"
        },
        {
          "name": "_underlyingQty",
          "type": "uint256"
        },
        {
          "name": "_expireTime",
          "type": "uint256"
        },
        {
          "name": "_feeCalculator",
          "type": "address"
        }
      ],
      "name": "isValidRequest",
      "outputs": [
        {
          "name": "",
          "type": "bool"
        }
      ],
      "payable": false,
      "stateMutability": "view",
      "type": "function"
    }
  ],
  "bytecode": "0x608060405234801561001057600080fd5b5060405160208061033c833981016040525160008054600160a060020a0319163317905561004681640100000000610061810204565b61005b62ed4e0064010000000061009a810204565b506100b6565b600054600160a060020a0316331461007857600080fd5b60018054600160a060020a031916600160a060020a0392909216919091179055565b600054600160a060020a031633146100b157600080fd5b600255565b610277806100c56000396000f3006080604052600436106100535763ffffffff60e060020a6000350416630c28d8ee81146100585780634cd8ddec146100a55780638c66d04f146100bf5780638da5cb5b146100e0578063f2fde38b14610111575b600080fd5b34801561006457600080fd5b50610091600160a060020a0360043581169060243581169060443590606435906084359060a43516610132565b604080519115158252519081900360200190f35b3480156100b157600080fd5b506100bd600435610160565b005b3480156100cb57600080fd5b506100bd600160a060020a036004351661017c565b3480156100ec57600080fd5b506100f56101b5565b60408051600160a060020a039092168252519081900360200190f35b34801561011d57600080fd5b506100bd600160a060020a03600435166101c4565b600154600090600160a060020a0383811691161480156101555750826002544201115b979650505050505050565b600054600160a060020a0316331461017757600080fd5b600255565b600054600160a060020a0316331461019357600080fd5b60018054600160a060020a031916600160a060020a0392909216919091179055565b600054600160a060020a031681565b600054600160a060020a031633146101db57600080fd5b600160a060020a03811615156101f057600080fd5b60008054604051600160a060020a03808516939216917f8be0079c531659141344cd1fd0a4f28419497f9722a3daafe3b4186f6b6457e091a360008054600160a060020a031916600160a060020a03929092169190911790555600a165627a7a72305820188081b805fdbd49e56245e5fabbd1d5ecc334d479eecfd296bcf846feeb5e9c0029",
  "source": "pragma solidity ^0.4.18;\n\nimport 'zeppelin-solidity/contracts/ownership/Ownable.sol';\n\ncontract OptionSerieValidator is Ownable {\n  address feeCalculator;\n  uint maxTimeSpan;\n  \n  function OptionSerieValidator (address _feeCalculator) {\n    setFeeCalculator(_feeCalculator);\n    setMaxTimeSpan(180 days);\n  }\n\n  function setFeeCalculator(address _feeCalculator) public onlyOwner {\n    feeCalculator = _feeCalculator;\n  }\n\n  function setMaxTimeSpan (uint _maxTimeSpan) public onlyOwner {\n    maxTimeSpan = _maxTimeSpan;\n  }\n\n  function isValidRequest(address _underlying, address _basisToken,\n   uint _strike, uint _underlyingQty, uint _expireTime, address _feeCalculator)\n   public\n   view\n   returns(bool) {\n     return _feeCalculator == feeCalculator  && (now + maxTimeSpan > _expireTime);\n   }\n   \n}",
  "sourcePath": "/Users/novosma/Documents/swprojects/github.com/eth_option/contracts/main/OptionSerieValidator.sol",
  "compiler": {
    "name": "solc",
    "version": "0.4.24+commit.e67f0147.Emscripten.clang"
  },
  "schemaVersion": "2.0.0",
  "updatedAt": "2018-09-19T09:59:31.562Z"
}