{
  "contractName": "OptionFactory",
  "abi": [
    {
      "constant": true,
      "inputs": [],
      "name": "weth",
      "outputs": [
        {
          "name": "",
          "type": "address"
        }
      ],
      "payable": false,
      "stateMutability": "view",
      "type": "function"
    },
    {
      "constant": true,
      "inputs": [],
      "name": "owner",
      "outputs": [
        {
          "name": "",
          "type": "address"
        }
      ],
      "payable": false,
      "stateMutability": "view",
      "type": "function"
    },
    {
      "constant": true,
      "inputs": [],
      "name": "feeCalculator",
      "outputs": [
        {
          "name": "",
          "type": "address"
        }
      ],
      "payable": false,
      "stateMutability": "view",
      "type": "function"
    },
    {
      "constant": true,
      "inputs": [],
      "name": "optionSerieOwnerToken",
      "outputs": [
        {
          "name": "",
          "type": "address"
        }
      ],
      "payable": false,
      "stateMutability": "view",
      "type": "function"
    },
    {
      "constant": false,
      "inputs": [
        {
          "name": "newOwner",
          "type": "address"
        }
      ],
      "name": "transferOwnership",
      "outputs": [],
      "payable": false,
      "stateMutability": "nonpayable",
      "type": "function"
    },
    {
      "inputs": [
        {
          "name": "_feeCalculator",
          "type": "address"
        },
        {
          "name": "_optionSerieOwnerToken",
          "type": "address"
        },
        {
          "name": "_weth",
          "type": "address"
        }
      ],
      "payable": false,
      "stateMutability": "nonpayable",
      "type": "constructor"
    },
    {
      "payable": true,
      "stateMutability": "payable",
      "type": "fallback"
    },
    {
      "anonymous": false,
      "inputs": [
        {
          "indexed": false,
          "name": "optionPair",
          "type": "address"
        },
        {
          "indexed": true,
          "name": "underlying",
          "type": "address"
        },
        {
          "indexed": true,
          "name": "basisToken",
          "type": "address"
        },
        {
          "indexed": false,
          "name": "strike",
          "type": "uint256"
        },
        {
          "indexed": false,
          "name": "underlyingQty",
          "type": "uint256"
        },
        {
          "indexed": false,
          "name": "expireTime",
          "type": "uint256"
        }
      ],
      "name": "OptionTokenCreated",
      "type": "event"
    },
    {
      "anonymous": false,
      "inputs": [
        {
          "indexed": true,
          "name": "previousOwner",
          "type": "address"
        },
        {
          "indexed": true,
          "name": "newOwner",
          "type": "address"
        }
      ],
      "name": "OwnershipTransferred",
      "type": "event"
    },
    {
      "constant": false,
      "inputs": [
        {
          "name": "_underlying",
          "type": "address"
        },
        {
          "name": "_basisToken",
          "type": "address"
        },
        {
          "name": "_strike",
          "type": "uint256"
        },
        {
          "name": "_underlyingQty",
          "type": "uint256"
        },
        {
          "name": "_expireTime",
          "type": "uint256"
        }
      ],
      "name": "createOptionPairContract",
      "outputs": [],
      "payable": false,
      "stateMutability": "nonpayable",
      "type": "function"
    },
    {
      "constant": false,
      "inputs": [
        {
          "name": "_addresses",
          "type": "address[3]"
        },
        {
          "name": "_values",
          "type": "uint256[3]"
        }
      ],
      "name": "createOptionPairContractFeeCalc",
      "outputs": [
        {
          "name": "",
          "type": "address"
        }
      ],
      "payable": false,
      "stateMutability": "nonpayable",
      "type": "function"
    },
    {
      "constant": false,
      "inputs": [
        {
          "name": "_optionPair",
          "type": "address"
        },
        {
          "name": "_qty",
          "type": "uint256"
        }
      ],
      "name": "writeOptionsWithEth",
      "outputs": [],
      "payable": true,
      "stateMutability": "payable",
      "type": "function"
    },
    {
      "constant": false,
      "inputs": [
        {
          "name": "_optionPair",
          "type": "address"
        },
        {
          "name": "_qty",
          "type": "uint256"
        }
      ],
      "name": "writeOptions",
      "outputs": [],
      "payable": false,
      "stateMutability": "nonpayable",
      "type": "function"
    },
    {
      "constant": false,
      "inputs": [
        {
          "name": "_optionPair",
          "type": "address"
        },
        {
          "name": "_qty",
          "type": "uint256"
        }
      ],
      "name": "exerciseOptions",
      "outputs": [],
      "payable": false,
      "stateMutability": "nonpayable",
      "type": "function"
    },
    {
      "constant": false,
      "inputs": [
        {
          "name": "_optionPair",
          "type": "address"
        }
      ],
      "name": "exerciseAllAvailableOptions",
      "outputs": [],
      "payable": false,
      "stateMutability": "nonpayable",
      "type": "function"
    },
    {
      "constant": true,
      "inputs": [
        {
          "name": "tokenId",
          "type": "uint256"
        }
      ],
      "name": "isSolved",
      "outputs": [
        {
          "name": "",
          "type": "bool"
        }
      ],
      "payable": false,
      "stateMutability": "view",
      "type": "function"
    },
    {
      "constant": false,
      "inputs": [
        {
          "name": "_optionPair",
          "type": "address"
        }
      ],
      "name": "withdrawFee",
      "outputs": [],
      "payable": false,
      "stateMutability": "nonpayable",
      "type": "function"
    },
    {
      "constant": false,
      "inputs": [
        {
          "name": "_feeCalculator",
          "type": "address"
        }
      ],
      "name": "setFeeCalculator",
      "outputs": [],
      "payable": false,
      "stateMutability": "nonpayable",
      "type": "function"
    }
  ],
  "bytecode": "0x60806040526000805460a060020a60ff021916905534801561002057600080fd5b5060405160608061517283398101604090815281516020830151919092015160008054600160a060020a0319163317905561006383640100000000610095810204565b60028054600160a060020a03938416600160a060020a03199182161790915560038054929093169116179055506100ce565b600054600160a060020a031633146100ac57600080fd5b60018054600160a060020a031916600160a060020a0392909216919091179055565b615095806100dd6000396000f300608060405260043610620000c55763ffffffff60e060020a6000350416630170327e8114620000ca5780630661d1dc14620000f357806315fdb4ac14620001225780631ac3ddeb14620001aa57806330a7a5e614620001ce5780633fc8cef314620001e7578063808b61db14620001ff5780638c66d04f14620002325780638da5cb5b1462000256578063b00eb9fe146200026e578063cd6d4c211462000286578063e0dbafed14620002aa578063f2fde38b14620002c2578063ff514c2214620002e6575b600080fd5b348015620000d757600080fd5b50620000f1600160a060020a03600435166024356200030d565b005b3480156200010057600080fd5b506200010e60043562000320565b604080519115158252519081900360200190f35b3480156200012f57600080fd5b506040805160608181019092526200018e91369160049160649190839060039083908390808284375050604080516060818101909252949796958181019594509250600391508390839080828437509396506200033595505050505050565b60408051600160a060020a039092168252519081900360200190f35b348015620001b757600080fd5b50620000f1600160a060020a0360043516620004c8565b620000f1600160a060020a03600435166024356200079f565b348015620001f457600080fd5b506200018e620009d1565b3480156200020c57600080fd5b50620000f1600160a060020a0360043581169060243516604435606435608435620009e0565b3480156200023f57600080fd5b50620000f1600160a060020a036004351662000a50565b3480156200026357600080fd5b506200018e62000a8a565b3480156200027b57600080fd5b506200018e62000a99565b3480156200029357600080fd5b50620000f1600160a060020a036004351662000aa8565b348015620002b757600080fd5b506200018e62000beb565b348015620002cf57600080fd5b50620000f1600160a060020a036004351662000bfa565b348015620002f357600080fd5b50620000f1600160a060020a036004351660243562000c83565b6200031b8282600062000cbd565b505050565b60009081526004602052604090205460ff1690565b8151602080840151835184830151604080870151600254825160e160020a634e327ced028152600160a060020a03808a166004830152808816602483015260448201879052606482018690526084820184905293516000998a9990989796958a948594911692639c64f9da9260a48084019391929182900301818787803b158015620003c057600080fd5b505af1158015620003d5573d6000803e3d6000fd5b505050506040513d6020811015620003ec57600080fd5b50519150620003fb8262000320565b156200040657600080fd5b6002546040805160e160020a6331a9108f028152600481018590529051600160a060020a0390921691636352211e916024808201926020929091908290030181600087803b1580156200045857600080fd5b505af11580156200046d573d6000803e3d6000fd5b505050506040513d60208110156200048457600080fd5b50519050600160a060020a03811633146200049e57600080fd5b620004aa8b8b620011e5565b9750620004b9888c8c6200131a565b50959998505050505050505050565b6002546040805160e060020a63fd790111028152600160a060020a0384811660048301529151600093849384938493919092169163fd79011191602480830192602092919082900301818787803b1580156200052357600080fd5b505af115801562000538573d6000803e3d6000fd5b505050506040513d60208110156200054f57600080fd5b50516002546040805160e160020a6331a9108f028152600481018490529051929650600160a060020a0390911691636352211e916024808201926020929091908290030181600087803b158015620005a657600080fd5b505af1158015620005bb573d6000803e3d6000fd5b505050506040513d6020811015620005d257600080fd5b5051600160a060020a03163314620005e957600080fd5b84600160a060020a031663749f10446040518163ffffffff1660e060020a028152600401602060405180830381600087803b1580156200062857600080fd5b505af11580156200063d573d6000803e3d6000fd5b505050506040513d60208110156200065457600080fd5b50516040805160e160020a637e062a350281529051919450600160a060020a0385169163fc0c546a916004808201926020929091908290030181600087803b158015620006a057600080fd5b505af1158015620006b5573d6000803e3d6000fd5b505050506040513d6020811015620006cc57600080fd5b50516040805160e060020a6370a08231028152600160a060020a0386811660048301529151929450908416916370a08231916024808201926020929091908290030181600087803b1580156200072157600080fd5b505af115801562000736573d6000803e3d6000fd5b505050506040513d60208110156200074d57600080fd5b50519050600081116200075f57600080fd5b6200077c600160a060020a03831684308463ffffffff6200138c16565b62000798600160a060020a038316338363ffffffff6200142816565b5050505050565b600080600084600160a060020a031663b00eb9fe6040518163ffffffff1660e060020a028152600401602060405180830381600087803b158015620007e357600080fd5b505af1158015620007f8573d6000803e3d6000fd5b505050506040513d60208110156200080f57600080fd5b50516040805160e160020a630e8b61f7028152600160a060020a038881166004830152602482018890528251939450841692631d16c3ee926044808401939192918290030181600087803b1580156200086757600080fd5b505af11580156200087c573d6000803e3d6000fd5b505050506040513d60408110156200089357600080fd5b5080516020909101516003549194509250600160a060020a03808516911614620008bc57600080fd5b348214620008c957600080fd5b600360009054906101000a9004600160a060020a0316600160a060020a031663d0e30db0346040518263ffffffff1660e060020a0281526004016000604051808303818588803b1580156200091d57600080fd5b505af115801562000932573d6000803e3d6000fd5b50506040805160e060020a6370a082310281523060048201529051600160a060020a03881694506370a082319350602480830193506020928290030181600087803b1580156200098157600080fd5b505af115801562000996573d6000803e3d6000fd5b505050506040513d6020811015620009ad57600080fd5b50518214620009bb57600080fd5b620009c98585600162000cbd565b505050505050565b600354600160a060020a031681565b620009ea620017f2565b620009f4620017f2565b50506040805160608181018352600160a060020a038089168352878116602080850191909152600154909116838501528351918201845286825281018590529182018390529062000a46828262000335565b5050505050505050565b600054600160a060020a0316331462000a6857600080fd5b60018054600160a060020a031916600160a060020a0392909216919091179055565b600054600160a060020a031681565b600154600160a060020a031681565b6000805460a060020a900460ff161562000ac157600080fd5b6000805460a060020a60ff02191660a060020a1781556040805160e260020a6304e3667b0281529051600160a060020a0385169263138d99ec92600480820193602093909283900390910190829087803b15801562000b1f57600080fd5b505af115801562000b34573d6000803e3d6000fd5b505050506040513d602081101562000b4b57600080fd5b50516040805160e060020a6370a082310281523360048201529051600160a060020a03909216916370a08231916024808201926020929091908290030181600087803b15801562000b9b57600080fd5b505af115801562000bb0573d6000803e3d6000fd5b505050506040513d602081101562000bc757600080fd5b5051905062000bd78282620014c3565b50506000805460a060020a60ff0219169055565b600254600160a060020a031681565b600054600160a060020a0316331462000c1257600080fd5b600160a060020a038116151562000c2857600080fd5b60008054604051600160a060020a03808516939216917f8be0079c531659141344cd1fd0a4f28419497f9722a3daafe3b4186f6b6457e091a360008054600160a060020a031916600160a060020a0392909216919091179055565b60005460a060020a900460ff161562000c9b57600080fd5b6000805460a060020a60ff02191660a060020a17905562000bd78282620014c3565b60008060008060008060008060008060149054906101000a900460ff1615151562000ce757600080fd5b6000805460a060020a60ff02191660a060020a1781556040805160e260020a630fb4945f02815290518e9a50600160a060020a038b1692633ed2517c92600480820193602093909283900390910190829087803b15801562000d4857600080fd5b505af115801562000d5d573d6000803e3d6000fd5b505050506040513d602081101562000d7457600080fd5b50516040805160e060020a636f307dc30281529051919850600160a060020a038a1691636f307dc3916004808201926020929091908290030181600087803b15801562000dc057600080fd5b505af115801562000dd5573d6000803e3d6000fd5b505050506040513d602081101562000dec57600080fd5b5051955062000e02878c63ffffffff6200165b16565b945087600160a060020a031663b00eb9fe6040518163ffffffff1660e060020a028152600401602060405180830381600087803b15801562000e4357600080fd5b505af115801562000e58573d6000803e3d6000fd5b505050506040513d602081101562000e6f57600080fd5b50516040805160e160020a630e8b61f7028152600160a060020a038f81166004830152602482018f90528251939550851692631d16c3ee926044808401939192918290030181600087803b15801562000ec757600080fd5b505af115801562000edc573d6000803e3d6000fd5b505050506040513d604081101562000ef357600080fd5b5080516020909101519094509250600160a060020a03808516908716141562000f6657891562000f425762000f3c868d8762000f36818863ffffffff6200169516565b620016a5565b62000f60565b62000f60868d62000f5a868963ffffffff6200169516565b620017e4565b62001028565b62000f73868d87620017e4565b60008311801562000f82575089155b1562000f955762000f60848d85620017e4565b83600160a060020a031663095ea7b38d856040518363ffffffff1660e060020a0281526004018083600160a060020a0316600160a060020a0316815260200182815260200192505050602060405180830381600087803b15801562000ff957600080fd5b505af11580156200100e573d6000803e3d6000fd5b505050506040513d60208110156200102557600080fd5b50505b6040805160e260020a633603aeff028152600481018d90523360248201526000604482018190529151600160a060020a038b169263d80ebbfc92606480820193602093909283900390910190829087803b1580156200108657600080fd5b505af11580156200109b573d6000803e3d6000fd5b505050506040513d6020811015620010b257600080fd5b50516040805160e060020a63095ea7b3028152600160a060020a038f81166004830152600060248301819052925193945087169263095ea7b392604480840193602093929083900390910190829087803b1580156200111057600080fd5b505af115801562001125573d6000803e3d6000fd5b505050506040513d60208110156200113c57600080fd5b50506040805160e060020a63095ea7b3028152600160a060020a038e8116600483015260006024830181905292519089169263095ea7b392604480820193602093909283900390910190829087803b1580156200119857600080fd5b505af1158015620011ad573d6000803e3d6000fd5b505050506040513d6020811015620011c457600080fd5b50506000805460a060020a60ff02191690559b9a5050505050505050505050565b815160208084015183518483015160408087015181890151825160e060020a63647846a502815292516000989792939192600160a060020a0384169263647846a5926004808301939282900301818d87803b1580156200124457600080fd5b505af115801562001259573d6000803e3d6000fd5b505050506040513d60208110156200127057600080fd5b50516200127c62001811565b600160a060020a03909116815260405190819003602001906000f080158015620012aa573d6000803e3d6000fd5b50620012b562001822565b600160a060020a039788168152958716602087015260408087019590955260608601939093526080850191909152841660a084015290921660c082015290519081900360e001906000f08015801562001312573d6000803e3d6000fd5b509392505050565b60208083015183518351848401516040808701518151600160a060020a038b8116825297810194909452838201929092526060830191909152519284169391909116917f3ec66ca66f5513d42ece39babf6ab6a9177e30527051b76a3b5dc98e369524719181900360800190a3505050565b6040805160e060020a6323b872dd028152600160a060020a0385811660048301528481166024830152604482018490529151918616916323b872dd916064808201926020929091908290030181600087803b158015620013eb57600080fd5b505af115801562001400573d6000803e3d6000fd5b505050506040513d60208110156200141757600080fd5b505115156200142257fe5b50505050565b82600160a060020a031663a9059cbb83836040518363ffffffff1660e060020a0281526004018083600160a060020a0316600160a060020a0316815260200182815260200192505050602060405180830381600087803b1580156200148c57600080fd5b505af1158015620014a1573d6000803e3d6000fd5b505050506040513d6020811015620014b857600080fd5b505115156200031b57fe5b600080600084925082600160a060020a031663ba405a0c6040518163ffffffff1660e060020a028152600401602060405180830381600087803b1580156200150a57600080fd5b505af11580156200151f573d6000803e3d6000fd5b505050506040513d60208110156200153657600080fd5b50516040805160e360020a6315b1ea010281529051919350620015c4918691600160a060020a0387169163ad8f5008916004808201926020929091908290030181600087803b1580156200158957600080fd5b505af11580156200159e573d6000803e3d6000fd5b505050506040513d6020811015620015b557600080fd5b50519063ffffffff6200165b16565b9050620015d3828683620017e4565b6040805160e160020a6377d67161028152336004820152602481018690529051600160a060020a0385169163eface2c29160448083019260209291908290030181600087803b1580156200162657600080fd5b505af11580156200163b573d6000803e3d6000fd5b505050506040513d60208110156200165257600080fd5b50505050505050565b6000808315156200167057600091506200168e565b508282028284828115156200168157fe5b04146200168a57fe5b8091505b5092915050565b6000828201838110156200168a57fe5b83620016c3600160a060020a03821633308663ffffffff6200138c16565b80600160a060020a031663095ea7b385846040518363ffffffff1660e060020a0281526004018083600160a060020a0316600160a060020a0316815260200182815260200192505050602060405180830381600087803b1580156200172757600080fd5b505af11580156200173c573d6000803e3d6000fd5b505050506040513d60208110156200175357600080fd5b50506040805160e160020a636eb1769f028152306004820152600160a060020a0386811660248301529151849284169163dd62ed3e9160448083019260209291908290030181600087803b158015620017ab57600080fd5b505af1158015620017c0573d6000803e3d6000fd5b505050506040513d6020811015620017d757600080fd5b5051146200079857600080fd5b6200031b83838384620016a5565b6060604051908101604052806003906020820280388339509192915050565b604051610409806200183483390190565b60405161342d8062001c3d833901905600608060405234801561001057600080fd5b50604051602080610409833981016040818152915160008054600160a060020a031990811633908117835560018054600160a060020a038087169190941617908190557f095ea7b30000000000000000000000000000000000000000000000000000000086526004860191909152600019602486015294519294169263095ea7b39260448083019360209383900390910190829087803b1580156100b357600080fd5b505af11580156100c7573d6000803e3d6000fd5b505050506040513d60208110156100dd57600080fd5b50505061031a806100ef6000396000f3006080604052600436106100485763ffffffff60e060020a6000350416632e1a7d4d811461004d5780638da5cb5b14610067578063f2fde38b14610098578063fc0c546a146100b9575b600080fd5b34801561005957600080fd5b506100656004356100ce565b005b34801561007357600080fd5b5061007c6101ad565b60408051600160a060020a039092168252519081900360200190f35b3480156100a457600080fd5b50610065600160a060020a03600435166101bc565b3480156100c557600080fd5b5061007c610243565b60008054600160a060020a031633146100e657600080fd5b600054600160a060020a031633146100fd57600080fd5b506001546040805160e060020a6370a082310281523060048201529051600160a060020a0390921691839183916370a08231916024808201926020929091908290030181600087803b15801561015257600080fd5b505af1158015610166573d6000803e3d6000fd5b505050506040513d602081101561017c57600080fd5b5051101561018957600080fd5b6000546101a990600160a060020a0383811691168463ffffffff61025216565b5050565b600054600160a060020a031681565b600054600160a060020a031633146101d357600080fd5b600160a060020a03811615156101e857600080fd5b60008054604051600160a060020a03808516939216917f8be0079c531659141344cd1fd0a4f28419497f9722a3daafe3b4186f6b6457e091a360008054600160a060020a031916600160a060020a0392909216919091179055565b600154600160a060020a031681565b82600160a060020a031663a9059cbb83836040518363ffffffff1660e060020a0281526004018083600160a060020a0316600160a060020a0316815260200182815260200192505050602060405180830381600087803b1580156102b557600080fd5b505af11580156102c9573d6000803e3d6000fd5b505050506040513d60208110156102df57600080fd5b505115156102e957fe5b5050505600a165627a7a72305820eb5cec4b4f9b72d4763d201eca8cf177f98d7e305f9487818fbd8585d9077edd002960806040526000805460ff191690553480156200001b57600080fd5b5060405160e0806200342d83398101604090815281516020830151918301516060840151608085015160a086015160c09096015160008054600160a060020a038088166101000261010060a860020a03199092169190911790915560018054828916600160a060020a03199182161790915560028690556003859055600484905560058054928a16929091169190911790559395929391929091620000bf62000161565b604051809103906000f080158015620000dc573d6000803e3d6000fd5b5060068054600160a060020a031916600160a060020a03929092169190911790556200010762000172565b604051809103906000f08015801562000124573d6000803e3d6000fd5b5060078054600160a060020a03928316600160a060020a031991821617909155600880549390921692169190911790555062000183945050505050565b604051610bf58062001c3d83390190565b604051610bfb806200283283390190565b611aaa80620001936000396000f3006080604052600436106101035763ffffffff60e060020a6000350416630aae7ae58114610108578063138d99ec1461013157806313b91a041461016257806329cb924d146101775780632e1a7d4d1461019e578063310a1ee3146101ca578063328c616d146101df5780633ed2517c146101f45780636dd7a166146102095780636f307dc31461022157806373fde90b14610236578063749f104414610257578063853828b61461026c5780639c2c291514610281578063ad8f500814610296578063b00eb9fe146102ab578063ba405a0c146102c0578063bd173505146102d5578063d80ebbfc146102ed578063eface2c214610316578063fe0d94c11461033a575b600080fd5b34801561011457600080fd5b5061012f600435602435600160a060020a0360443516610352565b005b34801561013d57600080fd5b50610146610806565b60408051600160a060020a039092168252519081900360200190f35b34801561016e57600080fd5b50610146610815565b34801561018357600080fd5b5061018c610824565b60408051918252519081900360200190f35b3480156101aa57600080fd5b506101b6600435610828565b604080519115158252519081900360200190f35b3480156101d657600080fd5b5061018c610876565b3480156101eb57600080fd5b5061018c61087c565b34801561020057600080fd5b5061018c6108f6565b34801561021557600080fd5b506101b66004356108fc565b34801561022d57600080fd5b50610146610924565b34801561024257600080fd5b5061018c600160a060020a0360043516610938565b34801561026357600080fd5b50610146610ad0565b34801561027857600080fd5b506101b6610adf565b34801561028d57600080fd5b506101b6610ba6565b3480156102a257600080fd5b5061018c610cfa565b3480156102b757600080fd5b50610146610d00565b3480156102cc57600080fd5b50610146610d0f565b3480156102e157600080fd5b506101b6600435610d1e565b3480156102f957600080fd5b506101b6600435600160a060020a03602435166044351515610d47565b34801561032257600080fd5b506101b6600160a060020a0360043516602435610d83565b34801561034657600080fd5b506101b6600435610dbd565b600080548190819081908190819081908190819060ff161561037357600080fd5b6000805460ff19166001179055600254610393908d63ffffffff610de616565b9850888b10156103a257600080fd5b6103ac338d610e1c565b506003548a98506103c4908d9063ffffffff610de616565b600080546040805160e060020a63095ea7b3028152600160a060020a038f81166004830152602482018690529151949b50610100909204169263095ea7b392604480840193602093929083900390910190829087803b15801561042657600080fd5b505af115801561043a573d6000803e3d6000fd5b505050506040513d602081101561045057600080fd5b50506001546040805160e060020a6370a082310281523060048201529051600160a060020a03909216916370a08231916024808201926020929091908290030181600087803b1580156104a257600080fd5b505af11580156104b6573d6000803e3d6000fd5b505050506040513d60208110156104cc57600080fd5b5051600080546040805160e060020a6370a082310281523060048201529051939950610100909104600160a060020a0316926370a0823192602480840193602093929083900390910190829087803b15801561052757600080fd5b505af115801561053b573d6000803e3d6000fd5b505050506040513d602081101561055157600080fd5b505194508685101561056257600080fd5b600080546001546040805160e060020a63f9cf7c21028152600160a060020a0361010090940484166004820152602481018c90529183166044830152606482018f905233608483015251918b169263f9cf7c219260a48084019382900301818387803b1580156105d157600080fd5b505af11580156105e5573d6000803e3d6000fd5b5050600080546040805160e060020a6370a082310281523060048201529051610100909204600160a060020a031694506370a0823193506024808201936020939283900390910190829087803b15801561063e57600080fd5b505af1158015610652573d6000803e3d6000fd5b505050506040513d602081101561066857600080fd5b505193508661067d868663ffffffff610f5816565b111561068857600080fd5b6001546040805160e060020a6370a082310281523060048201529051600160a060020a03909216916370a08231916024808201926020929091908290030181600087803b1580156106d857600080fd5b505af11580156106ec573d6000803e3d6000fd5b505050506040513d602081101561070257600080fd5b50519250610716838763ffffffff610f5816565b600080546040805160e060020a63095ea7b3028152600160a060020a038f81166004830152602482018590529151949650610100909204169263095ea7b392604480840193602093929083900390910190829087803b15801561077857600080fd5b505af115801561078c573d6000803e3d6000fd5b505050506040513d60208110156107a257600080fd5b50508a8210156107b157600080fd5b888210156107be57600080fd5b6107ce828a63ffffffff610f5816565b6001549091506107ee90600160a060020a0316338363ffffffff610f6a16565b50506000805460ff1916905550505050505050505050565b600654600160a060020a031681565b600754600160a060020a031681565b4290565b6000805460ff161561083957600080fd5b6000805460ff19166001179055600454610851610824565b101561085c57600080fd5b6108663383611006565b6000805460ff1916905592915050565b60045481565b6006546040805160e060020a6318160ddd0281529051600092600160a060020a0316916318160ddd91600480830192602092919082900301818787803b1580156108c557600080fd5b505af11580156108d9573d6000803e3d6000fd5b505050506040513d60208110156108ef57600080fd5b5051905090565b60035481565b6000805460ff161561090d57600080fd5b6000805460ff1916600117905561086633836113c2565b6000546101009004600160a060020a031681565b6007546040805160e060020a6318160ddd0281529051600092600160a060020a031691610ac99183916318160ddd91600480830192602092919082900301818987803b15801561098757600080fd5b505af115801561099b573d6000803e3d6000fd5b505050506040513d60208110156109b157600080fd5b50516040805160e060020a6370a08231028152600160a060020a0387811660048301529151610abd928616916370a082319160248083019260209291908290030181600087803b158015610a0457600080fd5b505af1158015610a18573d6000803e3d6000fd5b505050506040513d6020811015610a2e57600080fd5b5051600080546040805160e060020a6370a082310281523060048201529051610100909204600160a060020a0316926370a08231926024808401936020939083900390910190829087803b158015610a8557600080fd5b505af1158015610a99573d6000803e3d6000fd5b505050506040513d6020811015610aaf57600080fd5b50519063ffffffff610de616565b9063ffffffff61157c16565b9392505050565b600854600160a060020a031681565b6000805460ff1615610af057600080fd5b6000805460ff19166001179055600454610b08610824565b1015610b1357600080fd5b6007546040805160e060020a6370a0823102815233600482018190529151610b9793600160a060020a0316916370a082319160248083019260209291908290030181600087803b158015610b6657600080fd5b505af1158015610b7a573d6000803e3d6000fd5b505050506040513d6020811015610b9057600080fd5b5051611006565b90506000805460ff1916905590565b600080548190819060ff1615610bbb57600080fd5b6000805460ff191660011781556006546040805160e060020a6370a082310281523360048201529051600160a060020a03909216926370a08231926024808401936020939083900390910190829087803b158015610c1857600080fd5b505af1158015610c2c573d6000803e3d6000fd5b505050506040513d6020811015610c4257600080fd5b50516007546040805160e060020a6370a082310281523360048201529051929450600160a060020a03909116916370a08231916024808201926020929091908290030181600087803b158015610c9757600080fd5b505af1158015610cab573d6000803e3d6000fd5b505050506040513d6020811015610cc157600080fd5b5051905080821015610cde57610cd733836113c2565b9250610ceb565b610ce833826113c2565b92505b50506000805460ff1916905590565b60025481565b600554600160a060020a031681565b600154600160a060020a031681565b6000805460ff1615610d2f57600080fd5b6000805460ff19166001179055610866823380611593565b6000805460ff1615610d5857600080fd5b6000805460ff19166001179055610d71848433856115aa565b6000805460ff19169055949350505050565b6000805460ff1615610d9457600080fd5b6000805460ff19166001179055610dac833384611866565b6000805460ff191690559392505050565b6000805460ff1615610dce57600080fd5b6000805460ff19166001179055610866338084611866565b600080831515610df95760009150610e15565b50828202828482811515610e0957fe5b0414610e1157fe5b8091505b5092915050565b600080600454610e2a610824565b10610e3457600080fd5b506006546040805160e060020a6370a08231028152600160a060020a03868116600483015291519190921691849183916370a082319160248083019260209291908290030181600087803b158015610e8b57600080fd5b505af1158015610e9f573d6000803e3d6000fd5b505050506040513d6020811015610eb557600080fd5b50511015610ec257600080fd5b600160a060020a0384163014610eed57610eed600160a060020a03821685308663ffffffff61190416565b80600160a060020a03166342966c68846040518263ffffffff1660e060020a02815260040180828152602001915050600060405180830381600087803b158015610f3657600080fd5b505af1158015610f4a573d6000803e3d6000fd5b506001979650505050505050565b600082821115610f6457fe5b50900390565b82600160a060020a031663a9059cbb83836040518363ffffffff1660e060020a0281526004018083600160a060020a0316600160a060020a0316815260200182815260200192505050602060405180830381600087803b158015610fcd57600080fd5b505af1158015610fe1573d6000803e3d6000fd5b505050506040513d6020811015610ff757600080fd5b5051151561100157fe5b505050565b6007546040805160e060020a6370a08231028152600160a060020a0385811660048301529151600093929092169183918291869185916370a082319160248082019260209290919082900301818887803b15801561106357600080fd5b505af1158015611077573d6000803e3d6000fd5b505050506040513d602081101561108d57600080fd5b5051101561109a57600080fd5b600080546040805160e060020a6370a0823102815230600482015290516110f4928992610100909104600160a060020a0316916370a082319160248082019260209290919082900301818987803b158015610a8557600080fd5b10156110ff57600080fd5b6001546040805160e060020a6370a082310281523060048201529051600092611157928992600160a060020a03909216916370a082319160248082019260209290919082900301818987803b158015610a8557600080fd5b101561116257600080fd5b61117d600160a060020a03841687308863ffffffff61190416565b61124383600160a060020a03166318160ddd6040518163ffffffff1660e060020a028152600401602060405180830381600087803b1580156111be57600080fd5b505af11580156111d2573d6000803e3d6000fd5b505050506040513d60208110156111e857600080fd5b5051600080546040805160e060020a6370a082310281523060048201529051610abd938b936101009004600160a060020a0316926370a082319260248083019360209383900390910190829087803b158015610a8557600080fd5b9150600082111561126a5760005461126a906101009004600160a060020a03168784610f6a565b61132d83600160a060020a03166318160ddd6040518163ffffffff1660e060020a028152600401602060405180830381600087803b1580156112ab57600080fd5b505af11580156112bf573d6000803e3d6000fd5b505050506040513d60208110156112d557600080fd5b50516001546040805160e060020a6370a082310281523060048201529051610abd928a92600160a060020a03909116916370a08231916024808201926020929091908290030181600087803b158015610a8557600080fd5b905060008111156113555760015461135590600160a060020a0316878363ffffffff610f6a16565b82600160a060020a03166342966c68866040518263ffffffff1660e060020a02815260040180828152602001915050600060405180830381600087803b15801561139e57600080fd5b505af11580156113b2573d6000803e3d6000fd5b5060019998505050505050505050565b6006546007546040805160e060020a6370a08231028152600160a060020a038681166004830152915160009483169390921691859184916370a082319160248082019260209290919082900301818a87803b15801561142057600080fd5b505af1158015611434573d6000803e3d6000fd5b505050506040513d602081101561144a57600080fd5b5051101561145757600080fd5b8381600160a060020a03166370a08231876040518263ffffffff1660e060020a0281526004018082600160a060020a0316600160a060020a03168152602001915050602060405180830381600087803b1580156114b357600080fd5b505af11580156114c7573d6000803e3d6000fd5b505050506040513d60208110156114dd57600080fd5b505110156114ea57600080fd5b6114f48585611006565b50611510600160a060020a03831686308763ffffffff61190416565b81600160a060020a03166342966c68856040518263ffffffff1660e060020a02815260040180828152602001915050600060405180830381600087803b15801561155957600080fd5b505af115801561156d573d6000803e3d6000fd5b50600198975050505050505050565b600080828481151561158a57fe5b04949350505050565b60006115a284848460016115aa565b949350505050565b60008060006004546115ba610824565b106115c457600080fd5b600087116115d157600080fd5b6003546115e590889063ffffffff610de616565b600080546040805160e160020a636eb1769f028152600160a060020a038a8116600483015230602483015291519496506101009092041693508492849263dd62ed3e92604480820193602093909283900390910190829087803b15801561164b57600080fd5b505af115801561165f573d6000803e3d6000fd5b505050506040513d602081101561167557600080fd5b5051101561168257600080fd5b8181600160a060020a03166370a08231876040518263ffffffff1660e060020a0281526004018082600160a060020a0316600160a060020a03168152602001915050602060405180830381600087803b1580156116de57600080fd5b505af11580156116f2573d6000803e3d6000fd5b505050506040513d602081101561170857600080fd5b5051101561171557600080fd5b611730600160a060020a03821686308563ffffffff61190416565b6006546040805160e060020a6340c10f19028152600160a060020a038981166004830152602482018b9052915191909216916340c10f199160448083019260209291908290030181600087803b15801561178957600080fd5b505af115801561179d573d6000803e3d6000fd5b505050506040513d60208110156117b357600080fd5b50506007546040805160e060020a6340c10f19028152600160a060020a038981166004830152602482018b9052915191909216916340c10f199160448083019260209291908290030181600087803b15801561180e57600080fd5b505af1158015611822573d6000803e3d6000fd5b505050506040513d602081101561183857600080fd5b5050831561184f5761184a878761199c565b611859565b611859878661199c565b5060019695505050505050565b600080600454611874610824565b1061187e57600080fd5b6118888584610e1c565b151561189357600080fd5b6118c4856118ac60035486610de690919063ffffffff16565b6000546101009004600160a060020a03169190610f6a565b6002546118d890849063ffffffff610de616565b6001549091506118f990600160a060020a031685308463ffffffff61190416565b506001949350505050565b6040805160e060020a6323b872dd028152600160a060020a0385811660048301528481166024830152604482018490529151918616916323b872dd916064808201926020929091908290030181600087803b15801561196257600080fd5b505af1158015611976573d6000803e3d6000fd5b505050506040513d602081101561198c57600080fd5b5051151561199657fe5b50505050565b600854600090819081908190600160a060020a03868116911614611a76576005546040805160e160020a630e8b61f7028152306004820152602481018990528151600160a060020a0390931696508692631d16c3ee926044808401939192918290030181600087803b158015611a1157600080fd5b505af1158015611a25573d6000803e3d6000fd5b505050506040513d6040811015611a3b57600080fd5b508051602090910151935091508190506000831115611a7657600854611a7690600160a060020a03838116918891168663ffffffff61190416565b5050505050505600a165627a7a72305820bf981285591432fa78e8f354c885fc1c26383010ebd42750d3b01e002dcc04490029608060405260038054600160a860020a03191633179055610bd0806100256000396000f3006080604052600436106100ed5763ffffffff60e060020a60003504166305d2035b81146100f257806306fdde031461011b578063095ea7b3146101a557806318160ddd146101c957806323b872dd146101f0578063313ce5671461021a57806340c10f191461024557806342966c6814610269578063610ece1f1461028357806366188463146102b457806370a08231146102d85780637d64bcb4146102f95780638da5cb5b1461030e57806395d89b4114610323578063a9059cbb14610338578063d73dd6231461035c578063dd62ed3e14610380578063e3b9ada2146103a7578063f2fde38b146103bc575b600080fd5b3480156100fe57600080fd5b506101076103dd565b604080519115158252519081900360200190f35b34801561012757600080fd5b506101306103ed565b6040805160208082528351818301528351919283929083019185019080838360005b8381101561016a578181015183820152602001610152565b50505050905090810190601f1680156101975780820380516001836020036101000a031916815260200191505b509250505060405180910390f35b3480156101b157600080fd5b50610107600160a060020a0360043516602435610416565b3480156101d557600080fd5b506101de61046a565b60408051918252519081900360200190f35b3480156101fc57600080fd5b50610107600160a060020a0360043581169060243516604435610470565b34801561022657600080fd5b5061022f6105d5565b6040805160ff9092168252519081900360200190f35b34801561025157600080fd5b50610107600160a060020a03600435166024356105da565b34801561027557600080fd5b506102816004356106d2565b005b34801561028f57600080fd5b50610298610781565b60408051600160a060020a039092168252519081900360200190f35b3480156102c057600080fd5b50610107600160a060020a0360043516602435610790565b3480156102e457600080fd5b506101de600160a060020a036004351661086e565b34801561030557600080fd5b50610107610889565b34801561031a57600080fd5b506102986108ff565b34801561032f57600080fd5b5061013061090e565b34801561034457600080fd5b50610107600160a060020a036004351660243561092e565b34801561036857600080fd5b50610107600160a060020a03600435166024356109fd565b34801561038c57600080fd5b506101de600160a060020a0360043581169060243516610a84565b3480156103b357600080fd5b50610107610aaf565b3480156103c857600080fd5b50610281600160a060020a0360043516610ab4565b60035460a060020a900460ff1681565b60408051808201909152600c815260a160020a6b22a92199181027b83a34b7b702602082015281565b336000818152600260209081526040808320600160a060020a03871680855290835281842086905581518681529151939490939092600080516020610b85833981519152928290030190a350600192915050565b60015490565b6000600160a060020a038316151561048757600080fd5b600160a060020a0384166000908152602081905260409020548211156104ac57600080fd5b600160a060020a03841660009081526002602090815260408083203384529091529020548211156104dc57600080fd5b600160a060020a038416600090815260208190526040902054610505908363ffffffff610b3c16565b600160a060020a03808616600090815260208190526040808220939093559085168152205461053a908363ffffffff610b4e16565b600160a060020a0380851660009081526020818152604080832094909455918716815260028252828120338252909152205461057c908363ffffffff610b3c16565b600160a060020a0380861660008181526002602090815260408083203384528252918290209490945580518681529051928716939192600080516020610b65833981519152929181900390910190a35060019392505050565b601281565b600354600090600160a060020a031633146105f457600080fd5b60035460a060020a900460ff161561060b57600080fd5b60015461061e908363ffffffff610b4e16565b600155600160a060020a03831660009081526020819052604090205461064a908363ffffffff610b4e16565b600160a060020a03841660008181526020818152604091829020939093558051858152905191927f0f6798a560793a54c3bcfe86a93cde1e73087d944c0ea20544137d412139688592918290030190a2604080518381529051600160a060020a03851691600091600080516020610b658339815191529181900360200190a350600192915050565b336000908152602081905260408120548211156106ee57600080fd5b503360008181526020819052604090205461070f908363ffffffff610b3c16565b600160a060020a03821660009081526020819052604090205560015461073b908363ffffffff610b3c16565b600155604080518381529051600160a060020a038316917fcc16f5dbb4873280815c1ee09dbd06736cffcc184412cf7a71a0fdb75d397ca5919081900360200190a25050565b600354600160a060020a031690565b336000908152600260209081526040808320600160a060020a0386168452909152812054808311156107e557336000908152600260209081526040808320600160a060020a038816845290915281205561081a565b6107f5818463ffffffff610b3c16565b336000908152600260209081526040808320600160a060020a03891684529091529020555b336000818152600260209081526040808320600160a060020a038916808552908352928190205481519081529051929392600080516020610b85833981519152929181900390910190a35060019392505050565b600160a060020a031660009081526020819052604090205490565b600354600090600160a060020a031633146108a357600080fd5b60035460a060020a900460ff16156108ba57600080fd5b6003805460a060020a60ff02191660a060020a1790556040517fae5184fba832cb2b1f702aca6117b8d265eaf03ad33eb133f19dde0f5920fa0890600090a150600190565b600354600160a060020a031681565b604080518082019091526003815260ea60020a6213d41502602082015281565b6000600160a060020a038316151561094557600080fd5b3360009081526020819052604090205482111561096157600080fd5b33600090815260208190526040902054610981908363ffffffff610b3c16565b3360009081526020819052604080822092909255600160a060020a038516815220546109b3908363ffffffff610b4e16565b600160a060020a03841660008181526020818152604091829020939093558051858152905191923392600080516020610b658339815191529281900390910190a350600192915050565b336000908152600260209081526040808320600160a060020a0386168452909152812054610a31908363ffffffff610b4e16565b336000818152600260209081526040808320600160a060020a038916808552908352928190208590558051948552519193600080516020610b85833981519152929081900390910190a350600192915050565b600160a060020a03918216600090815260026020908152604080832093909416825291909152205490565b600090565b600354600160a060020a03163314610acb57600080fd5b600160a060020a0381161515610ae057600080fd5b600354604051600160a060020a038084169216907f8be0079c531659141344cd1fd0a4f28419497f9722a3daafe3b4186f6b6457e090600090a360038054600160a060020a031916600160a060020a0392909216919091179055565b600082821115610b4857fe5b50900390565b600082820183811015610b5d57fe5b93925050505600ddf252ad1be2c89b69c2b068fc378daa952ba7f163c4a11628f55a4df523b3ef8c5be1e5ebec7d5bd14f71427d1e84f3dd0314c0f7b2291e5b200ac8c7c3b925a165627a7a7230582079a6fdb7124597680ebb486c34f1c75898e72b511fdd75a75211cf26875a4ee70029608060405260038054600160a860020a03191633179055610bd6806100256000396000f3006080604052600436106100ed5763ffffffff60e060020a60003504166305d2035b81146100f257806306fdde031461011b578063095ea7b3146101a557806318160ddd146101c957806323b872dd146101f0578063313ce5671461021a57806340c10f191461024557806342966c6814610269578063610ece1f1461028357806366188463146102b457806370a08231146102d85780637d64bcb4146102f95780638da5cb5b1461030e57806395d89b4114610323578063a9059cbb14610338578063d73dd6231461035c578063dd62ed3e14610380578063e3b9ada2146103a7578063f2fde38b146103bc575b600080fd5b3480156100fe57600080fd5b506101076103dd565b604080519115158252519081900360200190f35b34801561012757600080fd5b506101306103ed565b6040805160208082528351818301528351919283929083019185019080838360005b8381101561016a578181015183820152602001610152565b50505050905090810190601f1680156101975780820380516001836020036101000a031916815260200191505b509250505060405180910390f35b3480156101b157600080fd5b50610107600160a060020a036004351660243561041b565b3480156101d557600080fd5b506101de61046f565b60408051918252519081900360200190f35b3480156101fc57600080fd5b50610107600160a060020a0360043581169060243516604435610475565b34801561022657600080fd5b5061022f6105da565b6040805160ff9092168252519081900360200190f35b34801561025157600080fd5b50610107600160a060020a03600435166024356105df565b34801561027557600080fd5b506102816004356106d7565b005b34801561028f57600080fd5b50610298610786565b60408051600160a060020a039092168252519081900360200190f35b3480156102c057600080fd5b50610107600160a060020a0360043516602435610795565b3480156102e457600080fd5b506101de600160a060020a0360043516610873565b34801561030557600080fd5b5061010761088e565b34801561031a57600080fd5b50610298610904565b34801561032f57600080fd5b50610130610913565b34801561034457600080fd5b50610107600160a060020a0360043516602435610934565b34801561036857600080fd5b50610107600160a060020a0360043516602435610a03565b34801561038c57600080fd5b506101de600160a060020a0360043581169060243516610a8a565b3480156103b357600080fd5b50610107610ab5565b3480156103c857600080fd5b50610281600160a060020a0360043516610aba565b60035460a060020a900460ff1681565b6040805180820190915260118152607960020a7022a92199181020b73a3496a7b83a34b7b702602082015281565b336000818152600260209081526040808320600160a060020a03871680855290835281842086905581518681529151939490939092600080516020610b8b833981519152928290030190a350600192915050565b60015490565b6000600160a060020a038316151561048c57600080fd5b600160a060020a0384166000908152602081905260409020548211156104b157600080fd5b600160a060020a03841660009081526002602090815260408083203384529091529020548211156104e157600080fd5b600160a060020a03841660009081526020819052604090205461050a908363ffffffff610b4216565b600160a060020a03808616600090815260208190526040808220939093559085168152205461053f908363ffffffff610b5416565b600160a060020a03808516600090815260208181526040808320949094559187168152600282528281203382529091522054610581908363ffffffff610b4216565b600160a060020a0380861660008181526002602090815260408083203384528252918290209490945580518681529051928716939192600080516020610b6b833981519152929181900390910190a35060019392505050565b601281565b600354600090600160a060020a031633146105f957600080fd5b60035460a060020a900460ff161561061057600080fd5b600154610623908363ffffffff610b5416565b600155600160a060020a03831660009081526020819052604090205461064f908363ffffffff610b5416565b600160a060020a03841660008181526020818152604091829020939093558051858152905191927f0f6798a560793a54c3bcfe86a93cde1e73087d944c0ea20544137d412139688592918290030190a2604080518381529051600160a060020a03851691600091600080516020610b6b8339815191529181900360200190a350600192915050565b336000908152602081905260408120548211156106f357600080fd5b5033600081815260208190526040902054610714908363ffffffff610b4216565b600160a060020a038216600090815260208190526040902055600154610740908363ffffffff610b4216565b600155604080518381529051600160a060020a038316917fcc16f5dbb4873280815c1ee09dbd06736cffcc184412cf7a71a0fdb75d397ca5919081900360200190a25050565b600354600160a060020a031690565b336000908152600260209081526040808320600160a060020a0386168452909152812054808311156107ea57336000908152600260209081526040808320600160a060020a038816845290915281205561081f565b6107fa818463ffffffff610b4216565b336000908152600260209081526040808320600160a060020a03891684529091529020555b336000818152600260209081526040808320600160a060020a038916808552908352928190205481519081529051929392600080516020610b8b833981519152929181900390910190a35060019392505050565b600160a060020a031660009081526020819052604090205490565b600354600090600160a060020a031633146108a857600080fd5b60035460a060020a900460ff16156108bf57600080fd5b6003805460a060020a60ff02191660a060020a1790556040517fae5184fba832cb2b1f702aca6117b8d265eaf03ad33eb133f19dde0f5920fa0890600090a150600190565b600354600160a060020a031681565b604080518082019091526004815260e260020a631053d41502602082015281565b6000600160a060020a038316151561094b57600080fd5b3360009081526020819052604090205482111561096757600080fd5b33600090815260208190526040902054610987908363ffffffff610b4216565b3360009081526020819052604080822092909255600160a060020a038516815220546109b9908363ffffffff610b5416565b600160a060020a03841660008181526020818152604091829020939093558051858152905191923392600080516020610b6b8339815191529281900390910190a350600192915050565b336000908152600260209081526040808320600160a060020a0386168452909152812054610a37908363ffffffff610b5416565b336000818152600260209081526040808320600160a060020a038916808552908352928190208590558051948552519193600080516020610b8b833981519152929081900390910190a350600192915050565b600160a060020a03918216600090815260026020908152604080832093909416825291909152205490565b600190565b600354600160a060020a03163314610ad157600080fd5b600160a060020a0381161515610ae657600080fd5b600354604051600160a060020a038084169216907f8be0079c531659141344cd1fd0a4f28419497f9722a3daafe3b4186f6b6457e090600090a360038054600160a060020a031916600160a060020a0392909216919091179055565b600082821115610b4e57fe5b50900390565b600082820183811015610b6357fe5b93925050505600ddf252ad1be2c89b69c2b068fc378daa952ba7f163c4a11628f55a4df523b3ef8c5be1e5ebec7d5bd14f71427d1e84f3dd0314c0f7b2291e5b200ac8c7c3b925a165627a7a72305820f7ceedacf0653e889d1a5ee418b5040b2da933a7db9c3dbab00523d17860c76d0029a165627a7a7230582099880d04c3597b7acee31eb494442bc40048dc67b46f56f16fb162cfa66c34400029",
  "source": "pragma solidity ^0.4.18;\n\nimport './IEthWrapper.sol';\nimport './IFeeCalculator.sol';\nimport './OptionPair.sol';\nimport './OptionSerieToken.sol';\nimport './WithdrawableByOwner.sol';\n\nimport 'zeppelin-solidity/contracts/ReentrancyGuard.sol';\nimport 'zeppelin-solidity/contracts/math/SafeMath.sol';\nimport 'zeppelin-solidity/contracts/ownership/Ownable.sol';\nimport 'zeppelin-solidity/contracts/token/ERC20/ERC20.sol';\nimport 'zeppelin-solidity/contracts/token/ERC20/SafeERC20.sol';\n\n\n\ncontract OptionFactory is Ownable, ReentrancyGuard {\n\n  using SafeERC20 for ERC20;\n  using SafeMath for uint256;\n\n  address public feeCalculator;\n  address public optionSerieOwnerToken;\n  address public weth;\n\n  mapping (uint => bool) solvedToken;\n\n  event OptionTokenCreated(address optionPair,\n      address indexed underlying, address indexed basisToken,\n       uint strike, uint underlyingQty, uint expireTime);\n\n  modifier onlyTokenOwner(address _underlying, address _basisToken,\n   uint _strike, uint _underlyingQty, uint _expireTime) {\n     uint tokenId = OptionSerieToken(optionSerieOwnerToken).getTokenId(_underlying, _basisToken,\n     _strike, _underlyingQty, _expireTime);\n     require(!isSolved(tokenId));\n     address tokenOwner = OptionSerieToken(optionSerieOwnerToken).ownerOf(tokenId);\n     require(tokenOwner == msg.sender);\n     _;\n  }\n\n  function OptionFactory (address _feeCalculator, address _optionSerieOwnerToken, address _weth)\n  Ownable()\n  ReentrancyGuard()\n  public {\n          setFeeCalculator(_feeCalculator);\n          optionSerieOwnerToken = _optionSerieOwnerToken;\n          weth = _weth;\n  }\n\n  function () payable {\n    revert(); //do not accept ETH\n  }\n\n  function createOptionPairContract(address _underlying, address _basisToken,\n   uint _strike, uint _underlyingQty, uint _expireTime) \n   public {\n     address[3] memory addresses = [_underlying, _basisToken, feeCalculator];\n     uint[3] memory values = [_strike, _underlyingQty, _expireTime];\n     createOptionPairContractFeeCalc(addresses, values);\n   }\n\n   function genOptionPairArr(address[3] _addresses, uint[3] _values)\n   internal \n   returns (address) {\n     return new OptionPair (\n        _addresses[0],\n        _addresses[1],\n        _values[0],\n        _values[1],\n        _values[2],\n        _addresses[2],\n        address(new WithdrawableByOwner(IFeeCalculator(_addresses[2]).feeToken()))\n        );\n   }\n\n  function createOptionPairContractFeeCalc(address[3] _addresses, uint[3] _values)\n   public\n   onlyTokenOwner(_addresses[0], _addresses[1],\n     _values[0], _values[1], _values[2])\n   returns(address) {\n    address optionPair = genOptionPairArr(_addresses, _values); \n    emitEventArr(optionPair, _addresses, _values);\n    return optionPair;\n }\n\n function emitEventArr(address _optionPair, address[3] _addresses, uint[3] _values) private {\n   OptionTokenCreated(\n        _optionPair,\n        _addresses[0],\n        _addresses[1],\n        _values[0],\n        _values[1],\n        _values[2]);\n }\n\n function _proxyTransfer(address _token, address _target, uint _amount, uint _allowance)\n private {\n   ERC20 erc20 =  ERC20(_token);\n   erc20.safeTransferFrom(msg.sender, this, _amount);\n   erc20.approve(_target, _allowance);\n   require(erc20.allowance(this, _target) == _allowance);\n }\n \n function _proxyTransfer(address _token, address _target, uint _amount)\n private {\n   _proxyTransfer(_token,  _target,  _amount, _amount);\n }\n\n\n function writeOptionsWithEth(address _optionPair, uint _qty) external payable {\n   address feeToken;\n   uint fee;\n   address optionPairFeeCalculator = OptionPair(_optionPair).feeCalculator();\n   (feeToken,  fee) = IFeeCalculator(optionPairFeeCalculator).calcFee(_optionPair, _qty);\n   require(feeToken == weth);\n   require(msg.value == fee);\n   IEthWrapper(weth).deposit.value(msg.value)();\n   require(fee == ERC20(feeToken).balanceOf(this));\n   _writeOptions(_optionPair, _qty, true);\n }\n\n function writeOptions(address _optionPair, uint _qty) external {\n   _writeOptions(_optionPair, _qty, false);\n }\n\n\n function _writeOptions(address _optionPair, uint _qty, bool _paidWithEth)\n private\n nonReentrant\n returns (bool) {\n   OptionPair optionPairObj = OptionPair(_optionPair);\n   uint underlyingQtyPerContract = optionPairObj.underlyingQty();\n   address underlying = optionPairObj.underlying();\n   uint underlyingQty = underlyingQtyPerContract.mul(_qty);\n\n   address feeToken;\n   uint fee;\n   address optionPairFeeCalculator = optionPairObj.feeCalculator();\n   (feeToken,  fee) = IFeeCalculator(optionPairFeeCalculator)\n    .calcFee(_optionPair, _qty);\n   if (feeToken == underlying) {\n     if (_paidWithEth) {\n       _proxyTransfer(underlying, _optionPair, underlyingQty, underlyingQty.add(fee));\n     } else {\n       _proxyTransfer(underlying, _optionPair, fee.add(underlyingQty));\n     }\n   } else {\n     _proxyTransfer(underlying, _optionPair, underlyingQty);\n      if (fee > 0 && !_paidWithEth) {\n        _proxyTransfer(feeToken, _optionPair, fee); \n      } else {\n        ERC20(feeToken).approve(_optionPair, fee); //if paid with eth the weth already on balance: \n        //don't need to do anything except approval\n      }\n   }\n\n   bool result = optionPairObj.writeOptionsFor(_qty, msg.sender, false);\n   //clean\n   ERC20(feeToken).approve(_optionPair, 0);\n   ERC20(underlying).approve(_optionPair, 0);\n   return result;\n  }\n\n  function exerciseOptions(address _optionPair, uint _qty)\n  external\n  nonReentrant {\n    _exerciseOptions(_optionPair, _qty);\n  }\n\n  function exerciseAllAvailableOptions(address _optionPair)\n  external\n  nonReentrant\n  {\n    uint qty = ERC20(OptionPair(_optionPair).tokenOption()).balanceOf(msg.sender);\n    _exerciseOptions(_optionPair, qty);\n  }\n\n  function _exerciseOptions(address _optionPair, uint _qty)\n  private\n  {\n    OptionPair optionPairObj = OptionPair(_optionPair);\n    address basisToken = optionPairObj.basisToken();\n    uint basisAmount = optionPairObj.strike().mul(_qty);\n    _proxyTransfer(basisToken, _optionPair, basisAmount);\n    optionPairObj.executeFor(msg.sender, _qty);\n  }\n\n  function isSolved(uint tokenId)\n  public\n  view\n  returns(bool)\n  {\n    return solvedToken[tokenId];\n  }\n\n  function withdrawFee(address _optionPair) external {\n    uint tokenId = OptionSerieToken(optionSerieOwnerToken).getTokenIdForOptionPair(_optionPair);\n    require(msg.sender == OptionSerieToken(optionSerieOwnerToken).ownerOf(tokenId));\n    address feeTaker = OptionPair(_optionPair).feeTaker();\n    address feeToken = WithdrawableByOwner(feeTaker).token();\n    uint feeAmount = ERC20(feeToken).balanceOf(feeTaker);\n    require(feeAmount > 0);\n    ERC20(feeToken).safeTransferFrom(feeTaker, this, feeAmount);\n    ERC20(feeToken).safeTransfer(msg.sender, feeAmount);\n  }\n\n  function setFeeCalculator(address _feeCalculator)\n  public\n  onlyOwner {\n    feeCalculator = _feeCalculator;\n  }\n\n}\n",
  "sourcePath": "/Users/novosma/Documents/swprojects/github.com/eth_option/contracts/main/OptionFactory.sol",
  "compiler": {
    "name": "solc",
    "version": "0.4.24+commit.e67f0147.Emscripten.clang"
  },
  "schemaVersion": "2.0.0",
  "updatedAt": "2018-09-14T07:51:36.113Z"
}