{
  "contractName": "OptionSerieToken",
  "abi": [
    {
      "constant": false,
      "inputs": [
        {
          "name": "_to",
          "type": "address"
        },
        {
          "name": "_tokenId",
          "type": "uint256"
        }
      ],
      "name": "approve",
      "outputs": [],
      "payable": false,
      "stateMutability": "nonpayable",
      "type": "function"
    },
    {
      "constant": true,
      "inputs": [],
      "name": "totalSupply",
      "outputs": [
        {
          "name": "",
          "type": "uint256"
        }
      ],
      "payable": false,
      "stateMutability": "view",
      "type": "function"
    },
    {
      "constant": true,
      "inputs": [
        {
          "name": "_tokenId",
          "type": "uint256"
        }
      ],
      "name": "approvedFor",
      "outputs": [
        {
          "name": "",
          "type": "address"
        }
      ],
      "payable": false,
      "stateMutability": "view",
      "type": "function"
    },
    {
      "constant": true,
      "inputs": [
        {
          "name": "_owner",
          "type": "address"
        }
      ],
      "name": "tokensOf",
      "outputs": [
        {
          "name": "",
          "type": "uint256[]"
        }
      ],
      "payable": false,
      "stateMutability": "view",
      "type": "function"
    },
    {
      "constant": true,
      "inputs": [
        {
          "name": "_tokenId",
          "type": "uint256"
        }
      ],
      "name": "ownerOf",
      "outputs": [
        {
          "name": "",
          "type": "address"
        }
      ],
      "payable": false,
      "stateMutability": "view",
      "type": "function"
    },
    {
      "constant": true,
      "inputs": [
        {
          "name": "_owner",
          "type": "address"
        }
      ],
      "name": "balanceOf",
      "outputs": [
        {
          "name": "",
          "type": "uint256"
        }
      ],
      "payable": false,
      "stateMutability": "view",
      "type": "function"
    },
    {
      "constant": true,
      "inputs": [],
      "name": "owner",
      "outputs": [
        {
          "name": "",
          "type": "address"
        }
      ],
      "payable": false,
      "stateMutability": "view",
      "type": "function"
    },
    {
      "constant": false,
      "inputs": [
        {
          "name": "_to",
          "type": "address"
        },
        {
          "name": "_tokenId",
          "type": "uint256"
        }
      ],
      "name": "transfer",
      "outputs": [],
      "payable": false,
      "stateMutability": "nonpayable",
      "type": "function"
    },
    {
      "constant": false,
      "inputs": [
        {
          "name": "_tokenId",
          "type": "uint256"
        }
      ],
      "name": "takeOwnership",
      "outputs": [],
      "payable": false,
      "stateMutability": "nonpayable",
      "type": "function"
    },
    {
      "constant": false,
      "inputs": [
        {
          "name": "newOwner",
          "type": "address"
        }
      ],
      "name": "transferOwnership",
      "outputs": [],
      "payable": false,
      "stateMutability": "nonpayable",
      "type": "function"
    },
    {
      "anonymous": false,
      "inputs": [
        {
          "indexed": true,
          "name": "previousOwner",
          "type": "address"
        },
        {
          "indexed": true,
          "name": "newOwner",
          "type": "address"
        }
      ],
      "name": "OwnershipTransferred",
      "type": "event"
    },
    {
      "anonymous": false,
      "inputs": [
        {
          "indexed": true,
          "name": "_from",
          "type": "address"
        },
        {
          "indexed": true,
          "name": "_to",
          "type": "address"
        },
        {
          "indexed": false,
          "name": "_tokenId",
          "type": "uint256"
        }
      ],
      "name": "Transfer",
      "type": "event"
    },
    {
      "anonymous": false,
      "inputs": [
        {
          "indexed": true,
          "name": "_owner",
          "type": "address"
        },
        {
          "indexed": true,
          "name": "_approved",
          "type": "address"
        },
        {
          "indexed": false,
          "name": "_tokenId",
          "type": "uint256"
        }
      ],
      "name": "Approval",
      "type": "event"
    },
    {
      "constant": false,
      "inputs": [
        {
          "name": "_to",
          "type": "address"
        },
        {
          "name": "_tokenId",
          "type": "uint256"
        }
      ],
      "name": "mint",
      "outputs": [],
      "payable": false,
      "stateMutability": "nonpayable",
      "type": "function"
    },
    {
      "constant": false,
      "inputs": [
        {
          "name": "_to",
          "type": "address"
        },
        {
          "name": "_underlying",
          "type": "address"
        },
        {
          "name": "_basisToken",
          "type": "address"
        },
        {
          "name": "_strike",
          "type": "uint256"
        },
        {
          "name": "_underlyingQty",
          "type": "uint256"
        },
        {
          "name": "_expireTime",
          "type": "uint256"
        }
      ],
      "name": "mintExt",
      "outputs": [
        {
          "name": "",
          "type": "uint256"
        }
      ],
      "payable": false,
      "stateMutability": "nonpayable",
      "type": "function"
    },
    {
      "constant": true,
      "inputs": [
        {
          "name": "_underlying",
          "type": "address"
        },
        {
          "name": "_basisToken",
          "type": "address"
        },
        {
          "name": "_strike",
          "type": "uint256"
        },
        {
          "name": "_underlyingQty",
          "type": "uint256"
        },
        {
          "name": "_expireTime",
          "type": "uint256"
        }
      ],
      "name": "calcHash",
      "outputs": [
        {
          "name": "",
          "type": "bytes32"
        }
      ],
      "payable": false,
      "stateMutability": "view",
      "type": "function"
    },
    {
      "constant": true,
      "inputs": [
        {
          "name": "_underlying",
          "type": "address"
        },
        {
          "name": "_basisToken",
          "type": "address"
        },
        {
          "name": "_strike",
          "type": "uint256"
        },
        {
          "name": "_underlyingQty",
          "type": "uint256"
        },
        {
          "name": "_expireTime",
          "type": "uint256"
        }
      ],
      "name": "getTokenId",
      "outputs": [
        {
          "name": "",
          "type": "uint256"
        }
      ],
      "payable": false,
      "stateMutability": "view",
      "type": "function"
    },
    {
      "constant": true,
      "inputs": [
        {
          "name": "_optionPair",
          "type": "address"
        }
      ],
      "name": "getTokenIdForOptionPair",
      "outputs": [
        {
          "name": "",
          "type": "uint256"
        }
      ],
      "payable": false,
      "stateMutability": "view",
      "type": "function"
    },
    {
      "constant": true,
      "inputs": [
        {
          "name": "_underlying",
          "type": "address"
        },
        {
          "name": "_basisToken",
          "type": "address"
        },
        {
          "name": "_strike",
          "type": "uint256"
        },
        {
          "name": "_underlyingQty",
          "type": "uint256"
        },
        {
          "name": "_expireTime",
          "type": "uint256"
        }
      ],
      "name": "getOwner",
      "outputs": [
        {
          "name": "",
          "type": "address"
        }
      ],
      "payable": false,
      "stateMutability": "view",
      "type": "function"
    }
  ],
  "bytecode": "0x608060405260058054600160a060020a03191633179055610d9f806100256000396000f3006080604052600436106100cc5763ffffffff60e060020a600035041663095ea7b381146100d157806318160ddd146100f75780632a6dd48f1461011e57806340c10f191461015257806346e6fa86146101765780635a3f2672146101a65780636352211e1461021757806370a082311461022f578063729dd469146102505780638da5cb5b146102865780639c64f9da1461029b578063a9059cbb146102cb578063b2e6ceeb146102ef578063b8cbfc5c14610307578063f2fde38b14610337578063fd79011114610358575b600080fd5b3480156100dd57600080fd5b506100f5600160a060020a0360043516602435610379565b005b34801561010357600080fd5b5061010c610442565b60408051918252519081900360200190f35b34801561012a57600080fd5b50610136600435610449565b60408051600160a060020a039092168252519081900360200190f35b34801561015e57600080fd5b506100f5600160a060020a0360043516602435610464565b34801561018257600080fd5b50610136600160a060020a0360043581169060243516604435606435608435610489565b3480156101b257600080fd5b506101c7600160a060020a03600435166104af565b60408051602080825283518183015283519192839290830191858101910280838360005b838110156102035781810151838201526020016101eb565b505050509050019250505060405180910390f35b34801561022357600080fd5b5061013660043561051b565b34801561023b57600080fd5b5061010c600160a060020a0360043516610545565b34801561025c57600080fd5b5061010c600160a060020a036004358116906024358116906044351660643560843560a435610560565b34801561029257600080fd5b50610136610595565b3480156102a757600080fd5b5061010c600160a060020a03600435811690602435166044356064356084356105a4565b3480156102d757600080fd5b506100f5600160a060020a03600435166024356105b4565b3480156102fb57600080fd5b506100f56004356105e2565b34801561031357600080fd5b5061010c600160a060020a036004358116906024351660443560643560843561060d565b34801561034357600080fd5b506100f5600160a060020a0360043516610655565b34801561036457600080fd5b5061010c600160a060020a03600435166106dd565b600081336103868261051b565b600160a060020a03161461039957600080fd5b6103a28361051b565b9150600160a060020a0384811690831614156103bd57600080fd5b6103c683610449565b600160a060020a03161515806103e45750600160a060020a03841615155b1561043c576000838152600260209081526040918290208054600160a060020a031916600160a060020a0388811691821790925583518781529351909391861692600080516020610d54833981519152928290030190a35b50505050565b6000545b90565b600090815260026020526040902054600160a060020a031690565b600554600160a060020a0316331461047b57600080fd5b6104858282610920565b5050565b60008061049987878787876105a4565b90506104a48161051b565b979650505050505050565b600160a060020a03811660009081526003602090815260409182902080548351818402810184019094528084526060939283018282801561050f57602002820191906000526020600020905b8154815260200190600101908083116104fb575b50505050509050919050565b600081815260016020526040812054600160a060020a031680151561053f57600080fd5b92915050565b600160a060020a031660009081526003602052604090205490565b6005546000908190600160a060020a0316331461057c57600080fd5b61058987878787876105a4565b90506104a48882610464565b600554600160a060020a031681565b6000806104a4878787878761060d565b80336105bf8261051b565b600160a060020a0316146105d257600080fd5b6105dd338484610972565b505050565b6105ec3382610a2a565b15156105f757600080fd5b61060a6106038261051b565b3383610972565b50565b60408051848152606060020a600160a060020a038088168202602084015260348301869052881602605482015260688101839052905190819003608801902095945050505050565b600554600160a060020a0316331461066c57600080fd5b600160a060020a038116151561068157600080fd5b600554604051600160a060020a038084169216907f8be0079c531659141344cd1fd0a4f28419497f9722a3daafe3b4186f6b6457e090600090a360058054600160a060020a031916600160a060020a0392909216919091179055565b60008082905061091981600160a060020a0316636f307dc36040518163ffffffff1660e060020a028152600401602060405180830381600087803b15801561072457600080fd5b505af1158015610738573d6000803e3d6000fd5b505050506040513d602081101561074e57600080fd5b50516040805160e260020a632e9016830281529051600160a060020a0385169163ba405a0c9160048083019260209291908290030181600087803b15801561079557600080fd5b505af11580156107a9573d6000803e3d6000fd5b505050506040513d60208110156107bf57600080fd5b50516040805160e360020a6315b1ea010281529051600160a060020a0386169163ad8f50089160048083019260209291908290030181600087803b15801561080657600080fd5b505af115801561081a573d6000803e3d6000fd5b505050506040513d602081101561083057600080fd5b50516040805160e260020a630fb4945f0281529051600160a060020a03871691633ed2517c9160048083019260209291908290030181600087803b15801561087757600080fd5b505af115801561088b573d6000803e3d6000fd5b505050506040513d60208110156108a157600080fd5b50516040805160e060020a63310a1ee30281529051600160a060020a0388169163310a1ee39160048083019260209291908290030181600087803b1580156108e857600080fd5b505af11580156108fc573d6000803e3d6000fd5b505050506040513d602081101561091257600080fd5b50516105a4565b9392505050565b600160a060020a038216151561093557600080fd5b61093f8282610a50565b604080518281529051600160a060020a03841691600091600080516020610d348339815191529181900360200190a35050565b600160a060020a038216151561098757600080fd5b6109908161051b565b600160a060020a03838116911614156109a857600080fd5b82600160a060020a03166109bb8261051b565b600160a060020a0316146109ce57600080fd5b6109d88382610afa565b6109e28382610b6b565b6109ec8282610a50565b81600160a060020a031683600160a060020a0316600080516020610d34833981519152836040518082815260200191505060405180910390a3505050565b600082600160a060020a0316610a3f83610449565b600160a060020a0316149392505050565b600081815260016020526040812054600160a060020a031615610a7257600080fd5b60008281526001602052604090208054600160a060020a031916600160a060020a038516179055610aa283610545565b600160a060020a038416600090815260036020908152604080832080546001818101835591855283852001879055868452600490925282208390559054919250610af2919063ffffffff610cd516565b600055505050565b81600160a060020a0316610b0d8261051b565b600160a060020a031614610b2057600080fd5b60008181526002602090815260408083208054600160a060020a031916905580518481529051600160a060020a03861692600080516020610d54833981519152928290030190a35050565b600080600084600160a060020a0316610b838561051b565b600160a060020a031614610b9657600080fd5b6000848152600460205260409020549250610bc16001610bb587610545565b9063ffffffff610ce416565b600160a060020a038616600090815260036020526040902080549193509083908110610be957fe5b60009182526020808320909101548683526001825260408084208054600160a060020a0319169055600160a060020a0389168452600390925291208054919250829185908110610c3557fe5b6000918252602080832090910192909255600160a060020a0387168152600390915260408120805484908110610c6757fe5b6000918252602080832090910192909255600160a060020a0387168152600390915260409020805490610c9e906000198301610cf6565b50600084815260046020526040808220829055828252812084905554610ccb90600163ffffffff610ce416565b6000555050505050565b60008282018381101561091957fe5b600082821115610cf057fe5b50900390565b8154818355818111156105dd576000838152602090206105dd91810190830161044691905b80821115610d2f5760008155600101610d1b565b50905600ddf252ad1be2c89b69c2b068fc378daa952ba7f163c4a11628f55a4df523b3ef8c5be1e5ebec7d5bd14f71427d1e84f3dd0314c0f7b2291e5b200ac8c7c3b925a165627a7a72305820bbaa89970cc65af46f374da58088ea65a86119818ca264e8b72757e5f5899fe80029",
  "source": "pragma solidity ^0.4.18;\n\nimport './OptionPair.sol';\nimport 'zeppelin-solidity/contracts/token/ERC721/ERC721Token.sol';\nimport 'zeppelin-solidity/contracts/ownership/Ownable.sol';\n\ncontract OptionSerieToken is ERC721Token, Ownable {\n\n  function mint(address _to, uint256 _tokenId)\n  public\n  onlyOwner {\n    _mint(_to, _tokenId);\n  }\n\n  function mintExt(address _to, address _underlying, address _basisToken,\n   uint _strike, uint _underlyingQty, uint _expireTime)\n    public\n    onlyOwner\n    returns (uint) {\n      uint tokenId = getTokenId(_underlying, _basisToken, _strike,\n        _underlyingQty, _expireTime);\n      mint(_to, tokenId);\n      return tokenId;\n  }\n\n  function calcHash(address _underlying, address _basisToken,\n   uint _strike, uint _underlyingQty, uint _expireTime)\n   public view\n   returns (bytes32) {\n         return keccak256(_strike, _basisToken,\n            _underlyingQty, _underlying, _expireTime);\n  }\n\n  function getTokenId(address _underlying, address _basisToken,\n   uint _strike, uint _underlyingQty, uint _expireTime)\n   public\n   view\n   returns (uint) {\n     bytes32 optionSerieHash = calcHash(_underlying, _basisToken, _strike, _underlyingQty,\n       _expireTime);\n     return uint(optionSerieHash);\n   }\n\n   function getTokenIdForOptionPair(address _optionPair)\n   public\n   view\n   returns (uint) {\n     OptionPair optionPair = OptionPair(_optionPair);\n     return getTokenId(optionPair.underlying(), optionPair.basisToken(),\n      optionPair.strike(), optionPair.underlyingQty(), optionPair.expireTime());\n   }\n\n   \n\n   function getOwner (address _underlying, address _basisToken,\n    uint _strike, uint _underlyingQty, uint _expireTime)\n    public\n    view\n    returns (address) {\n      uint tokenId =  getTokenId(_underlying, _basisToken, _strike,\n        _underlyingQty, _expireTime);\n      return ownerOf(tokenId);\n    }\n\n}\n",
  "sourcePath": "/Users/novosma/Documents/swprojects/github.com/eth_option/contracts/main/OptionSerieToken.sol",
  "compiler": {
    "name": "solc",
    "version": "0.4.24+commit.e67f0147.Emscripten.clang"
  },
  "schemaVersion": "2.0.0",
  "updatedAt": "2018-09-19T09:59:31.561Z"
}