{
  "contractName": "OSDirectRequestHandler",
  "abi": [
    {
      "constant": true,
      "inputs": [],
      "name": "optionSerieToken",
      "outputs": [
        {
          "name": "",
          "type": "address"
        }
      ],
      "payable": false,
      "stateMutability": "view",
      "type": "function"
    },
    {
      "constant": true,
      "inputs": [],
      "name": "owner",
      "outputs": [
        {
          "name": "",
          "type": "address"
        }
      ],
      "payable": false,
      "stateMutability": "view",
      "type": "function"
    },
    {
      "constant": true,
      "inputs": [],
      "name": "tokenReceiver",
      "outputs": [
        {
          "name": "",
          "type": "address"
        }
      ],
      "payable": false,
      "stateMutability": "view",
      "type": "function"
    },
    {
      "constant": true,
      "inputs": [],
      "name": "optionSerieValidator",
      "outputs": [
        {
          "name": "",
          "type": "address"
        }
      ],
      "payable": false,
      "stateMutability": "view",
      "type": "function"
    },
    {
      "constant": true,
      "inputs": [],
      "name": "optionFactory",
      "outputs": [
        {
          "name": "",
          "type": "address"
        }
      ],
      "payable": false,
      "stateMutability": "view",
      "type": "function"
    },
    {
      "constant": false,
      "inputs": [
        {
          "name": "_childContract",
          "type": "address"
        }
      ],
      "name": "claimOwnership",
      "outputs": [],
      "payable": false,
      "stateMutability": "nonpayable",
      "type": "function"
    },
    {
      "constant": true,
      "inputs": [],
      "name": "fee",
      "outputs": [
        {
          "name": "",
          "type": "uint256"
        }
      ],
      "payable": false,
      "stateMutability": "view",
      "type": "function"
    },
    {
      "constant": false,
      "inputs": [
        {
          "name": "newOwner",
          "type": "address"
        }
      ],
      "name": "transferOwnership",
      "outputs": [],
      "payable": false,
      "stateMutability": "nonpayable",
      "type": "function"
    },
    {
      "inputs": [
        {
          "name": "_optionSerieValidator",
          "type": "address"
        },
        {
          "name": "_optionSerieToken",
          "type": "address"
        },
        {
          "name": "_optionFactory",
          "type": "address"
        },
        {
          "name": "_tokenReceiver",
          "type": "address"
        }
      ],
      "payable": false,
      "stateMutability": "nonpayable",
      "type": "constructor"
    },
    {
      "anonymous": false,
      "inputs": [
        {
          "indexed": true,
          "name": "previousOwner",
          "type": "address"
        },
        {
          "indexed": true,
          "name": "newOwner",
          "type": "address"
        }
      ],
      "name": "OwnershipTransferred",
      "type": "event"
    },
    {
      "constant": false,
      "inputs": [
        {
          "name": "_optionSerieValidator",
          "type": "address"
        }
      ],
      "name": "setOptionSerieValidator",
      "outputs": [],
      "payable": false,
      "stateMutability": "nonpayable",
      "type": "function"
    },
    {
      "constant": false,
      "inputs": [
        {
          "name": "_tokenReceiver",
          "type": "address"
        }
      ],
      "name": "setTokenReceiver",
      "outputs": [],
      "payable": false,
      "stateMutability": "nonpayable",
      "type": "function"
    },
    {
      "constant": false,
      "inputs": [
        {
          "name": "_underlying",
          "type": "address"
        },
        {
          "name": "_basisToken",
          "type": "address"
        },
        {
          "name": "_strike",
          "type": "uint256"
        },
        {
          "name": "_underlyingQty",
          "type": "uint256"
        },
        {
          "name": "_expireTime",
          "type": "uint256"
        },
        {
          "name": "_feeCalculator",
          "type": "address"
        }
      ],
      "name": "requestOptionSerie",
      "outputs": [
        {
          "name": "",
          "type": "address"
        },
        {
          "name": "",
          "type": "uint256"
        }
      ],
      "payable": false,
      "stateMutability": "nonpayable",
      "type": "function"
    }
  ],
  "bytecode": "0x608060405234801561001057600080fd5b506040516080806109c983398101604090815281516020830151918301516060909301516000805433600160a060020a0319918216178255600280548216600160a060020a0396871617905560038054821696861696909617909555600480548616938516939093179092556005805490941692169190911790915561092d90819061009c90396000f3006080604052600436106100955763ffffffff60e060020a60003504166328d2ed7d811461009a5780633fbd6457146100cb5780634d985760146100ee5780638da5cb5b1461014a578063a3e295bc1461015f578063a773aaab14610174578063b3461c8714610189578063da92d3ae1461019e578063ddca3f43146101bf578063e891e9d1146101e6578063f2fde38b14610207575b600080fd5b3480156100a657600080fd5b506100af610228565b60408051600160a060020a039092168252519081900360200190f35b3480156100d757600080fd5b506100ec600160a060020a0360043516610237565b005b3480156100fa57600080fd5b50610127600160a060020a0360043581169060243581169060443590606435906084359060a43516610270565b60408051600160a060020a03909316835260208301919091528051918290030190f35b34801561015657600080fd5b506100af6106d8565b34801561016b57600080fd5b506100af6106e7565b34801561018057600080fd5b506100af6106f6565b34801561019557600080fd5b506100af610705565b3480156101aa57600080fd5b506100ec600160a060020a0360043516610714565b3480156101cb57600080fd5b506101d461081c565b60408051918252519081900360200190f35b3480156101f257600080fd5b506100ec600160a060020a0360043516610822565b34801561021357600080fd5b506100ec600160a060020a036004351661085b565b600254600160a060020a031681565b600054600160a060020a0316331461024e57600080fd5b60048054600160a060020a031916600160a060020a0392909216919091179055565b600080600061027d6108e2565b6102856108e2565b600480546040805160e160020a6306146c77028152600160a060020a038f8116948201949094528d84166024820152604481018d9052606481018c9052608481018b905289841660a4820152905160009390921691630c28d8ee9160c48082019260209290919082900301818787803b15801561030157600080fd5b505af1158015610315573d6000803e3d6000fd5b505050506040513d602081101561032b57600080fd5b5051151561033857600080fd5b6002546040805160e060020a63729dd469028152306004820152600160a060020a038f811660248301528e81166044830152606482018e9052608482018d905260a482018c90529151919092169163729dd4699160c48083019260209291908290030181600087803b1580156103ad57600080fd5b505af11580156103c1573d6000803e3d6000fd5b505050506040513d60208110156103d757600080fd5b50516002546040805160e160020a6331a9108f0281526004810184905290519296503092600160a060020a0390921691636352211e916024808201926020929091908290030181600087803b15801561042f57600080fd5b505af1158015610443573d6000803e3d6000fd5b505050506040513d602081101561045957600080fd5b5051600160a060020a03161461046b57fe5b6060604051908101604052808d600160a060020a0316600160a060020a031681526020018c600160a060020a0316600160a060020a0316815260200188600160a060020a0316600160a060020a031681525092506060604051908101604052808b81526020018a8152602001898152509150600360009054906101000a9004600160a060020a0316600160a060020a03166315fdb4ac84846040518363ffffffff1660e060020a0281526004018083600360200280838360005b8381101561053d578181015183820152602001610525565b5050505090500182600360200280838360005b83811015610568578181015183820152602001610550565b5050505090500192505050602060405180830381600087803b15801561058d57600080fd5b505af11580156105a1573d6000803e3d6000fd5b505050506040513d60208110156105b757600080fd5b50516000858152600660205260408082208054600160a060020a031916600160a060020a0380861691909117909155600254600554835160e060020a63a9059cbb0281529083166004820152602481018a90529251949550169263a9059cbb9260448084019391929182900301818387803b15801561063557600080fd5b505af1158015610649573d6000803e3d6000fd5b50506005546002546040805160e260020a630c24b023028152600160a060020a039283166004820152602481018a90523360448201529051919092169350633092c08c9250606480830192600092919082900301818387803b1580156106ae57600080fd5b505af11580156106c2573d6000803e3d6000fd5b50929e959d50949b505050505050505050505050565b600054600160a060020a031681565b600554600160a060020a031681565b600454600160a060020a031681565b600354600160a060020a031681565b60008054600160a060020a0316331461072c57600080fd5b81905030600160a060020a031681600160a060020a0316638da5cb5b6040518163ffffffff1660e060020a028152600401602060405180830381600087803b15801561077757600080fd5b505af115801561078b573d6000803e3d6000fd5b505050506040513d60208110156107a157600080fd5b5051600160a060020a0316146107b657600080fd5b6040805160e060020a63f2fde38b0281523360048201529051600160a060020a0384169163f2fde38b91602480830192600092919082900301818387803b15801561080057600080fd5b505af1158015610814573d6000803e3d6000fd5b505050505050565b60015481565b600054600160a060020a0316331461083957600080fd5b60058054600160a060020a031916600160a060020a0392909216919091179055565b600054600160a060020a0316331461087257600080fd5b600160a060020a038116151561088757600080fd5b60008054604051600160a060020a03808516939216917f8be0079c531659141344cd1fd0a4f28419497f9722a3daafe3b4186f6b6457e091a360008054600160a060020a031916600160a060020a0392909216919091179055565b60606040519081016040528060039060208202803883395091929150505600a165627a7a7230582037dc19269fb07b67ff0cb19eae7d651b697c2341fcad6c230e5951ca6073eb540029",
  "source": "pragma solidity ^0.4.18;\n\nimport './ClaimableChildOwnership.sol';\nimport './ITokenReceiver.sol';\nimport './OptionFactory.sol';\nimport './OptionSerieValidator.sol';\nimport './OptionSerieToken.sol';\n\nimport 'zeppelin-solidity/contracts/token/ERC20/ERC20.sol';\n\ncontract OSDirectRequestHandler is ClaimableChildOwnership {\n\n  uint public fee;\n  OptionSerieToken public optionSerieToken;\n  OptionFactory public optionFactory;\n  OptionSerieValidator public optionSerieValidator;\n  ITokenReceiver public tokenReceiver;\n\n  mapping (uint => address) optionSerietoken2optionPair;\n\n  function OSDirectRequestHandler(address _optionSerieValidator,  address _optionSerieToken, \n  address _optionFactory, address _tokenReceiver) {\n    optionSerieToken = OptionSerieToken(_optionSerieToken);\n    optionFactory = OptionFactory(_optionFactory);\n    optionSerieValidator = OptionSerieValidator(_optionSerieValidator);\n    tokenReceiver = ITokenReceiver(_tokenReceiver);\n  }\n\n  function setOptionSerieValidator(address _optionSerieValidator)\n  public\n  onlyOwner\n  {\n    optionSerieValidator = OptionSerieValidator(_optionSerieValidator);\n  }\n\n  function setTokenReceiver(address _tokenReceiver) \n  public\n  onlyOwner\n  {\n    tokenReceiver = ITokenReceiver(_tokenReceiver);\n  }\n\n  function requestOptionSerie(address _underlying, address _basisToken,\n    uint _strike, uint _underlyingQty, uint _expireTime, address _feeCalculator)\n    public\n    returns(address, uint) {\n      require(optionSerieValidator.isValidRequest( _underlying, _basisToken,\n     _strike, _underlyingQty, _expireTime, _feeCalculator));\n     \n      uint tokenId = optionSerieToken.mintExt( this, _underlying,  _basisToken, _strike,\n        _underlyingQty, _expireTime);\n      \n      assert (optionSerieToken.ownerOf(tokenId) == address(this));\n      address[3] memory paramAddresses = [_underlying,  _basisToken, _feeCalculator];\n      uint[3] memory paramValues = [_strike,  _underlyingQty,  _expireTime];\n      address optionPair = optionFactory.createOptionPairContractFeeCalc(paramAddresses, paramValues);\n     \n      optionSerietoken2optionPair[tokenId] = optionPair;\n      optionSerieToken.transfer(tokenReceiver, tokenId);\n      tokenReceiver.onReceive(optionSerieToken, tokenId, msg.sender);\n      return (optionPair, tokenId);\n    }\n}\n",
  "sourcePath": "/Users/novosma/Documents/swprojects/github.com/eth_option/contracts/main/OSDirectRequestHandler.sol",
  "compiler": {
    "name": "solc",
    "version": "0.4.24+commit.e67f0147.Emscripten.clang"
  },
  "schemaVersion": "2.0.0",
  "updatedAt": "2018-09-19T09:59:31.551Z"
}