{
  "contractName": "SimpleFeeCalculatorTest",
  "abi": [
    {
      "constant": true,
      "inputs": [
        {
          "name": "",
          "type": "address"
        },
        {
          "name": "_qty",
          "type": "uint256"
        }
      ],
      "name": "calcFee",
      "outputs": [
        {
          "name": "",
          "type": "address"
        },
        {
          "name": "",
          "type": "uint256"
        }
      ],
      "payable": false,
      "stateMutability": "view",
      "type": "function"
    },
    {
      "constant": true,
      "inputs": [],
      "name": "optionCreationFee",
      "outputs": [
        {
          "name": "",
          "type": "uint256"
        }
      ],
      "payable": false,
      "stateMutability": "view",
      "type": "function"
    },
    {
      "constant": true,
      "inputs": [],
      "name": "feeToken",
      "outputs": [
        {
          "name": "",
          "type": "address"
        }
      ],
      "payable": false,
      "stateMutability": "view",
      "type": "function"
    },
    {
      "constant": true,
      "inputs": [],
      "name": "denominator",
      "outputs": [
        {
          "name": "",
          "type": "uint256"
        }
      ],
      "payable": false,
      "stateMutability": "view",
      "type": "function"
    },
    {
      "constant": true,
      "inputs": [],
      "name": "numerator",
      "outputs": [
        {
          "name": "",
          "type": "uint256"
        }
      ],
      "payable": false,
      "stateMutability": "view",
      "type": "function"
    },
    {
      "inputs": [
        {
          "name": "_feeToken",
          "type": "address"
        },
        {
          "name": "_numerator",
          "type": "uint256"
        },
        {
          "name": "_denominator",
          "type": "uint256"
        }
      ],
      "payable": false,
      "stateMutability": "nonpayable",
      "type": "constructor"
    }
  ],
  "bytecode": "0x608060405234801561001057600080fd5b5060405160608061026783398101604090815281516020830151919092015160038054600160a060020a03909416600160a060020a031990941693909317909255600055600155610201806100666000396000f3006080604052600436106100535763ffffffff60e060020a6000350416631d16c3ee81146100585780632a2b99321461009f578063647846a5146100c657806396ce0795146100f7578063ce5f94541461010c575b600080fd5b34801561006457600080fd5b5061007c600160a060020a0360043516602435610121565b60408051600160a060020a03909316835260208301919091528051918290030190f35b3480156100ab57600080fd5b506100b4610167565b60408051918252519081900360200190f35b3480156100d257600080fd5b506100db61016d565b60408051600160a060020a039092168252519081900360200190f35b34801561010357600080fd5b506100b461017c565b34801561011857600080fd5b506100b4610182565b6003546001546000805490928392600160a060020a039091169161015c9190610150908763ffffffff61018816565b9063ffffffff6101be16565b915091509250929050565b60025481565b600354600160a060020a031690565b60015481565b60005481565b60008083151561019b57600091506101b7565b508282028284828115156101ab57fe5b04146101b357fe5b8091505b5092915050565b60008082848115156101cc57fe5b049493505050505600a165627a7a72305820178fbd55ee1ae39a5187ec87f6f6b42d76f246e64b8e49aa9e800eee80da878d0029",
  "source": "pragma solidity ^0.4.18;\n\nimport '../main/SimpleFeeCalculator.sol';\n\ncontract SimpleFeeCalculatorTest is SimpleFeeCalculator {\n  function SimpleFeeCalculatorTest(address _feeToken, uint _numerator,\n    uint _denominator)\n  SimpleFeeCalculator(_feeToken, _numerator, _denominator)\n  public {}\n}\n",
  "sourcePath": "/Users/novosma/Documents/swprojects/github.com/eth_option/contracts/test/SimpleFeeCalculatorTest.sol",
  "compiler": {
    "name": "solc",
    "version": "0.4.24+commit.e67f0147.Emscripten.clang"
  },
  "schemaVersion": "2.0.0",
  "updatedAt": "2018-09-14T07:51:36.133Z"
}