{
  "contractName": "SimpleFeeCalculatorTest",
  "abi": [
    {
      "constant": true,
      "inputs": [
        {
          "name": "",
          "type": "address"
        },
        {
          "name": "_qty",
          "type": "uint256"
        }
      ],
      "name": "calcFee",
      "outputs": [
        {
          "name": "",
          "type": "address"
        },
        {
          "name": "",
          "type": "uint256"
        }
      ],
      "payable": false,
      "stateMutability": "view",
      "type": "function"
    },
    {
      "constant": true,
      "inputs": [],
      "name": "optionCreationFee",
      "outputs": [
        {
          "name": "",
          "type": "uint256"
        }
      ],
      "payable": false,
      "stateMutability": "view",
      "type": "function"
    },
    {
      "constant": true,
      "inputs": [],
      "name": "feeToken",
      "outputs": [
        {
          "name": "",
          "type": "address"
        }
      ],
      "payable": false,
      "stateMutability": "view",
      "type": "function"
    },
    {
      "constant": true,
      "inputs": [],
      "name": "denominator",
      "outputs": [
        {
          "name": "",
          "type": "uint256"
        }
      ],
      "payable": false,
      "stateMutability": "view",
      "type": "function"
    },
    {
      "constant": true,
      "inputs": [],
      "name": "numerator",
      "outputs": [
        {
          "name": "",
          "type": "uint256"
        }
      ],
      "payable": false,
      "stateMutability": "view",
      "type": "function"
    },
    {
      "inputs": [
        {
          "name": "_feeToken",
          "type": "address"
        },
        {
          "name": "_numerator",
          "type": "uint256"
        },
        {
          "name": "_denominator",
          "type": "uint256"
        }
      ],
      "payable": false,
      "stateMutability": "nonpayable",
      "type": "constructor"
    }
  ],
  "bytecode": "0x608060405234801561001057600080fd5b506040516060806102c183398101604090815281516020830151919092015160038054600160a060020a03909416600160a060020a03199094169390931790925560005560015561025b806100666000396000f30060806040526004361061006c5763ffffffff7c01000000000000000000000000000000000000000000000000000000006000350416631d16c3ee81146100715780632a2b9932146100d2578063647846a5146100f957806396ce079514610137578063ce5f94541461014c575b600080fd5b34801561007d57600080fd5b506100a273ffffffffffffffffffffffffffffffffffffffff60043516602435610161565b6040805173ffffffffffffffffffffffffffffffffffffffff909316835260208301919091528051918290030190f35b3480156100de57600080fd5b506100e76101b4565b60408051918252519081900360200190f35b34801561010557600080fd5b5061010e6101ba565b6040805173ffffffffffffffffffffffffffffffffffffffff9092168252519081900360200190f35b34801561014357600080fd5b506100e76101d6565b34801561015857600080fd5b506100e76101dc565b600354600154600080549092839273ffffffffffffffffffffffffffffffffffffffff909116916101a9919061019d908763ffffffff6101e216565b9063ffffffff61021816565b915091509250929050565b60025481565b60035473ffffffffffffffffffffffffffffffffffffffff1690565b60015481565b60005481565b6000808315156101f55760009150610211565b5082820282848281151561020557fe5b041461020d57fe5b8091505b5092915050565b600080828481151561022657fe5b049493505050505600a165627a7a7230582074900776436fdbc1bb831b5a59fdf6811b905b899dba4b1966245660882647f20029",
  "source": "pragma solidity ^0.4.18;\n\nimport '../main/SimpleFeeCalculator.sol';\n\ncontract SimpleFeeCalculatorTest is SimpleFeeCalculator {\n  function SimpleFeeCalculatorTest(address _feeToken, uint _numerator,\n    uint _denominator)\n  SimpleFeeCalculator(_feeToken, _numerator, _denominator)\n  public {}\n}\n",
  "sourcePath": "/Users/novosma/Documents/swprojects/github.com/eth_option/contracts/test/SimpleFeeCalculatorTest.sol",
  "compiler": {
    "name": "solc",
    "version": "0.4.24+commit.e67f0147.Emscripten.clang"
  },
  "schemaVersion": "2.0.0",
  "updatedAt": "2018-06-06T07:17:16.610Z"
}