{
  "contractName": "StandardTokenMock",
  "abi": [
    {
      "constant": false,
      "inputs": [
        {
          "name": "_spender",
          "type": "address"
        },
        {
          "name": "_value",
          "type": "uint256"
        }
      ],
      "name": "approve",
      "outputs": [
        {
          "name": "",
          "type": "bool"
        }
      ],
      "payable": false,
      "stateMutability": "nonpayable",
      "type": "function"
    },
    {
      "constant": true,
      "inputs": [],
      "name": "totalSupply",
      "outputs": [
        {
          "name": "",
          "type": "uint256"
        }
      ],
      "payable": false,
      "stateMutability": "view",
      "type": "function"
    },
    {
      "constant": false,
      "inputs": [
        {
          "name": "_from",
          "type": "address"
        },
        {
          "name": "_to",
          "type": "address"
        },
        {
          "name": "_value",
          "type": "uint256"
        }
      ],
      "name": "transferFrom",
      "outputs": [
        {
          "name": "",
          "type": "bool"
        }
      ],
      "payable": false,
      "stateMutability": "nonpayable",
      "type": "function"
    },
    {
      "constant": false,
      "inputs": [
        {
          "name": "_spender",
          "type": "address"
        },
        {
          "name": "_subtractedValue",
          "type": "uint256"
        }
      ],
      "name": "decreaseApproval",
      "outputs": [
        {
          "name": "",
          "type": "bool"
        }
      ],
      "payable": false,
      "stateMutability": "nonpayable",
      "type": "function"
    },
    {
      "constant": true,
      "inputs": [
        {
          "name": "_owner",
          "type": "address"
        }
      ],
      "name": "balanceOf",
      "outputs": [
        {
          "name": "balance",
          "type": "uint256"
        }
      ],
      "payable": false,
      "stateMutability": "view",
      "type": "function"
    },
    {
      "constant": false,
      "inputs": [
        {
          "name": "_to",
          "type": "address"
        },
        {
          "name": "_value",
          "type": "uint256"
        }
      ],
      "name": "transfer",
      "outputs": [
        {
          "name": "",
          "type": "bool"
        }
      ],
      "payable": false,
      "stateMutability": "nonpayable",
      "type": "function"
    },
    {
      "constant": false,
      "inputs": [
        {
          "name": "_spender",
          "type": "address"
        },
        {
          "name": "_addedValue",
          "type": "uint256"
        }
      ],
      "name": "increaseApproval",
      "outputs": [
        {
          "name": "",
          "type": "bool"
        }
      ],
      "payable": false,
      "stateMutability": "nonpayable",
      "type": "function"
    },
    {
      "constant": true,
      "inputs": [
        {
          "name": "_owner",
          "type": "address"
        },
        {
          "name": "_spender",
          "type": "address"
        }
      ],
      "name": "allowance",
      "outputs": [
        {
          "name": "",
          "type": "uint256"
        }
      ],
      "payable": false,
      "stateMutability": "view",
      "type": "function"
    },
    {
      "inputs": [
        {
          "name": "initialAccount",
          "type": "address"
        },
        {
          "name": "initialBalance",
          "type": "uint256"
        }
      ],
      "payable": false,
      "stateMutability": "nonpayable",
      "type": "constructor"
    },
    {
      "anonymous": false,
      "inputs": [
        {
          "indexed": true,
          "name": "owner",
          "type": "address"
        },
        {
          "indexed": true,
          "name": "spender",
          "type": "address"
        },
        {
          "indexed": false,
          "name": "value",
          "type": "uint256"
        }
      ],
      "name": "Approval",
      "type": "event"
    },
    {
      "anonymous": false,
      "inputs": [
        {
          "indexed": true,
          "name": "from",
          "type": "address"
        },
        {
          "indexed": true,
          "name": "to",
          "type": "address"
        },
        {
          "indexed": false,
          "name": "value",
          "type": "uint256"
        }
      ],
      "name": "Transfer",
      "type": "event"
    }
  ],
  "bytecode": "0x608060405234801561001057600080fd5b506040516040806106d98339810160409081528151602092830151600160a060020a039091166000908152928390529120819055600155610683806100566000396000f3006080604052600436106100745763ffffffff60e060020a600035041663095ea7b3811461007957806318160ddd146100b157806323b872dd146100d8578063661884631461010257806370a0823114610126578063a9059cbb14610147578063d73dd6231461016b578063dd62ed3e1461018f575b600080fd5b34801561008557600080fd5b5061009d600160a060020a03600435166024356101b6565b604080519115158252519081900360200190f35b3480156100bd57600080fd5b506100c661020a565b60408051918252519081900360200190f35b3480156100e457600080fd5b5061009d600160a060020a0360043581169060243516604435610210565b34801561010e57600080fd5b5061009d600160a060020a0360043516602435610375565b34801561013257600080fd5b506100c6600160a060020a0360043516610453565b34801561015357600080fd5b5061009d600160a060020a036004351660243561046e565b34801561017757600080fd5b5061009d600160a060020a036004351660243561053d565b34801561019b57600080fd5b506100c6600160a060020a03600435811690602435166105c4565b336000818152600260209081526040808320600160a060020a03871680855290835281842086905581518681529151939490939092600080516020610638833981519152928290030190a350600192915050565b60015490565b6000600160a060020a038316151561022757600080fd5b600160a060020a03841660009081526020819052604090205482111561024c57600080fd5b600160a060020a038416600090815260026020908152604080832033845290915290205482111561027c57600080fd5b600160a060020a0384166000908152602081905260409020546102a5908363ffffffff6105ef16565b600160a060020a0380861660009081526020819052604080822093909355908516815220546102da908363ffffffff61060116565b600160a060020a0380851660009081526020818152604080832094909455918716815260028252828120338252909152205461031c908363ffffffff6105ef16565b600160a060020a0380861660008181526002602090815260408083203384528252918290209490945580518681529051928716939192600080516020610618833981519152929181900390910190a35060019392505050565b336000908152600260209081526040808320600160a060020a0386168452909152812054808311156103ca57336000908152600260209081526040808320600160a060020a03881684529091528120556103ff565b6103da818463ffffffff6105ef16565b336000908152600260209081526040808320600160a060020a03891684529091529020555b336000818152600260209081526040808320600160a060020a038916808552908352928190205481519081529051929392600080516020610638833981519152929181900390910190a35060019392505050565b600160a060020a031660009081526020819052604090205490565b6000600160a060020a038316151561048557600080fd5b336000908152602081905260409020548211156104a157600080fd5b336000908152602081905260409020546104c1908363ffffffff6105ef16565b3360009081526020819052604080822092909255600160a060020a038516815220546104f3908363ffffffff61060116565b600160a060020a038416600081815260208181526040918290209390935580518581529051919233926000805160206106188339815191529281900390910190a350600192915050565b336000908152600260209081526040808320600160a060020a0386168452909152812054610571908363ffffffff61060116565b336000818152600260209081526040808320600160a060020a038916808552908352928190208590558051948552519193600080516020610638833981519152929081900390910190a350600192915050565b600160a060020a03918216600090815260026020908152604080832093909416825291909152205490565b6000828211156105fb57fe5b50900390565b60008282018381101561061057fe5b93925050505600ddf252ad1be2c89b69c2b068fc378daa952ba7f163c4a11628f55a4df523b3ef8c5be1e5ebec7d5bd14f71427d1e84f3dd0314c0f7b2291e5b200ac8c7c3b925a165627a7a72305820b10a42554167d6e8c0836b249e34c99740bd0f80369930ece5fbf4dd9c3ee9cf0029",
  "source": "pragma solidity ^0.4.18;\n\nimport \"../token/ERC20/StandardToken.sol\";\n\n// mock class using StandardToken\ncontract StandardTokenMock is StandardToken {\n\n  function StandardTokenMock(address initialAccount, uint256 initialBalance) public {\n    balances[initialAccount] = initialBalance;\n    totalSupply_ = initialBalance;\n  }\n\n}\n",
  "sourcePath": "zeppelin-solidity/contracts/mocks/StandardTokenMock.sol",
  "compiler": {
    "name": "solc",
    "version": "0.4.24+commit.e67f0147.Emscripten.clang"
  },
  "schemaVersion": "2.0.0",
  "updatedAt": "2018-09-14T07:51:36.135Z"
}