{
  "contractName": "Weth",
  "abi": [
    {
      "constant": true,
      "inputs": [],
      "name": "name",
      "outputs": [
        {
          "name": "",
          "type": "string"
        }
      ],
      "payable": false,
      "stateMutability": "view",
      "type": "function"
    },
    {
      "constant": false,
      "inputs": [
        {
          "name": "_spender",
          "type": "address"
        },
        {
          "name": "_value",
          "type": "uint256"
        }
      ],
      "name": "approve",
      "outputs": [
        {
          "name": "",
          "type": "bool"
        }
      ],
      "payable": false,
      "stateMutability": "nonpayable",
      "type": "function"
    },
    {
      "constant": true,
      "inputs": [],
      "name": "totalSupply",
      "outputs": [
        {
          "name": "",
          "type": "uint256"
        }
      ],
      "payable": false,
      "stateMutability": "view",
      "type": "function"
    },
    {
      "constant": false,
      "inputs": [
        {
          "name": "_from",
          "type": "address"
        },
        {
          "name": "_to",
          "type": "address"
        },
        {
          "name": "_value",
          "type": "uint256"
        }
      ],
      "name": "transferFrom",
      "outputs": [
        {
          "name": "",
          "type": "bool"
        }
      ],
      "payable": false,
      "stateMutability": "nonpayable",
      "type": "function"
    },
    {
      "constant": true,
      "inputs": [],
      "name": "decimals",
      "outputs": [
        {
          "name": "",
          "type": "uint8"
        }
      ],
      "payable": false,
      "stateMutability": "view",
      "type": "function"
    },
    {
      "constant": false,
      "inputs": [
        {
          "name": "_spender",
          "type": "address"
        },
        {
          "name": "_subtractedValue",
          "type": "uint256"
        }
      ],
      "name": "decreaseApproval",
      "outputs": [
        {
          "name": "",
          "type": "bool"
        }
      ],
      "payable": false,
      "stateMutability": "nonpayable",
      "type": "function"
    },
    {
      "constant": true,
      "inputs": [
        {
          "name": "_owner",
          "type": "address"
        }
      ],
      "name": "balanceOf",
      "outputs": [
        {
          "name": "balance",
          "type": "uint256"
        }
      ],
      "payable": false,
      "stateMutability": "view",
      "type": "function"
    },
    {
      "constant": true,
      "inputs": [],
      "name": "symbol",
      "outputs": [
        {
          "name": "",
          "type": "string"
        }
      ],
      "payable": false,
      "stateMutability": "view",
      "type": "function"
    },
    {
      "constant": false,
      "inputs": [
        {
          "name": "_to",
          "type": "address"
        },
        {
          "name": "_value",
          "type": "uint256"
        }
      ],
      "name": "transfer",
      "outputs": [
        {
          "name": "",
          "type": "bool"
        }
      ],
      "payable": false,
      "stateMutability": "nonpayable",
      "type": "function"
    },
    {
      "constant": false,
      "inputs": [
        {
          "name": "_spender",
          "type": "address"
        },
        {
          "name": "_addedValue",
          "type": "uint256"
        }
      ],
      "name": "increaseApproval",
      "outputs": [
        {
          "name": "",
          "type": "bool"
        }
      ],
      "payable": false,
      "stateMutability": "nonpayable",
      "type": "function"
    },
    {
      "constant": true,
      "inputs": [
        {
          "name": "_owner",
          "type": "address"
        },
        {
          "name": "_spender",
          "type": "address"
        }
      ],
      "name": "allowance",
      "outputs": [
        {
          "name": "",
          "type": "uint256"
        }
      ],
      "payable": false,
      "stateMutability": "view",
      "type": "function"
    },
    {
      "payable": true,
      "stateMutability": "payable",
      "type": "fallback"
    },
    {
      "anonymous": false,
      "inputs": [
        {
          "indexed": true,
          "name": "owner",
          "type": "address"
        },
        {
          "indexed": true,
          "name": "spender",
          "type": "address"
        },
        {
          "indexed": false,
          "name": "value",
          "type": "uint256"
        }
      ],
      "name": "Approval",
      "type": "event"
    },
    {
      "anonymous": false,
      "inputs": [
        {
          "indexed": true,
          "name": "from",
          "type": "address"
        },
        {
          "indexed": true,
          "name": "to",
          "type": "address"
        },
        {
          "indexed": false,
          "name": "value",
          "type": "uint256"
        }
      ],
      "name": "Transfer",
      "type": "event"
    },
    {
      "constant": false,
      "inputs": [],
      "name": "deposit",
      "outputs": [],
      "payable": true,
      "stateMutability": "payable",
      "type": "function"
    },
    {
      "constant": false,
      "inputs": [
        {
          "name": "amount",
          "type": "uint256"
        }
      ],
      "name": "withdraw",
      "outputs": [],
      "payable": false,
      "stateMutability": "nonpayable",
      "type": "function"
    }
  ],
  "bytecode": "0x608060405234801561001057600080fd5b506108ab806100206000396000f3006080604052600436106100ab5763ffffffff60e060020a60003504166306fdde0381146100b5578063095ea7b31461013f57806318160ddd1461017757806323b872dd1461019e5780632e1a7d4d146101c8578063313ce567146101e0578063661884631461020b57806370a082311461022f57806395d89b4114610250578063a9059cbb14610265578063d0e30db0146100ab578063d73dd62314610289578063dd62ed3e146102ad575b6100b36102d4565b005b3480156100c157600080fd5b506100ca61031c565b6040805160208082528351818301528351919283929083019185019080838360005b838110156101045781810151838201526020016100ec565b50505050905090810190601f1680156101315780820380516001836020036101000a031916815260200191505b509250505060405180910390f35b34801561014b57600080fd5b50610163600160a060020a0360043516602435610348565b604080519115158252519081900360200190f35b34801561018357600080fd5b5061018c61039c565b60408051918252519081900360200190f35b3480156101aa57600080fd5b50610163600160a060020a03600435811690602435166044356103a2565b3480156101d457600080fd5b506100b3600435610507565b3480156101ec57600080fd5b506101f5610577565b6040805160ff9092168252519081900360200190f35b34801561021757600080fd5b50610163600160a060020a036004351660243561057c565b34801561023b57600080fd5b5061018c600160a060020a036004351661065a565b34801561025c57600080fd5b506100ca610675565b34801561027157600080fd5b50610163600160a060020a0360043516602435610696565b34801561029557600080fd5b50610163600160a060020a0360043516602435610765565b3480156102b957600080fd5b5061018c600160a060020a03600435811690602435166107ec565b336000908152602081905260409020546102f4903463ffffffff61081716565b33600090815260208190526040902055600154610317903463ffffffff61081716565b600155565b60408051808201909152600f8152608860020a6e57726170706564204574686572656d02602082015281565b336000818152600260209081526040808320600160a060020a03871680855290835281842086905581518681529151939490939092600080516020610860833981519152928290030190a350600192915050565b60015490565b6000600160a060020a03831615156103b957600080fd5b600160a060020a0384166000908152602081905260409020548211156103de57600080fd5b600160a060020a038416600090815260026020908152604080832033845290915290205482111561040e57600080fd5b600160a060020a038416600090815260208190526040902054610437908363ffffffff61082d16565b600160a060020a03808616600090815260208190526040808220939093559085168152205461046c908363ffffffff61081716565b600160a060020a038085166000908152602081815260408083209490945591871681526002825282812033825290915220546104ae908363ffffffff61082d16565b600160a060020a0380861660008181526002602090815260408083203384528252918290209490945580518681529051928716939192600080516020610840833981519152929181900390910190a35060019392505050565b33600090815260208190526040902054610527908263ffffffff61082d16565b3360009081526020819052604090205560015461054a908263ffffffff61082d16565b600155604051339082156108fc029083906000818181858888f19350505050151561057457600080fd5b50565b601281565b336000908152600260209081526040808320600160a060020a0386168452909152812054808311156105d157336000908152600260209081526040808320600160a060020a0388168452909152812055610606565b6105e1818463ffffffff61082d16565b336000908152600260209081526040808320600160a060020a03891684529091529020555b336000818152600260209081526040808320600160a060020a038916808552908352928190205481519081529051929392600080516020610860833981519152929181900390910190a35060019392505050565b600160a060020a031660009081526020819052604090205490565b604080518082019091526004815260e360020a630ae8aa8902602082015281565b6000600160a060020a03831615156106ad57600080fd5b336000908152602081905260409020548211156106c957600080fd5b336000908152602081905260409020546106e9908363ffffffff61082d16565b3360009081526020819052604080822092909255600160a060020a0385168152205461071b908363ffffffff61081716565b600160a060020a038416600081815260208181526040918290209390935580518581529051919233926000805160206108408339815191529281900390910190a350600192915050565b336000908152600260209081526040808320600160a060020a0386168452909152812054610799908363ffffffff61081716565b336000818152600260209081526040808320600160a060020a038916808552908352928190208590558051948552519193600080516020610860833981519152929081900390910190a350600192915050565b600160a060020a03918216600090815260026020908152604080832093909416825291909152205490565b60008282018381101561082657fe5b9392505050565b60008282111561083957fe5b509003905600ddf252ad1be2c89b69c2b068fc378daa952ba7f163c4a11628f55a4df523b3ef8c5be1e5ebec7d5bd14f71427d1e84f3dd0314c0f7b2291e5b200ac8c7c3b925a165627a7a723058208fa3f5a96215036e91fd62185d52e716fb3748927b9c7313da1fe319b8a45ccb0029",
  "source": "/*\n\nUsed for dev purposes instead of canonical wrapped ETH\n*/\n\npragma solidity ^0.4.19;\n\nimport 'zeppelin-solidity/contracts/math/SafeMath.sol';\nimport 'zeppelin-solidity/contracts/math/SafeMath.sol';\nimport 'zeppelin-solidity/contracts/token/ERC20/StandardToken.sol';\n\ncontract Weth is StandardToken {\n    using SafeMath for uint;\n\n  string constant public name = \"Wrapped Etherem\";\n  string constant public symbol = \"WETH\";\n  uint8 constant public decimals = 18;\n\n  /// @dev Fallback to calling deposit when ether is sent directly to contract.\n  function()\n    public\n    payable\n  {\n    deposit();\n  }\n\n  /// @dev Buys tokens with Ether, exchanging them 1:1.\n  function deposit()\n    public\n    payable\n  {\n    balances[msg.sender] = balances[msg.sender].add(msg.value);\n    totalSupply_ = totalSupply_.add(msg.value);\n  }\n\n  function withdraw(uint amount)\n    public\n  {\n    balances[msg.sender] = balances[msg.sender].sub(amount);\n    totalSupply_ = totalSupply_.sub(amount);\n    require(msg.sender.send(amount));\n  }\n}\n",
  "sourcePath": "/Users/novosma/Documents/swprojects/github.com/eth_option/contracts/test/Weth.sol",
  "compiler": {
    "name": "solc",
    "version": "0.4.24+commit.e67f0147.Emscripten.clang"
  },
  "schemaVersion": "2.0.0",
  "updatedAt": "2018-09-14T07:52:25.018Z"
}