{
  "contractName": "WithdrawableByOwner",
  "abi": [
    {
      "constant": true,
      "inputs": [],
      "name": "owner",
      "outputs": [
        {
          "name": "",
          "type": "address"
        }
      ],
      "payable": false,
      "stateMutability": "view",
      "type": "function"
    },
    {
      "constant": false,
      "inputs": [
        {
          "name": "newOwner",
          "type": "address"
        }
      ],
      "name": "transferOwnership",
      "outputs": [],
      "payable": false,
      "stateMutability": "nonpayable",
      "type": "function"
    },
    {
      "constant": true,
      "inputs": [],
      "name": "token",
      "outputs": [
        {
          "name": "",
          "type": "address"
        }
      ],
      "payable": false,
      "stateMutability": "view",
      "type": "function"
    },
    {
      "inputs": [
        {
          "name": "_erc20",
          "type": "address"
        }
      ],
      "payable": false,
      "stateMutability": "nonpayable",
      "type": "constructor"
    },
    {
      "anonymous": false,
      "inputs": [
        {
          "indexed": true,
          "name": "previousOwner",
          "type": "address"
        },
        {
          "indexed": true,
          "name": "newOwner",
          "type": "address"
        }
      ],
      "name": "OwnershipTransferred",
      "type": "event"
    },
    {
      "constant": false,
      "inputs": [
        {
          "name": "_amount",
          "type": "uint256"
        }
      ],
      "name": "withdraw",
      "outputs": [],
      "payable": false,
      "stateMutability": "nonpayable",
      "type": "function"
    }
  ],
  "bytecode": "0x608060405234801561001057600080fd5b50604051602080610409833981016040818152915160008054600160a060020a031990811633908117835560018054600160a060020a038087169190941617908190557f095ea7b30000000000000000000000000000000000000000000000000000000086526004860191909152600019602486015294519294169263095ea7b39260448083019360209383900390910190829087803b1580156100b357600080fd5b505af11580156100c7573d6000803e3d6000fd5b505050506040513d60208110156100dd57600080fd5b50505061031a806100ef6000396000f3006080604052600436106100485763ffffffff60e060020a6000350416632e1a7d4d811461004d5780638da5cb5b14610067578063f2fde38b14610098578063fc0c546a146100b9575b600080fd5b34801561005957600080fd5b506100656004356100ce565b005b34801561007357600080fd5b5061007c6101ad565b60408051600160a060020a039092168252519081900360200190f35b3480156100a457600080fd5b50610065600160a060020a03600435166101bc565b3480156100c557600080fd5b5061007c610243565b60008054600160a060020a031633146100e657600080fd5b600054600160a060020a031633146100fd57600080fd5b506001546040805160e060020a6370a082310281523060048201529051600160a060020a0390921691839183916370a08231916024808201926020929091908290030181600087803b15801561015257600080fd5b505af1158015610166573d6000803e3d6000fd5b505050506040513d602081101561017c57600080fd5b5051101561018957600080fd5b6000546101a990600160a060020a0383811691168463ffffffff61025216565b5050565b600054600160a060020a031681565b600054600160a060020a031633146101d357600080fd5b600160a060020a03811615156101e857600080fd5b60008054604051600160a060020a03808516939216917f8be0079c531659141344cd1fd0a4f28419497f9722a3daafe3b4186f6b6457e091a360008054600160a060020a031916600160a060020a0392909216919091179055565b600154600160a060020a031681565b82600160a060020a031663a9059cbb83836040518363ffffffff1660e060020a0281526004018083600160a060020a0316600160a060020a0316815260200182815260200192505050602060405180830381600087803b1580156102b557600080fd5b505af11580156102c9573d6000803e3d6000fd5b505050506040513d60208110156102df57600080fd5b505115156102e957fe5b5050505600a165627a7a72305820eb5cec4b4f9b72d4763d201eca8cf177f98d7e305f9487818fbd8585d9077edd0029",
  "source": "pragma solidity ^0.4.18;\n\nimport \"zeppelin-solidity/contracts/ownership/Ownable.sol\";\nimport \"zeppelin-solidity/contracts/token/ERC20/ERC20.sol\";\nimport \"zeppelin-solidity/contracts/token/ERC20/SafeERC20.sol\";\n\ncontract WithdrawableByOwner is Ownable {\n\n  using SafeERC20 for ERC20;\n  uint constant MAX_AMOUNT = 2**256 - 1;\n  address public token;\n\n  function WithdrawableByOwner(address _erc20) {\n    token = _erc20;\n    ERC20(token).approve(msg.sender, MAX_AMOUNT);\n  }\n\n  function withdraw(uint _amount) public onlyOwner {\n    require(msg.sender == owner);\n    ERC20 tokenErc20 = ERC20 (token);\n    require(tokenErc20.balanceOf(this) >= _amount);\n    tokenErc20.safeTransfer(owner, _amount);\n  }\n\n}\n",
  "sourcePath": "/Users/novosma/Documents/swprojects/github.com/eth_option/contracts/main/WithdrawableByOwner.sol",
  "compiler": {
    "name": "solc",
    "version": "0.4.24+commit.e67f0147.Emscripten.clang"
  },
  "schemaVersion": "2.0.0",
  "updatedAt": "2018-09-14T07:51:36.127Z"
}