{
  "contractName": "DAI",
  "abi": [
    {
      "constant": true,
      "inputs": [],
      "name": "name",
      "outputs": [
        {
          "name": "",
          "type": "string"
        }
      ],
      "payable": false,
      "stateMutability": "view",
      "type": "function"
    },
    {
      "constant": false,
      "inputs": [
        {
          "name": "_spender",
          "type": "address"
        },
        {
          "name": "_value",
          "type": "uint256"
        }
      ],
      "name": "approve",
      "outputs": [
        {
          "name": "",
          "type": "bool"
        }
      ],
      "payable": false,
      "stateMutability": "nonpayable",
      "type": "function"
    },
    {
      "constant": true,
      "inputs": [],
      "name": "totalSupply",
      "outputs": [
        {
          "name": "",
          "type": "uint256"
        }
      ],
      "payable": false,
      "stateMutability": "view",
      "type": "function"
    },
    {
      "constant": false,
      "inputs": [
        {
          "name": "_from",
          "type": "address"
        },
        {
          "name": "_to",
          "type": "address"
        },
        {
          "name": "_value",
          "type": "uint256"
        }
      ],
      "name": "transferFrom",
      "outputs": [
        {
          "name": "",
          "type": "bool"
        }
      ],
      "payable": false,
      "stateMutability": "nonpayable",
      "type": "function"
    },
    {
      "constant": true,
      "inputs": [],
      "name": "decimals",
      "outputs": [
        {
          "name": "",
          "type": "uint8"
        }
      ],
      "payable": false,
      "stateMutability": "view",
      "type": "function"
    },
    {
      "constant": false,
      "inputs": [
        {
          "name": "_spender",
          "type": "address"
        },
        {
          "name": "_subtractedValue",
          "type": "uint256"
        }
      ],
      "name": "decreaseApproval",
      "outputs": [
        {
          "name": "",
          "type": "bool"
        }
      ],
      "payable": false,
      "stateMutability": "nonpayable",
      "type": "function"
    },
    {
      "constant": true,
      "inputs": [
        {
          "name": "_owner",
          "type": "address"
        }
      ],
      "name": "balanceOf",
      "outputs": [
        {
          "name": "balance",
          "type": "uint256"
        }
      ],
      "payable": false,
      "stateMutability": "view",
      "type": "function"
    },
    {
      "constant": true,
      "inputs": [],
      "name": "symbol",
      "outputs": [
        {
          "name": "",
          "type": "string"
        }
      ],
      "payable": false,
      "stateMutability": "view",
      "type": "function"
    },
    {
      "constant": false,
      "inputs": [
        {
          "name": "_to",
          "type": "address"
        },
        {
          "name": "_value",
          "type": "uint256"
        }
      ],
      "name": "transfer",
      "outputs": [
        {
          "name": "",
          "type": "bool"
        }
      ],
      "payable": false,
      "stateMutability": "nonpayable",
      "type": "function"
    },
    {
      "constant": false,
      "inputs": [
        {
          "name": "_spender",
          "type": "address"
        },
        {
          "name": "_addedValue",
          "type": "uint256"
        }
      ],
      "name": "increaseApproval",
      "outputs": [
        {
          "name": "",
          "type": "bool"
        }
      ],
      "payable": false,
      "stateMutability": "nonpayable",
      "type": "function"
    },
    {
      "constant": true,
      "inputs": [
        {
          "name": "_owner",
          "type": "address"
        },
        {
          "name": "_spender",
          "type": "address"
        }
      ],
      "name": "allowance",
      "outputs": [
        {
          "name": "",
          "type": "uint256"
        }
      ],
      "payable": false,
      "stateMutability": "view",
      "type": "function"
    },
    {
      "inputs": [],
      "payable": false,
      "stateMutability": "nonpayable",
      "type": "constructor"
    },
    {
      "anonymous": false,
      "inputs": [
        {
          "indexed": true,
          "name": "owner",
          "type": "address"
        },
        {
          "indexed": true,
          "name": "spender",
          "type": "address"
        },
        {
          "indexed": false,
          "name": "value",
          "type": "uint256"
        }
      ],
      "name": "Approval",
      "type": "event"
    },
    {
      "anonymous": false,
      "inputs": [
        {
          "indexed": true,
          "name": "from",
          "type": "address"
        },
        {
          "indexed": true,
          "name": "to",
          "type": "address"
        },
        {
          "indexed": false,
          "name": "value",
          "type": "uint256"
        }
      ],
      "name": "Transfer",
      "type": "event"
    }
  ],
  "bytecode": "0x608060405234801561001057600080fd5b50600160a060020a03331660009081526020819052604090206a084595161401484a000000908190556001556107b58061004b6000396000f3006080604052600436106100955763ffffffff60e060020a60003504166306fdde03811461009a578063095ea7b31461012457806318160ddd1461015c57806323b872dd14610183578063313ce567146101ad57806366188463146101d857806370a08231146101fc57806395d89b411461009a578063a9059cbb1461021d578063d73dd62314610241578063dd62ed3e14610265575b600080fd5b3480156100a657600080fd5b506100af61028c565b6040805160208082528351818301528351919283929083019185019080838360005b838110156100e95781810151838201526020016100d1565b50505050905090810190601f1680156101165780820380516001836020036101000a031916815260200191505b509250505060405180910390f35b34801561013057600080fd5b50610148600160a060020a03600435166024356102ac565b604080519115158252519081900360200190f35b34801561016857600080fd5b50610171610304565b60408051918252519081900360200190f35b34801561018f57600080fd5b50610148600160a060020a036004358116906024351660443561030a565b3480156101b957600080fd5b506101c2610478565b6040805160ff9092168252519081900360200190f35b3480156101e457600080fd5b50610148600160a060020a036004351660243561047d565b34801561020857600080fd5b50610171600160a060020a0360043516610564565b34801561022957600080fd5b50610148600160a060020a036004351660243561057f565b34801561024d57600080fd5b50610148600160a060020a0360043516602435610666565b34801561027157600080fd5b50610171600160a060020a03600435811690602435166106f6565b604080518082019091526003815260e860020a6244414902602082015281565b600160a060020a033381166000818152600260209081526040808320948716808452948252808320869055805186815290519294939260008051602061076a833981519152929181900390910190a350600192915050565b60015490565b6000600160a060020a038316151561032157600080fd5b600160a060020a03841660009081526020819052604090205482111561034657600080fd5b600160a060020a038085166000908152600260209081526040808320339094168352929052205482111561037957600080fd5b600160a060020a0384166000908152602081905260409020546103a2908363ffffffff61072116565b600160a060020a0380861660009081526020819052604080822093909355908516815220546103d7908363ffffffff61073316565b600160a060020a038085166000908152602081815260408083209490945587831682526002815283822033909316825291909152205461041d908363ffffffff61072116565b600160a060020a0380861660008181526002602090815260408083203386168452825291829020949094558051868152905192871693919260008051602061074a833981519152929181900390910190a35060019392505050565b601281565b600160a060020a033381166000908152600260209081526040808320938616835292905290812054808311156104da57600160a060020a033381166000908152600260209081526040808320938816835292905290812055610511565b6104ea818463ffffffff61072116565b600160a060020a033381166000908152600260209081526040808320938916835292905220555b600160a060020a03338116600081815260026020908152604080832094891680845294825291829020548251908152915160008051602061076a8339815191529281900390910190a35060019392505050565b600160a060020a031660009081526020819052604090205490565b6000600160a060020a038316151561059657600080fd5b600160a060020a0333166000908152602081905260409020548211156105bb57600080fd5b600160a060020a0333166000908152602081905260409020546105e4908363ffffffff61072116565b600160a060020a033381166000908152602081905260408082209390935590851681522054610619908363ffffffff61073316565b600160a060020a038085166000818152602081815260409182902094909455805186815290519193339093169260008051602061074a83398151915292918290030190a350600192915050565b600160a060020a03338116600090815260026020908152604080832093861683529290529081205461069e908363ffffffff61073316565b600160a060020a03338116600081815260026020908152604080832094891680845294825291829020859055815194855290519293919260008051602061076a8339815191529281900390910190a350600192915050565b600160a060020a03918216600090815260026020908152604080832093909416825291909152205490565b60008282111561072d57fe5b50900390565b60008282018381101561074257fe5b93925050505600ddf252ad1be2c89b69c2b068fc378daa952ba7f163c4a11628f55a4df523b3ef8c5be1e5ebec7d5bd14f71427d1e84f3dd0314c0f7b2291e5b200ac8c7c3b925a165627a7a72305820a274c681d13437062ca665a4d0dc0e6be47a43196d69529d0c737ff38d9833e70029",
  "source": "/*\n\nUsed for dev purposes instead of canonical DAI\n*/\n\npragma solidity ^0.4.19;\n\nimport 'zeppelin-solidity/contracts/token/ERC20/StandardToken.sol';\n\ncontract DAI is StandardToken {\n  string constant public name = \"DAI\";\n  string constant public symbol = \"DAI\";\n  uint8 constant public decimals = 18;\n\n  function DAI () {\n    uint initialSupply = 10000000 * (10 ** 18);\n    balances[msg.sender] = initialSupply;\n    totalSupply_ = initialSupply;\n  }\n}\n",
  "sourcePath": "/Users/novosma/Documents/swprojects/github.com/eth_option/contracts/test/DAI.sol",
  "compiler": {
    "name": "solc",
    "version": "0.4.23+commit.124ca40d.Emscripten.clang"
  },
  "schemaVersion": "2.0.0",
  "updatedAt": "2018-06-01T08:15:55.823Z"
}