{
  "contractName": "MockWethOptionFactory",
  "abi": [
    {
      "constant": false,
      "inputs": [
        {
          "name": "_optionPair",
          "type": "address"
        },
        {
          "name": "_qty",
          "type": "uint256"
        }
      ],
      "name": "writeOptions",
      "outputs": [
        {
          "name": "",
          "type": "bool"
        }
      ],
      "payable": false,
      "stateMutability": "nonpayable",
      "type": "function"
    },
    {
      "constant": false,
      "inputs": [
        {
          "name": "_underlying",
          "type": "address"
        },
        {
          "name": "_basisToken",
          "type": "address"
        },
        {
          "name": "_strike",
          "type": "uint256"
        },
        {
          "name": "_underlyingQty",
          "type": "uint256"
        },
        {
          "name": "_expireTime",
          "type": "uint256"
        }
      ],
      "name": "createOptionPairContract",
      "outputs": [
        {
          "name": "",
          "type": "address"
        }
      ],
      "payable": false,
      "stateMutability": "nonpayable",
      "type": "function"
    },
    {
      "constant": true,
      "inputs": [],
      "name": "owner",
      "outputs": [
        {
          "name": "",
          "type": "address"
        }
      ],
      "payable": false,
      "stateMutability": "view",
      "type": "function"
    },
    {
      "constant": true,
      "inputs": [],
      "name": "feeCalculator",
      "outputs": [
        {
          "name": "",
          "type": "address"
        }
      ],
      "payable": false,
      "stateMutability": "view",
      "type": "function"
    },
    {
      "constant": false,
      "inputs": [
        {
          "name": "_optionPair",
          "type": "address"
        }
      ],
      "name": "exerciseAllAvailableOptions",
      "outputs": [],
      "payable": false,
      "stateMutability": "nonpayable",
      "type": "function"
    },
    {
      "constant": false,
      "inputs": [
        {
          "name": "newOwner",
          "type": "address"
        }
      ],
      "name": "transferOwnership",
      "outputs": [],
      "payable": false,
      "stateMutability": "nonpayable",
      "type": "function"
    },
    {
      "constant": false,
      "inputs": [
        {
          "name": "_token",
          "type": "address"
        },
        {
          "name": "_amount",
          "type": "uint256"
        }
      ],
      "name": "withdraw",
      "outputs": [],
      "payable": false,
      "stateMutability": "nonpayable",
      "type": "function"
    },
    {
      "constant": false,
      "inputs": [
        {
          "name": "_optionPair",
          "type": "address"
        },
        {
          "name": "_qty",
          "type": "uint256"
        }
      ],
      "name": "exerciseOptions",
      "outputs": [],
      "payable": false,
      "stateMutability": "nonpayable",
      "type": "function"
    },
    {
      "inputs": [
        {
          "name": "_feeCalculator",
          "type": "address"
        }
      ],
      "payable": false,
      "stateMutability": "nonpayable",
      "type": "constructor"
    },
    {
      "payable": true,
      "stateMutability": "payable",
      "type": "fallback"
    },
    {
      "anonymous": false,
      "inputs": [
        {
          "indexed": false,
          "name": "optionPair",
          "type": "address"
        },
        {
          "indexed": true,
          "name": "underlying",
          "type": "address"
        },
        {
          "indexed": true,
          "name": "basisToken",
          "type": "address"
        },
        {
          "indexed": false,
          "name": "strike",
          "type": "uint256"
        },
        {
          "indexed": false,
          "name": "underlyingQty",
          "type": "uint256"
        },
        {
          "indexed": false,
          "name": "expireTime",
          "type": "uint256"
        },
        {
          "indexed": false,
          "name": "creator",
          "type": "address"
        }
      ],
      "name": "OptionTokenCreated",
      "type": "event"
    },
    {
      "anonymous": false,
      "inputs": [
        {
          "indexed": true,
          "name": "previousOwner",
          "type": "address"
        },
        {
          "indexed": true,
          "name": "newOwner",
          "type": "address"
        }
      ],
      "name": "OwnershipTransferred",
      "type": "event"
    }
  ],
  "bytecode": "0x60806040526000805460a060020a60ff021916905534801561002057600080fd5b50604051602080613cf1833981016040525160008054600160a060020a0319908116339081179283905560018054600160a060020a038087169190941617905583929091161461006f57600080fd5b5050613c71806100806000396000f3006080604052600436106100745763ffffffff60e060020a6000350416630170327e8114610079578063808b61db146100b15780638da5cb5b146100fd578063b00eb9fe14610112578063cd6d4c2114610127578063f2fde38b1461014a578063f3fef3a31461016b578063ff514c221461018f575b600080fd5b34801561008557600080fd5b5061009d600160a060020a03600435166024356101b3565b604080519115158252519081900360200190f35b3480156100bd57600080fd5b506100e1600160a060020a03600435811690602435166044356064356084356104d3565b60408051600160a060020a039092168252519081900360200190f35b34801561010957600080fd5b506100e16105b8565b34801561011e57600080fd5b506100e16105c7565b34801561013357600080fd5b50610148600160a060020a03600435166105d6565b005b34801561015657600080fd5b50610148600160a060020a0360043516610710565b34801561017757600080fd5b50610148600160a060020a0360043516602435610797565b34801561019b57600080fd5b50610148600160a060020a0360043516602435610872565b600080600080600080600080600060149054906101000a900460ff161515156101db57600080fd5b6000805460a060020a60ff02191660a060020a1781556040805160e260020a630fb4945f02815290518c9950600160a060020a038a1692633ed2517c92600480820193602093909283900390910190829087803b15801561023b57600080fd5b505af115801561024f573d6000803e3d6000fd5b505050506040513d602081101561026557600080fd5b50516040805160e060020a636f307dc30281529051919750600160a060020a03891691636f307dc3916004808201926020929091908290030181600087803b1580156102b057600080fd5b505af11580156102c4573d6000803e3d6000fd5b505050506040513d60208110156102da57600080fd5b505194506102ee868a63ffffffff6108a916565b935086600160a060020a031663b00eb9fe6040518163ffffffff1660e060020a028152600401602060405180830381600087803b15801561032e57600080fd5b505af1158015610342573d6000803e3d6000fd5b505050506040513d602081101561035857600080fd5b50516040805160e160020a630e8b61f7028152600160a060020a038d81166004830152602482018d90528251939450841692631d16c3ee926044808401939192918290030181600087803b1580156103af57600080fd5b505af11580156103c3573d6000803e3d6000fd5b505050506040513d60408110156103d957600080fd5b5080516020909101519093509150600160a060020a03808416908616141561040d57610408858b8685016108df565b61042c565b600082111561042c57610421858b866108df565b61042c838b846108df565b6040805160e260020a633603aeff028152600481018b90523360248201526000604482018190529151600160a060020a038a169263d80ebbfc92606480820193602093909283900390910190829087803b15801561048957600080fd5b505af115801561049d573d6000803e3d6000fd5b505050506040513d60208110156104b357600080fd5b50516000805460a060020a60ff02191690559a9950505050505050505050565b6000808686868686600160009054906101000a9004600160a060020a03166104f9610ccf565b600160a060020a03968716815294861660208601526040808601949094526060850192909252608084015290921660a082015290519081900360c001906000f08015801561054b573d6000803e3d6000fd5b5060408051600160a060020a0380841682526020820189905281830188905260608201879052336080830152915192935081891692918a16917f520ef9f73dba48589a711c06c28f182d23c260bcf0e78aaea76d0008bbc414619181900360a00190a39695505050505050565b600054600160a060020a031681565b600154600160a060020a031681565b6000805460a060020a900460ff16156105ee57600080fd5b6000805460a060020a60ff02191660a060020a1781556040805160e260020a6304e3667b0281529051600160a060020a0385169263138d99ec92600480820193602093909283900390910190829087803b15801561064b57600080fd5b505af115801561065f573d6000803e3d6000fd5b505050506040513d602081101561067557600080fd5b50516040805160e060020a6370a082310281523360048201529051600160a060020a03909216916370a08231916024808201926020929091908290030181600087803b1580156106c457600080fd5b505af11580156106d8573d6000803e3d6000fd5b505050506040513d60208110156106ee57600080fd5b505190506106fc8282610a1b565b50506000805460a060020a60ff0219169055565b600054600160a060020a0316331461072757600080fd5b600160a060020a038116151561073c57600080fd5b60008054604051600160a060020a03808516939216917f8be0079c531659141344cd1fd0a4f28419497f9722a3daafe3b4186f6b6457e091a360008054600160a060020a031916600160a060020a0392909216919091179055565b60008054600160a060020a031633146107af57600080fd5b600054600160a060020a031633146107c657600080fd5b506040805160e060020a6370a08231028152306004820152905183918391600160a060020a038416916370a082319160248083019260209291908290030181600087803b15801561081657600080fd5b505af115801561082a573d6000803e3d6000fd5b505050506040513d602081101561084057600080fd5b5051101561084d57600080fd5b60005461086d90600160a060020a0383811691168463ffffffff610ba616565b505050565b60005460a060020a900460ff161561088957600080fd5b6000805460a060020a60ff02191660a060020a1790556106fc8282610a1b565b6000808315156108bc57600091506108d8565b508282028284828115156108cc57fe5b04146108d457fe5b8091505b5092915050565b826108fb600160a060020a03821633308563ffffffff610c3d16565b80600160a060020a031663095ea7b384846040518363ffffffff1660e060020a0281526004018083600160a060020a0316600160a060020a0316815260200182815260200192505050602060405180830381600087803b15801561095e57600080fd5b505af1158015610972573d6000803e3d6000fd5b505050506040513d602081101561098857600080fd5b50506040805160e160020a636eb1769f028152306004820152600160a060020a0385811660248301529151849284169163dd62ed3e9160448083019260209291908290030181600087803b1580156109df57600080fd5b505af11580156109f3573d6000803e3d6000fd5b505050506040513d6020811015610a0957600080fd5b505114610a1557600080fd5b50505050565b600080600084925082600160a060020a031663ba405a0c6040518163ffffffff1660e060020a028152600401602060405180830381600087803b158015610a6157600080fd5b505af1158015610a75573d6000803e3d6000fd5b505050506040513d6020811015610a8b57600080fd5b50516040805160e360020a6315b1ea010281529051919350610b14918691600160a060020a0387169163ad8f5008916004808201926020929091908290030181600087803b158015610adc57600080fd5b505af1158015610af0573d6000803e3d6000fd5b505050506040513d6020811015610b0657600080fd5b50519063ffffffff6108a916565b9050610b218286836108df565b6040805160e160020a6377d67161028152336004820152602481018690529051600160a060020a0385169163eface2c29160448083019260209291908290030181600087803b158015610b7357600080fd5b505af1158015610b87573d6000803e3d6000fd5b505050506040513d6020811015610b9d57600080fd5b50505050505050565b82600160a060020a031663a9059cbb83836040518363ffffffff1660e060020a0281526004018083600160a060020a0316600160a060020a0316815260200182815260200192505050602060405180830381600087803b158015610c0957600080fd5b505af1158015610c1d573d6000803e3d6000fd5b505050506040513d6020811015610c3357600080fd5b5051151561086d57fe5b6040805160e060020a6323b872dd028152600160a060020a0385811660048301528481166024830152604482018490529151918616916323b872dd916064808201926020929091908290030181600087803b158015610c9b57600080fd5b505af1158015610caf573d6000803e3d6000fd5b505050506040513d6020811015610cc557600080fd5b50511515610a1557fe5b604051612f6680610ce083390190560060806040526000805460a060020a61ffff0219168155600a553480156200002557600080fd5b5060405160c08062002f6683398101604090815281516020830151918301516060840151608085015160a0909501516000805433600160a060020a031991821617909155600180548216600160a060020a03808816919091179091556002805483168289161790556003859055600484905560058890556006805490921690831617905592949192909190858585858585620000c062000159565b604051809103906000f080158015620000dd573d6000803e3d6000fd5b5060078054600160a060020a031916600160a060020a0392909216919091179055620001086200016a565b604051809103906000f08015801562000125573d6000803e3d6000fd5b5060088054600160a060020a031916600160a060020a0392909216919091179055506200017b9a5050505050505050505050565b604051610af7806200197883390190565b604051610af7806200246f83390190565b6117ed806200018b6000396000f3006080604052600436106101245763ffffffff60e060020a600035041663138d99ec811461012957806313b91a041461015a57806329cb924d1461016f5780632e1a7d4d14610196578063310a1ee3146101c2578063313ce567146101d7578063328c616d146102025780633ed2517c14610217578063539348281461022c5780636dd7a166146102445780636f307dc31461025c57806373fde90b14610271578063853828b6146102925780638da5cb5b146102a75780639c2c2915146102bc578063ad8f5008146102d1578063b00eb9fe146102e6578063ba405a0c146102fb578063bd17350514610310578063d80ebbfc14610328578063eface2c214610351578063f2fde38b14610375578063fe0d94c114610398578063ff2c2caf146103b0575b600080fd5b34801561013557600080fd5b5061013e6103c5565b60408051600160a060020a039092168252519081900360200190f35b34801561016657600080fd5b5061013e6103d4565b34801561017b57600080fd5b506101846103e3565b60408051918252519081900360200190f35b3480156101a257600080fd5b506101ae6004356103fe565b604080519115158252519081900360200190f35b3480156101ce57600080fd5b50610184610462565b3480156101e357600080fd5b506101ec610468565b6040805160ff9092168252519081900360200190f35b34801561020e57600080fd5b50610184610478565b34801561022357600080fd5b506101846104f2565b34801561023857600080fd5b506101ae6004356104f8565b34801561025057600080fd5b506101ae600435610500565b34801561026857600080fd5b5061013e610538565b34801561027d57600080fd5b50610184600160a060020a0360043516610547565b34801561029e57600080fd5b506101ae6106da565b3480156102b357600080fd5b5061013e6107b7565b3480156102c857600080fd5b506101ae6107c6565b3480156102dd57600080fd5b50610184610930565b3480156102f257600080fd5b5061013e610936565b34801561030757600080fd5b5061013e610945565b34801561031c57600080fd5b506101ae600435610954565b34801561033457600080fd5b506101ae600435600160a060020a0360243516604435151561098d565b34801561035d57600080fd5b506101ae600160a060020a03600435166024356109df565b34801561038157600080fd5b50610396600160a060020a0360043516610a2f565b005b3480156103a457600080fd5b506101ae600435610ab6565b3480156103bc57600080fd5b50610184610aef565b600754600160a060020a031681565b600854600160a060020a031681565b600080600a5411156103f85750600a546103fb565b50425b90565b6000805460a060020a900460ff161561041657600080fd5b6000805460a060020a60ff02191660a060020a1790556005546104376103e3565b101561044257600080fd5b61044c3383610b6d565b6000805460a060020a60ff021916905592915050565b60055481565b60005460a860020a900460ff1681565b6007546040805160e060020a6318160ddd0281529051600092600160a060020a0316916318160ddd91600480830192602092919082900301818787803b1580156104c157600080fd5b505af11580156104d5573d6000803e3d6000fd5b505050506040513d60208110156104eb57600080fd5b5051905090565b60045481565b600a55600190565b6000805460a060020a900460ff161561051857600080fd5b6000805460a060020a60ff02191660a060020a17905561044c3383610f25565b600154600160a060020a031681565b6008546040805160e060020a6318160ddd0281529051600092600160a060020a0316916106d39183916318160ddd91600480830192602092919082900301818987803b15801561059657600080fd5b505af11580156105aa573d6000803e3d6000fd5b505050506040513d60208110156105c057600080fd5b50516040805160e060020a6370a08231028152600160a060020a03878116600483015291516106c7928616916370a082319160248083019260209291908290030181600087803b15801561061357600080fd5b505af1158015610627573d6000803e3d6000fd5b505050506040513d602081101561063d57600080fd5b50516001546040805160e060020a6370a082310281523060048201529051600160a060020a03909216916370a08231916024808201926020929091908290030181600087803b15801561068f57600080fd5b505af11580156106a3573d6000803e3d6000fd5b505050506040513d60208110156106b957600080fd5b50519063ffffffff6110df16565b9063ffffffff61111516565b9392505050565b6000805460a060020a900460ff16156106f257600080fd5b6000805460a060020a60ff02191660a060020a1790556005546107136103e3565b101561071e57600080fd5b6008546040805160e060020a6370a08231028152336004820181905291516107a293600160a060020a0316916370a082319160248083019260209291908290030181600087803b15801561077157600080fd5b505af1158015610785573d6000803e3d6000fd5b505050506040513d602081101561079b57600080fd5b5051610b6d565b90506000805460a060020a60ff021916905590565b600054600160a060020a031681565b600080548190819060a060020a900460ff16156107e257600080fd5b6000805460a060020a60ff02191660a060020a1781556007546040805160e060020a6370a082310281523360048201529051600160a060020a03909216926370a08231926024808401936020939083900390910190829087803b15801561084857600080fd5b505af115801561085c573d6000803e3d6000fd5b505050506040513d602081101561087257600080fd5b50516008546040805160e060020a6370a082310281523360048201529051929450600160a060020a03909116916370a08231916024808201926020929091908290030181600087803b1580156108c757600080fd5b505af11580156108db573d6000803e3d6000fd5b505050506040513d60208110156108f157600080fd5b505190508082101561090e576109073383610f25565b925061091b565b6109183382610f25565b92505b50506000805460a060020a60ff021916905590565b60035481565b600654600160a060020a031681565b600254600160a060020a031681565b6000805460a060020a900460ff161561096c57600080fd5b6000805460a060020a60ff02191660a060020a17905561044c82338061112c565b6000805460a060020a900460ff16156109a557600080fd5b6000805460a060020a60ff02191660a060020a1790556109c784843385611143565b6000805460a060020a60ff0219169055949350505050565b6000805460a060020a900460ff16156109f757600080fd5b6000805460a060020a60ff02191660a060020a179055610a1883338461140d565b6000805460a060020a60ff02191690559392505050565b600054600160a060020a03163314610a4657600080fd5b600160a060020a0381161515610a5b57600080fd5b60008054604051600160a060020a03808516939216917f8be0079c531659141344cd1fd0a4f28419497f9722a3daafe3b4186f6b6457e091a360008054600160a060020a031916600160a060020a0392909216919091179055565b6000805460a060020a900460ff1615610ace57600080fd5b6000805460a060020a60ff02191660a060020a17905561044c33808461140d565b6007546040805160e060020a6318160ddd0281529051600092600160a060020a0316916318160ddd91600480830192602092919082900301818787803b158015610b3857600080fd5b505af1158015610b4c573d6000803e3d6000fd5b505050506040513d6020811015610b6257600080fd5b505160095403905090565b6008546040805160e060020a6370a08231028152600160a060020a0385811660048301529151600093929092169183918291869185916370a082319160248082019260209290919082900301818887803b158015610bca57600080fd5b505af1158015610bde573d6000803e3d6000fd5b505050506040513d6020811015610bf457600080fd5b50511015610c0157600080fd5b6001546040805160e060020a6370a082310281523060048201529051600092610c59928992600160a060020a03909216916370a082319160248082019260209290919082900301818987803b15801561068f57600080fd5b1015610c6457600080fd5b6002546040805160e060020a6370a082310281523060048201529051600092610cbc928992600160a060020a03909216916370a082319160248082019260209290919082900301818987803b15801561068f57600080fd5b1015610cc757600080fd5b610ce2600160a060020a03841687308863ffffffff6115a516565b610da583600160a060020a03166318160ddd6040518163ffffffff1660e060020a028152600401602060405180830381600087803b158015610d2357600080fd5b505af1158015610d37573d6000803e3d6000fd5b505050506040513d6020811015610d4d57600080fd5b50516001546040805160e060020a6370a0823102815230600482015290516106c7928a92600160a060020a03909116916370a08231916024808201926020929091908290030181600087803b15801561068f57600080fd5b91506000821115610dcd57600154610dcd90600160a060020a0316878463ffffffff61163d16565b610e9083600160a060020a03166318160ddd6040518163ffffffff1660e060020a028152600401602060405180830381600087803b158015610e0e57600080fd5b505af1158015610e22573d6000803e3d6000fd5b505050506040513d6020811015610e3857600080fd5b50516002546040805160e060020a6370a0823102815230600482015290516106c7928a92600160a060020a03909116916370a08231916024808201926020929091908290030181600087803b15801561068f57600080fd5b90506000811115610eb857600254610eb890600160a060020a0316878363ffffffff61163d16565b82600160a060020a03166342966c68866040518263ffffffff1660e060020a02815260040180828152602001915050600060405180830381600087803b158015610f0157600080fd5b505af1158015610f15573d6000803e3d6000fd5b5060019998505050505050505050565b6007546008546040805160e060020a6370a08231028152600160a060020a038681166004830152915160009483169390921691859184916370a082319160248082019260209290919082900301818a87803b158015610f8357600080fd5b505af1158015610f97573d6000803e3d6000fd5b505050506040513d6020811015610fad57600080fd5b50511015610fba57600080fd5b8381600160a060020a03166370a08231876040518263ffffffff1660e060020a0281526004018082600160a060020a0316600160a060020a03168152602001915050602060405180830381600087803b15801561101657600080fd5b505af115801561102a573d6000803e3d6000fd5b505050506040513d602081101561104057600080fd5b5051101561104d57600080fd5b6110578585610b6d565b50611073600160a060020a03831686308763ffffffff6115a516565b81600160a060020a03166342966c68856040518263ffffffff1660e060020a02815260040180828152602001915050600060405180830381600087803b1580156110bc57600080fd5b505af11580156110d0573d6000803e3d6000fd5b50600198975050505050505050565b6000808315156110f2576000915061110e565b5082820282848281151561110257fe5b041461110a57fe5b8091505b5092915050565b600080828481151561112357fe5b04949350505050565b600061113b8484846001611143565b949350505050565b60008060006005546111536103e3565b1061115d57600080fd5b6000871161116a57600080fd5b60045461117e90889063ffffffff6110df16565b6001546040805160e160020a636eb1769f028152600160a060020a0389811660048301523060248301529151939550911692508391839163dd62ed3e9160448083019260209291908290030181600087803b1580156111dc57600080fd5b505af11580156111f0573d6000803e3d6000fd5b505050506040513d602081101561120657600080fd5b5051101561121357600080fd5b8181600160a060020a03166370a08231876040518263ffffffff1660e060020a0281526004018082600160a060020a0316600160a060020a03168152602001915050602060405180830381600087803b15801561126f57600080fd5b505af1158015611283573d6000803e3d6000fd5b505050506040513d602081101561129957600080fd5b505110156112a657600080fd5b6009546112b9908863ffffffff6116d916565b6009556112d7600160a060020a03821686308563ffffffff6115a516565b6007546040805160e060020a6340c10f19028152600160a060020a038981166004830152602482018b9052915191909216916340c10f199160448083019260209291908290030181600087803b15801561133057600080fd5b505af1158015611344573d6000803e3d6000fd5b505050506040513d602081101561135a57600080fd5b50506008546040805160e060020a6340c10f19028152600160a060020a038981166004830152602482018b9052915191909216916340c10f199160448083019260209291908290030181600087803b1580156113b557600080fd5b505af11580156113c9573d6000803e3d6000fd5b505050506040513d60208110156113df57600080fd5b505083156113f6576113f187876116e8565b611400565b61140087866116e8565b5060019695505050505050565b600080600060055461141d6103e3565b1061142757600080fd5b6007546040805160e060020a6370a08231028152600160a060020a0389811660048301529151919092169350859184916370a08231916024808201926020929091908290030181600087803b15801561147f57600080fd5b505af1158015611493573d6000803e3d6000fd5b505050506040513d60208110156114a957600080fd5b505110156114b657600080fd5b6003546114ca90859063ffffffff6110df16565b6002549091506114eb90600160a060020a031686308463ffffffff6115a516565b611506600160a060020a03831687308763ffffffff6115a516565b81600160a060020a03166342966c68856040518263ffffffff1660e060020a02815260040180828152602001915050600060405180830381600087803b15801561154f57600080fd5b505af1158015611563573d6000803e3d6000fd5b5050505061159986611580600454876110df90919063ffffffff16565b600154600160a060020a0316919063ffffffff61163d16565b50600195945050505050565b6040805160e060020a6323b872dd028152600160a060020a0385811660048301528481166024830152604482018490529151918616916323b872dd916064808201926020929091908290030181600087803b15801561160357600080fd5b505af1158015611617573d6000803e3d6000fd5b505050506040513d602081101561162d57600080fd5b5051151561163757fe5b50505050565b82600160a060020a031663a9059cbb83836040518363ffffffff1660e060020a0281526004018083600160a060020a0316600160a060020a0316815260200182815260200192505050602060405180830381600087803b1580156116a057600080fd5b505af11580156116b4573d6000803e3d6000fd5b505050506040513d60208110156116ca57600080fd5b505115156116d457fe5b505050565b60008282018381101561110a57fe5b60008054819081908190600160a060020a038681169116146117b9576006546040805160e160020a630e8b61f7028152306004820152602481018990528151600160a060020a0390931696508692631d16c3ee926044808401939192918290030181600087803b15801561175b57600080fd5b505af115801561176f573d6000803e3d6000fd5b505050506040513d604081101561178557600080fd5b5080516020909101516000549094509092508291506117b990600160a060020a03808416918891168663ffffffff6115a516565b5050505050505600a165627a7a723058204d9afdc1d512dada729d110ebc537d6e77357f4f9eb64dd7fe3d6b62064bad1b0029608060405260038054600160a860020a03191633179055610ad2806100256000396000f3006080604052600436106100d75763ffffffff60e060020a60003504166305d2035b81146100dc578063095ea7b31461010557806318160ddd1461012957806323b872dd14610150578063313ce5671461017a57806340c10f19146101a557806342966c68146101c9578063610ece1f146101e3578063661884631461021457806370a08231146102385780637d64bcb4146102595780638da5cb5b1461026e578063a9059cbb14610283578063d73dd623146102a7578063dd62ed3e146102cb578063e3b9ada2146102f2578063f2fde38b14610307575b600080fd5b3480156100e857600080fd5b506100f1610328565b604080519115158252519081900360200190f35b34801561011157600080fd5b506100f1600160a060020a0360043516602435610338565b34801561013557600080fd5b5061013e61038c565b60408051918252519081900360200190f35b34801561015c57600080fd5b506100f1600160a060020a0360043581169060243516604435610392565b34801561018657600080fd5b5061018f6104f7565b6040805160ff9092168252519081900360200190f35b3480156101b157600080fd5b506100f1600160a060020a03600435166024356104fc565b3480156101d557600080fd5b506101e16004356105f4565b005b3480156101ef57600080fd5b506101f86106a3565b60408051600160a060020a039092168252519081900360200190f35b34801561022057600080fd5b506100f1600160a060020a03600435166024356106b2565b34801561024457600080fd5b5061013e600160a060020a0360043516610790565b34801561026557600080fd5b506100f16107ab565b34801561027a57600080fd5b506101f8610821565b34801561028f57600080fd5b506100f1600160a060020a0360043516602435610830565b3480156102b357600080fd5b506100f1600160a060020a03600435166024356108ff565b3480156102d757600080fd5b5061013e600160a060020a0360043581169060243516610986565b3480156102fe57600080fd5b506100f16109b1565b34801561031357600080fd5b506101e1600160a060020a03600435166109b6565b60035460a060020a900460ff1681565b336000818152600260209081526040808320600160a060020a03871680855290835281842086905581518681529151939490939092600080516020610a87833981519152928290030190a350600192915050565b60015490565b6000600160a060020a03831615156103a957600080fd5b600160a060020a0384166000908152602081905260409020548211156103ce57600080fd5b600160a060020a03841660009081526002602090815260408083203384529091529020548211156103fe57600080fd5b600160a060020a038416600090815260208190526040902054610427908363ffffffff610a3e16565b600160a060020a03808616600090815260208190526040808220939093559085168152205461045c908363ffffffff610a5016565b600160a060020a0380851660009081526020818152604080832094909455918716815260028252828120338252909152205461049e908363ffffffff610a3e16565b600160a060020a0380861660008181526002602090815260408083203384528252918290209490945580518681529051928716939192600080516020610a67833981519152929181900390910190a35060019392505050565b601281565b600354600090600160a060020a0316331461051657600080fd5b60035460a060020a900460ff161561052d57600080fd5b600154610540908363ffffffff610a5016565b600155600160a060020a03831660009081526020819052604090205461056c908363ffffffff610a5016565b600160a060020a03841660008181526020818152604091829020939093558051858152905191927f0f6798a560793a54c3bcfe86a93cde1e73087d944c0ea20544137d412139688592918290030190a2604080518381529051600160a060020a03851691600091600080516020610a678339815191529181900360200190a350600192915050565b3360009081526020819052604081205482111561061057600080fd5b5033600081815260208190526040902054610631908363ffffffff610a3e16565b600160a060020a03821660009081526020819052604090205560015461065d908363ffffffff610a3e16565b600155604080518381529051600160a060020a038316917fcc16f5dbb4873280815c1ee09dbd06736cffcc184412cf7a71a0fdb75d397ca5919081900360200190a25050565b600354600160a060020a031690565b336000908152600260209081526040808320600160a060020a03861684529091528120548083111561070757336000908152600260209081526040808320600160a060020a038816845290915281205561073c565b610717818463ffffffff610a3e16565b336000908152600260209081526040808320600160a060020a03891684529091529020555b336000818152600260209081526040808320600160a060020a038916808552908352928190205481519081529051929392600080516020610a87833981519152929181900390910190a35060019392505050565b600160a060020a031660009081526020819052604090205490565b600354600090600160a060020a031633146107c557600080fd5b60035460a060020a900460ff16156107dc57600080fd5b6003805460a060020a60ff02191660a060020a1790556040517fae5184fba832cb2b1f702aca6117b8d265eaf03ad33eb133f19dde0f5920fa0890600090a150600190565b600354600160a060020a031681565b6000600160a060020a038316151561084757600080fd5b3360009081526020819052604090205482111561086357600080fd5b33600090815260208190526040902054610883908363ffffffff610a3e16565b3360009081526020819052604080822092909255600160a060020a038516815220546108b5908363ffffffff610a5016565b600160a060020a03841660008181526020818152604091829020939093558051858152905191923392600080516020610a678339815191529281900390910190a350600192915050565b336000908152600260209081526040808320600160a060020a0386168452909152812054610933908363ffffffff610a5016565b336000818152600260209081526040808320600160a060020a038916808552908352928190208590558051948552519193600080516020610a87833981519152929081900390910190a350600192915050565b600160a060020a03918216600090815260026020908152604080832093909416825291909152205490565b600090565b600354600160a060020a031633146109cd57600080fd5b600160a060020a03811615156109e257600080fd5b600354604051600160a060020a038084169216907f8be0079c531659141344cd1fd0a4f28419497f9722a3daafe3b4186f6b6457e090600090a360038054600160a060020a031916600160a060020a0392909216919091179055565b600082821115610a4a57fe5b50900390565b600082820183811015610a5f57fe5b93925050505600ddf252ad1be2c89b69c2b068fc378daa952ba7f163c4a11628f55a4df523b3ef8c5be1e5ebec7d5bd14f71427d1e84f3dd0314c0f7b2291e5b200ac8c7c3b925a165627a7a72305820b6e9d465db524e32b3787fc4e1c4bb67315463a1decc549d950a68c42115ea830029608060405260038054600160a860020a03191633179055610ad2806100256000396000f3006080604052600436106100d75763ffffffff60e060020a60003504166305d2035b81146100dc578063095ea7b31461010557806318160ddd1461012957806323b872dd14610150578063313ce5671461017a57806340c10f19146101a557806342966c68146101c9578063610ece1f146101e3578063661884631461021457806370a08231146102385780637d64bcb4146102595780638da5cb5b1461026e578063a9059cbb14610283578063d73dd623146102a7578063dd62ed3e146102cb578063e3b9ada2146102f2578063f2fde38b14610307575b600080fd5b3480156100e857600080fd5b506100f1610328565b604080519115158252519081900360200190f35b34801561011157600080fd5b506100f1600160a060020a0360043516602435610338565b34801561013557600080fd5b5061013e61038c565b60408051918252519081900360200190f35b34801561015c57600080fd5b506100f1600160a060020a0360043581169060243516604435610392565b34801561018657600080fd5b5061018f6104f7565b6040805160ff9092168252519081900360200190f35b3480156101b157600080fd5b506100f1600160a060020a03600435166024356104fc565b3480156101d557600080fd5b506101e16004356105f4565b005b3480156101ef57600080fd5b506101f86106a3565b60408051600160a060020a039092168252519081900360200190f35b34801561022057600080fd5b506100f1600160a060020a03600435166024356106b2565b34801561024457600080fd5b5061013e600160a060020a0360043516610790565b34801561026557600080fd5b506100f16107ab565b34801561027a57600080fd5b506101f8610821565b34801561028f57600080fd5b506100f1600160a060020a0360043516602435610830565b3480156102b357600080fd5b506100f1600160a060020a03600435166024356108ff565b3480156102d757600080fd5b5061013e600160a060020a0360043581169060243516610986565b3480156102fe57600080fd5b506100f16109b1565b34801561031357600080fd5b506101e1600160a060020a03600435166109b6565b60035460a060020a900460ff1681565b336000818152600260209081526040808320600160a060020a03871680855290835281842086905581518681529151939490939092600080516020610a87833981519152928290030190a350600192915050565b60015490565b6000600160a060020a03831615156103a957600080fd5b600160a060020a0384166000908152602081905260409020548211156103ce57600080fd5b600160a060020a03841660009081526002602090815260408083203384529091529020548211156103fe57600080fd5b600160a060020a038416600090815260208190526040902054610427908363ffffffff610a3e16565b600160a060020a03808616600090815260208190526040808220939093559085168152205461045c908363ffffffff610a5016565b600160a060020a0380851660009081526020818152604080832094909455918716815260028252828120338252909152205461049e908363ffffffff610a3e16565b600160a060020a0380861660008181526002602090815260408083203384528252918290209490945580518681529051928716939192600080516020610a67833981519152929181900390910190a35060019392505050565b601281565b600354600090600160a060020a0316331461051657600080fd5b60035460a060020a900460ff161561052d57600080fd5b600154610540908363ffffffff610a5016565b600155600160a060020a03831660009081526020819052604090205461056c908363ffffffff610a5016565b600160a060020a03841660008181526020818152604091829020939093558051858152905191927f0f6798a560793a54c3bcfe86a93cde1e73087d944c0ea20544137d412139688592918290030190a2604080518381529051600160a060020a03851691600091600080516020610a678339815191529181900360200190a350600192915050565b3360009081526020819052604081205482111561061057600080fd5b5033600081815260208190526040902054610631908363ffffffff610a3e16565b600160a060020a03821660009081526020819052604090205560015461065d908363ffffffff610a3e16565b600155604080518381529051600160a060020a038316917fcc16f5dbb4873280815c1ee09dbd06736cffcc184412cf7a71a0fdb75d397ca5919081900360200190a25050565b600354600160a060020a031690565b336000908152600260209081526040808320600160a060020a03861684529091528120548083111561070757336000908152600260209081526040808320600160a060020a038816845290915281205561073c565b610717818463ffffffff610a3e16565b336000908152600260209081526040808320600160a060020a03891684529091529020555b336000818152600260209081526040808320600160a060020a038916808552908352928190205481519081529051929392600080516020610a87833981519152929181900390910190a35060019392505050565b600160a060020a031660009081526020819052604090205490565b600354600090600160a060020a031633146107c557600080fd5b60035460a060020a900460ff16156107dc57600080fd5b6003805460a060020a60ff02191660a060020a1790556040517fae5184fba832cb2b1f702aca6117b8d265eaf03ad33eb133f19dde0f5920fa0890600090a150600190565b600354600160a060020a031681565b6000600160a060020a038316151561084757600080fd5b3360009081526020819052604090205482111561086357600080fd5b33600090815260208190526040902054610883908363ffffffff610a3e16565b3360009081526020819052604080822092909255600160a060020a038516815220546108b5908363ffffffff610a5016565b600160a060020a03841660008181526020818152604091829020939093558051858152905191923392600080516020610a678339815191529281900390910190a350600192915050565b336000908152600260209081526040808320600160a060020a0386168452909152812054610933908363ffffffff610a5016565b336000818152600260209081526040808320600160a060020a038916808552908352928190208590558051948552519193600080516020610a87833981519152929081900390910190a350600192915050565b600160a060020a03918216600090815260026020908152604080832093909416825291909152205490565b600190565b600354600160a060020a031633146109cd57600080fd5b600160a060020a03811615156109e257600080fd5b600354604051600160a060020a038084169216907f8be0079c531659141344cd1fd0a4f28419497f9722a3daafe3b4186f6b6457e090600090a360038054600160a060020a031916600160a060020a0392909216919091179055565b600082821115610a4a57fe5b50900390565b600082820183811015610a5f57fe5b93925050505600ddf252ad1be2c89b69c2b068fc378daa952ba7f163c4a11628f55a4df523b3ef8c5be1e5ebec7d5bd14f71427d1e84f3dd0314c0f7b2291e5b200ac8c7c3b925a165627a7a723058204e28f33b24133619dc607e93e7cc67ac68bd742f8607f5d409bc9a5d761a51360029a165627a7a72305820bfc1ef8d240d1466f780cf2fd14921eaa9c760cee4490725bcc3bb25629da4f10029",
  "source": "pragma solidity ^0.4.18;\n\nimport './MockOptionFactory.sol';\n\ncontract MockWethOptionFactory is MockOptionFactory {\n  function MockWethOptionFactory(address _feeCalculator)\n    MockOptionFactory(_feeCalculator) {\n    }\n}\n",
  "sourcePath": "/Users/novosma/Documents/swprojects/github.com/eth_option/contracts/test/MockWethOptionFactory.sol",
  "compiler": {
    "name": "solc",
    "version": "0.4.24+commit.e67f0147.Emscripten.clang"
  },
  "schemaVersion": "2.0.0",
  "updatedAt": "2018-06-01T08:17:08.033Z"
}