{
  "contractName": "OptionPair",
  "abi": [
    {
      "constant": true,
      "inputs": [],
      "name": "tokenOption",
      "outputs": [
        {
          "name": "",
          "type": "address"
        }
      ],
      "payable": false,
      "stateMutability": "view",
      "type": "function"
    },
    {
      "constant": true,
      "inputs": [],
      "name": "tokenAntiOption",
      "outputs": [
        {
          "name": "",
          "type": "address"
        }
      ],
      "payable": false,
      "stateMutability": "view",
      "type": "function"
    },
    {
      "constant": true,
      "inputs": [],
      "name": "expireTime",
      "outputs": [
        {
          "name": "",
          "type": "uint256"
        }
      ],
      "payable": false,
      "stateMutability": "view",
      "type": "function"
    },
    {
      "constant": true,
      "inputs": [],
      "name": "decimals",
      "outputs": [
        {
          "name": "",
          "type": "uint8"
        }
      ],
      "payable": false,
      "stateMutability": "view",
      "type": "function"
    },
    {
      "constant": true,
      "inputs": [],
      "name": "underlyingQty",
      "outputs": [
        {
          "name": "",
          "type": "uint256"
        }
      ],
      "payable": false,
      "stateMutability": "view",
      "type": "function"
    },
    {
      "constant": true,
      "inputs": [],
      "name": "underlying",
      "outputs": [
        {
          "name": "",
          "type": "address"
        }
      ],
      "payable": false,
      "stateMutability": "view",
      "type": "function"
    },
    {
      "constant": true,
      "inputs": [],
      "name": "owner",
      "outputs": [
        {
          "name": "",
          "type": "address"
        }
      ],
      "payable": false,
      "stateMutability": "view",
      "type": "function"
    },
    {
      "constant": true,
      "inputs": [],
      "name": "strike",
      "outputs": [
        {
          "name": "",
          "type": "uint256"
        }
      ],
      "payable": false,
      "stateMutability": "view",
      "type": "function"
    },
    {
      "constant": true,
      "inputs": [],
      "name": "feeCalculator",
      "outputs": [
        {
          "name": "",
          "type": "address"
        }
      ],
      "payable": false,
      "stateMutability": "view",
      "type": "function"
    },
    {
      "constant": true,
      "inputs": [],
      "name": "basisToken",
      "outputs": [
        {
          "name": "",
          "type": "address"
        }
      ],
      "payable": false,
      "stateMutability": "view",
      "type": "function"
    },
    {
      "constant": false,
      "inputs": [
        {
          "name": "newOwner",
          "type": "address"
        }
      ],
      "name": "transferOwnership",
      "outputs": [],
      "payable": false,
      "stateMutability": "nonpayable",
      "type": "function"
    },
    {
      "inputs": [
        {
          "name": "_underlying",
          "type": "address"
        },
        {
          "name": "_basisToken",
          "type": "address"
        },
        {
          "name": "_strike",
          "type": "uint256"
        },
        {
          "name": "_underlyingQty",
          "type": "uint256"
        },
        {
          "name": "_expireTime",
          "type": "uint256"
        },
        {
          "name": "_feeCalculator",
          "type": "address"
        }
      ],
      "payable": false,
      "stateMutability": "nonpayable",
      "type": "constructor"
    },
    {
      "payable": true,
      "stateMutability": "payable",
      "type": "fallback"
    },
    {
      "anonymous": false,
      "inputs": [
        {
          "indexed": true,
          "name": "previousOwner",
          "type": "address"
        },
        {
          "indexed": true,
          "name": "newOwner",
          "type": "address"
        }
      ],
      "name": "OwnershipTransferred",
      "type": "event"
    },
    {
      "constant": false,
      "inputs": [
        {
          "name": "_qty",
          "type": "uint256"
        }
      ],
      "name": "writeOptions",
      "outputs": [
        {
          "name": "",
          "type": "bool"
        }
      ],
      "payable": false,
      "stateMutability": "nonpayable",
      "type": "function"
    },
    {
      "constant": false,
      "inputs": [
        {
          "name": "_qty",
          "type": "uint256"
        },
        {
          "name": "_writer",
          "type": "address"
        },
        {
          "name": "_feeFromWriter",
          "type": "bool"
        }
      ],
      "name": "writeOptionsFor",
      "outputs": [
        {
          "name": "",
          "type": "bool"
        }
      ],
      "payable": false,
      "stateMutability": "nonpayable",
      "type": "function"
    },
    {
      "constant": false,
      "inputs": [
        {
          "name": "_qty",
          "type": "uint256"
        }
      ],
      "name": "annihilate",
      "outputs": [
        {
          "name": "",
          "type": "bool"
        }
      ],
      "payable": false,
      "stateMutability": "nonpayable",
      "type": "function"
    },
    {
      "constant": false,
      "inputs": [],
      "name": "annihilateAllAvailable",
      "outputs": [
        {
          "name": "",
          "type": "bool"
        }
      ],
      "payable": false,
      "stateMutability": "nonpayable",
      "type": "function"
    },
    {
      "constant": true,
      "inputs": [],
      "name": "getTotalOpenInterest",
      "outputs": [
        {
          "name": "res",
          "type": "uint256"
        }
      ],
      "payable": false,
      "stateMutability": "view",
      "type": "function"
    },
    {
      "constant": true,
      "inputs": [],
      "name": "getTotalExecuted",
      "outputs": [
        {
          "name": "res",
          "type": "uint256"
        }
      ],
      "payable": false,
      "stateMutability": "view",
      "type": "function"
    },
    {
      "constant": false,
      "inputs": [
        {
          "name": "_qty",
          "type": "uint256"
        }
      ],
      "name": "execute",
      "outputs": [
        {
          "name": "",
          "type": "bool"
        }
      ],
      "payable": false,
      "stateMutability": "nonpayable",
      "type": "function"
    },
    {
      "constant": false,
      "inputs": [
        {
          "name": "_buyer",
          "type": "address"
        },
        {
          "name": "_qty",
          "type": "uint256"
        }
      ],
      "name": "executeFor",
      "outputs": [
        {
          "name": "",
          "type": "bool"
        }
      ],
      "payable": false,
      "stateMutability": "nonpayable",
      "type": "function"
    },
    {
      "constant": false,
      "inputs": [],
      "name": "withdrawAll",
      "outputs": [
        {
          "name": "",
          "type": "bool"
        }
      ],
      "payable": false,
      "stateMutability": "nonpayable",
      "type": "function"
    },
    {
      "constant": false,
      "inputs": [
        {
          "name": "_qty",
          "type": "uint256"
        }
      ],
      "name": "withdraw",
      "outputs": [
        {
          "name": "",
          "type": "bool"
        }
      ],
      "payable": false,
      "stateMutability": "nonpayable",
      "type": "function"
    },
    {
      "constant": true,
      "inputs": [
        {
          "name": "holder",
          "type": "address"
        }
      ],
      "name": "getAvailableUnderlying",
      "outputs": [
        {
          "name": "",
          "type": "uint256"
        }
      ],
      "payable": false,
      "stateMutability": "view",
      "type": "function"
    },
    {
      "constant": true,
      "inputs": [],
      "name": "getCurrentTime",
      "outputs": [
        {
          "name": "",
          "type": "uint256"
        }
      ],
      "payable": false,
      "stateMutability": "view",
      "type": "function"
    },
    {
      "constant": false,
      "inputs": [
        {
          "name": "",
          "type": "uint256"
        }
      ],
      "name": "updateMockTime",
      "outputs": [
        {
          "name": "",
          "type": "bool"
        }
      ],
      "payable": false,
      "stateMutability": "nonpayable",
      "type": "function"
    }
  ],
  "bytecode": "0x60806040526000805460a060020a61ffff02191690553480156200002257600080fd5b5060405160c08062002f3f83398101604090815281516020830151918301516060840151608085015160a0909501516000805433600160a060020a031991821617909155600180548216600160a060020a03808816919091179091556002805483168289161790556003859055600484905560058890556006805490921690831617905592949192909190620000b76200014a565b604051809103906000f080158015620000d4573d6000803e3d6000fd5b5060078054600160a060020a031916600160a060020a0392909216919091179055620000ff6200015b565b604051809103906000f0801580156200011c573d6000803e3d6000fd5b5060088054600160a060020a031916600160a060020a0392909216919091179055506200016c945050505050565b604051610af7806200195183390190565b604051610af7806200244883390190565b6117d5806200017c6000396000f3006080604052600436106101245763ffffffff60e060020a600035041663138d99ec811461012957806313b91a041461015a57806329cb924d1461016f5780632e1a7d4d14610196578063310a1ee3146101c2578063313ce567146101d7578063328c616d146102025780633ed2517c14610217578063539348281461022c5780636dd7a166146102445780636f307dc31461025c57806373fde90b14610271578063853828b6146102925780638da5cb5b146102a75780639c2c2915146102bc578063ad8f5008146102d1578063b00eb9fe146102e6578063ba405a0c146102fb578063bd17350514610310578063d80ebbfc14610328578063eface2c214610351578063f2fde38b14610375578063fe0d94c114610398578063ff2c2caf146103b0575b600080fd5b34801561013557600080fd5b5061013e6103c5565b60408051600160a060020a039092168252519081900360200190f35b34801561016657600080fd5b5061013e6103d4565b34801561017b57600080fd5b506101846103e3565b60408051918252519081900360200190f35b3480156101a257600080fd5b506101ae6004356103e7565b604080519115158252519081900360200190f35b3480156101ce57600080fd5b5061018461044b565b3480156101e357600080fd5b506101ec610451565b6040805160ff9092168252519081900360200190f35b34801561020e57600080fd5b50610184610461565b34801561022357600080fd5b506101846104db565b34801561023857600080fd5b506101ae6004356104e1565b34801561025057600080fd5b506101ae6004356104e8565b34801561026857600080fd5b5061013e610520565b34801561027d57600080fd5b50610184600160a060020a036004351661052f565b34801561029e57600080fd5b506101ae6106c2565b3480156102b357600080fd5b5061013e61079f565b3480156102c857600080fd5b506101ae6107ae565b3480156102dd57600080fd5b50610184610918565b3480156102f257600080fd5b5061013e61091e565b34801561030757600080fd5b5061013e61092d565b34801561031c57600080fd5b506101ae60043561093c565b34801561033457600080fd5b506101ae600435600160a060020a03602435166044351515610975565b34801561035d57600080fd5b506101ae600160a060020a03600435166024356109c7565b34801561038157600080fd5b50610396600160a060020a0360043516610a17565b005b3480156103a457600080fd5b506101ae600435610a9e565b3480156103bc57600080fd5b50610184610ad7565b600754600160a060020a031681565b600854600160a060020a031681565b4290565b6000805460a060020a900460ff16156103ff57600080fd5b6000805460a060020a60ff02191660a060020a1790556005546104206103e3565b101561042b57600080fd5b6104353383610b55565b6000805460a060020a60ff021916905592915050565b60055481565b60005460a860020a900460ff1681565b6007546040805160e060020a6318160ddd0281529051600092600160a060020a0316916318160ddd91600480830192602092919082900301818787803b1580156104aa57600080fd5b505af11580156104be573d6000803e3d6000fd5b505050506040513d60208110156104d457600080fd5b5051905090565b60045481565b6000806000fd5b6000805460a060020a900460ff161561050057600080fd5b6000805460a060020a60ff02191660a060020a1790556104353383610f0d565b600154600160a060020a031681565b6008546040805160e060020a6318160ddd0281529051600092600160a060020a0316916106bb9183916318160ddd91600480830192602092919082900301818987803b15801561057e57600080fd5b505af1158015610592573d6000803e3d6000fd5b505050506040513d60208110156105a857600080fd5b50516040805160e060020a6370a08231028152600160a060020a03878116600483015291516106af928616916370a082319160248083019260209291908290030181600087803b1580156105fb57600080fd5b505af115801561060f573d6000803e3d6000fd5b505050506040513d602081101561062557600080fd5b50516001546040805160e060020a6370a082310281523060048201529051600160a060020a03909216916370a08231916024808201926020929091908290030181600087803b15801561067757600080fd5b505af115801561068b573d6000803e3d6000fd5b505050506040513d60208110156106a157600080fd5b50519063ffffffff6110c716565b9063ffffffff6110fd16565b9392505050565b6000805460a060020a900460ff16156106da57600080fd5b6000805460a060020a60ff02191660a060020a1790556005546106fb6103e3565b101561070657600080fd5b6008546040805160e060020a6370a082310281523360048201819052915161078a93600160a060020a0316916370a082319160248083019260209291908290030181600087803b15801561075957600080fd5b505af115801561076d573d6000803e3d6000fd5b505050506040513d602081101561078357600080fd5b5051610b55565b90506000805460a060020a60ff021916905590565b600054600160a060020a031681565b600080548190819060a060020a900460ff16156107ca57600080fd5b6000805460a060020a60ff02191660a060020a1781556007546040805160e060020a6370a082310281523360048201529051600160a060020a03909216926370a08231926024808401936020939083900390910190829087803b15801561083057600080fd5b505af1158015610844573d6000803e3d6000fd5b505050506040513d602081101561085a57600080fd5b50516008546040805160e060020a6370a082310281523360048201529051929450600160a060020a03909116916370a08231916024808201926020929091908290030181600087803b1580156108af57600080fd5b505af11580156108c3573d6000803e3d6000fd5b505050506040513d60208110156108d957600080fd5b50519050808210156108f6576108ef3383610f0d565b9250610903565b6109003382610f0d565b92505b50506000805460a060020a60ff021916905590565b60035481565b600654600160a060020a031681565b600254600160a060020a031681565b6000805460a060020a900460ff161561095457600080fd5b6000805460a060020a60ff02191660a060020a179055610435823380611114565b6000805460a060020a900460ff161561098d57600080fd5b6000805460a060020a60ff02191660a060020a1790556109af8484338561112b565b6000805460a060020a60ff0219169055949350505050565b6000805460a060020a900460ff16156109df57600080fd5b6000805460a060020a60ff02191660a060020a179055610a008333846113f5565b6000805460a060020a60ff02191690559392505050565b600054600160a060020a03163314610a2e57600080fd5b600160a060020a0381161515610a4357600080fd5b60008054604051600160a060020a03808516939216917f8be0079c531659141344cd1fd0a4f28419497f9722a3daafe3b4186f6b6457e091a360008054600160a060020a031916600160a060020a0392909216919091179055565b6000805460a060020a900460ff1615610ab657600080fd5b6000805460a060020a60ff02191660a060020a1790556104353380846113f5565b6007546040805160e060020a6318160ddd0281529051600092600160a060020a0316916318160ddd91600480830192602092919082900301818787803b158015610b2057600080fd5b505af1158015610b34573d6000803e3d6000fd5b505050506040513d6020811015610b4a57600080fd5b505160095403905090565b6008546040805160e060020a6370a08231028152600160a060020a0385811660048301529151600093929092169183918291869185916370a082319160248082019260209290919082900301818887803b158015610bb257600080fd5b505af1158015610bc6573d6000803e3d6000fd5b505050506040513d6020811015610bdc57600080fd5b50511015610be957600080fd5b6001546040805160e060020a6370a082310281523060048201529051600092610c41928992600160a060020a03909216916370a082319160248082019260209290919082900301818987803b15801561067757600080fd5b1015610c4c57600080fd5b6002546040805160e060020a6370a082310281523060048201529051600092610ca4928992600160a060020a03909216916370a082319160248082019260209290919082900301818987803b15801561067757600080fd5b1015610caf57600080fd5b610cca600160a060020a03841687308863ffffffff61158d16565b610d8d83600160a060020a03166318160ddd6040518163ffffffff1660e060020a028152600401602060405180830381600087803b158015610d0b57600080fd5b505af1158015610d1f573d6000803e3d6000fd5b505050506040513d6020811015610d3557600080fd5b50516001546040805160e060020a6370a0823102815230600482015290516106af928a92600160a060020a03909116916370a08231916024808201926020929091908290030181600087803b15801561067757600080fd5b91506000821115610db557600154610db590600160a060020a0316878463ffffffff61162516565b610e7883600160a060020a03166318160ddd6040518163ffffffff1660e060020a028152600401602060405180830381600087803b158015610df657600080fd5b505af1158015610e0a573d6000803e3d6000fd5b505050506040513d6020811015610e2057600080fd5b50516002546040805160e060020a6370a0823102815230600482015290516106af928a92600160a060020a03909116916370a08231916024808201926020929091908290030181600087803b15801561067757600080fd5b90506000811115610ea057600254610ea090600160a060020a0316878363ffffffff61162516565b82600160a060020a03166342966c68866040518263ffffffff1660e060020a02815260040180828152602001915050600060405180830381600087803b158015610ee957600080fd5b505af1158015610efd573d6000803e3d6000fd5b5060019998505050505050505050565b6007546008546040805160e060020a6370a08231028152600160a060020a038681166004830152915160009483169390921691859184916370a082319160248082019260209290919082900301818a87803b158015610f6b57600080fd5b505af1158015610f7f573d6000803e3d6000fd5b505050506040513d6020811015610f9557600080fd5b50511015610fa257600080fd5b8381600160a060020a03166370a08231876040518263ffffffff1660e060020a0281526004018082600160a060020a0316600160a060020a03168152602001915050602060405180830381600087803b158015610ffe57600080fd5b505af1158015611012573d6000803e3d6000fd5b505050506040513d602081101561102857600080fd5b5051101561103557600080fd5b61103f8585610b55565b5061105b600160a060020a03831686308763ffffffff61158d16565b81600160a060020a03166342966c68856040518263ffffffff1660e060020a02815260040180828152602001915050600060405180830381600087803b1580156110a457600080fd5b505af11580156110b8573d6000803e3d6000fd5b50600198975050505050505050565b6000808315156110da57600091506110f6565b508282028284828115156110ea57fe5b04146110f257fe5b8091505b5092915050565b600080828481151561110b57fe5b04949350505050565b6000611123848484600161112b565b949350505050565b600080600060055461113b6103e3565b1061114557600080fd5b6000871161115257600080fd5b60045461116690889063ffffffff6110c716565b6001546040805160e160020a636eb1769f028152600160a060020a0389811660048301523060248301529151939550911692508391839163dd62ed3e9160448083019260209291908290030181600087803b1580156111c457600080fd5b505af11580156111d8573d6000803e3d6000fd5b505050506040513d60208110156111ee57600080fd5b505110156111fb57600080fd5b8181600160a060020a03166370a08231876040518263ffffffff1660e060020a0281526004018082600160a060020a0316600160a060020a03168152602001915050602060405180830381600087803b15801561125757600080fd5b505af115801561126b573d6000803e3d6000fd5b505050506040513d602081101561128157600080fd5b5051101561128e57600080fd5b6009546112a1908863ffffffff6116c116565b6009556112bf600160a060020a03821686308563ffffffff61158d16565b6007546040805160e060020a6340c10f19028152600160a060020a038981166004830152602482018b9052915191909216916340c10f199160448083019260209291908290030181600087803b15801561131857600080fd5b505af115801561132c573d6000803e3d6000fd5b505050506040513d602081101561134257600080fd5b50506008546040805160e060020a6340c10f19028152600160a060020a038981166004830152602482018b9052915191909216916340c10f199160448083019260209291908290030181600087803b15801561139d57600080fd5b505af11580156113b1573d6000803e3d6000fd5b505050506040513d60208110156113c757600080fd5b505083156113de576113d987876116d0565b6113e8565b6113e887866116d0565b5060019695505050505050565b60008060006005546114056103e3565b1061140f57600080fd5b6007546040805160e060020a6370a08231028152600160a060020a0389811660048301529151919092169350859184916370a08231916024808201926020929091908290030181600087803b15801561146757600080fd5b505af115801561147b573d6000803e3d6000fd5b505050506040513d602081101561149157600080fd5b5051101561149e57600080fd5b6003546114b290859063ffffffff6110c716565b6002549091506114d390600160a060020a031686308463ffffffff61158d16565b6114ee600160a060020a03831687308763ffffffff61158d16565b81600160a060020a03166342966c68856040518263ffffffff1660e060020a02815260040180828152602001915050600060405180830381600087803b15801561153757600080fd5b505af115801561154b573d6000803e3d6000fd5b5050505061158186611568600454876110c790919063ffffffff16565b600154600160a060020a0316919063ffffffff61162516565b50600195945050505050565b6040805160e060020a6323b872dd028152600160a060020a0385811660048301528481166024830152604482018490529151918616916323b872dd916064808201926020929091908290030181600087803b1580156115eb57600080fd5b505af11580156115ff573d6000803e3d6000fd5b505050506040513d602081101561161557600080fd5b5051151561161f57fe5b50505050565b82600160a060020a031663a9059cbb83836040518363ffffffff1660e060020a0281526004018083600160a060020a0316600160a060020a0316815260200182815260200192505050602060405180830381600087803b15801561168857600080fd5b505af115801561169c573d6000803e3d6000fd5b505050506040513d60208110156116b257600080fd5b505115156116bc57fe5b505050565b6000828201838110156110f257fe5b60008054819081908190600160a060020a038681169116146117a1576006546040805160e160020a630e8b61f7028152306004820152602481018990528151600160a060020a0390931696508692631d16c3ee926044808401939192918290030181600087803b15801561174357600080fd5b505af1158015611757573d6000803e3d6000fd5b505050506040513d604081101561176d57600080fd5b5080516020909101516000549094509092508291506117a190600160a060020a03808416918891168663ffffffff61158d16565b5050505050505600a165627a7a72305820a9db37582324f888da572c1e0f51d81f83575da9aefbe9e488a7f4edc6f84ef10029608060405260038054600160a860020a03191633179055610ad2806100256000396000f3006080604052600436106100d75763ffffffff60e060020a60003504166305d2035b81146100dc578063095ea7b31461010557806318160ddd1461012957806323b872dd14610150578063313ce5671461017a57806340c10f19146101a557806342966c68146101c9578063610ece1f146101e3578063661884631461021457806370a08231146102385780637d64bcb4146102595780638da5cb5b1461026e578063a9059cbb14610283578063d73dd623146102a7578063dd62ed3e146102cb578063e3b9ada2146102f2578063f2fde38b14610307575b600080fd5b3480156100e857600080fd5b506100f1610328565b604080519115158252519081900360200190f35b34801561011157600080fd5b506100f1600160a060020a0360043516602435610338565b34801561013557600080fd5b5061013e61038c565b60408051918252519081900360200190f35b34801561015c57600080fd5b506100f1600160a060020a0360043581169060243516604435610392565b34801561018657600080fd5b5061018f6104f7565b6040805160ff9092168252519081900360200190f35b3480156101b157600080fd5b506100f1600160a060020a03600435166024356104fc565b3480156101d557600080fd5b506101e16004356105f4565b005b3480156101ef57600080fd5b506101f86106a3565b60408051600160a060020a039092168252519081900360200190f35b34801561022057600080fd5b506100f1600160a060020a03600435166024356106b2565b34801561024457600080fd5b5061013e600160a060020a0360043516610790565b34801561026557600080fd5b506100f16107ab565b34801561027a57600080fd5b506101f8610821565b34801561028f57600080fd5b506100f1600160a060020a0360043516602435610830565b3480156102b357600080fd5b506100f1600160a060020a03600435166024356108ff565b3480156102d757600080fd5b5061013e600160a060020a0360043581169060243516610986565b3480156102fe57600080fd5b506100f16109b1565b34801561031357600080fd5b506101e1600160a060020a03600435166109b6565b60035460a060020a900460ff1681565b336000818152600260209081526040808320600160a060020a03871680855290835281842086905581518681529151939490939092600080516020610a87833981519152928290030190a350600192915050565b60015490565b6000600160a060020a03831615156103a957600080fd5b600160a060020a0384166000908152602081905260409020548211156103ce57600080fd5b600160a060020a03841660009081526002602090815260408083203384529091529020548211156103fe57600080fd5b600160a060020a038416600090815260208190526040902054610427908363ffffffff610a3e16565b600160a060020a03808616600090815260208190526040808220939093559085168152205461045c908363ffffffff610a5016565b600160a060020a0380851660009081526020818152604080832094909455918716815260028252828120338252909152205461049e908363ffffffff610a3e16565b600160a060020a0380861660008181526002602090815260408083203384528252918290209490945580518681529051928716939192600080516020610a67833981519152929181900390910190a35060019392505050565b601281565b600354600090600160a060020a0316331461051657600080fd5b60035460a060020a900460ff161561052d57600080fd5b600154610540908363ffffffff610a5016565b600155600160a060020a03831660009081526020819052604090205461056c908363ffffffff610a5016565b600160a060020a03841660008181526020818152604091829020939093558051858152905191927f0f6798a560793a54c3bcfe86a93cde1e73087d944c0ea20544137d412139688592918290030190a2604080518381529051600160a060020a03851691600091600080516020610a678339815191529181900360200190a350600192915050565b3360009081526020819052604081205482111561061057600080fd5b5033600081815260208190526040902054610631908363ffffffff610a3e16565b600160a060020a03821660009081526020819052604090205560015461065d908363ffffffff610a3e16565b600155604080518381529051600160a060020a038316917fcc16f5dbb4873280815c1ee09dbd06736cffcc184412cf7a71a0fdb75d397ca5919081900360200190a25050565b600354600160a060020a031690565b336000908152600260209081526040808320600160a060020a03861684529091528120548083111561070757336000908152600260209081526040808320600160a060020a038816845290915281205561073c565b610717818463ffffffff610a3e16565b336000908152600260209081526040808320600160a060020a03891684529091529020555b336000818152600260209081526040808320600160a060020a038916808552908352928190205481519081529051929392600080516020610a87833981519152929181900390910190a35060019392505050565b600160a060020a031660009081526020819052604090205490565b600354600090600160a060020a031633146107c557600080fd5b60035460a060020a900460ff16156107dc57600080fd5b6003805460a060020a60ff02191660a060020a1790556040517fae5184fba832cb2b1f702aca6117b8d265eaf03ad33eb133f19dde0f5920fa0890600090a150600190565b600354600160a060020a031681565b6000600160a060020a038316151561084757600080fd5b3360009081526020819052604090205482111561086357600080fd5b33600090815260208190526040902054610883908363ffffffff610a3e16565b3360009081526020819052604080822092909255600160a060020a038516815220546108b5908363ffffffff610a5016565b600160a060020a03841660008181526020818152604091829020939093558051858152905191923392600080516020610a678339815191529281900390910190a350600192915050565b336000908152600260209081526040808320600160a060020a0386168452909152812054610933908363ffffffff610a5016565b336000818152600260209081526040808320600160a060020a038916808552908352928190208590558051948552519193600080516020610a87833981519152929081900390910190a350600192915050565b600160a060020a03918216600090815260026020908152604080832093909416825291909152205490565b600090565b600354600160a060020a031633146109cd57600080fd5b600160a060020a03811615156109e257600080fd5b600354604051600160a060020a038084169216907f8be0079c531659141344cd1fd0a4f28419497f9722a3daafe3b4186f6b6457e090600090a360038054600160a060020a031916600160a060020a0392909216919091179055565b600082821115610a4a57fe5b50900390565b600082820183811015610a5f57fe5b93925050505600ddf252ad1be2c89b69c2b068fc378daa952ba7f163c4a11628f55a4df523b3ef8c5be1e5ebec7d5bd14f71427d1e84f3dd0314c0f7b2291e5b200ac8c7c3b925a165627a7a72305820b6e9d465db524e32b3787fc4e1c4bb67315463a1decc549d950a68c42115ea830029608060405260038054600160a860020a03191633179055610ad2806100256000396000f3006080604052600436106100d75763ffffffff60e060020a60003504166305d2035b81146100dc578063095ea7b31461010557806318160ddd1461012957806323b872dd14610150578063313ce5671461017a57806340c10f19146101a557806342966c68146101c9578063610ece1f146101e3578063661884631461021457806370a08231146102385780637d64bcb4146102595780638da5cb5b1461026e578063a9059cbb14610283578063d73dd623146102a7578063dd62ed3e146102cb578063e3b9ada2146102f2578063f2fde38b14610307575b600080fd5b3480156100e857600080fd5b506100f1610328565b604080519115158252519081900360200190f35b34801561011157600080fd5b506100f1600160a060020a0360043516602435610338565b34801561013557600080fd5b5061013e61038c565b60408051918252519081900360200190f35b34801561015c57600080fd5b506100f1600160a060020a0360043581169060243516604435610392565b34801561018657600080fd5b5061018f6104f7565b6040805160ff9092168252519081900360200190f35b3480156101b157600080fd5b506100f1600160a060020a03600435166024356104fc565b3480156101d557600080fd5b506101e16004356105f4565b005b3480156101ef57600080fd5b506101f86106a3565b60408051600160a060020a039092168252519081900360200190f35b34801561022057600080fd5b506100f1600160a060020a03600435166024356106b2565b34801561024457600080fd5b5061013e600160a060020a0360043516610790565b34801561026557600080fd5b506100f16107ab565b34801561027a57600080fd5b506101f8610821565b34801561028f57600080fd5b506100f1600160a060020a0360043516602435610830565b3480156102b357600080fd5b506100f1600160a060020a03600435166024356108ff565b3480156102d757600080fd5b5061013e600160a060020a0360043581169060243516610986565b3480156102fe57600080fd5b506100f16109b1565b34801561031357600080fd5b506101e1600160a060020a03600435166109b6565b60035460a060020a900460ff1681565b336000818152600260209081526040808320600160a060020a03871680855290835281842086905581518681529151939490939092600080516020610a87833981519152928290030190a350600192915050565b60015490565b6000600160a060020a03831615156103a957600080fd5b600160a060020a0384166000908152602081905260409020548211156103ce57600080fd5b600160a060020a03841660009081526002602090815260408083203384529091529020548211156103fe57600080fd5b600160a060020a038416600090815260208190526040902054610427908363ffffffff610a3e16565b600160a060020a03808616600090815260208190526040808220939093559085168152205461045c908363ffffffff610a5016565b600160a060020a0380851660009081526020818152604080832094909455918716815260028252828120338252909152205461049e908363ffffffff610a3e16565b600160a060020a0380861660008181526002602090815260408083203384528252918290209490945580518681529051928716939192600080516020610a67833981519152929181900390910190a35060019392505050565b601281565b600354600090600160a060020a0316331461051657600080fd5b60035460a060020a900460ff161561052d57600080fd5b600154610540908363ffffffff610a5016565b600155600160a060020a03831660009081526020819052604090205461056c908363ffffffff610a5016565b600160a060020a03841660008181526020818152604091829020939093558051858152905191927f0f6798a560793a54c3bcfe86a93cde1e73087d944c0ea20544137d412139688592918290030190a2604080518381529051600160a060020a03851691600091600080516020610a678339815191529181900360200190a350600192915050565b3360009081526020819052604081205482111561061057600080fd5b5033600081815260208190526040902054610631908363ffffffff610a3e16565b600160a060020a03821660009081526020819052604090205560015461065d908363ffffffff610a3e16565b600155604080518381529051600160a060020a038316917fcc16f5dbb4873280815c1ee09dbd06736cffcc184412cf7a71a0fdb75d397ca5919081900360200190a25050565b600354600160a060020a031690565b336000908152600260209081526040808320600160a060020a03861684529091528120548083111561070757336000908152600260209081526040808320600160a060020a038816845290915281205561073c565b610717818463ffffffff610a3e16565b336000908152600260209081526040808320600160a060020a03891684529091529020555b336000818152600260209081526040808320600160a060020a038916808552908352928190205481519081529051929392600080516020610a87833981519152929181900390910190a35060019392505050565b600160a060020a031660009081526020819052604090205490565b600354600090600160a060020a031633146107c557600080fd5b60035460a060020a900460ff16156107dc57600080fd5b6003805460a060020a60ff02191660a060020a1790556040517fae5184fba832cb2b1f702aca6117b8d265eaf03ad33eb133f19dde0f5920fa0890600090a150600190565b600354600160a060020a031681565b6000600160a060020a038316151561084757600080fd5b3360009081526020819052604090205482111561086357600080fd5b33600090815260208190526040902054610883908363ffffffff610a3e16565b3360009081526020819052604080822092909255600160a060020a038516815220546108b5908363ffffffff610a5016565b600160a060020a03841660008181526020818152604091829020939093558051858152905191923392600080516020610a678339815191529281900390910190a350600192915050565b336000908152600260209081526040808320600160a060020a0386168452909152812054610933908363ffffffff610a5016565b336000818152600260209081526040808320600160a060020a038916808552908352928190208590558051948552519193600080516020610a87833981519152929081900390910190a350600192915050565b600160a060020a03918216600090815260026020908152604080832093909416825291909152205490565b600190565b600354600160a060020a031633146109cd57600080fd5b600160a060020a03811615156109e257600080fd5b600354604051600160a060020a038084169216907f8be0079c531659141344cd1fd0a4f28419497f9722a3daafe3b4186f6b6457e090600090a360038054600160a060020a031916600160a060020a0392909216919091179055565b600082821115610a4a57fe5b50900390565b600082820183811015610a5f57fe5b93925050505600ddf252ad1be2c89b69c2b068fc378daa952ba7f163c4a11628f55a4df523b3ef8c5be1e5ebec7d5bd14f71427d1e84f3dd0314c0f7b2291e5b200ac8c7c3b925a165627a7a723058204e28f33b24133619dc607e93e7cc67ac68bd742f8607f5d409bc9a5d761a51360029",
  "source": "pragma solidity ^0.4.18;\n\nimport 'zeppelin-solidity/contracts/math/SafeMath.sol';\nimport 'zeppelin-solidity/contracts/ownership/Ownable.sol';\nimport 'zeppelin-solidity/contracts/token/ERC20/ERC20.sol';\nimport 'zeppelin-solidity/contracts/token/ERC20/SafeERC20.sol';\nimport 'zeppelin-solidity/contracts/ReentrancyGuard.sol';\n\nimport './IFeeCalculator.sol';\nimport './TokenOption.sol';\nimport './TokenAntiOption.sol';\n\ncontract OptionPair is Ownable, ReentrancyGuard {\n  using SafeMath for uint256;\n  using SafeERC20 for TokenOption;\n  using SafeERC20 for ERC20;\n  using SafeERC20 for TokenAntiOption;\n\n  uint8 public decimals = 0; //we operate contracts at whole\n\n  address public underlying;\n  address public basisToken;\n  uint public strike;\n  uint public underlyingQty;\n  uint public expireTime;\n\n  address public feeCalculator;\n\n  address public tokenOption;\n  address public tokenAntiOption;\n\n  uint totalWritten;\n\n  modifier onlyBeforeExpiration() {\n    require(getCurrentTime() < expireTime);\n    _;\n  }\n\n  modifier onlyAfterExpiration() {\n    require(getCurrentTime() >= expireTime);\n    _;\n  }\n\n  function OptionPair (address _underlying, address _basisToken,\n    uint _strike, uint _underlyingQty, uint _expireTime,  address _feeCalculator)\n    Ownable()\n    ReentrancyGuard()\n    public\n    {\n      underlying = _underlying;\n      basisToken = _basisToken;\n      strike = _strike;\n      underlyingQty = _underlyingQty;\n      expireTime = _expireTime;\n      feeCalculator = _feeCalculator;\n      tokenOption = address(new TokenOption());\n      tokenAntiOption = address(new TokenAntiOption());\n  }\n\n  function () public payable {\n    revert();\n  }\n\n  function writeOptions(uint256 _qty) external nonReentrant returns (bool) {\n    return _writeOptionFor(_qty, msg.sender, msg.sender);\n  }\n\n  function writeOptionsFor(uint256 _qty, address _writer, bool _feeFromWriter) external nonReentrant returns (bool) {\n    return _writeOptionFor(_qty, _writer, msg.sender, _feeFromWriter);\n  }\n\n  function _writeOptionFor(uint256 _qty, address _writer, address _sponsor) private returns (bool) {\n    return _writeOptionFor(_qty, _writer, _sponsor, true);\n  }\n\n  function _writeOptionFor(uint256 _qty, address _writer, address _sponsor, bool _feeFromWriter) onlyBeforeExpiration private returns (bool) {\n    require(_qty > 0);\n    uint calcUnderlyngQty = _qty.mul(underlyingQty);\n    ERC20 underlyingErc20 =  ERC20(underlying);\n    require(underlyingErc20.allowance(_sponsor, this) >= calcUnderlyngQty); //TODO\n    require(underlyingErc20.balanceOf(_sponsor) >= calcUnderlyngQty);\n\n    totalWritten = totalWritten.add(_qty);\n\n    underlyingErc20.safeTransferFrom(_sponsor, this, calcUnderlyngQty);\n\n    TokenOption(tokenOption).mint(_writer, _qty);\n    TokenAntiOption(tokenAntiOption).mint(_writer, _qty);\n    if (_feeFromWriter) {\n      _takeFee(_qty, _writer);\n    } else {\n      _takeFee(_qty, _sponsor);\n    }\n\n    return true;\n  }\n\n  function annihilate(uint _qty) external nonReentrant returns (bool) {\n    return _annihilateFor(msg.sender, _qty);\n  }\n\n  function annihilateAllAvailable() external nonReentrant returns (bool) {\n    uint balanceOptions = ERC20(tokenOption).balanceOf(msg.sender);\n    uint balanceAntiOptions = ERC20(tokenAntiOption).balanceOf(msg.sender);\n    if (balanceOptions < balanceAntiOptions) {\n      return _annihilateFor(msg.sender, balanceOptions);\n    }\n    return _annihilateFor(msg.sender, balanceAntiOptions);\n  }\n\n  function _annihilateFor(address _holder, uint _qty) private returns (bool) {\n    TokenOption tokenOptionErc20 = TokenOption(tokenOption);\n    TokenAntiOption tokenAntiOptionErc20 = TokenAntiOption(tokenAntiOption);\n    require(tokenOptionErc20.balanceOf(_holder) >= _qty);\n    require(tokenAntiOptionErc20.balanceOf(_holder) >= _qty);\n\n    _withdrawFor(_holder, _qty); //anti-options are burned there\n    tokenOptionErc20.safeTransferFrom(_holder, this, _qty); //first we transfer into OptionPair accounnt as only from this account the tokens can be burned\n    tokenOptionErc20.burn(_qty);\n    return true;\n  }\n\n  function getTotalOpenInterest() public view returns(uint res) {\n    return ERC20(tokenOption).totalSupply();\n  }\n\n  function getTotalExecuted() public view returns(uint res) {\n    return totalWritten - ERC20(tokenOption).totalSupply();\n  }\n\n  function execute(uint _qty) external nonReentrant\n    returns (bool) {\n    return _executeFor(msg.sender, msg.sender, _qty);\n  }\n\n  function executeFor(address _buyer, uint _qty) external nonReentrant\n    returns (bool) {\n    return _executeFor(_buyer, msg.sender, _qty);\n  }\n\n  //from client perspective it is easier to approve option tokens for pair,\n  // butr unerlyiung and basis for some \"stable\" address, e.g. OptionFactory\n  function _executeFor (address _buyer, address _sponsorBasisTokens,  uint _qty)\n    private\n    onlyBeforeExpiration()\n    returns (bool) {\n    TokenOption tokenOptionObj =  TokenOption(tokenOption);\n    require (tokenOptionObj.balanceOf(_buyer) >= _qty);\n    uint baseAmount = _qty.mul(strike);\n    ERC20(basisToken).safeTransferFrom(_sponsorBasisTokens, this, baseAmount);\n    tokenOptionObj.safeTransferFrom(_buyer, this, _qty);\n    tokenOptionObj.burn(_qty);\n    ERC20(underlying).safeTransfer(_buyer, _qty.mul(underlyingQty));\n    return true;\n  }\n\n  function withdrawAll () external nonReentrant onlyAfterExpiration returns (bool) {\n    return _withdrawFor(msg.sender, TokenAntiOption(tokenAntiOption).balanceOf(msg.sender));\n  }\n\n  function withdraw (uint _qty) external nonReentrant onlyAfterExpiration returns (bool) {\n    return _withdrawFor(msg.sender, _qty);\n  }\n\n  function _withdrawFor(address _writer, uint _qty) private  returns (bool) {\n    TokenAntiOption tokenAntiOptionObj = TokenAntiOption(tokenAntiOption);\n    require (tokenAntiOptionObj.balanceOf(_writer) >= _qty);\n    require(ERC20(underlying).balanceOf(this).mul(_qty) >= 0); //to prevent oveflows\n    require(ERC20(basisToken).balanceOf(this).mul(_qty) >= 0); //to prevent oveflows\n\n    tokenAntiOptionObj.safeTransferFrom(_writer, this, _qty);\n\n    uint underlyingAvailableForAntiOption  =  ERC20(underlying).balanceOf(this).mul(_qty).div(tokenAntiOptionObj.totalSupply()); // can not use safe div\n    if (underlyingAvailableForAntiOption > 0) {\n        ERC20(underlying).safeTransfer(_writer, underlyingAvailableForAntiOption);\n    }\n\n    uint basisTokensAvailableForAntiOption  =  ERC20(basisToken).balanceOf(this).mul(_qty).div(tokenAntiOptionObj.totalSupply()); // can not use safe div\n    if (basisTokensAvailableForAntiOption > 0) {\n      ERC20(basisToken).safeTransfer(_writer, basisTokensAvailableForAntiOption);\n    }\n\n    tokenAntiOptionObj.burn(_qty);\n    return true;\n  }\n\n  function getAvailableUnderlying(address holder) public view returns(uint) {\n    TokenAntiOption tokenAntiOptionObj = TokenAntiOption(tokenAntiOption);\n    return ERC20(underlying).balanceOf(this).mul(tokenAntiOptionObj.balanceOf(holder)).div(tokenAntiOptionObj.totalSupply());\n  }\n\n  function getCurrentTime() public view returns (uint) { // made as function to be overridable for testing purposes\n    return now;\n  }\n\n  function updateMockTime(uint /* _mockTime */) public returns (bool) {\n    revert();\n  }\n\n  function _takeFee (uint _optionQty, address _feePayer) private {\n    if (_feePayer != owner) {\n      IFeeCalculator feeCalculatorObj =  IFeeCalculator(feeCalculator);\n      uint fee;\n      address feeToken;\n      (feeToken, fee) = feeCalculatorObj.calcFee(address(this), _optionQty);\n      ERC20 feeTokenObj = ERC20(feeToken);\n      feeTokenObj.safeTransferFrom(_feePayer, owner, fee);\n    }\n  }\n\n}\n",
  "sourcePath": "/Users/novosma/Documents/swprojects/github.com/eth_option/contracts/main/OptionPair.sol",
  "compiler": {
    "name": "solc",
    "version": "0.4.24+commit.e67f0147.Emscripten.clang"
  },
  "schemaVersion": "2.0.0",
  "updatedAt": "2018-05-31T17:10:21.915Z"
}