{
  "contractName": "TokenOption",
  "abi": [
    {
      "constant": true,
      "inputs": [],
      "name": "mintingFinished",
      "outputs": [
        {
          "name": "",
          "type": "bool"
        }
      ],
      "payable": false,
      "stateMutability": "view",
      "type": "function"
    },
    {
      "constant": false,
      "inputs": [
        {
          "name": "_spender",
          "type": "address"
        },
        {
          "name": "_value",
          "type": "uint256"
        }
      ],
      "name": "approve",
      "outputs": [
        {
          "name": "",
          "type": "bool"
        }
      ],
      "payable": false,
      "stateMutability": "nonpayable",
      "type": "function"
    },
    {
      "constant": true,
      "inputs": [],
      "name": "totalSupply",
      "outputs": [
        {
          "name": "",
          "type": "uint256"
        }
      ],
      "payable": false,
      "stateMutability": "view",
      "type": "function"
    },
    {
      "constant": false,
      "inputs": [
        {
          "name": "_from",
          "type": "address"
        },
        {
          "name": "_to",
          "type": "address"
        },
        {
          "name": "_value",
          "type": "uint256"
        }
      ],
      "name": "transferFrom",
      "outputs": [
        {
          "name": "",
          "type": "bool"
        }
      ],
      "payable": false,
      "stateMutability": "nonpayable",
      "type": "function"
    },
    {
      "constant": true,
      "inputs": [],
      "name": "decimals",
      "outputs": [
        {
          "name": "",
          "type": "uint8"
        }
      ],
      "payable": false,
      "stateMutability": "view",
      "type": "function"
    },
    {
      "constant": false,
      "inputs": [
        {
          "name": "_to",
          "type": "address"
        },
        {
          "name": "_amount",
          "type": "uint256"
        }
      ],
      "name": "mint",
      "outputs": [
        {
          "name": "",
          "type": "bool"
        }
      ],
      "payable": false,
      "stateMutability": "nonpayable",
      "type": "function"
    },
    {
      "constant": false,
      "inputs": [
        {
          "name": "_value",
          "type": "uint256"
        }
      ],
      "name": "burn",
      "outputs": [],
      "payable": false,
      "stateMutability": "nonpayable",
      "type": "function"
    },
    {
      "constant": true,
      "inputs": [],
      "name": "getOptionPair",
      "outputs": [
        {
          "name": "",
          "type": "address"
        }
      ],
      "payable": false,
      "stateMutability": "view",
      "type": "function"
    },
    {
      "constant": false,
      "inputs": [
        {
          "name": "_spender",
          "type": "address"
        },
        {
          "name": "_subtractedValue",
          "type": "uint256"
        }
      ],
      "name": "decreaseApproval",
      "outputs": [
        {
          "name": "",
          "type": "bool"
        }
      ],
      "payable": false,
      "stateMutability": "nonpayable",
      "type": "function"
    },
    {
      "constant": true,
      "inputs": [
        {
          "name": "_owner",
          "type": "address"
        }
      ],
      "name": "balanceOf",
      "outputs": [
        {
          "name": "balance",
          "type": "uint256"
        }
      ],
      "payable": false,
      "stateMutability": "view",
      "type": "function"
    },
    {
      "constant": false,
      "inputs": [],
      "name": "finishMinting",
      "outputs": [
        {
          "name": "",
          "type": "bool"
        }
      ],
      "payable": false,
      "stateMutability": "nonpayable",
      "type": "function"
    },
    {
      "constant": true,
      "inputs": [],
      "name": "owner",
      "outputs": [
        {
          "name": "",
          "type": "address"
        }
      ],
      "payable": false,
      "stateMutability": "view",
      "type": "function"
    },
    {
      "constant": false,
      "inputs": [
        {
          "name": "_to",
          "type": "address"
        },
        {
          "name": "_value",
          "type": "uint256"
        }
      ],
      "name": "transfer",
      "outputs": [
        {
          "name": "",
          "type": "bool"
        }
      ],
      "payable": false,
      "stateMutability": "nonpayable",
      "type": "function"
    },
    {
      "constant": false,
      "inputs": [
        {
          "name": "_spender",
          "type": "address"
        },
        {
          "name": "_addedValue",
          "type": "uint256"
        }
      ],
      "name": "increaseApproval",
      "outputs": [
        {
          "name": "",
          "type": "bool"
        }
      ],
      "payable": false,
      "stateMutability": "nonpayable",
      "type": "function"
    },
    {
      "constant": true,
      "inputs": [
        {
          "name": "_owner",
          "type": "address"
        },
        {
          "name": "_spender",
          "type": "address"
        }
      ],
      "name": "allowance",
      "outputs": [
        {
          "name": "",
          "type": "uint256"
        }
      ],
      "payable": false,
      "stateMutability": "view",
      "type": "function"
    },
    {
      "constant": false,
      "inputs": [
        {
          "name": "newOwner",
          "type": "address"
        }
      ],
      "name": "transferOwnership",
      "outputs": [],
      "payable": false,
      "stateMutability": "nonpayable",
      "type": "function"
    },
    {
      "anonymous": false,
      "inputs": [
        {
          "indexed": true,
          "name": "to",
          "type": "address"
        },
        {
          "indexed": false,
          "name": "amount",
          "type": "uint256"
        }
      ],
      "name": "Mint",
      "type": "event"
    },
    {
      "anonymous": false,
      "inputs": [],
      "name": "MintFinished",
      "type": "event"
    },
    {
      "anonymous": false,
      "inputs": [
        {
          "indexed": true,
          "name": "previousOwner",
          "type": "address"
        },
        {
          "indexed": true,
          "name": "newOwner",
          "type": "address"
        }
      ],
      "name": "OwnershipTransferred",
      "type": "event"
    },
    {
      "anonymous": false,
      "inputs": [
        {
          "indexed": true,
          "name": "burner",
          "type": "address"
        },
        {
          "indexed": false,
          "name": "value",
          "type": "uint256"
        }
      ],
      "name": "Burn",
      "type": "event"
    },
    {
      "anonymous": false,
      "inputs": [
        {
          "indexed": true,
          "name": "owner",
          "type": "address"
        },
        {
          "indexed": true,
          "name": "spender",
          "type": "address"
        },
        {
          "indexed": false,
          "name": "value",
          "type": "uint256"
        }
      ],
      "name": "Approval",
      "type": "event"
    },
    {
      "anonymous": false,
      "inputs": [
        {
          "indexed": true,
          "name": "from",
          "type": "address"
        },
        {
          "indexed": true,
          "name": "to",
          "type": "address"
        },
        {
          "indexed": false,
          "name": "value",
          "type": "uint256"
        }
      ],
      "name": "Transfer",
      "type": "event"
    },
    {
      "constant": true,
      "inputs": [],
      "name": "isAntiOption",
      "outputs": [
        {
          "name": "",
          "type": "bool"
        }
      ],
      "payable": false,
      "stateMutability": "view",
      "type": "function"
    }
  ],
  "bytecode": "0x608060405260038054600160a860020a03191633179055610ad2806100256000396000f3006080604052600436106100d75763ffffffff60e060020a60003504166305d2035b81146100dc578063095ea7b31461010557806318160ddd1461012957806323b872dd14610150578063313ce5671461017a57806340c10f19146101a557806342966c68146101c9578063610ece1f146101e3578063661884631461021457806370a08231146102385780637d64bcb4146102595780638da5cb5b1461026e578063a9059cbb14610283578063d73dd623146102a7578063dd62ed3e146102cb578063e3b9ada2146102f2578063f2fde38b14610307575b600080fd5b3480156100e857600080fd5b506100f1610328565b604080519115158252519081900360200190f35b34801561011157600080fd5b506100f1600160a060020a0360043516602435610338565b34801561013557600080fd5b5061013e61038c565b60408051918252519081900360200190f35b34801561015c57600080fd5b506100f1600160a060020a0360043581169060243516604435610392565b34801561018657600080fd5b5061018f6104f7565b6040805160ff9092168252519081900360200190f35b3480156101b157600080fd5b506100f1600160a060020a03600435166024356104fc565b3480156101d557600080fd5b506101e16004356105f4565b005b3480156101ef57600080fd5b506101f86106a3565b60408051600160a060020a039092168252519081900360200190f35b34801561022057600080fd5b506100f1600160a060020a03600435166024356106b2565b34801561024457600080fd5b5061013e600160a060020a0360043516610790565b34801561026557600080fd5b506100f16107ab565b34801561027a57600080fd5b506101f8610821565b34801561028f57600080fd5b506100f1600160a060020a0360043516602435610830565b3480156102b357600080fd5b506100f1600160a060020a03600435166024356108ff565b3480156102d757600080fd5b5061013e600160a060020a0360043581169060243516610986565b3480156102fe57600080fd5b506100f16109b1565b34801561031357600080fd5b506101e1600160a060020a03600435166109b6565b60035460a060020a900460ff1681565b336000818152600260209081526040808320600160a060020a03871680855290835281842086905581518681529151939490939092600080516020610a87833981519152928290030190a350600192915050565b60015490565b6000600160a060020a03831615156103a957600080fd5b600160a060020a0384166000908152602081905260409020548211156103ce57600080fd5b600160a060020a03841660009081526002602090815260408083203384529091529020548211156103fe57600080fd5b600160a060020a038416600090815260208190526040902054610427908363ffffffff610a3e16565b600160a060020a03808616600090815260208190526040808220939093559085168152205461045c908363ffffffff610a5016565b600160a060020a0380851660009081526020818152604080832094909455918716815260028252828120338252909152205461049e908363ffffffff610a3e16565b600160a060020a0380861660008181526002602090815260408083203384528252918290209490945580518681529051928716939192600080516020610a67833981519152929181900390910190a35060019392505050565b601281565b600354600090600160a060020a0316331461051657600080fd5b60035460a060020a900460ff161561052d57600080fd5b600154610540908363ffffffff610a5016565b600155600160a060020a03831660009081526020819052604090205461056c908363ffffffff610a5016565b600160a060020a03841660008181526020818152604091829020939093558051858152905191927f0f6798a560793a54c3bcfe86a93cde1e73087d944c0ea20544137d412139688592918290030190a2604080518381529051600160a060020a03851691600091600080516020610a678339815191529181900360200190a350600192915050565b3360009081526020819052604081205482111561061057600080fd5b5033600081815260208190526040902054610631908363ffffffff610a3e16565b600160a060020a03821660009081526020819052604090205560015461065d908363ffffffff610a3e16565b600155604080518381529051600160a060020a038316917fcc16f5dbb4873280815c1ee09dbd06736cffcc184412cf7a71a0fdb75d397ca5919081900360200190a25050565b600354600160a060020a031690565b336000908152600260209081526040808320600160a060020a03861684529091528120548083111561070757336000908152600260209081526040808320600160a060020a038816845290915281205561073c565b610717818463ffffffff610a3e16565b336000908152600260209081526040808320600160a060020a03891684529091529020555b336000818152600260209081526040808320600160a060020a038916808552908352928190205481519081529051929392600080516020610a87833981519152929181900390910190a35060019392505050565b600160a060020a031660009081526020819052604090205490565b600354600090600160a060020a031633146107c557600080fd5b60035460a060020a900460ff16156107dc57600080fd5b6003805460a060020a60ff02191660a060020a1790556040517fae5184fba832cb2b1f702aca6117b8d265eaf03ad33eb133f19dde0f5920fa0890600090a150600190565b600354600160a060020a031681565b6000600160a060020a038316151561084757600080fd5b3360009081526020819052604090205482111561086357600080fd5b33600090815260208190526040902054610883908363ffffffff610a3e16565b3360009081526020819052604080822092909255600160a060020a038516815220546108b5908363ffffffff610a5016565b600160a060020a03841660008181526020818152604091829020939093558051858152905191923392600080516020610a678339815191529281900390910190a350600192915050565b336000908152600260209081526040808320600160a060020a0386168452909152812054610933908363ffffffff610a5016565b336000818152600260209081526040808320600160a060020a038916808552908352928190208590558051948552519193600080516020610a87833981519152929081900390910190a350600192915050565b600160a060020a03918216600090815260026020908152604080832093909416825291909152205490565b600090565b600354600160a060020a031633146109cd57600080fd5b600160a060020a03811615156109e257600080fd5b600354604051600160a060020a038084169216907f8be0079c531659141344cd1fd0a4f28419497f9722a3daafe3b4186f6b6457e090600090a360038054600160a060020a031916600160a060020a0392909216919091179055565b600082821115610a4a57fe5b50900390565b600082820183811015610a5f57fe5b93925050505600ddf252ad1be2c89b69c2b068fc378daa952ba7f163c4a11628f55a4df523b3ef8c5be1e5ebec7d5bd14f71427d1e84f3dd0314c0f7b2291e5b200ac8c7c3b925a165627a7a72305820b6e9d465db524e32b3787fc4e1c4bb67315463a1decc549d950a68c42115ea830029",
  "source": "pragma solidity ^0.4.18;\n\nimport \"./BaseTokenOption.sol\";\n\ncontract TokenOption is BaseTokenOption {\n  function isAntiOption() public view returns(bool) {\n    return false;\n  }\n}\n",
  "sourcePath": "/Users/novosma/Documents/swprojects/github.com/eth_option/contracts/main/TokenOption.sol",
  "compiler": {
    "name": "solc",
    "version": "0.4.24+commit.e67f0147.Emscripten.clang"
  },
  "schemaVersion": "2.0.0",
  "updatedAt": "2018-06-01T08:15:55.815Z"
}