{
  "contractName": "Weth",
  "abi": [
    {
      "constant": true,
      "inputs": [],
      "name": "name",
      "outputs": [
        {
          "name": "",
          "type": "string"
        }
      ],
      "payable": false,
      "stateMutability": "view",
      "type": "function"
    },
    {
      "constant": false,
      "inputs": [
        {
          "name": "_spender",
          "type": "address"
        },
        {
          "name": "_value",
          "type": "uint256"
        }
      ],
      "name": "approve",
      "outputs": [
        {
          "name": "",
          "type": "bool"
        }
      ],
      "payable": false,
      "stateMutability": "nonpayable",
      "type": "function"
    },
    {
      "constant": true,
      "inputs": [],
      "name": "totalSupply",
      "outputs": [
        {
          "name": "",
          "type": "uint256"
        }
      ],
      "payable": false,
      "stateMutability": "view",
      "type": "function"
    },
    {
      "constant": false,
      "inputs": [
        {
          "name": "_from",
          "type": "address"
        },
        {
          "name": "_to",
          "type": "address"
        },
        {
          "name": "_value",
          "type": "uint256"
        }
      ],
      "name": "transferFrom",
      "outputs": [
        {
          "name": "",
          "type": "bool"
        }
      ],
      "payable": false,
      "stateMutability": "nonpayable",
      "type": "function"
    },
    {
      "constant": true,
      "inputs": [],
      "name": "decimals",
      "outputs": [
        {
          "name": "",
          "type": "uint8"
        }
      ],
      "payable": false,
      "stateMutability": "view",
      "type": "function"
    },
    {
      "constant": false,
      "inputs": [
        {
          "name": "_spender",
          "type": "address"
        },
        {
          "name": "_subtractedValue",
          "type": "uint256"
        }
      ],
      "name": "decreaseApproval",
      "outputs": [
        {
          "name": "",
          "type": "bool"
        }
      ],
      "payable": false,
      "stateMutability": "nonpayable",
      "type": "function"
    },
    {
      "constant": true,
      "inputs": [
        {
          "name": "_owner",
          "type": "address"
        }
      ],
      "name": "balanceOf",
      "outputs": [
        {
          "name": "balance",
          "type": "uint256"
        }
      ],
      "payable": false,
      "stateMutability": "view",
      "type": "function"
    },
    {
      "constant": true,
      "inputs": [],
      "name": "symbol",
      "outputs": [
        {
          "name": "",
          "type": "string"
        }
      ],
      "payable": false,
      "stateMutability": "view",
      "type": "function"
    },
    {
      "constant": false,
      "inputs": [
        {
          "name": "_to",
          "type": "address"
        },
        {
          "name": "_value",
          "type": "uint256"
        }
      ],
      "name": "transfer",
      "outputs": [
        {
          "name": "",
          "type": "bool"
        }
      ],
      "payable": false,
      "stateMutability": "nonpayable",
      "type": "function"
    },
    {
      "constant": false,
      "inputs": [
        {
          "name": "_spender",
          "type": "address"
        },
        {
          "name": "_addedValue",
          "type": "uint256"
        }
      ],
      "name": "increaseApproval",
      "outputs": [
        {
          "name": "",
          "type": "bool"
        }
      ],
      "payable": false,
      "stateMutability": "nonpayable",
      "type": "function"
    },
    {
      "constant": true,
      "inputs": [
        {
          "name": "_owner",
          "type": "address"
        },
        {
          "name": "_spender",
          "type": "address"
        }
      ],
      "name": "allowance",
      "outputs": [
        {
          "name": "",
          "type": "uint256"
        }
      ],
      "payable": false,
      "stateMutability": "view",
      "type": "function"
    },
    {
      "payable": true,
      "stateMutability": "payable",
      "type": "fallback"
    },
    {
      "anonymous": false,
      "inputs": [
        {
          "indexed": true,
          "name": "owner",
          "type": "address"
        },
        {
          "indexed": true,
          "name": "spender",
          "type": "address"
        },
        {
          "indexed": false,
          "name": "value",
          "type": "uint256"
        }
      ],
      "name": "Approval",
      "type": "event"
    },
    {
      "anonymous": false,
      "inputs": [
        {
          "indexed": true,
          "name": "from",
          "type": "address"
        },
        {
          "indexed": true,
          "name": "to",
          "type": "address"
        },
        {
          "indexed": false,
          "name": "value",
          "type": "uint256"
        }
      ],
      "name": "Transfer",
      "type": "event"
    },
    {
      "constant": false,
      "inputs": [],
      "name": "deposit",
      "outputs": [],
      "payable": true,
      "stateMutability": "payable",
      "type": "function"
    },
    {
      "constant": false,
      "inputs": [
        {
          "name": "amount",
          "type": "uint256"
        }
      ],
      "name": "withdraw",
      "outputs": [],
      "payable": false,
      "stateMutability": "nonpayable",
      "type": "function"
    }
  ],
  "bytecode": "0x608060405234801561001057600080fd5b5061090f806100206000396000f3006080604052600436106100ab5763ffffffff60e060020a60003504166306fdde0381146100b5578063095ea7b31461013f57806318160ddd1461017757806323b872dd1461019e5780632e1a7d4d146101c8578063313ce567146101e0578063661884631461020b57806370a082311461022f57806395d89b4114610250578063a9059cbb14610265578063d0e30db0146100ab578063d73dd62314610289578063dd62ed3e146102ad575b6100b36102d4565b005b3480156100c157600080fd5b506100ca61032e565b6040805160208082528351818301528351919283929083019185019080838360005b838110156101045781810151838201526020016100ec565b50505050905090810190601f1680156101315780820380516001836020036101000a031916815260200191505b509250505060405180910390f35b34801561014b57600080fd5b50610163600160a060020a036004351660243561035a565b604080519115158252519081900360200190f35b34801561018357600080fd5b5061018c6103b2565b60408051918252519081900360200190f35b3480156101aa57600080fd5b50610163600160a060020a03600435811690602435166044356103b8565b3480156101d457600080fd5b506100b3600435610526565b3480156101ec57600080fd5b506101f56105b1565b6040805160ff9092168252519081900360200190f35b34801561021757600080fd5b50610163600160a060020a03600435166024356105b6565b34801561023b57600080fd5b5061018c600160a060020a036004351661069d565b34801561025c57600080fd5b506100ca6106b8565b34801561027157600080fd5b50610163600160a060020a03600435166024356106d9565b34801561029557600080fd5b50610163600160a060020a03600435166024356107c0565b3480156102b957600080fd5b5061018c600160a060020a0360043581169060243516610850565b600160a060020a0333166000908152602081905260409020546102fd903463ffffffff61087b16565b600160a060020a033316600090815260208190526040902055600154610329903463ffffffff61087b16565b600155565b60408051808201909152600f8152608860020a6e57726170706564204574686572656d02602082015281565b600160a060020a03338116600081815260026020908152604080832094871680845294825280832086905580518681529051929493926000805160206108c4833981519152929181900390910190a350600192915050565b60015490565b6000600160a060020a03831615156103cf57600080fd5b600160a060020a0384166000908152602081905260409020548211156103f457600080fd5b600160a060020a038085166000908152600260209081526040808320339094168352929052205482111561042757600080fd5b600160a060020a038416600090815260208190526040902054610450908363ffffffff61089116565b600160a060020a038086166000908152602081905260408082209390935590851681522054610485908363ffffffff61087b16565b600160a060020a03808516600090815260208181526040808320949094558783168252600281528382203390931682529190915220546104cb908363ffffffff61089116565b600160a060020a038086166000818152600260209081526040808320338616845282529182902094909455805186815290519287169391926000805160206108a4833981519152929181900390910190a35060019392505050565b600160a060020a03331660009081526020819052604090205461054f908263ffffffff61089116565b600160a060020a03331660009081526020819052604090205560015461057b908263ffffffff61089116565b600155604051600160a060020a0333169082156108fc029083906000818181858888f1935050505015156105ae57600080fd5b50565b601281565b600160a060020a0333811660009081526002602090815260408083209386168352929052908120548083111561061357600160a060020a03338116600090815260026020908152604080832093881683529290529081205561064a565b610623818463ffffffff61089116565b600160a060020a033381166000908152600260209081526040808320938916835292905220555b600160a060020a0333811660008181526002602090815260408083209489168084529482529182902054825190815291516000805160206108c48339815191529281900390910190a35060019392505050565b600160a060020a031660009081526020819052604090205490565b604080518082019091526004815260e360020a630ae8aa8902602082015281565b6000600160a060020a03831615156106f057600080fd5b600160a060020a03331660009081526020819052604090205482111561071557600080fd5b600160a060020a03331660009081526020819052604090205461073e908363ffffffff61089116565b600160a060020a033381166000908152602081905260408082209390935590851681522054610773908363ffffffff61087b16565b600160a060020a03808516600081815260208181526040918290209490945580518681529051919333909316926000805160206108a483398151915292918290030190a350600192915050565b600160a060020a0333811660009081526002602090815260408083209386168352929052908120546107f8908363ffffffff61087b16565b600160a060020a0333811660008181526002602090815260408083209489168084529482529182902085905581519485529051929391926000805160206108c48339815191529281900390910190a350600192915050565b600160a060020a03918216600090815260026020908152604080832093909416825291909152205490565b60008282018381101561088a57fe5b9392505050565b60008282111561089d57fe5b509003905600ddf252ad1be2c89b69c2b068fc378daa952ba7f163c4a11628f55a4df523b3ef8c5be1e5ebec7d5bd14f71427d1e84f3dd0314c0f7b2291e5b200ac8c7c3b925a165627a7a72305820f44367a386249df1ca823352eba2d43c1d5eed9cbf1f9e9b9acb31306325384a0029",
  "source": "/*\n\nUsed for dev purposes instead of canonical wrapped ETH\n*/\n\npragma solidity ^0.4.19;\n\nimport 'zeppelin-solidity/contracts/math/SafeMath.sol';\nimport 'zeppelin-solidity/contracts/math/SafeMath.sol';\nimport 'zeppelin-solidity/contracts/token/ERC20/StandardToken.sol';\n\ncontract Weth is StandardToken {\n    using SafeMath for uint;\n\n  string constant public name = \"Wrapped Etherem\";\n  string constant public symbol = \"WETH\";\n  uint8 constant public decimals = 18;\n\n  /// @dev Fallback to calling deposit when ether is sent directly to contract.\n  function()\n    public\n    payable\n  {\n    deposit();\n  }\n\n  /// @dev Buys tokens with Ether, exchanging them 1:1.\n  function deposit()\n    public\n    payable\n  {\n    balances[msg.sender] = balances[msg.sender].add(msg.value);\n    totalSupply_ = totalSupply_.add(msg.value);\n  }\n\n  function withdraw(uint amount)\n    public\n  {\n    balances[msg.sender] = balances[msg.sender].sub(amount);\n    totalSupply_ = totalSupply_.sub(amount);\n    require(msg.sender.send(amount));\n  }\n}\n",
  "sourcePath": "/Users/novosma/Documents/swprojects/github.com/eth_option/contracts/test/Weth.sol",
  "compiler": {
    "name": "solc",
    "version": "0.4.23+commit.124ca40d.Emscripten.clang"
  },
  "schemaVersion": "2.0.0",
  "updatedAt": "2018-06-01T08:17:08.035Z"
}